S02B00002F686F6D652F6D696B652F446F63756D656E74732F63617269626F752D72746F732F6272616E6368A0
S315080000000001002021010008B10A0008210C00089F
S31508000010210C0008210C0008210C0008210C0008FE
S31508000020210C0008210C0008210C0008A10A000870
S31508000030210C0008210C0008F1060008B107000889
S31508000040710A0008710A0008710A0008710A000896
S31508000050710A0008710A0008710A0008710A000886
S31508000060710A0008710A0008710A0008710A000876
S31508000070710A0008710A0008710A0008710A000866
S31508000080710A0008710A0008710A0008710A000856
S31508000090710A0008710A0008710A0008710A000846
S315080000A0710A0008710A0008710A0008710A000836
S315080000B0710A0008710A0008710A0008710A000826
S315080000C030B5002085B000F08BF980250D4B6D000A
S315080000D000240093019502940B49002200230B4843
S315080000E000F016FA0A4B0B490093002200230195EB
S315080000F00294094800F00CFA00F06AF9002005B0ED
S3150800010030BDC046180200202102000870120008FF
S3150800011018030020310200087812000800000000C9
S3150800012072B6294880F30988022080F31488BFF341
S315080001306F8F26482449FA2200F03FF824482549BB
S31508000140FA2200F03AF824482449254A00F02AF809
S3150800015024482549002200F030F8244A90472448CC
S315080001602449254A904725482549884205D00268EA
S31508000170043003B4904703BCF7E7224A90470020AF
S3150800018000218646EC46204A904720482049884266
S3150800019005D00268043003B4904703BCF7E7BFE70D
S315080001A0FEE7FDE7884207D0521A05D003780130EA
S315080001B00B700131013AF9D17047884202D00270BA
S315080001C00130FAE770470000000200200001002015
S315080001D00000002000010020901200080002002004
S315080001E014020020180200205C0400207111000887
S315080001F05C04002000100020210A0008C000000846
S31508000200C0000008F1110008C1000008C00000087D
S31508000210C000000800000000000000000000000008
S31508000220FEE7C046000000000000000000000000D5
S31508000230FEE7C046000000000000000000000000C5
S315080002404F4B0122196882B01143196058684D490D
S315080002500140596018684C490140196018684B49B3
S315080002600140196058684A4901405960D96A0F2007
S315080002708143D962186B474901401963596BA0201D
S315080002809143002259639A6000920192196880226C
S3150800029052020A431A608022191C9202C00002E028
S315080002A0009B834208D00B6813400193009B0133DF
S315080002B00093019B002BF3D0314B1A6880239B02D5
S315080002C013402FD001230193019B1122012B2ED01D
S315080002D0314B2B481A604368802143604368890480
S315080002E0436042682A4B134043604268A0239B033D
S315080002F013434360026880235B0413430360036867
S315080003001F4A0B42FBD0536803218B435360516845
S3150800031002230B4353600C2153680B40082BFBD177
S3150800032002B070470193019B1122012BD0D11A4BC1
S3150800033013481A6043688021436043688904436010
S315080003404268134B13404360426888235B03134398
S315080003504360026880235B04134303600368084A0A
S315080003600B42FBD0536803218B4353605168022329
S315080003700B4353600C2153680B40082BFBD1CFE786
S31508000380001002400CB8FFF8FFFFF6FEFFFFFBFF68
S31508000390FFFFC0FFACFEFFFF002002400000000088
S315080003A008B500F08DFB08BD000000000000000045
S315080003B008B500F095FB08BD00000000000000002D
S315080003C008B500F09DFB08BD000000000000000015
S315080003D008B500F085F908BD00000000000000001F
S315080003E010B5041C00F0A4FB012000F0C1FB201C82
S315080003F000F00EF900F094FB10BDC04600000000A6
S31508000400EFF309807047C0460000000000000000B6
S315080004100D4B1A6882420DD112681A6012E01A68EA
S31508000420824204D0131C002BF9D109E0131C026880
S315080004301A6005E0002A03D013688342F3D1F5E772
S31508000440002303607047C04618040020000000001F
S3150800045010B5041C044BDB68002B02D0024A116954
S315080004609847201C10BDC046180400200000000054
S3150800047008B50C4B5B68002B12D030229B5E002B14
S315080004800ED100F05DFB00280AD0064A5368988B07
S3150800049002210143998301235B421381FFF790FFF1
S315080004A008BDC04618040020000000000000000037
S315080004B008B5044B5B68998B04220A439A83FFF7B5
S315080004C0D7FFFCE718040020000000000000000029
S315080004D038B5041C00F02CFB051CA28B042313431F
S315080004E0A383636B002B01D0606A9847201CFFF733
S315080004F08FFF201C00F0A4FA201C00F011FA281C1B
S3150800050000F026FB38BDC0460000000000000000D1
S31508000510F0B557464E464546E0B482B082460E1CB4
S3150800052091461F1C0A9D0CAB0022995E019100F0B2
S31508000530FFFA8046002D15D0281CFA210B9A00F0E8
S3150800054087FA0B9C403C2C19201C0021402200F005
S315080005507FFA2762294B636301239E43A66384239C
S315080005609B05E363264B5B681E1E01D1244B1E6860
S31508000570482000F05DFA041E09D00021482200F048
S3150800058067FA66600023A383002D04D10EE00820D5
S31508000590FFF75EFF27E00B9BEE18331C403BA3607A
S315080005A066612B1C40332361A56106E0154BA360E9
S315080005B06361154B2361403BA36151462162676223
S315080005C0019AE2834B4663630D4B1A68002A06D0EC
S315080005D01368002B01D01A1CFAE7146003E0084BD5
S315080005E01C6000232360404600F0B2FA201C02B0CB
S315080005F01CBC90469946A246F0BDC046B104000808
S31508000600180400200002002040010020000000001D
S3150800061030B585B0051C094C201C0021282200F0A5
S3150800062017FA00230093019302950548002100223A
S31508000630FFF76EFF606005B030BDC04618040020A5
S3150800064084120008000000000000000000000000FE
S315080006507047C046000000000000000000000000CF
S3150800066070B5FFF7F5FF1A4C206800F069F92468A1
S31508000670002C2BD0164E2568A3682269934203D90D
S315080006806269934204D80DE00120FFF7E1FE09E014
S31508000690A269934203D80420FFF7DAFE02E002209B
S315080006A0FFF7D6FEA368E268934201D3002A00D179
S315080006B0E360A38B5A0705D57368A34202D0201CB2
S315080006C0FFF706FF002D01D02C1CD4E770BDC046ED
S315080006D018040020000000000000000000000000D0
S315080006E008B5FFF7BDFFFFF7C3FEFAE700000000F5
S315080006F000B5EFF309801038F0C044464D4656461B
S315080007005F462038F0C0103880F30988234B5968B3
S31508000710802292040A435A605968802212050A43C5
S315080007205A601F4C6568FFF76BFEA86063681D4A30
S315080007301268DA6330229B5E002B1ED1184A138991
S31508000740013B9BB213811BB2002B16DA1668141CE8
S31508000750101C0621022501E0AA439A8363681B68D8
S31508000760002B00D1331C43609A8B1142F4D1D98BEC
S315080007700B4A1181DA6B0B4B1A60094B5B689B6855
S3150800078083F30988EFF30980F0C8BB46B246A94649
S31508000790A046F0C880F3098800BDC04600ED00E019
S315080007A0180400204004002000000000000000009B
S315080007B000B5EFF309801038F0C044464D4656465A
S315080007C05F462038F0C0103880F309882E4B5968E8
S315080007D0802292041143596059680A435A6080225C
S315080007E0D2009023DB059A61284C6568FFF708FE5E
S315080007F0A86001220023A069E16980185941A06117
S31508000800E16161688C6ACD6A12196B418A62CB62B2
S315080008101F4B1B68CB6330254B5F002B1ED11B4A31
S315080008201389013B9BB213811BB2002B16DA16689B
S31508000830141C101C0621022501E0AA439A8363684A
S315080008401B68002B00D1331C43609A8B1142F4D1EC
S31508000850D98B0E4A1181DA6B0D4B1A600B4B5B680C
S315080008609B6883F309888022D2009023DB051A85CA
S31508000870EFF30980F0C8BB46B246A946A046F0C8C1
S3150800088080F3098800BDC04600ED00E0180400208A
S3150800089040040020000000000000000000000000E6
S315080008A038B5041C0D1CFFF77BFD25616561FFF754
S315080008B07FFD201C38BDC046000000000000000077
S315080008C070B5051C0C1CFFF76BFD061C201C0021CF
S315080008D0FFF7E6FFFFF764FDAA6B944206D163684B
S315080008E0AB63002B0FD000221A600CE02368002BA4
S315080008F001D062685A606368002B01D022681A60CA
S31508000900002363602360FFF753FD237EDA0702D5D1
S31508000910201C00F095F8301CFFF74AFD70BDC04654
S3150800092010B5041C816B002905D0201CFFF7C8FFF1
S31508000930A16B0029F9D110BD0000000000000000DD
S31508000940F8B55F4656464D464446F0B4804600F034
S31508000950B7F88346204B9A69D9691F6AD71B31D0E5
S315080009601A625962414600292CD000260222924674
S315080009700123994641468C6B002C1BD02369321CF7
S31508000980002B13D09F421BD8DB1B23610ED1A36813
S31508000990002B03D04046211CE2689847237E4A462E
S315080009A05146194202D1626922614A46AD18646805
S315080009B0002CE3D141460B689846002BDAD101E0BA
S315080009C02661E4E7584600F08BF8281C3CBC9046A4
S315080009D09946A246AB46F8BD180400200000000060
S315080009E07047C0460000000000000000000000003C
S315080009F07047C0460000000000000000000000002C
S31508000A00FEE7C046000000000000000000000000ED
S31508000A10FEE7C046000000000000000000000000DD
S31508000A2008B500F02DFB08BD00000000000000001E
S31508000A3008B500F055FB08BD0000000000000000E6
S31508000A4008B500F075FB08BD0000000000000000B6
S31508000A50002807D0002A05D0031C12181970013384
S31508000A609342FBD17047C04600000000000000001A
S31508000A7000B5F0B444464D4656465F46F0B4074BBB
S31508000A805B68FF201840103800F06AF9F0BCBB46D6
S31508000A90B246A946A046F0BC00BDC04600ED00E03F
S31508000AA07047C0460000000000000000000000007B
S31508000AB07047C0460000000000000000000000006B
S31508000AC0044B18681A6802218A431A608007C00F07
S31508000AD07047C04610E000E000000000000000007B
S31508000AE0002805D0054B196802220A431A6004E05B
S31508000AF0024B1A6802218A431A60704710E000E028
S31508000B00034B5968802252050A435A607047C0460B
S31508000B1000ED00E0000000000000000000000000FA
S31508000B2062B67047000000000000000000000000E8
S31508000B3002B40121EFF31080484002BC72B6704738
S31508000B4002B40121EFF31080484002BC7047C0464A
S31508000B50002801D062B600E072B6704700000000B7
S31508000B6000B589B001A800F06BF8019809B000BD7E
S31508000B7008B5FFF7DDFFFFF7F3FFFA21890000F05C
S31508000B805DFB0002000A0138074B5860074A106AE5
S31508000B900002000AC02109060143116200229A6078
S31508000BA007221A6008BDC04610E000E000ED00E02C
S31508000BB08EB003680D9343680C9383680B93C368E0
S31508000BC00A93036909934369089383690793C36979
S31508000BD006930A4B1B680593094B1B680493094B3C
S31508000BE01B680393084B1B680293084B1B6800930A
S31508000BF0074B1B68019300BE0EB0704728ED00E056
S31508000C002CED00E030ED00E03CED00E034ED00E0D6
S31508000C1038ED00E0000000000000000000000000C1
S31508000C2004207146084202D0EFF30980C0E7EFF3CB
S31508000C300880BDE7F4E7C046000000000000000099
S31508000C4038B5041C3E4B5B680C221340042B06D0B7
S31508000C50082B07D0002B1CD13A4B03601BE0394BFD
S31508000C60036018E0364B5D685B68AD022D0F0235F0
S31508000C70D90303D4344B5D4305600CE0304BDB6A83
S31508000C800F21194001312F4800F0D8FA4543256055
S31508000C9001E02C4B03602A4B5A681206120F2B49A7
S31508000CA08A5CD2B22068051CD5402A1C65605D683E
S31508000CB06D056D0F495DC9B2CA40A2601B6BD905A7
S31508000CC002D4234BE36008E01D4B5B685D0402D445
S31508000CD05308E36001E09308E360194B1B6B590660
S31508000CE002D41C4B236102E080231B022361144BB0
S31508000CF01B6BDD0602D4134B636100E06061104B89
S31508000D001B6B990701D1A26119E00D4B1B6B0322DE
S31508000D101340012B01D1A06111E0094B1B6B032283
S31508000D201340022B03D180231B02A36107E0044B67
S31508000D301B6B03221340032B01D1024BA36138BD61
S31508000D400010024000127A0000093D00000200204F
S31508000D50809FD500128000000000000000000000FF
S31508000D6038B5051C064B1B688200D458002C06D0E3
S31508000D70281C616823689847A468002CF8D138BDF8
S31508000D8044040020000000000000000000000000ED
S31508000D9010B5002915DB1024035F00208B4211DDF6
S31508000DA0CB17DB0E59184C11A4001F200140CB1A93
S31508000DB01BB201209840A3581840431E9841C0B260
S31508000DC000E0002010BDC046000000000000000042
S31508000DD010B5002923DB1024005F88421FDDC817E1
S31508000DE0C00E09181F240C40201A80B2491189B276
S31508000DF0002B0AD009B28900521800B20123834099
S31508000E00181C13681843106009E009B289005218C3
S31508000E1000B201238340181C13688343136010BD76
S31508000E20F0B55F4656464D464446F0B485B0071CB5
S31508000E30038A1AB2002A42DD06680022029289B2A3
S31508000E408B462031039119B28A46029A13B2DA17F1
S31508000E50D20ED3185B119B009B59013327D00299F8
S31508000E608BB25946CA1803995B189BB2019392B282
S31508000E709046424695B22BB2534529DA41465A4620
S31508000E808B1A9BB299462BB249460AB2934218DD91
S31508000E904C461D1C21B2381C321CFFF779FF00286E
S31508000EA016D10134A4B223B29D42F3DC0BE0029BB7
S31508000EB020339BB202931BB29A45C6DC05E00C4868
S31508000EC004E0484602E0484600E0094800B207E068
S31508000ED0434601339BB29846019A9A42C9D1E6E73E
S31508000EE005B03CBC90469946A246AB46F0BDC04606
S31508000EF0FFFF0000000000000000000000000000E6
S31508000F00F0B5474680B4051C0E1E17DB078A3BB2B0
S31508000F100024994213DA1F1C4B1E984623B2F31875
S31508000F20BB420CDA0134A4B24346191909B2281C8B
S31508000F306A68FFF72DFF0028F0D000E0002420B2F1
S31508000F4004BC9046F0BDC04600000000000000004A
S31508000F5000290CD0C268891A09098BB20A0408D478
S31508000F601022815E1AB2914204DC034B02E0024B66
S31508000F7000E0014B18B27047FFFF000000000000B8
S31508000F80F0B557464E464546E0B4051C8946924696
S31508000F90002931DB1022835E4B452FDD5346002B9B
S31508000FA022DD4A4694B2E3189BB298460026574675
S31508000FB0013FBE4206D121B2281C6A680123FFF709
S31508000FC007FF05E021B2281C6A680023FFF700FF27
S31508000FD021B2281C2A680123FFF7FAFE01360134DC
S31508000FE0A4B24445E5D10BE04A461301EC68E4187F
S31508000FF05046FFF7F5FC09E0002407E0002405E069
S315080010001022AB5E00244B45F2DDEDE7201C1CBC2C
S3150800101090469946A246F0BD000000000000000078
S31508001020F8B54F464646C0B4041C0F1C914620D45A
S315080010301022835E00208B421CDDC8464B46002BDF
S3150800104012DD0025EE1936B2201C311C2268002359
S31508001050FFF7BEFE201C311C62680023FFF7B8FEAE
S315080010600135ADB24545EDDB4846FFF7C1FC012029
S3150800107000E000200CBC90469946F8BD0000000030
S3150800108070B5051C0E1C144C206800211422FFF7AD
S31508001090DFFC711B4A0A2368D000091A090989B2BC
S315080010A0198209B2C817C00E411849118900198159
S315080010B01D602368920055195D60AD18DD601868DB
S315080010C01A890021FFF7C4FC236858681A89002189
S315080010D0FFF7BEFC70BDC0461002002000000000ED
S315080010E0F8B5041E1FD00F260640731E9E4103093D
S315080010F0F618B6B2FFF71CFD071C0C4B1D6831B27B
S31508001100281CFFF78DFE011E05DB32B2281CFFF7EF
S3150800111037FF041C03E0201CFFF77AFC0024381C68
S31508001120FFF716FD00E00024201CF8BD1002002081
S31508001130F8B5061CFFF7FCFC071C0C4B1D68281CA1
S31508001140311CFFF705FF041E09D0281C211CFFF7D8
S31508001150D7FE021C281C211CFFF762FF02E0301C88
S31508001160FFF74EFC381CFFF7F3FCF8BD1002002011
S3150800117008B5FFF765F8154B5A6915490A435A61C8
S31508001180DA6914490A43DA6199699422D2010A4351
S315080011909A619022D205104B1360002393800F4961
S315080011A0916090218905D160136253620C4A1360DD
S315080011B093800C499160D360136253620A4A1360A4
S315080011C093809160D3601362536208BD0010024099
S315080011D0010046000208201000001028AAAABA96A4
S315080011E000040048AAAAAAAA0014004800000000A1
S315080011F07047C04600000000000000000000000024
S31508001200CA1751408B1A17D0C1174A4004B4484030
S31508001210411A48081A0000E052008242FCD9002010
S3150800122000E05208914200D3891A40419A42F8D107
S3150800123004BC5040801A7047002070470A000FD03F
S315080012400300400800E052008242FCD9002000E07A
S315080012505208934200D39B1A40418A42F8D17047FC
S315080012600020704700000000000000000000000099
S31508001270746872656164310074687265616432000D
S311080012800000000043415249424F55004F
S31508001290000000000102030401020304060708090E
S309080012A048040020D0
S70508000121D0
