S02B00002F686F6D652F6D696B652F446F63756D656E74732F63617269626F752D72746F732F6272616E6368A0
S3150800000000060020B101000831170108910B00080D
S31508000010910B0008910B0008910B0008910B000842
S31508000020910B0008910B0008910B0008F12D0008B0
S31508000030910B0008910B0008F128000871290008A7
S31508000040011701080117010801170108011701081E
S31508000050011701080117010801170108011701080E
S3150800006001170108011701080117010801170108FE
S3150800007001170108011701080117010801170108EE
S3150800008001170108011701080117010801170108DE
S3150800009001170108011701080117010801170108CE
S315080000A001170108011701080117010801170108BE
S315080000B001170108011701080117010801170108AE
S315080000C0011701080117010801170108011701089E
S315080000D0011701080117010801170108011701088E
S315080000E0011701080117010801170108011701087E
S315080000F0011701080117010801170108011701086E
S31508000100011701080117010801170108011701085D
S31508000110011701080117010801170108011701084D
S31508000120011701080117010801170108011701083D
S31508000130011701080117010801170108011701082D
S31508000140011701080117010801170108011701081D
S31508000150011701080117010801170108011701080D
S3150800016001170108011701080117010801170108FD
S3150800017001170108011701080117010801170108ED
S3150800018001170108011701080117010801170108DD
S3150800019001170108011701080117010801170108CD
S315080001A001170108011701080117010801170108BD
S315080001B072B62E4880F30988022080F31488BFF3AC
S315080001C06F8F2B482949FA2200F048F829482A490E
S315080001D0FA2200F043F8294829492A4A00F033F858
S315080001E029482A49002200F039F8294A9047294A1D
S315080001F09047294829492A4A90472A482A4988423D
S3150800020000F007800268043003B4904703BCFFF788
S31508000210F6BF264A9047002000218646EC46244A27
S31508000220904724482449884200F007800268043031
S3150800023003B4904703BCFFF7F6BFFFF7B9BFFFF754
S31508000240FEBFFFF7FCBF884207D0521A05D00378D5
S3150800025001300B700131013AF9D17047884203D059
S3150800026002700130FFF7FABF70470000000C00204B
S3150800027000060020000000200006002028C501080E
S31508000280000C0020301100203011002078320120A7
S31508000290C1210008B10F01087832012000000220B0
S315080002A0A12E0008B0010008B0010008411201089B
S315080002B081050008B0010008B00100080000000030
S315080002C080B500AF154B154AD2F8882042F4700263
S315080002D0C3F88820124B124A126842F001021A60CB
S315080002E00F4B00229A600E4A0D4B1B6823F084734D
S315080002F023F4803313600A4B0A4A5A60084B084AAB
S31508000300126822F480221A60054B0022DA6000F097
S315080003108FF8024B4FF000629A6080BD00ED00E056
S3150800032000380240103000240000000000000000E1
S3150800033080B487B000AF00233B6100237B610223B2
S31508000340FB600023BB6002237B60324B9B6803F093
S315080003500C033B613B69042B07D0082B09D0002B03
S315080003603FD12D4B2D4A1A603FE02B4B2C4A1A6081
S315080003703BE0284B5B6803F480039B0DBB60254B71
S315080003805B6803F03F037B60BB68002B0DD0244AF3
S315080003907B68B2FBF3F21F4B596847F6C0730B40F4
S315080003A09B0903FB02F37B610CE01C4A7B68B2FBEA
S315080003B0F3F2184B596847F6C0730B409B0903FBC9
S315080003C002F37B61134B5B6803F440331B0C013368
S315080003D05B00FB607A69FB68B2FBF3F20E4B1A60AE
S315080003E003E00D4B0D4A1A6000BF0A4B9B6803F0E9
S315080003F0F0031B090B4AD35CDBB23B61064B1A6858
S315080004003B69DA40044B1A601C37BD465DF8047B2D
S31508000410704700BF00380240000C00200024F4009A
S3150800042000127A00040C0020000000000000000002
S3150800043080B483B000AF00237B6000233B60354B5C
S31508000440344A126842F480321A60324B1B6803F44D
S3150800045000333B607B6801337B603B68002B03D12C
S315080004607B68B3F5A06FF0D12A4B1B6803F4003301
S31508000470002B02D001233B6001E000233B603B6870
S31508000480012B42D1234B234A126C42F080521A6444
S31508000490214B214A126842F440421A601D4B1D4AFC
S315080004A092689A601B4B1B4A926842F400429A6013
S315080004B0184B184A926842F4A0529A60154B174A8C
S315080004C05A60144B134A126842F080721A6000BFD1
S315080004D0104B1B6803F00073002BF9D0104B40F249
S315080004E005721A600B4B0B4A926822F003029A6057
S315080004F0084B084A926842F002029A6000BF054B10
S315080005009B6803F00C03082BF9D10C37BD465DF840
S31508000510047B7047003802400070004008544007CA
S31508000520003C02400000000000000000000000003F
S3150800053080B483B000AF7860FEE700BF000000001B
S3150800054080B584B000AF78600123FB730A2001F000
S31508000550CFFFFBE7000000000000000000000000DD
S3150800056080B584B000AF78600123FB7301F0E8FF23
S31508000570FCE700BF000000000000000000000000CB
S3150800058080B586B004AF78603960002001F058FE67
S31508000590124803F005F800F033F8114B00934FF4B6
S315080005A080630193002302930E480F49002200231B
S315080005B002F00EF80D4B00934FF48063019300236D
S315080005C002930B480B490022002302F001F801F0C0
S315080005D02FFE002318460837BD4680BD908F0108B8
S315080005E030110020B88F0108410500083015002099
S315080005F0C88F01086105000800000000000000001F
S3150800060090B58FB004AF0020002103F071FE1D4B9A
S315080006107B626FF07F433B621B4BFB610A233B7691
S3150800062001237B76A823BB76C023FB76FB7E1A467E
S31508000630BB7E797E0C46397E0846391D00940190AA
S315080006400846124902F08CFF3B1D1148194602F074
S31508000650A7FF07F1240107F1200207F11C03002078
S3150800066000900C4801900C4802900C4809F068FD6F
S315080006700A4809F07DFE094809F092FE2C37BD4666
S3150800068090BD00BFC0A8010AC0A80101E08F0108FB
S31508000690F08F01086109000801420008301900209E
S315080006A080B588B004AF78607B68062283F822207C
S315080006B07B68002283F823207B68002283F82420A5
S315080006C07B68CF2283F825207B68002283F82620C2
S315080006D07B68002283F827207B68012283F828207C
S315080006E07B6840F2DC521A847B68222283F8292030
S315080006F01E4B7A681A607B6823330020194601F07E
S315080007001FF91B481B49052201F012FB1A481B4911
S31508000710052201F0B5FA0023FB600AE0FB685A01DE
S31508000720154B13441846012101F04AFBFB680133B7
S31508000730FB60FB68042BF1D94FF4806002F0C0FB24
S31508000740034600934FF480630193012302930C48F8
S315080007500C490022002301F03BFFB860BB68002B60
S3150800076001D001F085F81037BD4680BD8C190020F0
S31508000770B81A00201C390020181A0020581B00201F
S3150800078010900108010900080000000000000000A0
S3150800079080B586B000AF7860396000233B61144BA2
S315080007A01B689B68FB603B687B6113E0FA683B69E2
S315080007B0D1187B695A687B695B89084611461A46CF
S315080007C002F03EFF7B695B893A6913443B617B69AA
S315080007D01B687B617B69002BE8D13B699BB2184695
S315080007E001F096F9002318461837BD4680BD00BFAC
S315080007F0E056002000000000000000000000000095
S3150800080080B58CB000AF786000237B6200233B6222
S315080008100023FB6207F10803184601F0D9F83B6983
S315080008201B6803F40043002B27D1BB687B83FB6856
S315080008307B617B8B03201946032209F061FEF8626F
S31508000840FB6A002B19D0FB6ABB6213E0BB6A5968C6
S315080008507A697B6A1A44BB6A5B89084611461A4656
S3150800086002F0EEFEBB6A5B897A6A13447B62BB6A56
S315080008701B68BB62BB6A002BE8D11E4B1B689B68D2
S31508000880012B04D91B4B1B681B68FB6101E03B6904
S31508000890FB6100233B6209E0FB694FF000421A60E6
S315080008A0FB69DB68FB613B6A01333B62114B1B68E2
S315080008B09A683B6A9A42EFD80E4B1B6800229A60E8
S315080008C00D4B03F5805314331B6803F08003002B8C
S315080008D00BD0094B03F58053143380221A60064B5C
S315080008E003F58053083300221A60FB6A184630372E
S315080008F0BD4680BDF456002000800240000000007E
S3150800090080B584B000AF786012484FF000024FF00F
S31508000910000302F03DFB0346002B18D00E4B1B6864
S315080009201846FFF76DFFF860FB68002B0FD00A4BDF
S315080009301B681B69084A1268F868114698470346F7
S31508000940002B04D0F8680AF0B3F80023FB6001F026
S31508000950F7FDD9E7200C00208C19002000000000C4
S3150800096080B582B000AF78607B68002B06D123483B
S3150800097023494FF49172234B02F03AFE00BF7B687D
S31508000980062283F82D207B681F4A1A637B6800229B
S315080009905A637B6800229A637B680022DA637B6865
S315080009A000221A647B6800225A647B6800229A64D3
S315080009B07B680022DA647B6800221A657B6800225D
S315080009C05A657B68732283F82A207B68742283F829
S315080009D02B207B680D4A5A617B680D4A9A617868B4
S315080009E0FFF75EFE41F288300A4900220EF030FD1C
S315080009F0002318460837BD4680BD00BF1890010879
S31508000A00409001085090010800E1F505210701080A
S31508000A1091070008210A00080000000000000000F5
S31508000A2080B582B000AF78600FF03AFA41F28830AC
S31508000A30034900220EF00CFD0837BD4680BD00BFF5
S31508000A40210A000800000000000000000000000065
S31508000A5080B584B000AF03463960FB713B681B88DC
S31508000A60FB810C4B04225A61FB891846122101F0BE
S31508000A70D7FA034603F40053002B08D0064B1B7A1B
S31508000A80DBB2DB43DAB2044B1A72034B1B7A10371C
S31508000A90BD4680BD003C0140802F012000000000BB
S31508000AA080B582B000AF03463960FB710A4B03F587
S31508000AB0805314331B6803F04003002B02D0074809
S31508000AC002F02EFA044B03F580531433044A1A60D5
S31508000AD00837BD4680BD00BF00800240200C0020BC
S31508000AE040000100000000000000000000000000B7
S31508000AF080B483B000AF78607B681A681D4B1A60B3
S31508000B007B685A681B4B5A607B689A68194B9A60CF
S31508000B107B68DA68174BDA607B681A69154B1A61C5
S31508000B207B685A69134B5A617B689A69114B9A61BB
S31508000B307B68DA690F4BDA610F4B1A680D4B1A623C
S31508000B400E4B1A680B4B5A620D4B1A68094B9A6280
S31508000B500C4B1A68074BDA620B4B1A68054B5A633B
S31508000B600A4B1A68034B1A6300BE0C37BD465DF87C
S31508000B70047B7047E019002028ED00E02CED00E02A
S31508000B8030ED00E03CED00E034ED00E038ED00E04B
S31508000B9004207146084200F00480EFF30980FFF74D
S31508000BA0A7BFEFF30880FFF7A3BFFFF7F1BF00BFAA
S31508000BB080B485B000AF78600023FB607B68FB607B
S31508000BC002E0FB68013BFB60FB68002BF9D1143798
S31508000BD0BD465DF8047B7047000000000000000079
S31508000BE080B500AF4FF00070012112F079F94FF08F
S31508000BF00070002112F074F980BD00BF00000000EB
S31508000C0080B483B000AF78607B6801221A607B6885
S31508000C1000225A607B6800229A607B680022DA60AC
S31508000C207B6800221A617B684FF480425A617B68B0
S31508000C3000229A617B680022DA617B684FF40062C1
S31508000C401A627B6800225A627B6800229A627B6875
S31508000C500022DA627B6800221A637B6800225A63E4
S31508000C607B6800229A637B680022DA637B684022ED
S31508000C701A647B6820225A647B6800229A647B681F
S31508000C800022DA647B6800221A657B6800225A65AE
S31508000C907B6800229A657B680022DA657B680022F9
S31508000CA01A667B6880225A667B6800229A667B6889
S31508000CB00022DA667B6800221A677B6800225A6778
S31508000CC07B6800229A677B680022DA677B684FF0A8
S31508000CD08062C3F880207B684FF00072C3F88420D6
S31508000CE07B680022C3F888207B684FF40012C3F89B
S31508000CF08C207B680022C3F890207B680022C3F80A
S31508000D0094207B680022C3F898207B680022C3F8E9
S31508000D109C207B680022C3F8A0207B684FF00072F5
S31508000D20C3F8A4207B684FF48032C3F8A8207B68F8
S31508000D304FF48002C3F8AC207B684FF40052C3F826
S31508000D40B0207B680022C3F8B4207B680022C3F871
S31508000D50B8200C37BD465DF8047B704700000000DC
S31508000D6080B58CB000AF78600B467B800023BB62F1
S31508000D700023FB6200233B629B4B7B620023FB60E4
S31508000D807B681B68012B03D07B681B68002B01D18D
S31508000D90012300E00023184610F0A2FC7B685B687C
S31508000DA0002B04D07B685B68B3F5000F01D10123E3
S31508000DB000E00023184610F093FC7B689B68002B24
S31508000DC004D07B689B68B3F5800F01D1012300E04E
S31508000DD00023184610F084FC7B68DB68002B22D0C1
S31508000DE07B68DB68B3F5003F1DD07B68DB68B3F52D
S31508000DF0802F18D07B68DB68B3F5C02F13D07B68CB
S31508000E00DB68B3F5002F0ED07B68DB68B3F5202FBF
S31508000E1009D07B68DB68B3F5402F04D07B68DB68B4
S31508000E20B3F5602F01D1012300E00023184610F026
S31508000E3057FC7B681B69002B04D07B681B69B3F5DC
S31508000E40803F01D1012300E00023184610F048FC3A
S31508000E507B685B69002B04D07B685B69B3F5804FC0
S31508000E6001D1012300E00023184610F039FC7B6805
S31508000E709B69002B04D07B689B69B3F5005F01D1A1
S31508000E80012300E00023184610F02AFC7B68DB6982
S31508000E90B3F5805F03D07B68DB69002B01D10123A2
S31508000EA000E00023184610F01BFC7B681B6AB3F5AC
S31508000EB0006F03D07B681B6A002B01D1012300E079
S31508000EC00023184610F00CFC7B685B6AB3F5806F4C
S31508000ED003D07B685B6A002B01D1012300E0002365
S31508000EE0184610F0FDFB7B689B6A002B04D07B68D4
S31508000EF09B6AB3F5007F01D1012300E00023184661
S31508000F0010F0EEFB7B68DB6A802B03D07B68DB6A1C
S31508000F10002B01D1012300E00023184610F0E0FB66
S31508000F207B681B6B002B0BD07B681B6B202B07D0B9
S31508000F307B681B6B402B03D07B681B6B602B01D136
S31508000F40012300E00023184610F0CAFB7B685B6BA0
S31508000F50102B03D07B685B6B002B01D1012300E0CB
S31508000F600023184610F0BCFB7B689B6BB3F1004F5F
S31508000F7003D07B689B6B002B01D1012300E0002383
S31508000F80184610F0ADFB7B68DB6BB3F5007F08D025
S31508000F907B68DB6BB3F5407F03D07B68DB6B002B8C
S31508000FA001D1012300E00023184610F099FB7B6865
S31508000FB01B6C402B07D07B681B6C802B03D07B688F
S31508000FC01B6CC02B01D1012300E00023184610F04A
S31508000FD087FB7B685B6C002B03D07B685B6C202BE4
S31508000FE004D1012303E000BF0087930300231846BA
S31508000FF010F076FB7B689B6C002B03D07B689B6CA0
S31508001000082B01D1012300E00023184610F068FBE5
S315080010107B68DB6C012B03D07B68DB6C002B01D172
S31508001020012300E00023184610F05AFB7B681A6D6E
S3150800103040F204439A420BD07B681B6D042B07D001
S315080010407B681B6D002B03D07B681B6D102B01D1B1
S31508001050012300E00023184610F042FB7B685A6D16
S3150800106040F202439A4207D07B685B6D022B03D09D
S315080010707B685B6D002B01D1012300E00023184635
S3150800108010F02EFB7B681A6E4FF6FF739A428CBFE0
S3150800109000230123DBB2184610F022FB7B685B6E47
S315080010A0002B03D07B685B6E802B01D1012300E007
S315080010B00023184610F014FB7B689B6E002B0BD0A0
S315080010C07B689B6E102B07D07B689B6E202B03D00A
S315080010D07B689B6E302B01D1012300E00023184664
S315080010E010F0FEFA7B68DB6E082B03D07B68DB6E9C
S315080010F0002B01D1012300E00023184610F0F0FA76
S315080011007B681B6F042B03D07B681B6F002B01D1F8
S31508001110012300E00023184610F0E2FA7B685B6FB3
S31508001120022B03D07B685B6F002B01D1012300E003
S315080011300023184610F0D4FA7B689B6FB3F5803FFE
S3150800114003D07B689B6F002B01D1012300E00023AD
S31508001150184610F0C5FA7B68DA6F4FF6FF739A42A5
S315080011608CBF00230123DBB2184610F0B9FA7B685E
S31508001170D3F88030002B05D07B68D3F88030B3F1E4
S31508001180806F01D1012300E00023184610F0A8FA69
S315080011907B68D3F88430B3F1007F04D07B68D3F83A
S315080011A08430002B01D1012300E00023184610F0FB
S315080011B097FA7B68D3F88830002B05D07B68D3F87C
S315080011C08830B3F1807F01D1012300E0002318465F
S315080011D010F086FA7B68D3F88C30B3F5001F04D07C
S315080011E07B68D3F88C30002B01D1012300E0002363
S315080011F0184610F075FA7B68D3F89030002B29D082
S315080012007B68D3F89030B3F5804F23D07B68D3F84A
S315080012109030B3F5004F1DD07B68D3F89030B3F506
S31508001220404F17D07B68D3F89030B3F5803F11D084
S315080012307B68D3F89030B3F5A03F0BD07B68D3F822
S315080012409030B3F5C03F05D07B68D3F89030B3F53E
S31508001250E03F01D1012300E00023184610F040FAD0
S315080012607B68D3F89430802B04D07B68D3F894300D
S31508001270002B01D1012300E00023184610F030FAB4
S315080012807B68D3F89830402B04D07B68D3F8983025
S31508001290002B01D1012300E00023184610F020FAA4
S315080012A07B68D3F89C30002B0ED07B68D3F89C3033
S315080012B0082B09D07B68D3F89C30102B04D07B68A8
S315080012C0D3F89C30182B01D1012300E000231846DF
S315080012D010F006FA7B68D3F8A030042B04D07B689C
S315080012E0D3F8A030002B01D1012300E000231846D3
S315080012F010F0F6F97B68D3F8A430B3F1007F04D078
S315080013007B68D3F8A430002B01D1012300E0002329
S31508001310184610F0E5F97B68D3F8A830B3F5803F96
S3150800132004D07B68D3F8A830002B01D1012300E054
S315080013300023184610F0D4F97B68D3F8AC30B3F51F
S31508001340003F41D07B68D3F8AC30B3F5802F3BD053
S315080013507B68D3F8AC30B3F5002F35D07B68D3F86B
S31508001360AC30B3F5801F2FD07B68D3F8AC30B3F51B
S31508001370001F29D07B68D3F8AC30B3F5800F23D093
S315080013807B68D3F8AC30B3F1817F1DD07B68D3F886
S31508001390AC30B3F1827F17D07B68D3F8AC30B3F1A9
S315080013A0847F11D07B68D3F8AC30B3F1887F0BD03B
S315080013B07B68D3F8AC30B3F1907F05D07B68D3F85F
S315080013C0AC30B3F1A07F01D1012300E00023184619
S315080013D010F086F97B68D3F8B030B3F5807F41D03A
S315080013E07B68D3F8B030B3F5007F3BD07B68D3F881
S315080013F0B030B3F5806F35D07B68D3F8B030B3F52D
S31508001400006F2FD07B68D3F8B030B3F5805F29D052
S315080014107B68D3F8B030B3F5005F23D07B68D3F888
S31508001420B030B3F1012F1DD07B68D3F8B0208D4BB7
S315080014309A4217D07B68D3F8B0208B4B9A4211D0CA
S315080014407B68D3F8B020894B9A420BD07B68D3F8D7
S31508001450B020874B9A4205D07B68D3F8B020854BDD
S315080014609A4201D1012300E00023184610F038F90A
S315080014707B68D3F8B4301F2B8CBF00230123DBB263
S31508001480184610F02DF97B68D3F8B830002B16D023
S315080014907B68D3F8B830B3F5804F10D07B68D3F8A3
S315080014A0B830B3F5004F0AD07B68D3F8B830B3F537
S315080014B0404F04D07B68D3F8B830022B01D1012302
S315080014C000E00023184610F00BF96B4B1B69FB6212
S315080014D0FB6A23F01C03FB6207F11003184611F0A0
S315080014E0A7FB7B697B627A6A644B9A4208D97A6A57
S315080014F0634B9A4204D8FB6A43F00803FB6226E072
S315080015007A6A5F4B9A4208D97A6A5E4B9A4204D83D
S31508001510FB6A43F00C03FB6219E07A6A594B9A425C
S3150800152004D97A6A584B9A4200D810E07A6A564B20
S315080015309A4208D97A6A554B9A4204D8FB6A43F00C
S315080015400403FB6203E0FB6A43F01003FB624A4BA9
S31508001550FA6A1A617B88184600214FF4004200F0A7
S31508001560C7FD0346002B01D1002375E14848FFF764
S315080015701FFB7B681B68002B5FD0FB680133FB6091
S315080015807B881846012100F04BFD034603F004034F
S31508001590002B03D1FA683F4B9A42EED9FA683E4BC4
S315080015A09A4201D1002357E10023FB607B88184645
S315080015B000214FF4805200F09BFD0346002B01D119
S315080015C0002349E1FB680133FB607B88184601214B
S315080015D000F026FD034603F02003002B03D1FA682A
S315080015E02C4B9A42EED9FA682B4B9A4201D100232A
S315080015F032E10023FB607B881846102100F010FDBD
S315080016000346BB62BB6A03F00403002B04D07B6865
S315080016104FF400621A6202E07B6800221A62BB6A13
S3150800162003F00203002B03D07B6800225A6139E0DD
S315080016307B684FF480425A6134E07B681B6ADB089A
S315080016409AB27B685B695B089BB213439BB27A8844
S31508001650104600211A4600F04BFD0346002B1DD10B
S315080016600023F9E00002000100040001000800015F
S31508001670001000010020000100800240FF2C31010B
S31508001680BF0E1602FF869303FFE0F5057FD1F0082B
S31508001690FFFF0F00FEFF0400FFFF04006FF07F400E
S315080016A0FFF786FA6E4B1B68FB62FA6A6D4B1340AE
S315080016B0FB627B685A687B689B681A437B68DB68B1
S315080016C01A437B681B691A437B685B691A437B6804
S315080016D09B691A437B68DB691A437B681B6A1A4352
S315080016E07B685B6A1A437B689B6A1A437B68DB6A7A
S315080016F01A437B681B6B1A437B685B6B1343FA6A56
S315080017001343FB62564BFA6A1A60554B7A68916B1B
S315080017107A68D26B11437A68126C11437A68526CF4
S3150800172011437A68926C11437A68D26C11437A68CD
S31508001730126D11437A68526D0A435A60484B7A68AB
S31508001740926D9A60464B7A68D26DDA60444B9B6913
S31508001750FB62FA6A4FF641731340FB627B681B6EA5
S315080017601A047B685B6E1A437B689B6E1A437B6818
S31508001770DB6E1A437B681B6F1A437B685B6F1343E8
S31508001780FA6A1343FB62364BFA6A9A61344B7A68F3
S31508001790916F7A68D26F0A43DA61314B03F5805349
S315080017A018331B68FB62FA6A2F4B1340FB627B688F
S315080017B0D3F880207B68D3F884301A437B68D3F843
S315080017C088301A437B68D3F88C301A437B68D3F881
S315080017D090301A437B68D3F894301A437B68D3F861
S315080017E098301A437B68D3F89C301A437B68D3F841
S315080017F0A0301343FA6A1343FB62194B03F580536F
S315080018001833FA6A1A60164B7A68D2F8A4107A68FE
S31508001810D2F8A82011437A68D2F8AC2011437A6826
S31508001820D2F8B02011437A68D2F8B4209200114356
S315080018307A68D2F8B8200A4342F4000203F58053C6
S315080018401A60074B064A02F58052126842F0800277
S3150800185003F580531A60012318463037BD4680BD0C
S31508001860008002400F8120FF233FDEF800000000C1
S3150800187080B500AF012000F013F800F049FB012005
S3150800188000F036F8012000F05BFB012000F090FB29
S3150800189080BD00BF0000000000000000000000003E
S315080018A080B582B000AF0346FB71FB79002B02D0EE
S315080018B0FB79012B01D1012300E0002318460FF024
S315080018C00FFFFB79002B06D0074B074A126842F038
S315080018D008021A6005E0044B034A126822F008025F
S315080018E01A600837BD4680BD00800240000000002F
S315080018F080B582B000AF0346FB71FB79002B02D09E
S31508001900FB79012B01D1012300E0002318460FF0D3
S31508001910E7FEFB79002B06D0074B074A126842F010
S3150800192004021A6005E0044B034A126822F0040216
S315080019301A600837BD4680BD0080024000000000DE
S3150800194080B584B000AF786039607B68002B08D01A
S315080019507B68082B05D07B68102B02D07B68182B78
S3150800196001D1012300E0002318460FF0B9FE3B68B9
S3150800197005331B781A023B6804331B781343FB6054
S315080019807A680F4B1344FA681A603B6803331B786E
S315080019901A063B6802331B781B041A433B6801335B
S315080019A01B781B021A433B681B781343FB607A6853
S315080019B0044B1344FA681A601037BD4680BD00BF51
S315080019C04080024044800240000000000000000001
S315080019D080B487B000AF78600023FB6000233B61CA
S315080019E000237B610023BB6075E0BB680133BB60E5
S315080019F0434B1B681B6803F40073002B16D0404B3F
S31508001A001B681B6803F48073002B0FD13D4B1B68C2
S31508001A103B4A12681A603B4B1B6801229A60384B96
S31508001A201B68DB681A46364B1A6054E0344B1B6851
S31508001A301B6803F48073002B12D1314B1B681B689B
S31508001A4003F40073002B0BD12E4B1B689A680132E6
S31508001A509A602B4B1B68DB681A46294B1A603AE0DA
S31508001A60284B1B68264A12685A60264B1B689A68D8
S31508001A7001329A60234B1B689B68012B04D1214BCA
S31508001A801B681F4A12681A601D4B1B681A681E4B92
S31508001A9013401B0C043BFB601A4B1B689B68012B0D
S31508001AA005D9184B1B681B689B683B6103E0144B00
S31508001AB01B689B683B61124B1B687B61104B1B685C
S31508001AC0DB681A460E4B1A607B6807F10C0207CAD8
S31508001AD083E807000DE00A4B1B681B68002B02DB36
S31508001AE0BB68042B81D97B6807F10C0207CA83E817
S31508001AF0070078681C37BD465DF8047B704700BF51
S31508001B00E4560020F45600200000FF3F00000000C5
S31508001B1080B487B000AF0346FB8000237B610023B7
S31508001B20BB6000233B61514B1B681B68002B01DA25
S31508001B30002395E04D4B1B68FB60FA8840F2F4538E
S31508001B409A4217D9FA884A4BA3FB02139B0A9BB2FF
S31508001B507B61FB88464AA2FB0312920A40F2F451C3
S31508001B6001FB02F29B1A9BB2002B05D07B6901335D
S31508001B707B6101E001237B617B69012B1CD13B4B17
S31508001B801B683A4A1268126842F040521A60374B8C
S31508001B901B68FA88C2F30C025A60344B1B68334A36
S31508001BA01268126842F000421A60304B1B68DB6804
S31508001BB01A462E4B1A603DE000233B6133E03B6931
S31508001BC0002B07D1294B1B68284A1268126842F075
S31508001BD080521A60FB6840F2F4525A607B695A1EBA
S31508001BE03B699A4213D1FB681B6843F00052FB68B5
S31508001BF01A60FA887B691F4901FB03F3134403F251
S31508001C00F453BB60BB68C3F30C02FB685A60FB68FD
S31508001C101B6843F00042FB681A60FB68DB68FB60E0
S31508001C203B6901333B613A697B699A42C7D30F4BDB
S31508001C30FA681A60104B03F5805314331B6803F0D7
S31508001C400403002B0BD00C4B03F5805314330422EA
S31508001C501A60094B03F58053043300221A600123E6
S31508001C6018461C37BD465DF8047B7047E0560020D1
S31508001C700BB002AC0CFAFFFF008002400000000027
S31508001C8080B487B000AFF860B9607A6000237B61E2
S31508001C90214BFA681A6000237B612AE07B695B01A5
S31508001CA0FA6813443B613B694FF000421A603B698E
S31508001CB044F2F4525A607B6940F2F45202FB03F391
S31508001CC0BA6813441A463B699A607B685A1E7B6950
S31508001CD09A4208D97B6901335B01FA6813441A46AC
S31508001CE03B69DA6002E0FA683B69DA607B690133CE
S31508001CF07B617A697B689A42D0D3084BFA6803F508
S31508001D0080530C331A60064B064A1A601C37BD46C8
S31508001D105DF8047B704700BFE4560020008002404F
S31508001D20F4560020E85600200000000000000000DD
S31508001D3080B487B000AFF860B9607A6000237B6131
S31508001D401D4BFA681A6000237B6126E07B695B01FC
S31508001D50FA6813443B613B694FF480121A607B6949
S31508001D6040F2F45202FB03F3BA6813441A463B697D
S31508001D709A607B685A1E7B699A4208D97B69013347
S31508001D805B01FA6813441A463B69DA6002E0FA68AE
S31508001D903B69DA607B6901337B617A697B689A42C1
S31508001DA0D4D3064BFA6803F5805310331A601C37F0
S31508001DB0BD465DF8047B7047E0560020008002406F
S31508001DC080B582B000AF78600B46FB70FB78002BBD
S31508001DD002D0FB78012B01D1012300E0002318462D
S31508001DE00FF07EFCFB78002B06D07B685B6823F03F
S31508001DF000427B685A6005E07B685B6843F00042F6
S31508001E007B685A600837BD4680BD00BF00000000E9
S31508001E1080B400AF064B064A02F58052126842F0BB
S31508001E20010203F580531A60BD465DF8047B7047CE
S31508001E3000800240000000000000000000000000D2
S31508001E4080B483B000AF0023FB710A4B03F58053BF
S31508001E501B6803F00103002B02D00123FB7101E08C
S31508001E600023FB71FB7918460C37BD465DF8047BE9
S31508001E70704700BF0080024000000000000000001C
S31508001E8080B582B000AF78600B46FB707A681C4B51
S31508001E901340002B04D17B68002B01D0012300E0FE
S31508001EA0002318460FF01CFCFB78002B02D0FB78A9
S31508001EB0012B01D1012300E0002318460FF010FC86
S31508001EC0FB78002B0CD00F490E4B03F580531C33BF
S31508001ED01A687B681A4301F580531C331A600CE0B4
S31508001EE00849084B03F580531C331A687B68DB43A3
S31508001EF01A4001F580531C331A600837BD4680BD69
S31508001F000018FEFF008002400000000000000000EC
S31508001F1080B400AF0749074B03F5805318331B6895
S31508001F2043F4801201F5805318331A60BD465DF8F4
S31508001F30047B70470080024000000000000000009B
S31508001F4080B582B000AF0346FB71FB79002B02D047
S31508001F50FB79012B01D1012300E0002318460FF07D
S31508001F60BFFBFB79002B0CD00D490D4B03F58053B5
S31508001F7018331B6843F4005201F5805318331A606E
S31508001F800BE00749064B03F5805318331B6823F407
S31508001F90005201F5805318331A600837BD4680BDD4
S31508001FA00080024000000000000000000000000061
S31508001FB080B582B000AF0346FB71FB79002B02D0D7
S31508001FC0FB79012B01D1012300E0002318460FF00D
S31508001FD087FBFB79002B0CD00D490D4B03F580537D
S31508001FE018331B6843F0020201F5805318331A6050
S31508001FF00BE00749064B03F5805318331B6823F09B
S31508002000020201F5805318331A600837BD4680BDB1
S3150800201000800240000000000000000000000000F0
S3150800202080B584B000AF02460B46FA80BB80002319
S31508002030FB600023BB60FB88202B8CBF0023012399
S31508002040DBB218460FF04CFBBB88002B05D0BB88CB
S31508002050012B02D0BB88102B01D1012300E00023FD
S3150800206018460FF03DFB1D4B1B69FB60FB6803F030
S315080020701C03FB60FB88DB029BB2FA681343FB6018
S31508002080BB889B0103F4F863FA681343FB60FB689B
S3150800209023F00203FB60FB6843F00103FB600F4B70
S315080020A0FA681A61BB680133BB600C4B1B69FB609D
S315080020B0FB6803F00103002B03D0BA68084B9A4269
S315080020C0F0D9BA68074B9A4201D1002302E0034BC4
S315080020D05B699BB218461037BD4680BD008002403A
S315080020E0FEFF0400FFFF04000000000000000000DF
S315080020F080B584B000AF13460246FA800A46BA8015
S315080021007B800023FB600023BB60FB88202B8CBFF1
S3150800211000230123DBB218460FF0E2FABB88002B36
S3150800212005D0BB88012B02D0BB88102B01D1012317
S3150800213000E0002318460FF0D3FA1E4B1B69FB601C
S31508002140FB6803F01C03FB60FB88DB029BB2FA68A2
S315080021501343FB60BB889B0103F4F863FA681343D7
S31508002160FB60FB6843F00203FB60FB6843F0010376
S31508002170FB60104B7A885A610E4BFA681A61BB6885
S315080021800133BB600B4B1B69FB60FB6803F0010363
S31508002190002B03D0BA68084B9A42F0D9BA68074BA5
S315080021A09A4201D1002300E0012318461037BD46A4
S315080021B080BD00BF00800240FEFF0400FFFF040050
S315080021C080B400AF084B084AD2F8882042F470025F
S315080021D0C3F88820054B054A526842F040425A60C7
S315080021E0BD465DF8047B704700ED00E030EF00E087
S315080021F080B500AF0FF0A4FA0346184680BD00BFAD
S3150800220080B582B000AF786078680FF0B9FA083701
S31508002210BD4680BD00000000000000000000000070
S3150800222080B500AF0FF0CCFA80BD00BF00000000FB
S3150800223080B500AF00F00CFB80BD00BF00000000B9
S3150800224080B582B000AF0346FB710FF011FB012089
S315080022500FF0F6FA97F907309BB21BB2184600F052
S315080022605FFA0FF0FDFA0837BD4680BD0000000092
S31508002270EFF30980704718460000000000000000D0
S3150800228080B582B000AF0346FB80084BDB68002BA5
S3150800229007D0064BDB68F988044A126908461146D6
S315080022A09847FB8818460837BD4680BDF856002073
S315080022B080B584B000AF7860482000F001FEF86071
S315080022C0FB68002B08D0F8680021482201F010FAB4
S315080022D0FB687A685A6002E00820FFF7D1FFFB68BE
S315080022E018461037BD4680BD0000000000000000FB
S315080022F080B582B000AF7860786800F001FE0837D4
S31508002300BD4680BD0000000000000000000000007F
S3150800231080B485B000AF78600F4B1B68FB60FB6824
S31508002320002B0BD002E0FB681B68FB60FB681B6890
S31508002330002BF8D1FB687A681A6005E0064B7A68C4
S315080023401A607B6800221A607B6818461437BD46F7
S315080023505DF8047B704700BFF856002000000000B7
S3150800236080B485B000AF7860134B1A687B689A42D0
S3150800237004D17B681A68104B1A6016E00E4B1B686E
S31508002380FB600CE0FB681A687B689A4204D17B689C
S315080023901A68FB681A6005E0FB681B68FB60FB6847
S315080023A0002BEFD17B6800221A607B681846143729
S315080023B0BD465DF8047B7047F85600200000000013
S315080023C080B582B000AF00237B600FF051FA386009
S315080023D00B4B5B68002B0AD0094B5B681B8E1BB244
S315080023E07B60074B5B681A8E013292B21A86386890
S315080023F00FF04EFA7B6818460837BD4680BD00BF09
S31508002400F856002000000000000000000000000050
S3150800241080B582B000AF00237B600FF029FA3860E0
S31508002420114B5B68002B10D00F4B5B681B8E1BB2E1
S31508002430002B0ADD0C4B5B681B8E1BB27B600A4BBC
S315080024405B681A8E013A92B21A8638680FF020FA3B
S31508002450054B5B681B8E002B01D100F071F87B6879
S3150800246018460837BD4680BDF85600200000000013
S3150800247080B586B000AF7860396000F0C1FAC7E968
S3150800248004010FF0F5F9F8607B68B3F840300133C2
S315080024909AB27B68A3F84020F8680FF0F9F91BE0B8
S315080024A03B681A464FEAE273D7E9040100F0A0FB3D
S315080024B00346002B0ED00FF0DBF9F8607B68B3F803
S315080024C04030013B9AB27B68A3F84020F8680FF0C9
S315080024D0DFF907E000F034F87B68B3F840301BB248
S315080024E0002BDDDC1837BD4680BD00BF00000000AC
S315080024F080B582B000AF786000F002F9034618464E
S315080025007968FFF7B5FF0837BD4680BD00000000B3
S3150800251080B584B000AF78600FF0AAF9F8607B68E0
S31508002520B3F84030013B9AB27B68A3F84020F868BC
S315080025300FF0AEF91037BD4680BD00BF00000000A1
S3150800254080B500AF054B5B68002B06D0034B5B6874
S315080025501B8E002B01D1FFF763FE80BDF8560020C5
S3150800256080B584B000AF78600FF082F9F8607B68B8
S315080025709B8B43F004039AB27B689A837B685B6BF8
S31508002580002B05D07B685B6B7A68526A10469847C1
S315080025907868FFF7E5FE7868FFF7AAFE786800F026
S315080025A08FFBF8680FF074F91037BD4680BD00BF81
S315080025B080B500AF054B5B68044A5268928B42F0BF
S315080025C0040292B29A83FFF7BBFFFCE7F856002095
S315080025D080B588B000AFF860B9607A603B600023C8
S315080025E0FB610FF045F9B861BB6A002B22D0FB6A84
S315080025F0B86AFA211A4601F07BF8FB6A443BBA6AC4
S3150800260013447B6178690021442201F071F83A6825
S315080026107B695A62354A7B699A63BB6823F0010273
S315080026207B69DA637B694FF004521A647B696FF041
S3150800263002021A602E4B5B68002B02D12C4B1B68DA
S3150800264001E02B4B5B681846FFF732FEF861FB6921
S31508002650002B42D0FB6900229A83BB6A002B1AD052
S31508002660FB6ABA6A13443B613B69443B1A46FB69F9
S315080026709A60FB6ABA6A1A44FB695A61FB69BA6AC4
S315080026801A61FB691B6903F14402FB691A61FB695C
S31508002690BA6A9A6112E0FB69164A9A60FB699A68F7
S315080026A0FB695A61FB69144A1A61FB691B6903F1E4
S315080026B04402FB691A61FB690F4A9A61FB69FA6869
S315080026C01A62FB693A685A62FB693A8EDA83FB69D1
S315080026D07A685A63F869FFF71BFEB8690FF0D8F8ED
S315080026E0FB6918462037BD4680BD00BFB1250008E6
S315080026F0F8560020000C002000060020000000000C
S3150800270080B400AF034B5B681846BD465DF8047B92
S31508002710704700BFF85600200000000000000000C7
S3150800272080B586B004AF0346FB800D4800212822F9
S3150800273000F0DEFF0023009300230193B7F906306B
S3150800274002930848002100220023FFF741FF0246B2
S31508002750034B5A60024B5B6818460837BD4680BD76
S31508002760F8560020D4900108000000000000000080
S3150800277080B582B000AF78607B689A687B681B6911
S315080027809A4205D97B689A687B685B699A421CD924
S315080027907B689A687B681B699A4203D80120FFF711
S315080027A06FFD12E07B689A687B689B699A4203D83A
S315080027B00420FFF765FD08E07B689A687B685B691B
S315080027C09A4202D90220FFF75BFD7B689A687B680C
S315080027D0DB689A4203D37B68DB68002B03D17B68EE
S315080027E09A687B68DA600837BD4680BD000000003D
S315080027F080B582B000AF154B1B687B600EF070FD8C
S31508002800124B1B68184600F0B3FA104B1B687B6026
S3150800281015E07B681B683B607868FFF7A9FF7B6853
S315080028209B8B03F00403002B07D0084B5A687B6880
S315080028309A4202D07868FFF793FE3B687B607B6814
S31508002840002BE6D10837BD4680BD00BFF8560020EC
S3150800285080B500AFFFF7CCFFFFF772FEFAE700BFBF
S3150800286080B400AF204B5B68204A1268DA631E4BBF
S315080028705B681B8E002B32D11B4B1B89013B9AB21E
S31508002880194B1A81184B1B891BB2002B27DA08E053
S31508002890154B5B68144A5268928B22F0020292B278
S315080028A09A83114B5B681B68002B03D00E4B5B6841
S315080028B01B6801E00C4B1B680B4A53600A4B5B68AC
S315080028C09B8B03F00603002BE2D1074B5B68DA8B80
S315080028D0054B1A81044B5B68DA6B044B1A60BD46DC
S315080028E05DF8047B704700BFF8560020205700208B
S315080028F0EFF3098020E9F00F1EF0100F01D120ED4B
S31508002900108A40F804ED80F30988174B164A526876
S3150800291042F000625A60154B5C68FFF7A9FC034653
S31508002920A360124B5B68114A5268928B42F002020E
S3150800293092B29A830D4B4FF6FF721A81FFF790FFFA
S315080029400A4B5B689B6883F30988EFF3098050F8A4
S3150800295004EB1EF0100F01D1B0EC108AB0E8F00FAE
S3150800296080F30988704700BF00ED00E0F8560020A4
S31508002970EFF3098020E9F00F1EF0100F01D120EDCA
S31508002980108A40F804ED80F30988194B184A5268F2
S3150800299042F000725A60174B5C68FFF769FC034601
S315080029A0A360144BD3E90623013243F1000311490E
S315080029B0C1E906230F4B5968D1E90A23013243F1CD
S315080029C00003C1E90A23FFF74BFF0A4B5B689B68C4
S315080029D083F30988EFF3098050F804EB1EF0100F13
S315080029E001D1B0EC108AB0E8F00F80F3098870477F
S315080029F000ED00E0F856002000000000000000008E
S31508002A0080B400AF044BD3E9062310461946BD46E9
S31508002A105DF8047B704700BFF856002000000000F0
S31508002A2080B483B000AF78607B681B69002B14BF45
S31508002A3000230123DBB218460C37BD465DF8047B3C
S31508002A40704700BF00000000000000000000000002
S31508002A5080B582B000AF78607B681B7E03F0010307
S31508002A60002B02D0786800F04BFA0837BD4680BDC7
S31508002A7080B584B000AF786039600023FB73FFF738
S31508002A809FFC7B689B6BBB6008E03A68BB689A4210
S31508002A9001D10123FB73BB685B68BB60FB7B002B22
S31508002AA002D1BB68002BF0D1FFF7B2FCFB7B1846BE
S31508002AB01037BD4680BD00BF0000000000000000C2
S31508002AC080B584B000AF7860396078683968FFF7F8
S31508002AD0CFFF0346002B21D1FFF772FC7B689B6B67
S31508002AE0FB60FB68002B0ED002E0FB685B68FB60AE
S31508002AF0FB685B68002BF8D1FB683A685A603B684C
S31508002B00FA681A6008E07B683A689A633B680022AC
S31508002B101A603B6800225A60FFF77AFC3B68184641
S31508002B201037BD4680BD00BF000000000000000051
S31508002B3080B582B000AF78603960FFF741FC7B68EA
S31508002B409A6B3B689A420CD13B685A687B689A63D1
S31508002B507B689B6B002B1CD07B689B6B00221A60E2
S31508002B6017E03B681B68002B04D03B681B683A6873
S31508002B7052685A603B685B68002B04D03B685B6808
S31508002B803A6812681A603B6800225A603B6800225D
S31508002B901A60FFF73DFC3B6818460837BD4680BDFE
S31508002BA080B586B000AFF860B9607A60FB70FFF751
S31508002BB0A7FD7861FB68002B14D0F86800211C2259
S31508002BC000F096FDFB7823F00103DAB2FB681A766B
S31508002BD0FB68BA689A60FB687A68DA607869F968A7
S31508002BE0FFF76EFFFB6818461837BD4680BD00BF65
S31508002BF080B485B000AFC7E90201C7E90023D7E969
S31508002C00002352EA030101D100231AE0D7E9002381
S31508002C10B3F1FF3F08BFB2F1FF3F01D1012310E036
S31508002C200B4BD3E90601D7E90223801A61EB0301AE
S31508002C30D7E90023904271EB030CB4BF00230123AC
S31508002C40DBB218461437BD465DF8047B704700BFF3
S31508002C50F8560020000000000000000000000000F8
S31508002C6080B582B000AF78603960FFF7A9FB7B6852
S31508002C703A681A617B683A685A61FFF7C9FB7B684C
S31508002C8018460837BD4680BD000000000000000059
S31508002C9080B582B000AF78603960FFF791FB38687D
S31508002CA00021FFF7DDFF78683968FFF741FF3868CC
S31508002CB0FFF7CEFEFFF7ACFB0837BD4680BD00BF69
S31508002CC080B582B000AF786005E07B689B6B78685A
S31508002CD01946FFF7DDFF7B689B6B002BF5D108379C
S31508002CE0BD4680BD00000000000000000000000096
S31508002CF080B586B000AFF860B9607A6000237B6162
S31508002D00BB681B69002B28D0BB681A697B689A4286
S31508002D1004D3BB681A697B68D31A00E00023BA6833
S31508002D201361BB681B69002B17D1BB689B68002B16
S31508002D3006D0BB689B68BA68D268F868B9689847CD
S31508002D40BB681B7E03F00203002B03D1BB685A69DC
S31508002D50BB681A617B6901337B617B691846183742
S31508002D60BD4680BD00000000000000000000000015
S31508002D7080B586B000AF7860FFF722FB194BD3E920
S31508002D8006231146174BD3E908231346CB1AFB60D3
S31508002D90FB68002B1FD0134BD3E906231149C1E961
S31508002DA0082315E07B689B6B3B610BE07868396903
S31508002DB0FA68FFF79DFF03467A6913447B613B690E
S31508002DC05B683B613B69002BF0D17B681B687B60C5
S31508002DD07B68002BE6D1FFF71BFB7B691846183783
S31508002DE0BD4680BDF8560020000000000000000027
S31508002DF000B522462B46D5B21C462846214600F089
S31508002E0007F805462C4600BD00000000000000003B
S31508002E1080B485B000AF03463960FB714FF0FF33CD
S31508002E20FB60FB79002B02D10023FB6000BFFB6827
S31508002E3018461437BD465DF8047B7047000000004D
S31508002E4080B483B000AF0346FB800C37BD465DF8FF
S31508002E50047B70470000000000000000000000002E
S31508002E6080B483B000AF0346FB800C37BD465DF8DF
S31508002E70047B70470000000000000000000000000E
S31508002E8080B483B000AF7860FEE700BF00000000A2
S31508002E9080B483B000AF78603960FEE700000000B8
S31508002EA080B582B000AF786039607868396800F01C
S31508002EB08FFC0837BD4680BD0000000000000000FA
S31508002EC080B582B000AF7860786800F0D9FF034615
S31508002ED018460837BD4680BD000000000000000007
S31508002EE080B582B000AF786039607868396801F0DB
S31508002EF00FF8034618460837BD4680BD0000000097
S31508002F0080B582B000AF7860786801F0C9F80837F4
S31508002F10BD4680BD00000000000000000000000063
S31508002F2080B586B000AF78600123FB750EF0A0FC73
S31508002F3038617B681B685A1C7B681A607B681B684B
S31508002F40002B1CDC7B685B68002B11D07B685A68F9
S31508002F5007F10C031046194611F00AFA0346FB75E9
S31508002F60FB7D002B04D0FB681846FFF7D1FA06E074
S31508002F707B681B685A1E7B681A600023FB753869D4
S31508002F800EF086FCFB7D18461837BD4680BD00BF8F
S31508002F9090B587B000AFF860C7E900230123FB7539
S31508002FA00EF066FC3861FB681B685A1EFB681A60DF
S31508002FB0FB681B68002B23DAFB685B68002B18D0BC
S31508002FC0FB685C68FFF79CFB03462046194611F030
S31508002FD07FF90346002B0CD00EF042FCFFF790FB5E
S31508002FE002463B6810461946FFF742FA0EF040FCC7
S31508002FF006E0FB681B685A1CFB681A600023FB7511
S3150800300038690EF045FCFB7D18461C37BD4690BD59
S3150800301080B584B000AF786039600023FB607868BB
S31508003020002110F0EDFBB860BB68002B07DBBA681F
S3150800303013465B001344DB00034A1344FB60FB683A
S3150800304018461037BD4680BD50C401080000000070
S3150800305080B582B000AF786039603B689B683A1DDE
S3150800306038681146012298470346012B01D17B682F
S3150800307001E04FF0FF3318460837BD4680BD00BF54
S3150800308080B582B000AF7860396078683968FFF734
S31508003090DFFF034618460837BD4680BD000000001E
S315080030A080B584B000AFF860B9607A60BB68002B61
S315080030B00AD0BB681B687A68D2B21A70BB681B68EC
S315080030C05A1CBB681A600AE07B680A2B03D10D20DC
S315080030D0F968FFF7D5FF7868F968FFF7D1FF103769
S315080030E0BD4680BD00000000000000000000000092
S315080030F080B588B000AFF860B9607A603B6000239D
S31508003100FB612023BB613B68002B20DD00237B612C
S315080031107B683B6105E07B6901337B613B69013371
S315080031203B613B691B78002BF5D17A693B689A426B
S3150800313002DB00233B6003E03A687B69D31A3B60F5
S31508003140BB6A03F00203002B01D03023BB61BB6AC4
S3150800315003F00103002B0ED10AE0F868B968BA69D2
S31508003160FFF79EFFFB690133FB613B68013B3B6050
S315080031703B68002BF1DC0CE07B681B78F868B968C3
S315080031801A46FFF78DFFFB690133FB617B68013344
S315080031907B607B681B78002BEED10AE0F868B9687B
S315080031A0BA69FFF77DFFFB690133FB613B68013BA9
S315080031B03B603B68002BF1DCFB6918462037BD46AF
S315080031C080BD00BF000000000000000000000000F5
S315080031D080B58EB002AFF860B9607A603B600023B4
S315080031E07B6200233B627B68FB617B68002B0FD107
S315080031F030233B7400237B7407F110033A6C00926A
S31508003200F868B9681A46FB6BFFF772FF03465EE07B
S31508003210BB6B002B0AD03B680A2B07D17B68002BB7
S3150800322004DA01237B627B685B42FB6107F11003CA
S315080032300B33FB62FB6A00221A701DE03A68FB69D1
S31508003240B3FBF2F102FB01F29B1ABB62BB6A092BC4
S3150800325004DD7B6C3A3BBA6A1344BB62FB6A013BEA
S31508003260FB62BB6ADBB23033DAB2FB6A1A703B68C0
S31508003270FA69B2FBF3F3FB61FB69002BDED17B6ACB
S31508003280002B19D0FB6B002B10D03B6C03F002030C
S31508003290002B0BD0F868B9682D22FFF701FF3B6AAF
S315080032A001333B62FB6B013BFB6305E0FB6A013BB9
S315080032B0FB62FB6A2D221A703B6C0093F868B968AA
S315080032C0FA6AFB6BFFF714FF02463B6A134418467B
S315080032D03037BD4680BD00BF00000000000000007A
S315080032E080B58EB004AFF860B9607A603B600023A1
S315080032F0FB6120E17B681B78252B40F00F817B68FA
S3150800330001337B6000233B623B6A7B627B681B78E8
S31508003310002B00D114E17B681B78252B00D1FDE03A
S315080033207B681B782D2B05D17B6801337B600123D5
S315080033303B6207E006E07B6801337B603B6A43F04B
S3150800334002033B627B681B78302BF4D00EE07A6A66
S3150800335013469B0013445B007B627B681B78303BFB
S315080033607A6A13447B627B6801337B607B681B78CF
S315080033702F2B03D97B681B78392BE8D97B681B78F8
S31508003380732B19D13B6804333B603B6853F8043C04
S31508003390BB61BB69002B01D0BB6900E06E4B3A6A82
S315080033A00092F868B9681A467B6AFFF7A1FE0346D9
S315080033B0FA691344FB61BBE07B681B78642B18D160
S315080033C03B6804333B603B68043B1B680122009260
S315080033D07A6A01923A6A029261220392F868B96897
S315080033E01A460A23FFF7F4FE0346FA691344FB61FB
S315080033F09EE07B681B786C2B18D13B6804333B60D6
S315080034003B68043B1B68012200927A6A01923A6A79
S31508003410029261220392F868B9681A460A23FFF7EE
S31508003420D7FE0346FA691344FB6181E07B681B7883
S31508003430782B18D13B6804333B603B68043B1B6818
S31508003440002200927A6A01923A6A029261220392F3
S31508003450F868B9681A461023FFF7BAFE0346FA69F0
S315080034601344FB6164E07B681B78582B03D07B68A8
S315080034701B78702B18D13B6804333B603B68043BD0
S315080034801B68002200927A6A01923A6A02924122E5
S315080034900392F868B9681A461023FFF799FE03469F
S315080034A0FA691344FB6143E07B681B78752B18D1D6
S315080034B03B6804333B603B68043B1B680022009270
S315080034C07A6A01923A6A029261220392F868B968A6
S315080034D01A460A23FFF77CFE0346FA691344FB6182
S315080034E026E07B681B78632B22D13B6804333B605C
S315080034F03B68043B1B68DBB23B7500237B7507F111
S3150800350014033A6A0092F868B9681A467B6AFFF7A4
S31508003510EFFD0346FA691344FB6109E07B681B78F3
S31508003520F868B9681A46FFF7BBFDFB690133FB610A
S315080035307B6801337B607B681B78002B7FF4DAAEEF
S31508003540BB68002B03D0BB681B6800221A70FB6996
S3150800355018462837BD4680BDE490010800000000E3
S315080035600EB480B585B000AF78600023FB6007F124
S315080035702003BB60FB693A1D002011461A46BB684A
S31508003580FFF7AEFEF8600023BB60FB6818461437E9
S31508003590BD46BDE8804003B0704700BF000000008C
S315080035A00FB480B582B000AF00237B6007F1140327
S315080035B03B600C4B1B68002B09D00A4B1A683B6909
S315080035C0104600211A463B68FFF78AFE78600023FA
S315080035D03B607B6818460837BD46BDE8804004B0A6
S315080035E0704700BF285700200000000000000000B8
S315080035F00FB480B582B000AF00237B6007F11403D7
S315080036003B600EF03DF90346002B09D0094B1A68BA
S315080036103B69104600211A463B68FFF761FE786051
S3150800362000233B607B6818460837BD46BDE88040E6
S3150800363004B070472C57002000000000000000006E
S31508003640B0B485B000AFF860B9607A60FB68002B4B
S315080036500ED0FC68BD6808E023465C1C2A46551C4B
S3150800366012781A707B68013B7B607B68002BF3D16C
S31508003670FB6818461437BD46B0BC7047000000000A
S31508003680F0B484B000AFF860B9607A60FD68BC68D1
S31508003690002D21D0A54212D97B682344AB420ED90E
S315080036A07B681C447B68EE1803E0013E013C2378E6
S315080036B033707B685A1E7A60002BF6D10CE02E46D2
S315080036C005E033465E1C2246541C12781A707B6845
S315080036D05A1E7A60002BF4D12B4618461037BD4681
S315080036E0F0BC704700000000000000000000000069
S315080036F0B0B485B000AFF860B9607A60FD68002D97
S3150800370009D0002404E02B19BA68D2B21A70013421
S315080037107B689C42F7D3FB6818461437BD46B0BC95
S31508003720704700BF00000000000000000000000015
S31508003730F0B484B000AFF860B9607A60FC68BD6820
S3150800374000260BE022782B789A4204D023781A4672
S315080037502B78D31A06E00136013401357B689E4280
S31508003760F0D3002318461037BD46F0BC704700BF9B
S3150800377080B485B000AFF860B9607A607B68002BCA
S315080037801DD005E0FB680133FB60BB680133BB60F5
S315080037907B68013B7B607B68002B09D0FB681B7844
S315080037A0002B05D0FB681A78BB681B789A42E9D0CB
S315080037B0FB681B781A46BB681B78D31A00E00023FF
S315080037C018461437BD465DF8047B704700000000B4
S315080037D080B586B000AF786039602A4B1B681846FA
S315080037E000211422FFF784FF3A687B68D31A7B61AD
S315080037F07B695B0A3B613B69DB007A69D31AFB602C
S31508003800204B1B68FA68120992B21A821D4B1A6875
S315080038101C4B1B681B8A1BB2002B00DA1F335B117B
S315080038209BB21BB29BB29B009BB21381154B1B68C4
S315080038307A681A60134B1B683A6991007A680A44D9
S315080038405A60104B1B683A69D1007A680A44DA60F4
S315080038500C4B1B681A680B4B1B681B89104600210A
S315080038601A46FFF745FF074B1B685A68054B1B6846
S315080038701B89104600211A46FFF73AFF1837BD463E
S3150800388080BD00BF280C00200000000000000000DA
S3150800389080B485B000AFF8600B467A607B81B7F9D3
S315080038A00A30002B28DBFB681B8AB7F90A201BB2F3
S315080038B09A4221DAB7F90A30002B00DA1F335B1176
S315080038C09BB21BB29B007A6813441A68B7F90A10B0
S315080038D00D4B0B40002B03DA013B63F01F0301334A
S315080038E09BB21BB2012101FA03F31340002B0CBF54
S315080038F000230123DBB200E0002318461437BD4637
S315080039005DF8047B704700BF1F00008000000000C0
S3150800391080B487B000AFF8607A600A467A817B7215
S31508003920B7F90A30002B41DBFB681B8AB7F90A2076
S315080039301BB29A423ADAB7F90A201F4B1340002BFA
S3150800394003DA013B63F01F030133FB82B7F90A3040
S31508003950002B00DA1F335B11BB827B7A002B12D057
S31508003960B7F914309B007A681344B7F9142092000B
S3150800397079680A441168B7F91620012000FA02F29C
S315080039800A431A6012E0B7F914309B007A681344A8
S31508003990B7F91420920079680A441168B7F9162015
S315080039A0012000FA02F2D2430A401A601C37BD46CB
S315080039B05DF8047B704700BF1F0000800000000010
S315080039C080B584B000AF786013460A467A803B809B
S315080039D07A883B8813449BB2BB817B681B8AB7F9FC
S315080039E00C201BB29A421BDA7B88FB8110E07B68AD
S315080039F01B68B7F90E20786811461A46FFF748FF84
S31508003A000346002B01D000230BE0FB890133FB8121
S31508003A10B7F90E20B7F90C309A42E8DB012300E02B
S31508003A20002318461037BD4680BD00BF00000000C1
S31508003A3080B584B000AF78600B467B800023BB81DD
S31508003A400023BB6035E07B681A68B7F90C30002B99
S31508003A5000DA1F335B119BB21BB29B0013441B6831
S31508003A60BB60BB68B3F1FF3F1FD00023FB8118E0A2
S31508003A70BA89FB8913449BB29BB21AB2B7F90230D2
S31508003A80786811461A46FFF79BFF0346002B05D0B8
S31508003A90BA89FB8913449BB29BB213E0FB890133B5
S31508003AA0FB81B7F90E301F2BE2DDBB8920339BB2B1
S31508003AB0BB817B681B8AB7F90C201BB29A42C2DB12
S31508003AC04FF6FF731BB218461037BD4680BD00BFC0
S31508003AD080B584B000AF78600B467B800023FB81FD
S31508003AE0B7F90230002B25DB7B681B8AB7F9022061
S31508003AF01BB29A421EDA00BFB7F90220B7F90E3098
S31508003B001A447B681B8A1BB29A4213DAFB891A4647
S31508003B100132FA819AB27B8813449BB29AB27B68C7
S31508003B205B6812B2786811461A46FFF7B1FE03467B
S31508003B30002BE1D0FB891BB218461037BD4680BD65
S31508003B4080B485B000AF786039603B68002B12D02E
S31508003B503A687B68DB68D31A1B09FB81B7F90E3014
S31508003B60002B08DB7B681B8AB7F90E201BB29A422A
S31508003B7001DAFB8901E04FF6FF731BB218461437CA
S31508003B80BD465DF8047B7047000000000000000099
S31508003B9080B485B000AF78600B467B800023FB605D
S31508003BA0B7F90230002B0DDB7B681B8AB7F90220B8
S31508003BB01BB29A4206DA7B68DA68B7F902301B014B
S31508003BC01344FB60FB6818461437BD465DF8047B52
S31508003BD0704700BF00000000000000000000000061
S31508003BE080B584B000AF786013460A467A803B8079
S31508003BF00023BB60B7F90230002B50DB7B681B8AB9
S31508003C00B7F902201BB29A4249DA0023FB8134E055
S31508003C10B7F90E20B7F90030013B9A420ED17A88DF
S31508003C20FB8913449BB29AB27B685B6812B27868C8
S31508003C3011461A460123FFF76BFE0DE07A88FB89C9
S31508003C4013449BB29AB27B685B6812B278681146D5
S31508003C501A460023FFF75CFE7A88FB8913449BB259
S31508003C609AB27B681B6812B2786811461A46012315
S31508003C70FFF74EFEFB890133FB81B7F90E20B7F932
S31508003C8000309A42C4DBB7F9023078681946FFF764
S31508003C907FFFB860B7F900301846FFF7D1F8BB6860
S31508003CA018461037BD4680BD000000000000000021
S31508003CB080B584B000AF786013460A467A803B80A8
S31508003CC0B7F90230002B34DB7B681B8AB7F9022070
S31508003CD01BB29A422DDA0023FB811EE07A88FB8903
S31508003CE013449BB29AB27B681B6812B27868114675
S31508003CF01A460023FFF70CFE7A88FB8913449BB209
S31508003D009AB27B685B6812B2786811461A46002335
S31508003D10FFF7FEFDFB890133FB81FA89B7F900300D
S31508003D209A42DBDBB7F900301846FFF799F801230A
S31508003D3000E0002318461037BD4680BD000000008D
S31508003D4080B586B000AFF86079813A81FB800023A0
S31508003D507B75B7F90A30002B29DBFB681B8AB7F994
S31508003D600A201BB29A4222DA0023FB8217E07A89DC
S31508003D703B8913449AB2FB8A13449BB29AB2FB68F6
S31508003D801B6812B2F86811461A46FFF781FD03460A
S31508003D90002B01D07B7D0BE0FB8A0133FB82B7F950
S31508003DA01620B7F906309A42E1DB01237B757B7D45
S31508003DB018461837BD4680BD000000000000000008
S31508003DC080B586B000AFF86079813A81FB80002320
S31508003DD07B75B7F90A10B7F90820B7F90630F868FD
S31508003DE0FFF7AEFF0346002B41D03A89FB88134400
S31508003DF07B820023FB8233E0B7F916207B8A013BDE
S31508003E009A420ED17A89FB8A13449BB29AB2FB680E
S31508003E105B6812B2F86811461A460123FFF778FD67
S31508003E200DE07A89FB8A13449BB29AB2FB685B68F9
S31508003E3012B2F86811461A460023FFF769FD7A8917
S31508003E40FB8A13449BB29AB2FB681B6812B2F868E5
S31508003E5011461A460123FFF75BFDFB8A0133FB82F5
S31508003E60B7F916207B8A9A42C6DB01237B757B7DD0
S31508003E7018461837BD4680BD000000000000000047
S31508003E8080B586B000AF786000237B617B68002B25
S31508003E9033D07B681B099AB27B6803F00F03002BAB
S31508003EA001D0012300E0002313449BB27B820DF06E
S31508003EB0DFFCF860134B1A68B7F91230104619463A
S31508003EC0FFF7B6FD03467B81B7F90A30002B0CDBFA
S31508003ED00C4B1968B7F90A20B7F91230084611468B
S31508003EE01A46FFF77DFE786104E07868FCF720FB48
S31508003EF000237B61F8680DF0CBFC7B691846183700
S31508003F00BD4680BD280C002000000000000000000F
S31508003F1080B588B000AF786039607B68002B00F008
S31508003F20A1803B68002B00F09D803B681B099AB274
S31508003F303B6803F00F03002B01D0012300E00023A8
S31508003F4013449BB2FB830DF093FCB861514B1B687D
S31508003F5018467968FFF7F4FD0346FB82B7F9163071
S31508003F60002B75DB4B4B1A68B7F916301046194605
S31508003F70FFF7AEFD0346BB82B7F91E20B7F914302A
S31508003F809A4248DD434B1868FA8BBB8AD31A9BB210
S31508003F909BB2B7F91610B7F914201BB2FFF710FF3A
S31508003FA00346002B36D13B4B1968B7F91620B7F9EB
S31508003FB01430084611461A46FFF77AFE354B1A683A
S31508003FC0B7F91E3010461946FFF732FD03467B82C5
S31508003FD0B7F91230002B16DB2E4B1968B7F91220E9
S31508003FE0B7F91E30084611461A46FFF7F9FDF8607C
S31508003FF0B7F914301B01F86879681A46FFF740FBD1
S31508004000FB687B6006E078683968FEF741FF0023A5
S315080040107B6023E022E0B7F91E20B7F914309A42F4
S315080040201CDA1C4B1968B7F91620B7F9143008467C
S3150800403011461A46FFF73CFE164B1968B7F91620C3
S31508004040B7F91E30084611461A46FFF7C9FD05E0BE
S3150800405078683968FEF71CFF00237B60B8690DF0A5
S3150800406017FC12E07B68002B08D03B68002B05D1B3
S31508004070786800F015F800237B6006E07B68002B63
S3150800408003D13868FFF7FCFE78607B68184620374E
S31508004090BD4680BD280C002000000000000000007E
S315080040A080B584B000AF78600DF0E2FBF860154B80
S315080040B01B6818467968FFF743FD03467B81B7F905
S315080040C00A30002B15D00F4B1A68B7F90A3010467C
S315080040D01946FFF7FDFC03463B810A4B1968B7F9F9
S315080040E00A20B7F90830084611461A46FFF7E0FDD8
S315080040F002E07868FEF7C4FEF8680DF0C9FB1037D1
S31508004100BD4680BD280C002000000000000000000D
S3150800411080B584B000AF7860314B1B68002B05D0A2
S315080041202F4B1B682F4A12681046984707F10C0355
S315080041302D4819460BF00CFAFB681B78032B46D85A
S3150800414001A252F823F000BF594100086B4100084C
S31508004150A9410008C1410008FB689B681B68FA680A
S31508004160926804321046984739E0FB68DB6893F892
S31508004170293003F06003002B08D0FB689A68FB68B7
S31508004180DB68104619460CF0BBFD07E0FB689A6829
S31508004190FB68DB681046194600F022F9FB68082020
S315080041A0194605F08DFF1AE0FB689B68FA68D26825
S315080041B010469847FB680720194605F081FF0EE070
S315080041C0FB689B68FA68D2681046984707E0074874
S315080041D007499222074BFFF70BFA00BF00BFA5E776
S315080041E044570020485700204C57002010910108DA
S315080041F038910108589101080000000000000000ED
S3150800420080B584B000AF7860396016480DF018FAAA
S315080042100346002B01D1FA231FE0082005F008FF0A
S31508004220F860FB68002B01D1FF2316E0FB6801222A
S315080042301A70FB687A689A60FB683A68DA60094817
S31508004240F9680DF0BDF90346002B05D00820F9687A
S3150800425005F036FFFF2300E0002318461037BD4659
S3150800426080BD00BF4C570020000000000000000081
S3150800427080B586B000AFF860B9601346FB711A487E
S315080042800DF0DEF90346002B28D0072005F0D0FEF6
S3150800429078617B69002B01D1FF2320E07B6902222C
S315080042A01A707B69FA689A607B69BA68DA60FB7982
S315080042B0002B04D00C4879690DF06AF90CE00A481D
S315080042C079690DF07DF90346002B05D00720796939
S315080042D005F0F6FEFF2302E0002300E0FA23184665
S315080042E01837BD4680BD00BF4C57002000000000AF
S315080042F080B584B002AF7860396005F0E1FA104BFA
S315080043007A681A600F4B3A681A600F4840210DF018
S3150800431027F90346002B07D00C480D494FF4E772DE
S315080043200C4BFFF765F900BF002300930A480B49B9
S3150800433000224FF480630DF083F80837BD4680BD30
S3150800434044570020485700204C5700201091010878
S31508004350E4910108589101080892010811410008E2
S3150800436080B584B000AF7860194B1B68FB6015E018
S31508004370FB6893F8293003F00103002B0BD07B6808
S315080043801A68FB685B685A40FB689B681340002BF9
S3150800439001D1FB6817E0FB681B68FB60FB68002B14
S315080043A0E6D10C4B1B68002B07D00A4B1B6893F809
S315080043B0293003F00103002B03D101F099FA0023F9
S315080043C001E0044B1B6818461037BD4680BD00BF88
S315080043D0D42D0120D82D0120000000000000000087
S315080043E080B586B000AF7860396001F001FA7B6865
S315080043F05B687B617B691B781B09DBB2042B06D0E3
S31508004400786806F055FB01F003FA00233BE17B6967
S315080044101B7803F00F037B817B899B007B817B697B
S315080044205B889BB2184605F00BFA03463B817B680E
S315080044305B897A899A4204D87B681B893A899A42A9
S3150800444006D9786806F034FB01F012FA00231AE15F
S315080044507B897869194610F0FBFD0346002B06D0C8
S31508004460786806F025FB01F0D3F900230BE13B89B8
S315080044707868194606F0D4F97B691A69844B1A607C
S315080044807B69DA68834B1A60814B1B6803F0F0037B
S31508004490E02B13D13B6893F82930DBB25BB2002BD3
S315080044A009DA38687A4910F0C3F90346002B02D0B6
S315080044B03B683B613AE000233B6137E00123FB6040
S315080044C03B683B613B6993F8293003F00103002BF5
S315080044D016D03B690433002B12D03B695B68002B6E
S315080044E00ED06B4B1A683B695B689A421ED0684BC4
S315080044F01B681846396910F013FE0346002B15D1C0
S31508004500FB68002B05D00023FB60634B1B683B61EF
S3150800451002E03B691B683B613A693B689A4202D1F3
S315080045203B691B683B613B69002BCBD1594B1B6828
S315080045301846396810F0F4FD0346002B05D1554B93
S315080045401B6803F0F003E02B08D1786806F0B0FA90
S3150800455001F06EF901F08CF9002394E03B69002B19
S3150800456008D101F065F901F083F9786806F0A0FA38
S31508004570002388E07B69DB889BB21A464FF63F73B7
S315080045801340002B0BD0786800F042FD78607B68FA
S31508004590002B01D1002376E07B685B687B613F4B8B
S315080045A03A681A603E4B7A691A607B695B7A013B06
S315080045B0102B40D801A252F823F000BF1D46000870
S315080045C02B460008374600083746000837460008D5
S315080045D00F460008374600083746000837460008E1
S315080045E037460008374600083746000837460008A9
S315080045F037460008374600083746000801460008CF
S3150800460001F046F9786839680BF042F82EE001F0B7
S315080046103FF97868396807F093FD27E001F038F923
S31508004620786839680FF0E4FE20E078683968184A37
S3150800463010F066F91AE0164B1B681846396810F030
S315080046406FFD0346002B0CD1114B1B6803F0F003DA
S31508004650E02B06D07B687A695A60786802210FF0E9
S31508004660F7FF786806F024FA01F0F2F80B4B0022FF
S315080046701A600B4B00221A60064B00221A60044B84
S3150800468000221A60002318461837BD4680BD00BFB1
S315080046905C57002058570020D42D01205057002081
S315080046A05457002000000000000000000000000031
S315080046B080B58AB006AFF860B9607A60FB70FB789F
S315080046C03A7E00923A7F01923A6A02920022039257
S315080046D000220492F868B9687A6800F009F8034677
S315080046E018461037BD4680BD0000000000000000D7
S315080046F080B58AB000AFF860B9607A60FB700023B5
S315080047007B62FB68DB89012B06D0964896494FF4F5
S315080047102772964BFEF76CFF00BF01F0C9F87B685D
S31508004720002B00F0F98014237B8400237B83B7F8E1
S315080047304030002B49D0B7F8403003339BB223F002
S3150800474003037B837A8C7B8B13447B847B8B1BB222
S31508004750F868194606F014F90346002B03D001F051
S31508004760B7F8FE23F9E0FB685A68B7F840301046F8
S31508004770F96B1A46FEF764FFB7F840207B8B9A421E
S315080047800DD2FB685A68B7F840301A44798BB7F8E7
S315080047904030CB1A104600211A46FEF7A9FF00231F
S315080047A0FB610BE0FB685A68FB695B0013441B88D6
S315080047B07A6A13447B62FB690133FB617B8B5B0876
S315080047C09BB21A46FB699A42ECDCF868142106F09B
S315080047D0D7F80346002B03D001F07AF8FE23BCE095
S315080047E0FB685B687B61FB685B89132B06D85D48B1
S315080047F05F4940F2CA225D4BFEF7FAFE00BF7B69AD
S31508004800FA781A727B6997F834205A7297F8343016
S315080048101A02FB7813437A6A13447B627B681A6828
S315080048207B691A617B691B699BB27A6A13447B624E
S315080048307B691B691B0C7A6A13447B627B8C9B0819
S315080048409BB2DBB243F04003DAB27B691A707B692C
S3150800485097F830205A7097F830301A027B691B781F
S3150800486013437A6A13447B62FB681B89184604F073
S31508004870CFFF03461A467B695A807B695B889BB2E1
S315080048807A6A13447B627B6900229A710022DA7184
S31508004890384B1B88184604F0BBFF03461A467B694B
S315080048A09A807B699B889BB27A6A13447B62314BF8
S315080048B01B8801339AB22F4B1A80BB68002B03D092
S315080048C0BB681B68002B04D1BB6B5A687B69DA602E
S315080048D003E0BB681A687B69DA607B69DB689BB2B0
S315080048E07A6A13447B627B69DB681B0C7A6A134419
S315080048F07B627B6A1A0C7B6A9BB213447B627B6A77
S315080049001B0C7A6A13447B627B6ADB437B627B6A95
S315080049109AB27B695A8108E0FB685B687B617B69B0
S315080049201B693B6107F110037B60BB6B1B8C002B7B
S315080049300CD0FB681A89BB6B1B8C9A4206D9F8689F
S31508004940B96B7A6800F08CFC034606E0BB6B5B69C2
S31508004950B86BF9687A689847034618462837BD46FB
S3150800496080BD00BF109201083892010844920108E0
S31508004970D0920108605700200000000000000000E7
S3150800498080B58AB004AFF860B9607A60FB70FB68DE
S31508004990DB89012B06D01248124940F23932124BF4
S315080049A0FEF726FE00BF7868FFF7DAFC78617B69B8
S315080049B0002B01D1FC230EE0FB7897F8202000920B
S315080049C097F8242001927A690292F868B9687A6899
S315080049D0FFF76EFE034618461837BD4680BD00BF72
S315080049E0109201083892010844920108000000005C
S315080049F080B584B000AF0023BB60114B1B68FB6019
S31508004A0018E0FB68DB7F002B0BD0FB68DB7F013BE4
S31508004A10DAB2FB68DA77FB68BB60FB681B68FB6089
S31508004A2008E0FB687B60FB681B68FB607868B96810
S31508004A3000F00EF8FB68002BE3D11037BD4680BDA9
S31508004A40645700200000000000000000000000007D
S31508004A5080B588B000AF786039600023FB833A6878
S31508004A607B689A4205D14A484A49A5224A4BFEF72D
S31508004A70BFFD00BF3B68002B0CD03B681A687B68FB
S31508004A809A4206D042484549A722434BFEF7B0FD55
S31508004A90FFE700BF00F04CFF7B685B685B687B61E3
S31508004AA07B699B889BB2002B2DD17B685B68BB61B9
S31508004AB07B691A687B685A60BB695A687B680833E1
S31508004AC0104619461422FEF7BBFDB86901210FF0FE
S31508004AD0CFFDB86906F074F80346FB74FA8BFB7CC5
S31508004AE01344B3F5803F05DB29482D49B6222A4BE6
S31508004AF0FEF77EFD00BFFB7C9AB2FB8B1344FB835B
S31508004B00B86905F0D5FF7B685B68BB6121E0BB69C6
S31508004B105B687B61BB69FB607B691B68BB61F86886
S31508004B2006F04EF80346FB74FA8BFB7C1344B3F588
S31508004B30803F05DB16481A49C622174BFEF758FD73
S31508004B4000BFFB7C9AB2FB8B1344FB83F86805F025
S31508004B50AFFFBB69002BDAD17868396800F0C8F86E
S31508004B60104B1B88FA8B9A4205D909480E49CC2264
S31508004B70094BFEF73DFD00BF0A4B1A88FB8BD31A7B
S31508004B809AB2084B1A80FB8B18462037BD4680BD63
S31508004B90009301082893010834930108C893010873
S31508004BA0DC93010868570020FC9301080000000008
S31508004BB080B588B000AF7860396000233B61002378
S31508004BC0BB6100237B610023FB60264B1B68FB61EE
S31508004BD02CE0FB695A697B68DB689A420CD1FB6951
S31508004BE09A697B681B699A4206D1FB699A897B6830
S31508004BF09B889BB29A4210D0FB680133FB60BB6965
S31508004C00002B02D1FB69BB6107E0FB69DA7FBB6950
S31508004C10DB7F9A4201D8FB69BB61FB691B68002BE5
S31508004C2001D0FB697B61FB691B68FB61FB69002B93
S31508004C30CFD1BB69002B08D0B8697969FFF708FF9F
S31508004C40B8603A69BB6813443B613A693B689A4263
S31508004C5002DAFB68012BB2DC3B6918462037BD46F1
S31508004C6080BD00BF6457002000000000000000005F
S31508004C7080B584B000AF78603960042005F0D8F9B3
S31508004C80F860FB68002B10D178683968FFF790FF49
S31508004C9002463B689A4203DB042005F0C9F9F8602E
S31508004CA0FB68002B01D1002316E0F86800212022BA
S31508004CB0FEF71EFDFB680322DA77094B1A68FB68C4
S31508004CC01A60074BFA681A60FB6808331846796851
S31508004CD01422FEF7B5FCFB6818461037BD4680BDA2
S31508004CE064570020000000000000000000000000DB
S31508004CF080B582B000AF78603960104B1A687B685F
S31508004D009A4204D17B681A680C4B1A600EE03B681D
S31508004D10002B06D10A480B4940F239120A4BFEF716
S31508004D2067FC00BF7B681A683B681A6004207968CC
S31508004D3005F0C6F90837BD4680BD00BF6457002098
S31508004D400093010818940108349301080000000034
S31508004D5090B58BB000AF7860396000233B620123C1
S31508004D60BB613B685B687B617B695B889BB2184665
S31508004D7004F066FD03461A467B691B7803F00F03A9
S31508004D809BB219468903CB1A9B009BB213447B82BC
S31508004D907B69DB889BB2184604F052FD0346C3F3D1
S31508004DA00C039BB2DB003B8200BF3B685B687B62FF
S31508004DB07B6A00221A7000225A7000229A7000221A
S31508004DC0DA707B6A3A8A9A803A8A7B8A13449AB25C
S31508004DD07B6ADA807B685B68FB614EE0FB695B682F
S31508004DE0FB607B6A9B889AB2FB689B889BB29A4257
S31508004DF01FD27B6AFA691A603B6A002B15D07B6A58
S31508004E009B889AB23B6ADB889BB29A42C0F0D780ED
S31508004E107B6ADB889AB2FB689B889BB29A4200F24F
S31508004E20CE803B6A3A681A602AE07B683A685A601C
S31508004E3026E07B6A9B889AB2FB689B889BB29A425B
S31508004E4000D1BCE07B6A9B889AB2FB68DB889BB280
S31508004E509A4200D2B3E03B6A002B09D03B6ADB8852
S31508004E609AB2FB689B889BB29A4201D00023BB6129
S31508004E70FB681B68FB61FB683B62FB69002BADD1D5
S31508004E80FB69002B2FD13B6A002B1DD03B6ADB88C0
S31508004E909AB27B6A9B889BB29A4206D95148524974
S31508004EA040F29312514BFEF7A3FB00BF3B6A3A68E8
S31508004EB01A603B6ADB889AB27B6A9B889BB29A42E5
S31508004EC011D00023BB610EE07B685B68002B06D01F
S31508004ED0444847494FF4CE72444BFEF789FB00BF5E
S31508004EE07B683A685A607B689B7F03F00103002B56
S31508004EF063D0BB69002B5ED07B685B685B689B8868
S31508004F009BB2002B02D00023BB6154E07B6A3B6254
S31508004F107B6A1B68FB6112E0FB695B687B623B6A24
S31508004F20DB889AB27B6A9B889BB29A4202D000239E
S31508004F30BB6107E07B6A3B627B6A1B68FB61FB69B6
S31508004F40002BE9D1BB69002B35D07B685B68002B49
S31508004F5006D1244827494FF4DE72244BFEF748FB56
S31508004F6000BF7B685B685A687B6A9A4206D11D480F
S31508004F7020494FF4DF721D4BFEF73AFB00BF7B6AF0
S31508004F801B68002B06D017481B494FF4E072174BD5
S31508004F90FEF72EFB00BF7B6ADB889AB27B689B8B89
S31508004FA09A4207D00F4815494FF4E1720F4BFEF7A6
S31508004FB01FFBFFE700BFBB690FE000230DE0104BA6
S31508004FC01C88386805F0FCFD0346E31A9AB20C4BB8
S31508004FD01A80386805F06CFD002318462C37BD4644
S31508004FE090BD00BF0093010834940108349301086A
S31508004FF0549401088C9401089C940108C0940108F3
S3150800500068570020000000000000000000000000B3
S3150800501090B58BB000AF78600023FB6100F078FC98
S315080050207B685B68BB61BB691B7803F00F039B0059
S31508005030142B00D001E1BB69DB889BB2184604F04B
S31508005040FFFB0346C3F30C039BB2DB00FB82BB6981
S315080050505B889BB2184604F0F3FB03461A46BB6905
S315080050601B7803F00F039BB219468903CB1A9B00E2
S315080050709BB21344BB82786805F0A2FD0346FB7415
S31508005080724B1B881A46FB7C1344042B10DDFB7CF1
S31508005090B8691946FFF78CFD0346002B00F0CD8052
S315080050A06A4B1B881A46FB7C1344042B00F3C58005
S315080050B0674B1B683B6218E03B6A5A69BB69DB6849
S315080050C09A420DD13B6A9A69BB691B699A4207D114
S315080050D03B6A9A89BB699B889BB29A4200D107E0D2
S315080050E03B6AFB613B6A1B683B623B6A002BE3D168
S315080050F03B6A002B09D1FB7CB8691946FFF7B8FD56
S3150800510038623B6A002B1CD197E0BB69DB889BB2EF
S31508005110184604F095FB0346C3F30C03002B10D185
S315080051203B6ADB89184604F08BFB0346C3F30C0382
S31508005130002B06D03B6A08331846B9691422FEF7D5
S315080051407FFAFB7C9AB2414B1B8813449AB23F4BB9
S315080051501A80BB69DB889BB203F02003002B0CD1B5
S315080051603B6A9B7F43F00103DAB23B6A9A77FA8A75
S31508005170BB8A13449AB23B6A9A83386A7968FFF7FE
S31508005180E7FD0346002B56D03B6A9B8B14339AB235
S315080051903B6A9A833B6A5B685B681B687B623B6A0F
S315080051A05B685B68BB613B6A0833B86919461422B9
S315080051B0FEF746FA3B6A9B8B184604F029FB034622
S315080051C01A46BB695A80BB6900229A710022DA71B5
S315080051D0BB6900229A720022DA72B86914210FF0AC
S315080051E037FF03461A46BB695A813B6A5B687B6090
S315080051F00EE07B6A5B68FB60786A6FF0130105F066
S31508005200BFFB7868796A05F00BFDFB681B687B6253
S315080052107B6A002BEDD1386AF969FFF769FD0B4BFC
S315080052201C88786805F0CCFC0346E31A9AB2074B4B
S315080052301A807B6805E0002303E0786805F038FCEF
S31508005240002318462C37BD4690BD00BF685700207E
S315080052506457002000000000000000000000000065
S3150800526080B58CB000AFF860B9607A60BB681B8CFB
S31508005270FB8414237B8502200021022205F040F9D5
S3150800528038623B6A002B01D1FF23B8E03B6AFA8CEF
S315080052905A813B6A5A893B6A1A815B4B033323F06E
S315080052A003031A463B6A5A603B6A5B68FB61FB6804
S315080052B05B68F86919461422FEF7C2F9FB69DB88B0
S315080052C09BB2184604F0BCFA03463B853B8DC3F3F4
S315080052D00C03BB853B8D03F400537B83FB681B895A
S315080052E0143BFB85FB8C143B002B00DA0733DB10E1
S315080052F03B837BE0FA8DFB8C143B9A42CCBF0023A0
S315080053000123DBB2FB82BB8DC3F30C039AB27B8B02
S3150800531013433B85FB8A002B03D13B8D43F4005393
S315080053203B85FB8A002B03D13B8BDB009BB200E05D
S31508005330FB8DBB82FB6903F11401BA8A7B8DF86881
S3150800534005F0A6FD03461A467B8D13447B853B8DE7
S31508005350184604F05DFA03461A46FB69DA80BB8AEA
S3150800536014339BB2184604F053FA03461A46FB69EF
S315080053705A80FB6900229A720022DA72F8691421AF
S315080053800FF066FE03461A46FB695A81FB8A002B14
S3150800539006D0FB8D14339BB2386A194605F040FADD
S315080053A002200021002205F0ABF838613B69002B8A
S315080053B017D03869396A05F08BFCBB685B69B86831
S315080053C039697A68984700F0D3FA386905F070FBAE
S315080053D0FA8DBB8AD31AFB85BA8D3B8B1344BB85E2
S315080053E004E0386A05F064FBFF2308E0FB8D002B18
S315080053F080D1386A05F05CFB00F0AAFA002318464B
S315080054003037BD4680BD00BF6C5700200000000045
S3150800541080B487B000AFF860B9601346FB80FB889C
S31508005420FB820AE0FB8A013BFB82FB685A1CFA6096
S31508005430BA68511CB96012781A70FB8A002BF1D130
S315080054401C37BD465DF8047B704700BF00000000AE
S3150800545080B487B000AFF860B9601346FB71FB797A
S31508005460FB750AE0FB7D013BFB75FB681A1DFA60BC
S31508005470BA68111DB96012681A60FB7D002BF1D15C
S315080054801C37BD465DF8047B704700BF000000006E
S3150800549080B582B000AF78600BF0C2FF0246064BBB
S315080054A0A3FB0213DA08054B1A60044B1A687B68DB
S315080054B01A600837BD4680BDCDCCCCCC4C5D0020EB
S315080054C080B582B000AF00237B60074B9B8B5A1CCC
S315080054D03B1D054811461A4603F09AFA034B01226A
S315080054E05A820837BD4680BDC40D0020EC0D002049
