:020000040800F2
:1000000000040020D1020008C137000801EE0008FA
:1000100001EE000801EE000801EE000801EE000804
:1000200001EE000801EE000801EE0008B1370008FB
:1000300001EE000801EE0008D1F9000841FA0008BD
:100040009137000891370008913700089137000870
:100050009137000891370008913700089137000860
:100060009137000891370008913700089137000850
:100070009137000891370008913700089137000840
:100080009137000891370008913700089137000830
:100090009137000891370008913700089137000820
:1000A0009137000891370008913700089137000810
:1000B0009137000891370008913700089137000800
:1000C00091370008913700089137000891370008F0
:1000D00091370008913700089137000891370008E0
:1000E00091370008913700089137000891370008D0
:1000F00091370008913700089137000891370008C0
:1001000091370008913700089137000891370008AF
:10011000913700089137000891370008913700089F
:10012000913700089137000891370008913700088F
:10013000913700089137000891370008913700087F
:10014000913700089137000891370008913700086F
:10015000913700089137000891370008913700085F
:10016000913700089137000891370008913700084F
:10017000913700089137000891370008913700083F
:10018000913700089137000891370008913700082F
:10019000913700089137000891370008913700081F
:1001A000913700089137000891370008913700080F
:0C01B00030040008C101000851020008E2
:0401BC00F003000844
:1001C000F8B5184C184D194E194F204603F070F829
:1001D0002A461849204602F093F9174800242A4677
:1001E0003146C0E90144076002F08AF913482A4603
:1001F0003146C0E90074846002F082F91048114E63
:1002000011492A46C0E9004402F07AF92246022147
:10021000304602F0D5FA2A4630460C49BDE8F8408F
:1002200002F06EB9140B00200008002071280008AD
:10023000F827010841320008280B00203C0B002061
:10024000340B0020480B0020212B0008A1270008B8
:100250000448054B03600023C0E90133034A044905
:1002600002F04EB9500B0020A82B01080008002016
:100270000133000800000000000000000000000042
:100280001FB500200FF0E4F800240FF001FA01225E
:10029000CDE902244FF480520192064A06490092A9
:1002A0000346224605480FF09BFA0FF0B9F82046A6
:1002B00004B010BD34190020F1350008D02D01081C
:1002C0000DC0A0E1F8DF2DE904B04CE20000000011
:1002D00072B632488546324880F30988022080F39E
:1002E0001488BFF36F8F2F482D49FA2200F04FF882
:1002F0002D482A49FA2200F04AF8DFF8B0000168D8
:1003000041F4700101602A482A492B4A00F034F870
:100310002A482B49002200F03AF82A4A90472A48F6
:100320002A492B4A90472B482B490430884205D054
:100330000268043003B4904703BCF7E7274A9047AC
:10034000002000218646EC46254A9047254826494C
:10035000884205D00268043003B4904703BCF7E735
:10036000FFF7B6BFFFF7FEBF0EF04ABD0EF048BD67
:100370000EF046BD0EF044BD884207D0521A05D09B
:10038000037801300B700131013AF9D1704788428E
:1003900002D002700130FAE770470000000400202C
:1003A00000080020000400200000002088ED00E08C
:1003B000184D010800080020F40A0020F40A00206B
:1003C000782D002001EB0008782D0020000001208E
:1003D000B1060108B0010008BC01000821EB0008CB
:1003E00081020008BC010008C001000800000000F4
:1003F00010402DE928409FE50030D4E5000053E38C
:100400000500001A1C309FE5000053E318009F15FB
:100410000000A0110130A0E30030C4E51040BDE8A9
:100420001EFF2FE1F40A002000000000144D010817
:100430001C309FE5000053E31EFF2F0110402DE903
:1004400010109FE510009FE50000A0E11040BDE8FE
:100450001EFF2FE100000000F80A0020144D0108E3
:1004600081F0004102E000BF83F0004330B54FEA65
:1004700041044FEA430594EA050F08BF90EA020FD2
:100480001FBF54EA000C55EA020C7FEA645C7FEA65
:10049000655C00F0E2804FEA5454D4EB5555B8BF88
:1004A0006D420CDD2C4480EA020281EA030382EAF9
:1004B000000083EA010180EA020281EA0303362D8B
:1004C00088BF30BD11F0004F4FEA01314FF4801C5E
:1004D0004CEA113102D0404261EB410113F0004F70
:1004E0004FEA03334CEA133302D0524263EB430327
:1004F00094EA050F00F0A780A4F10104D5F1200EC5
:100500000DDB02FA0EFC22FA05F2801841F100011F
:1005100003FA0EF2801843FA05F359410EE0A5F1F3
:1005200020050EF1200E012A03FA0EFC28BF4CF024
:10053000020C43FA05F3C01851EBE37101F00045DA
:1005400007D54FF0000EDCF1000C7EEB00006EEBE7
:100550000101B1F5801F1BD3B1F5001F0CD3490871
:100560005FEA30004FEA3C0C04F101044FEA4452C8
:1005700012F5800F80F09A80BCF1004F08BF5FEA4F
:10058000500C50F1000041EB045141EA050130BD2F
:100590005FEA4C0C404141EB0101013C28BFB1F541
:1005A000801FE9D291F0000F04BF01460020B1FA8C
:1005B00081F308BF2033A3F10B03B3F120020CDA5F
:1005C0000C3208DD02F1140CC2F10C0201FA0CF03D
:1005D00021FA02F10CE002F11402D8BFC2F1200CA2
:1005E00001FA02F120FA0CFCDCBF41EA0C01904058
:1005F000E41AA2BF01EB0451294330BD6FEA0404A1
:100600001F3C1CDA0C340EDC04F11404C4F120028B
:1006100020FA04F001FA02F340EA030021FA04F39D
:1006200045EA030130BDC4F10C04C4F1200220FAF4
:1006300002F001FA04F340EA0300294630BD21FA32
:1006400004F0294630BD94F0000F83F4801306BFF8
:1006500081F480110134013D4EE77FEA645C18BFEC
:100660007FEA655C29D094EA050F08BF90EA020F83
:1006700005D054EA000C04BF1946104630BD91EA7B
:10068000030F1EBF0021002030BD5FEA545C05D17E
:100690004000494128BF41F0004130BD14F58004BD
:1006A0003CBF01F5801130BD01F0004545F0FE4131
:1006B00041F470014FF0000030BD7FEA645C1ABF66
:1006C000194610467FEA655C1CBF0B46024650EA9D
:1006D000013406BF52EA033591EA030F41F40021C9
:1006E00030BD00BF90F0000F04BF0021704730B54F
:1006F0004FF4806404F132044FF000054FF0000124
:1007000050E700BF90F0000F04BF0021704730B5E4
:100710004FF4806404F1320410F0004548BF4042B9
:100720004FF000013EE700BF42004FEAE2014FEA0E
:1007300031014FEA02701FBF12F07F4393F07F4FE9
:1007400081F06051704732F07F4208BF704793F0EC
:100750007F4F04BF41F40021704730B54FF46074FF
:1007600001F0004521F000411CE700BF50EA010202
:1007700008BF704730B54FF000050AE050EA0102AB
:1007800008BF704730B511F0004502D5404261EB1B
:1007900041014FF4806404F132045FEA915C3FF45C
:1007A000D8AE4FF003025FEADC0C18BF03325FEAF9
:1007B000DC0C18BF033202EBDC02C2F1200300FAAA
:1007C00003FC20FA02F001FA03FE40EA0E0021FACF
:1007D00002F11444BDE600BF00000000000000006C
:1007E00070B54FF0FF0C4CF4E06C1CEA11541DBFC7
:1007F0001CEA135594EA0C0F95EA0C0F00F0DEF892
:100800002C4481EA030621EA4C5123EA4C5350EA76
:10081000013518BF52EA033541F4801143F48013C7
:1008200038D0A0FB02CE4FF00005E1FB02E506F058
:100830000042E0FB03E54FF00006E1FB03569CF0AD
:10084000000F18BF4EF0010EA4F1FF04B6F5007FB3
:1008500064F5407404D25FEA4E0E6D4146EB060625
:1008600042EAC62141EA55514FEAC52040EA5E50AE
:100870004FEACE2EB4F1FD0C88BFBCF5E06F1ED858
:10088000BEF1004F08BF5FEA500E50F1000041EB8F
:10089000045170BD06F0004646EA010140EA02003C
:1008A00081EA0301B4EB5C04C2BFD4EB0C0541EA5E
:1008B000045170BD41F480114FF0000E013C00F373
:1008C000AB8014F1360FDEBF002001F0004170BD97
:1008D000C4F10004203C35DA0C341BDC04F11404B0
:1008E000C4F1200500FA05F320FA04F001FA05F23C
:1008F00040EA020001F0004221F0004110EBD37009
:1009000021FA04F642EB06015EEA430E08BF20EA34
:10091000D37070BDC4F10C04C4F1200500FA04F3D7
:1009200020FA05F001FA04F240EA020001F0004169
:1009300010EBD37041F100015EEA430E08BF20EADC
:10094000D37070BDC4F1200500FA05F24EEA020E24
:1009500020FA04F301FA05F243EA020321FA04F053
:1009600001F0004121FA04F220EA020000EBD3700A
:100970005EEA430E08BF20EAD37070BD94F0000F0A
:100980000FD101F00046400041EB010111F4801F3E
:1009900008BF013CF7D041EA060195F0000F18BFEF
:1009A000704703F00046520043EB030313F4801F2B
:1009B00008BF013DF7D043EA0603704794EA0C0FE5
:1009C0000CEA135518BF95EA0C0F0CD050EA4106FB
:1009D00018BF52EA4306D1D181EA030101F0004178
:1009E0004FF0000070BD50EA410606BF10461946A0
:1009F00052EA430619D094EA0C0F02D150EA0136AC
:100A000013D195EA0C0F05D152EA03361CBF1046EC
:100A100019460AD181EA030101F0004141F0FE418B
:100A200041F470014FF0000070BD41F0FE4141F40F
:100A3000780170BD70B54FF0FF0C4CF4E06C1CEA0F
:100A400011541DBF1CEA135594EA0C0F95EA0C0FC4
:100A500000F0A7F8A4EB050481EA030E52EA03357F
:100A60004FEA013100F088804FEA03334FF08055A0
:100A700045EA131343EA12634FEA022245EA1115CD
:100A800045EA10654FEA00260EF000419D4208BF7E
:100A9000964244F1FD0404F5407402D25B084FEA2B
:100AA0003202B61A65EB03055B084FEA32024FF4D7
:100AB00080104FF4002CB6EB020E75EB030E22BF34
:100AC000B61A754640EA0C005B084FEA3202B6EBF4
:100AD000020E75EB030E22BFB61A754640EA5C00A3
:100AE0005B084FEA3202B6EB020E75EB030E22BF33
:100AF000B61A754640EA9C005B084FEA3202B6EB34
:100B0000020E75EB030E22BFB61A754640EADC00F2
:100B100055EA060E18D04FEA051545EA16754FEA54
:100B200006164FEAC30343EA52734FEAC2025FEA72
:100B30001C1CC0D111F4801F0BD141EA00014FF001
:100B400000004FF0004CB6E711F4801F04BF0143D2
:100B50000020B4F1FD0C88BFBCF5E06F3FF6AFAEEE
:100B6000B5EB030C04BFB6EB020C5FEA500C50F17E
:100B7000000041EB045170BD0EF0004E4EEA113101
:100B800014EB5C04C2BFD4EB0C0541EA045170BD08
:100B900041F480114FF0000E013C90E645EA060E4C
:100BA0008DE60CEA135594EA0C0F08BF95EA0C0F7A
:100BB0003FF43BAF94EA0C0F0AD150EA01347FF4C2
:100BC00034AF95EA0C0F7FF425AF104619462CE799
:100BD00095EA0C0F06D152EA03353FF4FDAE1046FC
:100BE000194622E750EA410618BF52EA43067FF44D
:100BF000C5AE50EA41047FF40DAF52EA43057FF4DD
:100C0000EBAE12E700000000000000000000000052
:100C10004FF0FF3C06E000BF4FF0010C02E000BFC8
:100C20004FF0010C4DF804CD4FEA410C7FEA6C5CAB
:100C30004FEA430C18BF7FEA6C5C1BD001B050EA4E
:100C4000410C0CBF52EA430C91EA030F02BF90EA39
:100C5000020F0020704710F1000F91EA030F58BFF8
:100C6000994208BF90422CBFD8176FEAE37040F05A
:100C7000010070474FEA410C7FEA6C5C02D150EAF8
:100C8000013C07D14FEA430C7FEA6C5CD6D152EAB3
:100C9000033CD3D05DF8040B704700BF8446104678
:100CA00062468C461946634600E000BF01B5FFF777
:100CB000B7FF002848BF10F1000F01BD4DF808ED47
:100CC000FFF7F4FF0CBF012000205DF808FB00BF18
:100CD0004DF808EDFFF7EAFF34BF012000205DF872
:100CE00008FB00BF4DF808EDFFF7E0FF94BF0120BF
:100CF00000205DF808FB00BF4DF808EDFFF7CEFFC0
:100D000094BF012000205DF808FB00BF4DF808EDFE
:100D1000FFF7C4FF34BF012000205DF808FB00BFCF
:100D20004FEA410212F5001215D211D56FF4787313
:100D3000B3EB625212D94FEAC12343F0004343EAB6
:100D4000505311F0004F23FA02F018BF4042704791
:100D50004FF00000704750EA013005D111F000401B
:100D600008BF6FF0004070474FF00000704700BFB1
:100D700080F0004002E000BF81F0004142001FBF50
:100D80005FEA410392EA030F7FEA226C7FEA236C59
:100D90006AD04FEA1262D2EB1363C1BFD21841404E
:100DA00048404140B8BF5B42192B88BF704710F0E4
:100DB000004F40F4000020F07F4018BF404211F087
:100DC000004F41F4000121F07F4118BF494292EAEF
:100DD000030F3FD0A2F1010241FA03FC10EB0C001B
:100DE000C3F1200301FA03F100F0004302D54942A8
:100DF00060EB4000B0F5000F13D3B0F1807F06D355
:100E000040084FEA310102F10102FE2A51D2B1F14C
:100E1000004F40EBC25008BF20F0010040EA030041
:100E20007047490040EB0000013A28BFB0F5000FC1
:100E3000EDD2B0FA80FCACF1080CB2EB0C0200FA77
:100E40000CF0AABF00EBC25052421843BCBFD040C6
:100E50001843704792F0000F81F4000106BF80F440
:100E600000000132013BB5E74FEA41037FEA226C03
:100E700018BF7FEA236C21D092EA030F04D092F0CE
:100E8000000F08BF0846704790EA010F1CBF002002
:100E9000704712F07F4F04D1400028BF40F000405F
:100EA000704712F100723CBF00F50000704700F07F
:100EB000004343F0FE4040F4000070477FEA2262A6
:100EC00016BF08467FEA23630146420206BF5FEA77
:100ED000412390EA010F40F4800070474FF0000377
:100EE00004E000BF10F0004348BF40425FEA000C3E
:100EF00008BF704743F0964301464FF000001CE0E6
:100F000050EA010208BF70474FF000030AE000BF3B
:100F100050EA010208BF704711F0004302D5404279
:100F200061EB41015FEA010C02BF844601460020EB
:100F300043F0B64308BFA3F18053A3F50003BCFA06
:100F40008CF2083AA3EBC25310DB01FA02FC6344B3
:100F500000FA02FCC2F12002BCF1004F20FA02F2BA
:100F600043EB020008BF20F00100704702F12002AD
:100F700001FA02FCC2F1200250EA4C0021FA02F20E
:100F800043EB020008BF20EADC707047000000005D
:100F90004FF0FF0C1CEAD0521EBF1CEAD15392EA5C
:100FA0000C0F93EA0C0F6FD01A4480EA010C400238
:100FB00018BF5FEA41211ED04FF0006343EA501092
:100FC00043EA5111A0FB01310CF00040B1F5000FD4
:100FD0003EBF490041EAD3715B0040EA010062F183
:100FE0007F02FD2A1DD8B3F1004F40EBC25008BF6D
:100FF00020F00100704790F0000F0CF0004C08BF8B
:1010000049024CEA502040EA51207F3AC2BFD2F157
:10101000FF0340EAC250704740F400004FF0000365
:10102000013A5DDC12F1190FDCBF00F0004070479F
:10103000C2F10002410021FA02F1C2F1200200FADD
:1010400002FC5FEA310040F1000053EA4C0308BFA4
:1010500020EADC70704792F0000F00F0004C02BFF5
:10106000400010F4000F013AF9D040EA0C0093F070
:10107000000F01F0004C02BF490011F4000F013BCA
:10108000F9D041EA0C018FE70CEAD15392EA0C0F38
:1010900018BF93EA0C0F0AD030F0004C18BF31F0A3
:1010A000004CD8D180EA010000F00040704790F079
:1010B000000F17BF90F0004F084691F0000F91F01D
:1010C000004F14D092EA0C0F01D142020FD193EAE3
:1010D0000C0F03D14B0218BF084608D180EA01006B
:1010E00000F0004040F0FE4040F40000704740F047
:1010F000FE4040F4400070474FF0FF0C1CEAD05215
:101100001EBF1CEAD15392EA0C0F93EA0C0F69D070
:10111000A2EB030280EA010C49024FEA402037D0DB
:101120004FF0805343EA111143EA10130CF00040D2
:101130008B4238BF5B0042F17D024FF4000C8B42C2
:1011400024BF5B1A40EA0C00B3EB510F24BFA3EBA2
:10115000510340EA5C00B3EB910F24BFA3EB910372
:1011600040EA9C00B3EBD10F24BFA3EBD10340EACC
:10117000DC001B0118BF5FEA1C1CE0D1FD2A3FF612
:1011800050AF8B4240EBC25008BF20F001007047C7
:101190000CF0004C4CEA50207F32C2BFD2F1FF036A
:1011A00040EAC250704740F400004FF00003013A9B
:1011B00037E792F0000F00F0004C02BF400010F43F
:1011C000000F013AF9D040EA0C0093F0000F01F053
:1011D000004C02BF490011F4000F013BF9D041EA75
:1011E0000C0195E70CEAD15392EA0C0F08D14202A8
:1011F0007FF47DAF93EA0C0F7FF470AF084676E77B
:1012000093EA0C0F04D14B023FF44CAF08466EE753
:1012100030F0004C18BF31F0004CCAD130F0004221
:101220007FF45CAF31F000437FF43CAF5FE700BF79
:101230004FF0FF3C06E000BF4FF0010C02E000BFA2
:101240004FF0010C4DF804CD4FEA40024FEA410344
:101250007FEA226C18BF7FEA236C11D001B052EAFA
:10126000530C18BF90EA010F58BFB2EB030088BFC0
:10127000C81738BF6FEAE17018BF40F0010070472F
:101280007FEA226C02D15FEA402C05D17FEA236C11
:10129000E4D15FEA412CE1D05DF8040B704700BF58
:1012A000844608466146FFE70FB5FFF7C9FF0028EF
:1012B00048BF10F1000F0FBD4DF808EDFFF7F4FF28
:1012C0000CBF012000205DF808FB00BF4DF808EDC1
:1012D000FFF7EAFF34BF012000205DF808FB00BFE4
:1012E0004DF808EDFFF7E0FF94BF012000205DF806
:1012F00008FB00BF4DF808EDFFF7D2FF94BF0120B7
:1013000000205DF808FB00BF4DF808EDFFF7C8FFAF
:1013100034BF012000205DF808FB00BF0000000082
:101320004FEA4002B2F1FE4F0FD34FF09E03B3EBF2
:1013300012620DD94FEA002343F0004310F0004F32
:1013400023FA02F018BF404270474FF00000704788
:1013500012F1610F01D1420205D110F0004008BF27
:101360006FF0004070474FF0000070470000000031
:1013700003685A004CBF43F0004323F00043184475
:10138000704700BF2DE9F84329B34F1E04461546A8
:101390003E464FF0000808EB060101EBD171491001
:1013A00004EBC1094846FFF7E3FF0346C8000830D5
:1013B0008F42204409D0AB4209D8FFF7D9FF01384A
:1013C000A8420AD201F10108E5E7AB4205D98845F8
:1013D00001D04E1EDFE74FF000094846BDE8F88314
:1013E000012807D0022807D0044B00280CBF18465C
:1013F000002070470248704702487047A51A00084D
:10140000A91A0008AD1A000830B5234B83B0044672
:101410008D1E3BB301A92846AFF30080E8B10199C6
:101420002A46FFF7AFFF0146B8B1FFF7A1FF4B68AF
:10143000A064012B2BD0002B01F1040023DBFFF76C
:1014400097FF0023C4E913030368002B10DBFFF7A9
:101450008FFF2061002003B030BD002309202361ED
:1014600003B030BD0D490E48091AC9100191D7E7E4
:10147000C3F30360FFF7B4FF0028206114BF00200E
:10148000092003B030BD0123C4E91303DCE70023C6
:1014900023610520DFE700BF00000000144D0108B4
:1014A000FC4901080368DA0710B5044606D49B0717
:1014B00000F1480009D500F04FFC2368590709D511
:1014C0001A070ED5DB0613D510BD00F03DFC2368CE
:1014D0005907F5D404F1D00000F046FC23681A0740
:1014E000F0D404F5A87000F047FC2368DB06EBD4C9
:1014F00004F5E870BDE8104000F082BC03460068C7
:1015000000B11844704700BF09207047704700BF02
:1015100070B504460E46316C2046FFF775FF054650
:1015200088B9336C636132462369214601209847AC
:101530000828F0D0072806D12846316CFFF7E6FFCF
:10154000301D00F0F5FB0DF063FF00BF2DE9F04703
:101550000D1D064614460FCDADF5727D0DF10C0C38
:10156000ACE80F000FCDACE80F000FCDACE80F00DA
:1015700095E80F0002ADF768D6F818808CE80F00E8
:1015800000232B6021E02B6C73614FF4F07229462D
:101590007AA80FF0BDFE33697AAA314650469847C3
:1015A000889BCDE9005821466B648146334632461C
:1015B0000120B8470446E8B94FF4F0727AA92846EA
:1015C0000FF0A6FEB9F1080F1BD1296C3046FFF7CA
:1015D0001BFF09345FFA84FA81460028D3D0AB6B35
:1015E0004AF01001CDE9005832466B6401203346C1
:1015F000B84708B14FF0090948460DF5727DBDE8BE
:10160000F087B9F1070FF5D12046296CFFF77EFF6F
:1016100003A800F08DFB00BF406C7047F0B5CB6BAA
:101620000B640E1D0F4605460FCEF9B001AC0FC47A
:101630000FCE0FC40FCE0FC496E80F004FF0FF3649
:1016400084E80F00009606E02B696A462946984711
:101650000828044608D110992846FFF7D5FE00282F
:10166000F2D0092079B0F0BD6846FFF71BFF062CC9
:10167000F7D139462846FFF74BFF00BF30B4DD6B8A
:10168000C160826119461D64002230BC5EE700BF64
:1016900070B5C66843690B64AEB903690A4604466F
:1016A0000D46014602209847072805D008280FD18B
:1016B00029462046FFF72CFF3046296CFFF726FF0E
:1016C000281D00F035FB0122FFF740FF0DF0A0FEC2
:1016D0000DF09EFEC2681AB1CA6B0A64002235E79B
:1016E0009CE700BF704700BF836801460BB1012033
:1016F00018477047012912D009D873B90F2A0CD89E
:1017000000EB820218465368009A13607047033951
:10171000012994BF0120022070470220704708462B
:10172000704700BF10B584B0002303AC0A46009494
:101730001946FFF7DFFF039804B010BD012912D04E
:1017400009D873B90F2A0CD800EB8200009A1268EE
:101750004260184670470339012994BF01200220D6
:101760007047022070470846704700BF10B584B02C
:10177000002303AC039200940A461946FFF7DEFFEC
:1017800004B010BDF0B5D36B1364151D8C4606462E
:101790000FCDADF50F7D17AC0FC40FCD0FC40FCD1E
:1017A0000FC495E80F004FF0FF3784E80F0065463F
:1017B000169710E0FFF7DAFF294616A8B047034650
:1017C00016AA6946082083B9049B98470528044651
:1017D0000CD0092809D026996846FFF715FE034664
:1017E0006A460C2116A8002BE4D0092416A8FFF79E
:1017F00059FE20460DF50F7DF0BD00BF2DE9F04FDD
:10180000CC6C89B00D4654F8041B0694174600F0C2
:1018100003081E46002B79D00B0CDAB209048DF8B0
:101820001D30022304EB820405918DF81C302B6DD2
:10183000B8F1020F08BFAC6B13F001030CD03846AF
:1018400005A900F079FB18B9082009B0BDE8F08FB0
:10185000092009B0BDE8F08FD4F800A0BAF1000F5C
:10186000EDD0019300F008030293022E4AD0B4F8A1
:1018700000A0B4F802900434AA6C29F0010B0F21E7
:1018800038469344FFF74EFF834539D82AF00102CA
:101890005A44824294BF002001204FEA490303F0DA
:1018A00002030AF0010A43EA0A03012B49D0022B82
:1018B00032D0002BCCD1B8F1000F02D0002840F07C
:1018C000CD800434D4F800A0BAF1000FCDD105A921
:1018D000384600F031FB0028BAD1019B002BB3D071
:1018E0000F213846FFF71EFF0E2102463846FFF74C
:1018F0003DFF38466A4A0F21FFF738FF0720A8E767
:101900000020CAE7D4F804900834B5E7090203239D
:101910000591ADF81C308AE7236823F0004BB8F13D
:10192000000F45D128B1029A002A5CD0BBF1000F0C
:1019300074D0002B00DA04340BF1010B04EB8B04A0
:10194000C0E7B8F1000F19D1B0B1D4E90023991C58
:101950004FEAD2723FF47CAF05F158010133049194
:1019600000F09080201DFFF7C9FD04AB014628461A
:1019700010F0BEF900285BD10834A3E70D213846EA
:10198000D5F82090FFF7CEFE8145F5D1AB6A9C4299
:10199000F2D12046FFF7ECFC0F2102463846FFF754
:1019A000E5FE38462A460021FFF7E0FE072050E713
:1019B0000D213846D5F82090FFF7B4FE814501D0BF
:1019C0002368B6E7AB6A9C42FAD104220021C5E93C
:1019D0000B12A318C5F828B06B6323688B4259DB40
:1019E00001230193A8E705F15803CDF80C8004F119
:1019F000040AB04691461E460DE00496FFF77EFDB0
:101A000004AB01460022284610F072F909F10109E1
:101A10000AF1040AE8B9D9455046EED138460D21FD
:101A2000FFF780FE049B2862C5E90934062010E711
:101A300081460D213846FFF775FEB9F1020F286285
:101A400025D12B46049A43F82C2F6B62AC620620FA
:101A5000FFE646462368DDF80C806AE72046FFF77C
:101A600087FC04340246AC632846144610F0A0F903
:101A700000283FF4EDAE384622460F21FFF776FEF0
:101A80000720E6E638460D21FFF74CFE2862049B4E
:101A90006B62DBE70BF1010004EB80007AE700BF2B
:101AA000C12501080023A9E60123A7E60223A5E634
:101AB0002DE9F0430646C3B015461C46042900F242
:101AC000B980DFE801F09A53B7290300002C40F0F9
:101AD000B180102A00F2AE800368D80600F1F380CE
:101AE00020AF384600F096F9B06B0023012404FAC9
:101AF00003F22A42014604D051F8042B47F8232070
:101B000008460133042BF2D1B063384600F078F96F
:101B1000002043B0BDE8F083032C40F08B8094B2EA
:101B200004EB1243102B4FEA124500F28380036846
:101B30001F0700F1D08020AF384600F03FF907EBD7
:101B4000C501B56B54B10B46E81A01EBC401E400C2
:101B50001A5843F8042B8B42FAD125443846B56312
:101B600000F00AF9002043B0BDE8F083012C4FEAF1
:101B7000124895B25AD0052C5CD108EB0509B9F191
:101B8000200F57D8B8F10F0F77D9A946002D40F094
:101B90008880B36B6DB320AF4FF0000907EBC80727
:101BA000043F03EBC50553F8041B47F8041FAB4281
:101BB000F9D1B9F1000F0FD06F464146102938BF57
:101BC000102107EBC101843903EBC90553F8040B5D
:101BD00041F8040FAB42F9D1012C00F08480B8F138
:101BE0000F0FB56345D9B9F1000F02D0684600F078
:101BF000BBF8002043B0BDE8F083DCB9876B234617
:101C0000012094B206F1040C00FA03F22242394694
:101C100004D051F8042B4CF823200F460133102B2D
:101C2000F2D115F40050E4D1B76304E008EB0503EA
:101C3000102B03D9022043B0BDE8F083B8F10F0F99
:101C4000F8D83368DA0706D5304623F0030340F8A6
:101C5000483B00F07DF820AF384600F079F8B36BD0
:101C6000002D99D11D460435B563384600F06CF857
:101C7000BFE720A800F070F8B5E7B9F1100F40D920
:101C8000A9F110093368D90708D523F001033046BC
:101C900043F0020340F8483B00F062F8B9F1000F4E
:101CA00032D033685A0720D4B8F10F0F25D96F46C8
:101CB0003846C8F1100500F05BF8002DB36B7FF7D4
:101CC0007CAF20AF6AE723F01003336006F5E870BD
:101CD00000F0A0F804E723F00803036000F5A87003
:101CE00000F06CF827E720AFBDE7304623F004038F
:101CF00040F8D03B00F03CF8D6E720A800F030F8E0
:101D0000D5E74FF00009BDE7B8F10F0F3FF641AF3F
:101D100020AF384600F024F8B36B002D7FF43CAFC1
:101D2000384600F019F864E70000000000000000E9
:101D300000F1340191E838009C46A6464CF8045D59
:101D400090E8FF0FE54600BD90EC210B704700BF07
:101D500080EC210B704700BF90EC200B704700BF58
:101D600080EC200B704700BFD0EC200B704700BF09
:101D7000C0EC200B704700BFF0EC0201F0EC021148
:101D8000F0EC0221F0EC0231F0EC0241F0EC0251F7
:101D9000F0EC0261F0EC0271F0EC0281F0EC0291E7
:101DA000F0EC02A1F0EC02B1F0EC02C1F0EC02D1D7
:101DB000F0EC02E1F0EC02F1704700BFE0EC020150
:101DC000E0EC0211E0EC0221E0EC0231E0EC024137
:101DD000E0EC0251E0EC0261E0EC0271E0EC028127
:101DE000E0EC0291E0EC02A1E0EC02B1E0EC02C117
:101DF000E0EC02D1E0EC02E1E0EC02F1704700BF60
:101E0000B0FC0181B0FC0191B0FC01A1B0FC01B1BA
:101E1000704700BFA0FC0181A0FC0191A0FC01A1C2
:101E2000A0FC01B1704700BFEC4600B52DE90050A1
:101E30002DE9FF1F4FF000032DE90C0001A9FFF76A
:101E4000EDFBDDF840E012B0704700BFEC4600B596
:101E50002DE900502DE9FF1F4FF000032DE90C0084
:101E600001A9FFF715FCDDF840E012B0704700BF94
:101E7000EC4600B52DE900502DE9FF1F4FF000039F
:101E80002DE90C0001A9FFF725FCDDF840E012B0B8
:101E9000704700BFEC4600B52DE900502DE9FF1F4B
:101EA0004FF000032DE90C0001ABFFF7E7FBDDF875
:101EB00040E012B0704700BFEC4600B52DE900507D
:101EC0002DE9FF1F4FF000032DE90C0001AAFFF7D9
:101ED00059FCDDF840E012B0704700BF0000000080
:101EE000027A7AB9437AA3B14268013B10B44372D3
:101EF00013680321141D01721A024460026010BCB1
:101F0000180E70470368013A02721A020260180E36
:101F10007047B020704700BF00B585B003AA00230A
:101F2000009219460C22FFF7E5FB039805B05DF817
:101F300004FB00BFF0E700BF2DE9F043054685B084
:101F40000E464FF000083046FFF7CAFFB02804469F
:101F500000F0B280070620D500F0F003802B4DD0B2
:101F6000902B36D0A02B60D0B02B74D0C02B00F0BB
:101F70008B8000F0F803D02B0BD100F00702013268
:101F800042F40022052301212846FFF791FD002895
:101F9000D9D0092005B0BDE8F0830DF10C0900236C
:101FA00019468700CDF800900D222846FFF7A2FBC6
:101FB000FFB2039BCDF80090043760064CBFDF1BD7
:101FC000FF18002319460D2228460397FFF7B6FB9A
:101FD000B9E700F00D030D2BDBD003AF002300F0B9
:101FE0000F02194600972846FFF784FB002300974D
:101FF00019460D222846FFF7A1FBA4E73046FFF75C
:102000006FFF24022043B0F5004FC2D0040100232B
:10201000A2B219462846FFF74BFD0028B9D114F4A7
:10202000004F18BF4FF001088DE7C24302F00703CD
:102030004FF47F621A41010702F47F624FF0000300
:1020400048BF42F4804219462846FFF731FD002878
:102050003FF479AF9DE7B12833D0B22800F08B80F0
:10206000B32839D000F0FC03B42B92D000F0070263
:102070000132012342F4002219462846FFF718FDD9
:1020800000283FF460AF84E7C62842D0C7284CD070
:1020900000F0F803C02B5BD0C82860D0C9287FF4BB
:1020A00078AF3046FFF71CFF020300F00F0002F488
:1020B00070220130024365E7B8F1000F18D000200C
:1020C00068E73046FFF70CFF024600283FF461AF97
:1020D00010F0F003D0D05CE73046FFF701FF0103BA
:1020E00000F00F0001F47021421C01230A43C3E7F2
:1020F00003AC43460E22414600942846FFF7FAFA05
:102100000094284643460F224146FFF717FB4046FE
:1021100040E73046FFF7E4FE010300F00F0001F452
:102120007021421C03230A43A6E73046FFF7D8FE7E
:10213000024600283FF42DAF10F0F0037FF429AFE2
:1021400004212846FFF7B4FC00283FF4FCAE20E74A
:1021500000F00F020132032342F420228CE73046C4
:10216000FFF7BEFE00F0F00200F00F031032013363
:1021700043EA023206E700230DF10C090D2219464D
:10218000CDF800902846FFF7B5FA3046FFF7A8FED5
:1021900002064FF002070CD5039B00F07F00B84009
:1021A000034430460393FFF79BFE030607F107073E
:1021B000F2D4039BCDF8009000F07F0403F5017288
:1021C000BC400023144419460D2228460394FFF70F
:1021D000B5FAB8E610B5C26C84B0536803248DF824
:1021E0000C401B0202F108040846D279019301A9B0
:1021F00002948DF80D20FFF79FFE04B010BD00BFC4
:1022000008B5FFF797FE806C08BD00BF08B5FFF763
:1022100091FEC06CC379023300EB830008BD00BFA0
:1022200070470000000000000000000000000000F7
:10223000002A70B505460C461E4603DA08460FF024
:1022400007F90246A86833462146BDE8704004F00D
:102250009FB8000000000000000000000000000027
:10226000034670B59D680B688E685B690846144626
:1022700098472346024631462846BDE8704004F0A0
:1022800087B800000000000000000000000000000F
:1022900038B504460D4600F00BFB024B2360A560E9
:1022A000204638BDC82601080000000000000000DC
:1022B00007B58068002813DB092301220DF107010F
:1022C00003F0EEFF002809DC05D0064B1868A0F1EA
:1022D0000B035842584103B05DF804FB0120FAE7B4
:1022E0000020F8E724190020000000000000000092
:1022F00030B591B01023039303AB0193144604ABA4
:10230000202200930D4609230DEB020103F050FF3C
:10231000002808DD0DB1059B2B6014B1BDF812300B
:10232000238011B030BD05D0044B1B680B2B08BFB8
:102330000020F6E74FF0FF30F3E700BF241900203C
:102340008068FFF7D5BF000000000000000000001B
:10235000806803F0A5BF000000000000000000003E
:10236000F8B51F460B680C4615461146DB68064655
:10237000204698473B462A46A1683046FFF7E8FFCB
:10238000051E236805DBDB6829462046984728465A
:10239000F8BD9B6820469847F9E700000000000060
:1023A000806803F06DBF0000000000000000000026
:1023B0000B6870B50C46DB6815461146064620468C
:1023C00098472A46A1683046FFF7EAFF051E2368B2
:1023D00005DBDB68294620469847284670BD9B6888
:1023E00020469847F9E700000000000000000000C8
:1023F0000B6870B50C46DB6815461146064620464C
:1024000098472A46A168304603F03AFF051E236824
:1024100005DBDB68294620469847284670BD9B6847
:1024200020469847F9E70000000000000000000087
:10243000806804F02DB800000000000000000000DB
:1024400038B50B688D685B6904460846984729468D
:1024500002462046BDE83840FFF7EABF0000000012
:102460001FB5044601A800F0F3F8002211462046EB
:10247000FFF73EFF021E04DD01A92046FFF7B8FF6B
:10248000F3E7204603F01CFE01A800F0A9F804B011
:1024900010BD01A800F0A4F80FF002FC000000003D
:1024A00010B504468068002804DBFFF7D9FF4FF021
:1024B000FF33A36010BD000000000000000000001A
:1024C00010B5054B03600446FFF7EAFF204600F015
:1024D00007FB204610BD00BFC82601080000000011
:1024E00010B50446FFF7ECFF20460C210FF0D0FB9F
:1024F000204610BD000000000000000000000000A9
:1025000000207047000000000000000000000000F4
:1025100001F006BA0000000000000000000000000A
:102520000EF096BA0000000000000000000000005D
:102530000EF09EBA00000000000000000000000045
:10254000014B1860704700BF100B00200000000016
:102550008068B0FA80F04009704700000000000079
:10256000036810B5DB690446984738B923682046EC
:102570005B699847B0FA80F0400910BD0120FCE784
:1025800040687047000000000000000000000000EC
:10259000036870B55B69144605460E4698472246A7
:1025A000824207D2AB689B56B34201D1104670BD40
:1025B0000132F5E74FF0FF30F9E7000000000000BE
:1025C00010B50446806818B10EF052FA0023A360DB
:1025D0000023636010BD0000000000000000000048
:1025E00010B5034B03600446FFF7EAFF204610BD19
:1025F0002827010800000000000000000000000083
:1026000010B50446FFF7ECFF20460C210FF040FB0D
:10261000204610BD00000000000000000000000087
:1026200038B504460D4661B143688B4207D08068D7
:102630000EF016FA0028A06018BF28466060606897
:1026400038BD03689B689847F9E700000000000068
:10265000024A02600022C0E90122704728270108CF
:1026600038B50446154608461144626891420BD8B5
:10267000A368521A184419440EF082FED4E90031BE
:102680002046DB68491B9847204638BD0000000003
:10269000036870B55B690D4604469847A84208D99F
:1026A000A3680122294620465E57FFF7D9FF30462E
:1026B00070BD4FF0FF36FAE7000000000000000098
:1026C000817370470000000000000000000000005F
:1026D000807B704700000000000000000000000048
:1026E0008181704700000000000000000000000031
:1026F000808970470000000000000000000000001A
:102700004160704700000000000000000000000071
:10271000406870470000000000000000000000005A
:102720008160704700000000000000000000000011
:1027300080687047000000000000000000000000FA
:1027400070470000000000000000000000000000D2
:1027500081420AD08B7B83738B8983814B68436072
:102760008B68836091F90F30C373704700000000DD
:1027700010B5102104460FF08BFA204610BD000062
:1027800030B5044D83600023C0E900518381837319
:10279000C27330BD8827010800000000000000005F
:1027A0007047000000000000000000000000000072
:1027B0000EF0A6B9000000000000000000000000BC
:1027C00038B5154604460EF05BF91DB100212046D0
:1027D000FFF7EEFF204638BD0000000000000000BB
:1027E0000EF0DEB900000000000000000000000054
:1027F0007047000000000000000000000000000022
:1028000038B500220D46014604480DF099F92946D5
:1028100004460DF0F5F9204638BD00BFF128000848
:1028200010B508460C460DF003FA204610BD000016
:1028300010B50C460CF02CFF2146BDE810400DF001
:1028400007BA0000000000000000000000000000C7
:1028500010B50446806818B10EF00AF90023A36091
:102860000023636010BD00000000000000000000B5
:1028700010B5034B03600446FFF7EAFF204610BD86
:10288000F827010800000000000000000000000020
:1028900010B50446FFF7ECFF20460C210FF0F8F9C5
:1028A000204610BD000000000000000000000000F5
:1028B000024A026000228280704700BF4828010857
:1028C00001480021FFF774BF480B00200000000002
:1028D0000148FFF785BF00BF480B00200000000043
:1028E0000368DB68184700000000000000000000DB
:1028F00008B510460B4632B104490B6101234A600A
:10290000CB73FFF7EDFF002008BD00BF140B0020C4
:10291000026830B5013A0546002494420DDC131BD1
:1029200004EB63006B6853F820301B688B4201D2C4
:10293000441CF2E703D9421EEFE74FF0FF3030BDF1
:1029400070B505460C46A1B14068814209D0AE6819
:102950006960304689000EF083F80446A86008B12B
:10296000686870BD2B68AE609B6828469847204613
:10297000F7E703689B68F9E700000000000000002B
:1029800042688A4238B512D9846854F8215004EB61
:10299000810304EB8204511E0433A34203D01A685E
:1029A00043F8042CF8E7FFF7CBFF284638BD002595
:1029B000FBE7000000000000000000000000000035
:1029C00038B54368044663B10025D4E90030AB4212
:1029D00005D950F825000EF04BF80135F5E70EF05B
:1029E00047F80023236038BD00000000000000000D
:1029F00038B504460D4669B10068814207D02160B0
:102A0000606889000EF02CF8606008B1206838BD5D
:102A10002060FCE7FFF7D4FF2846F8E7000000003D
:102A2000436870B5054653F821000C4646680EF021
:102A30001FF829680139A14208D96B68013453F89D
:102A4000242003EB840343F8042CF4E72846FFF723
:102A5000CFFF304670BD0000000000000000000005
:102A6000F8B50646FFF72CFF184C2568314620467E
:102A7000FFF74EFF011E05DBA942F7D22046FFF704
:102A8000CFFFF2E7124F00257B68AB421AD9BB6833
:102A900053F825406CB1236820461B6A984786424C
:102AA00009D129463846FFF76BFF236820465B684B
:102AB00098470135E8E7236820469B6A9847864295
:102AC000F7D1EEE7FFF704FF0020F8BD340B00203C
:102AD000280B0020000000000000000000000000A3
:102AE00010B5034B03600446FFF7BAFF204610BD44
:102AF000482801080000000000000000000000005D
:102B000010B50446FFF7ECFF204608210FF0C0F88F
:102B1000204610BD00000000000000000000000082
:102B200010B50446FFF74CFF204610BD0000000022
:102B300010B5034B03600446FFF752FD204610BD5D
:102B4000B82801080000000000000000000000009C
:102B500010B50446FFF7ECFF20460C210FF098F863
:102B6000204610BD00000000000000000000000032
:102B7000036810B5DB690446984730B9A0680EF0C9
:102B800067FCB0FA80F0400910BD0120FCE70000AE
:102B9000806808B10EF06CBC7047000000000000B7
:102BA000806808B10EF064BC7047000000000000AF
:102BB000806808B508B10EF093FC002108BD000044
:102BC000806808B10EF08CBC002000217047000026
:102BD000806808B10DF0B4BB0020002170470000F0
:102BE000806808B10EF034BC70470000000000009F
:102BF00070B5144605460E46FFF7F2FF2246904296
:102C000007D9AB689B56B34201D1104670BD013263
:102C1000F5E74FF0FF30F9E700000000000000008A
:102C2000806808B510B961B9002008BD19B1BDE8C8
:102C300008400EF0BDBC0EF00BFC0028F4D00120C3
:102C4000F3E708460EF004FC003818BF01204042AC
:102C5000EBE70000000000000000000000000000A2
:102C600010B50A490446FFF7DBFF08B9012010BD83
:102C700007492046FFF7D4FF0028F7D00549204632
:102C8000FFF7CEFFB0FA80F04009F0E770280108A6
:102C900075280108694301080000000000000000D9
:102CA0008368994270B505460C4616460CD00368F9
:102CB00062B1DB681146984708B9002070BDA8686A
:102CC000324621460EF09CFB0120F7E769B1084629
:102CD000DE680EF0BDFB01462846B0470028ECD068
:102CE000A86821460EF084FBEEE79B689847E4E76E
:102CF000002A38B505460C4603DA08460EF0A8FB54
:102D0000024621462846BDE83840FFF7C9BF00000B
:102D100070B504460D461646FFF79AFC074B236034
:102D2000324629462046FFF7E3FF04E02046FFF73E
:102D300057FC0EF0B5FF204670BD00BFB828010853
:102D400038B543680C4601319942054606D0FFF775
:102D500067FC034610B1AA6800211155184638BD1A
:102D600070470000000000000000000000000000AC
:102D7000704700000000000000000000000000009C
:102D8000704700000000000000000000000000008C
:102D9000704700000000000000000000000000007C
:102DA00010B5034B0360044600F012FA204610BD34
:102DB0004829010800000000000000000000000099
:102DC00010B50446FFF7ECFF204640210EF060FFEF
:102DD000204610BD000000000000000000000000C0
:102DE00073B50E1E4FF0000412DB3420FFF798FB82
:102DF000012300930A4A01944FF48063314605464B
:102E000000F0E6F8284600F0FBF9012002B070BDA2
:102E10002046FBE7342128460EF03AFF0EF040FF33
:102E20000029010800000000000000000000000070
:102E3000F0B50022044685B00121022003F0E8FA33
:102E40000028E06357DB1022002168460EF0B0FA3C
:102E50000223206B8DF801300BF0AAFD0190A08EAB
:102E60000BF0D6FC1022ADF802006946E06B03F0CF
:102E7000EFF8054600283BD1D4E90E1003F070F9B5
:102E8000054608BB224FE06B0022114603F040F8D4
:102E9000051E236809DB9B6C2946204698470028BD
:102EA000F1D1284603F00CF9EDE72046DB6C98479A
:102EB0003D68236828469E6B0DF002FB2A460346B8
:102EC00000212046B047DEE72368DF6B104B1E6809
:102ED00030460DF0F5FA3246034629462046B847FB
:102EE000E06B03F0EDF84FF0FF33E36305B0F0BDA6
:102EF00023681F6CEAE723685E6C054B1D68284653
:102F00000DF0DEFA2A46034600212046B047E7E7E7
:102F10002419002000000000000000000000000054
:102F200000F01EB9000000000000000000000000DA
:102F3000F7B51D46BDF82C3000930E46BDF828307D
:102F40001746DDE90812044600F012F9054B23602C
:102F500020464FF0FF332763A686A563E36303B0E3
:102F6000F0BD00BF4829010800000000000000007B
:102F7000006B70470000000000000000000000002F
:102F8000094B10B504460360006B40B1FFF788FAA7
:102F9000206B10B103685B689847002323632046C9
:102FA00000F016F9204610BDD829010800000000E5
:102FB00010B50446FFF7E4FF204634210EF068FE0A
:102FC000204610BD000000000000000000000000CE
:102FD00073B50E4611461A46BDF81C3000930446E0
:102FE000BDF8183000F0C4F80B4B23600C20FFF73D
:102FF00097FA3146054600F05BF809E00C212846B7
:103000000EF046FE204600F0E3F80EF049FEF9E728
:103010002046256302B070BDD829010800000000D9
:1030200030B5044685B0206BFFF742F9D8B10022D5
:10303000206B1146FFF784F9051EF4DD01A8FFF7A8
:1030400007FB206B2A4601A9FFF7B2F9206B01A903
:10305000FFF7F6F901A8FFF7C3FAE4E701A8FFF7C5
:10306000BFFA0EF01DFE05B030BD000000000000EC
:1030700010B5034B03600446FFF722FA204610BD4B
:10308000582A0108000000000000000000000000B5
:1030900010B50446FFF7ECFF20460C210EF0F8FDBA
:1030A000204610BD000000000000000000000000ED
:1030B00010B50446FFF7ECF8014B2360204610BD25
:1030C000582A010800000000000000000000000075
:1030D0000368DB69184700000000000000000000E2
:1030E00010B103685B6818477047000000000000DB
:1030F0007047000000000000000000000000000019
:10310000C0690CF09DBA0000000000000000000043
:1031100008B50CF065F9054B5B6813B19A6B013289
:103120009A63BDE808400CF063B900BF282D002069
:1031300008B50CF055F9054B5B6813B19A6B013A71
:103140009A63BDE808400CF053B900BF282D002059
:10315000081E01DD0CF0FCBA18BF4FF0FF30F9E794
:103160000CF09EBA0000000000000000000000000B
:103170002DE9F04104462546884617461E46FFF7CE
:1031800097FB114B45F8083B4FF0FF32414628466C
:10319000FFF7BEFD268300266761E66104F120008B
:1031A000FFF756FA08E02846FFF7C2FC2046FFF773
:1031B00097FC0EF075FDF9E7BDF8183084F82C6027
:1031C000E3852046BDE8F081B82A01080000000030
:1031D00010B5074B044640F8203BFFF701FA04F115
:1031E0000800FFF7A5FC2046FFF77AFC204610BD3B
:1031F000B82A0108000000000000000000000000E4
:103200001FB5044641692030FFF70AFA6369626A14
:1032100093420ED1E28D0392B4F918200649206939
:10322000CDE90132A36A0093044A23460CF0D8FA90
:10323000E06104B010BD00BFD1300008E1300008EB
:1032400010B5034B03600446FFF77AFA204610BD21
:10325000282B010800000000000000000000000012
:1032600010B50446FFF7ECFF204614210EF010FDC8
:10327000204610BD0000000000000000000000001B
:1032800070B50D460446FFF763FA2B692361236886
:103290005E692B6828469B6998473346014620465D
:1032A000BDE870401847000000000000000000006A
:1032B000002310B51A4604461946FFF761FA044B7D
:1032C0002360002323610223A381204610BD00BF99
:1032D000282B010800000000000000000000000092
:1032E00010B50446806818B10DF0C2FB0023A3603E
:1032F0000023636010BD000000000000000000001B
:1033000010B5034B03600446FFF7EAFF204610BDEB
:10331000A82B0108000000000000000000000000D1
:1033200010B50446FFF7ECFF20460C210EF0B0FC70
:10333000204610BD0000000000000000000000005A
:1033400010B5034B03600446FFF72AFD204610BD6D
:10335000C82C010800000000000000000000000070
:1033600010B50446FFF7ECFF204640210EF090FC1C
:10337000204610BD0000000000000000000000001A
:1033800073B50E1E4FF0000412DB3420FFF7C8F8AF
:10339000012300930A4A01944FF4806331460546A5
:1033A00000F0B6F82846FFF72BFF012002B070BDF1
:1033B0002046FBE7342128460EF06AFC0EF070FC34
:1033C00000290108000000000000000000000000CB
:1033D0001FB5CDE90223064B019100930549012356
:1033E000342200200EF024FB05B05DF804FB00BF82
:1033F000CC2B0108C02B01080000000000000000D9
:103400001FB5CDE90223064B019100930549012325
:10341000392200200EF00CFB05B05DF804FB00BF64
:10342000FC2B0108F02B0108000000000000000048
:103430001FB5CDE90223064B0191009305490123F5
:103440003E2200200EF0F4FA05B05DF804FB00BF48
:103450002A2C0108202C01080000000000000000B8
:103460001FB5CDE90223064B0191009305490123C5
:10347000432200200EF0DCFA05B05DF804FB00BF2B
:103480005C2C0108502C0108000000000000000026
:1034900030B585B00446BDF82C500395BDF82850D2
:1034A0000295099D0195089D0095FFF741FD024B8E
:1034B0002360204605B030BDC82C01080000000084
:1034C000FFF7B6BC00000000000000000000000094
:1034D00010B5034B03600446FFF752FD204610BDB4
:1034E000882D01080000000000000000000000001E
:1034F00010B50446FFF7ECFF204634210EF0C8FB60
:10350000204610BD00000000000000000000000088
:1035100037B500250195BDF8185000950446FFF712
:1035200057FD024B2360204603B030BD882D0108B3
:1035300007B50549009101232B2200200EF078FAEF
:1035400003B05DF804FB00BF202D0108000000005F
:1035500007B5054900910123302200200EF068FADA
:1035600003B05DF804FB00BF302D0108000000002F
:1035700030B585B00446FFF7DBFF236820469B6B20
:103580009847FEF795FE00B3236820469B6B98474B
:1035900000221146FEF7D4FE051EEEDD01A8FFF75E
:1035A00057F8236820469B6B984700232A4601A9B9
:1035B000FEF7D6FE236820469B6B984701A9FEF7CD
:1035C0003FFF01A8FFF70CF8D7E72046FFF7C0FF41
:1035D00005B030BD01A8FFF703F80EF061FB000055
:1035E000024B9988186800F0ABB900BFAC0A002004
:1035F0001FB5FEF7A5FF1A4B1A4A19681A480DF0B5
:10360000FFFF1A4B1A49184800931C2201230EF0A1
:103610000FFA00F0D5FF174B1749134800932A22E1
:1036200001230EF005FA4020FEF77AFF4FF4806385
:1036300000220193114B0093CDE9022210234FF495
:10364000FA610446FFF724FF2046FFF7D9FD0CF08E
:1036500027F8FCE7402120460EF01AFB0EF020FB75
:1036600030190020811701085C0B0020DD2D0108B6
:10367000D02D0108F62D0108E92D0108092E0108B9
:10368000254B9A68D96812F00C0205D00C2A15D186
:1036900001F00301012918D119682048090755BF15
:1036A000D3F894101968C1F30321C1F3031150F842
:1036B000210082B30C2A09D000207047042A29D0A7
:1036C000082A174818BF002070470020D968DA6818
:1036D00001F00301C2F30212022902F1010205D036
:1036E000032912D0D968C1F3062103E0D9680D4837
:1036F000C1F30621DB68B0FBF2F0C3F34163013391
:1037000048435B00B0FBF3F07047D9680448C1F34D
:103710000621EFE70348704700100240C04301084C
:1037200000127A000024F4000000000000000000F5
:10373000054B064A9B68C3F30223D35C044A106816
:1037400003F01F03D840704700100240B043010847
:10375000600A0020000000000000000000000000DF
:10376000054B064A9B68C3F3C223D35C044A106826
:1037700003F01F03D840704700100240B043010817
:10378000600A0020000000000000000000000000AF
:1037900000B5F0B42DE9000F044B5868103840B262
:1037A0000BF09EFEBDE8000FF0BC00BD00ED00E098
:1037B0007047000000000000000000000000000052
:1037C0007047000000000000000000000000000042
:1037D000024A536843F080535360704700ED00E0A5
:1037E00062B670470000000000000000000000000A
:1037F000EFF3108080F0010072B670470000000007
:1038000008B5FFF7F5FFFFF73BFF4FF47A73064962
:10381000B0FBF3F0054B00220138586081F82320FB
:103820009A6007221A6008BD00ED00E010E000E099
:10383000EFF3108080F001007047000000000000EE
:10384000002801D062B600E072B6704700000000A8
:103850001F280F4A09D80123126803FA00F010420A
:1038600018BF184608BF00207047A0F120011F298B
:103870004FF0010305D852688B40134218BF012056
:10388000F0E79268403803FA00F01042F6E700BF14
:1038900000E100E000000000000000000000000067
:1038A00010B50446FFF7D4FF1F2C094A4FF001035F
:1038B00002D8A340136010BDA4F120011F298BBFC3
:1038C000403C8B40A340536088BF9360F3E700BF48
:1038D00000E100E000000000000000000000000027
:1038E00010B50446FFF7B4FF1F2C0A4A4FF001033E
:1038F00003D8A340C2F8803010BDA4F120011F29D5
:103900008BBF403C8B40A340C2F8843088BFC2F8D4
:103910008830F1E700E100E0000000000000000056
:10392000BFF34F8F024B034ADA60BFF34F8FFEE7BE
:1039300000ED00E00400FA050000000000000000B7
:10394000036902690B401B0421EA02018361816162
:1039500070470000000000000000000000000000B0
:1039600081617047000000000000000000000000BE
:1039700009048161704700000000000000000000A1
:1039800000690840704700000000000000000000CF
:103990004B688088C01A80B27047000000000000A9
:1039A00091F9543083420BD18B6C8A6D18681042A8
:1039B0000CD05A600A6D136823F00103136070473E
:1039C00091F93030834204BF8B6C1B687047000054
:1039D0004B688088C01A80B2704700000000000069
:1039E00003681A6890F92030002B14BF00232023AD
:1039F0001A4214BF012000207047000000000000A0
:103A000008B50146FFF7ECFF91F920300A68002B5A
:103A1000116814BF4FF0FF336FF020030B401360A9
:103A200008BD0000000000000000000000000000D1
:103A300070B5044688B000F108050E4621B128464D
:103A400010220DF065FC35462268136823F001034F
:103A500013600021202268460DF0AAFC2B7928680B
:103A60000090092B14BF00234FF4805301936A790F
:103A7000022A38D0032A39D000220292AA79012AD8
:103A800037D0022A14BF00224FF4C06203920C22E6
:103A900026680492039A31681343A54A0A401343E7
:103AA00043F4004343F00C03059A3360079B0299EB
:103AB0001343069A134372680B4322F47C52134358
:103AC00073609C4B9E4217D103F55843D3F888305E
:103AD00003F00303022B63D0032B21D0012B34D13D
:103AE000FFF7CEFD33E04FF44052C6E74FF40052EB
:103AF000C3E74FF48062C9E78F4B9E4214D103F5B0
:103B0000E633D3F8883003F00C03082B48D005D8EF
:103B1000002B42D0042BE3D000201EE00C2BFBD165
:103B2000430803F5803340E0844B9E42F4D103F513
:103B3000E433D3F8883003F03003202B30D002D8A0
:103B40005BB3102BE7E7302BE9E7FFF709FE009A9C
:103B5000530803EB4000B0FBF2F0A0F110024FF667
:103B6000EF739A4206D820F00F039BB2C0F34200D5
:103B70001843F0602268136843F0010313602B7A46
:103B8000002B00F0B4806B7A013B032B12D8DFE8E6
:103B900013F00F00C500C800CB00FFF7C9FDD6E742
:103BA000430803F1F47303F59043B3FBF0F0D4E75B
:103BB0000023E36394F90400FFF792FE94F92030A8
:103BC000002B2368196814BF4FF0FF326FF02002FA
:103BD0000A401A602A7AD20742D59A68E66AE069F2
:103BE00022F040029A603368002223F00103336020
:103BF000114684F820200CF00BF932465049E06958
:103C00000CF006F94F4BA16A9E428CBF4E4A4F4AB8
:103C100013680B431360002333603368E26B4C4935
:103C2000134343F0A0033360E3699A887260A26B88
:103C3000B2601B682268F360936843F040039360AE
:103C4000012384F82030224694F930000BF030FC38
:103C500094F93000FFF724FE336843F0010333602A
:103C60002B7A9B0743D52168E26A8B68256D206C0F
:103C700023F080038B601368364923F0010313603F
:103C800000232A4684F844300CF0CAF82D4BE16C2E
:103C90009D428CBF2C4A2D4A13680B4313600022AF
:103CA0002A602B68216E0B4343F090032B60E36D79
:103CB0006A60AB60236C22681B68EB6093682449E0
:103CC00043F0800393602B6843F002032B6022468D
:103CD00094F954000BF0ECFB94F95400FFF7E0FD6D
:103CE000012384F844302B6823F001032B601A4928
:103CF00094F9040022460BF0DBFB94F90400FFF773
:103D0000CFFD94F920302268002B136814BF0021E6
:103D100020210B430020136008B070BD4FF4805386
:103D200047E74FF4005344E74FF4405341E700BFE7
:103D3000F369FFEF003801400044004000480040B4
:103D40009139000800040240A8040240A800024083
:103D5000A1390008D1390008B13E00080000000078
:103D6000704700000000000000000000000000009C
:103D7000C16108467047000000000000000000001C
:103D800001640846704700000000000000000000C9
:103D9000C069704700000000000000000000000043
:103DA000006C7047000000000000000000000000F0
:103DB00090F90400704700000000000000000000BF
:103DC0008069704700000000000000000000000053
:103DD00081610846704700000000000000000000FC
:103DE0000368D86980F04000C0F38010704700007D
:103DF0000368D869C0F3C0107047000000000000DD
:103E00000368DB6913F0280F14BF012000207047FE
:103E1000F8B590F9443004461BB3066D3368DA07F1
:103E200018D4006C0CF0D4F80546206C0CF0D8F8CF
:103E3000854207460FD92D1A65B1226C1068A26D14
:103E40000744F7607560336813433360336843F0A9
:103E500001033360F8BDFDD2206C0CF039F8C51BAE
:103E6000EAE7C37B1B0704D5436999881868FFF705
:103E700077FD2268136843F080031360EAE70000CF
:103E800010B5C37B1B07044609D52046FFF7A8FFE2
:103E90000028FAD1636999881868FFF769FD2268DC
:103EA000136823F08003136010BD000000000000C1
:103EB00038B591F9043083420C460AD1CB6913B36B
:103EC000082594F920302BB1206C10BB2368082200
:103ED0001A6238BD2046FFF793FF0028F4D023680C
:103EE000E069998CC9B20BF0FBFF18B9A36943F0E4
:103EF0001003A361A36943F00103A36123681D625A
:103F0000DFE723689B8C2046FFF77AFF0028F8D173
:103F1000DAE70BF08DFF48B92046FFF769FF28B1BB
:103F2000206C0CF025F8236880B21885206C0BF00B
:103F30007FFF0028CAD02046FFF7A2FFC6E7000097
:103F4000F8B504460F461646002198221D460DF08E
:103F50002FFA06223946A01C0DF0DAF9022231466A
:103F600004F108000DF0D4F92570F8BD0000000040
:103F70002DE9F04F062380F858304388A0F85230DE
:103F80004368436505460389A0F85A3000218FB085
:103F900005F10A04084602F04BFB0021204600F020
:103FA000EFFA0121204600F0EBFA0221204600F052
:103FB000E7FA0321204600F0E3FA002108902046AA
:103FC00000F0DEFA01210746204600F0D9FA02216E
:103FD0004FEA0049204600F0D3FA032183462046E9
:103FE00000F0CEFA49EA076900210746204600F0B2
:103FF000C7FA01210646204600F0C2FA02214FEA24
:104000000048204600F0BCFA03210690204600F04C
:10401000B7FA48EA066800210646204600F0B0FAE2
:1040200001218246204600F0ABFA000440EA0A6A09
:104030000221204600F0A4FA03210790204600F058
:104040009FFA079A089B40EA0A0A4AEA0222120EDD
:1040500047EA090742EA0363069A47EA0B2B46EA56
:10406000080646EA02264FEA0B2B0BF47F0B360AB2
:1040700043EA0B0306F47F46334305F10E060021A5
:1040800030460B9300F07CFA0121304600F078FABC
:104090000221304600F074FA0321304600F070FA35
:1040A00000210990304600F06BFA0121804630462D
:1040B00000F066FA02214FEA0049304600F060FA4B
:1040C00003218346304600F05BFA49EA0869002183
:1040D0008046304600F054FA01218246304600F016
:1040E0004FFA02210704304600F04AFA03210690F5
:1040F000304600F045FA00210790304600F040FAC3
:1041000047EA0A6701218246304600F039FA000486
:1041100040EA0A6A0221304600F032FA0321089090
:10412000304600F02DFA089A099B40EA0A0A4AEA4A
:104130000222120E42EA0363079A3A4348EA090848
:104140001746069A48EA0B2B47EA02274FEA0B2B41
:104150000BF47F0B3F0A05F1120643EA0B0307F449
:104160007F473B43002130460C9300F009FA0121C0
:10417000304600F005FA0221304600F001FA032132
:10418000304600F0FDF900210990304600F0F8F9C2
:1041900001218046304600F0F3F902214FEA004940
:1041A000304600F0EDF903218346304600F0E8F98F
:1041B00049EA086900218046304600F0E1F9012112
:1041C0008246304600F0DCF902210704304600F058
:1041D000D7F903210690304600F0D2F9002107906C
:1041E000304600F0CDF947EA0A67012182463046A1
:1041F00000F0C6F9000440EA0A6A0221304600F0E5
:10420000BFF903210890304600F0BAF9089A099BDB
:1042100040EA0A0A4AEA0222120E42EA0363079AB5
:104220003A4348EA09081746069A48EA0B2B47EA38
:1042300002274FEA0B2B0BF47F0B3F0A43EA0B03D9
:1042400007F47F473B43002120460D9300F098F987
:1042500001210646204600F093F902210746204638
:1042600000F08EF903218046204600F089F9164BB4
:104270000093CDE90380CDE901671449012336227B
:1042800000200DF0D5FB124B0293124B019305F168
:104290001C0440F2DC5600230CAA0BA90093A5F8DD
:1042A00050600DAB204602F0A3FC2046A5F85060FC
:1042B00002F01EFD204602F04BFD204602F020FDDC
:1042C0000FB0BDE8F08F00BF802E0108A02E0108BE
:1042D000A1650008C1E9000800000000000000001E
:1042E00090F900007047000000000000000000008E
:1042F0001C307047000000000000000000000000BB
:104300000A3000F04DB9000000000000000000007D
:104310000E3000F045B90000000000000000000071
:10432000123000F03DB90000000000000000000065
:10433000163000F035B90000000000000000000059
:104340000A3070470000000000000000000000007C
:104350000E30704700000000000000000000000068
:104360001230704700000000000000000000000054
:104370001630704700000000000000000000000040
:1043800037B50546FFF7B4FF04462846FFF7F0FFB0
:1043900000F0FEF80AF00CFB94F83D30019043F079
:1043A000200384F83D30204608F02AFD01A9201D95
:1043B00008F02EFE10B102480CF08AF803B030BDB0
:1043C000B02E010800000000000000000000000006
:1043D000044B10B50446186808B10CF049FB0023E3
:1043E000637010BD640B002000000000000000009E
:1043F0002DE9F041002500F11C078AB00562044652
:10440000384607F0DDFD3A4B00933A490123572225
:1044100028460DF00DFB3E26256ABDB1384607F053
:104420002FFF2B0E0493C5F307430393C5F3072314
:104430000293EDB2304B00930195012362222D4986
:1044400000200DF0F5FA0AB0BDE8F081013E4BD135
:10445000384607F015FF2046FFF772FF014607A810
:1044600000F0A6F82046FFF773FF014608A800F009
:104470009FF82046FFF774FF014609A800F098F85E
:104480002046FFF735FF09AB08AA07A902F080FB19
:104490001A4B184900937A22012330460DF0C8FACE
:1044A0002046FFF74DFF314600F06AF805462046EA
:1044B000FFF746FF012100F063F807462046FFF7AB
:1044C0003FFF022100F05CF880462046FFF738FFEE
:1044D000032100F055F80A4B0093CDE90380CDE9A4
:1044E000015701237B22AAE764200BF031F993E7FF
:1044F000C02E0108102F0108D32E0108EF2E01084D
:10450000802E0108000000000000000000000000F4
:104510007FB505904FF443700CF09AFA0E4B18607B
:10452000059B18B9587007B05DF804FB0122002103
:104530005A70CDE902214FF44372CDE900020749D8
:10454000074A08480BF04CF99DF91530002BEAD0CA
:104550000BF0A6F8F8E700BF640B0020F143000859
:10456000D1430008002F01080000000000000000F7
:1045700083709DF8003001704270C3707047000076
:10458000032994BF405C0020704700000000000039
:10459000006800BA70470000000000000000000042
:1045A00004220CF0B5BE0000000000000000000076
:1045B0000B6803607047000000000000000000006E
:1045C00070B58AB00A230093A8220123C02106A84F
:1045D000FFF7CEFF0024FF231A46194607A80094D0
:1045E000FFF7C6FF01230093A822C02108A8FFF708
:1045F000BFFF80230093FF231A46EF2109A8FFF78E
:10460000B7FF204A204921482346FFF799FC1F485D
:1046100006A9FFF775FE1D4807A9FFF779FE1B489D
:1046200008A9FFF77DFE194809A9FFF781FE174881
:10463000FFF79EFC1548FFF753FE10B11348FFF734
:1046400067FF1248FFF79CFE1048FFF751FE047900
:104650000E48FFF74DFE45790C48FFF749FE867975
:104660000A48FFF745FEC3790949CDE90363094BC1
:104670000093CDE901450123402200200DF0D8F937
:104680000AB070BD502F0108602F0108680B002090
:10469000402F0108302F010800000000000000003A
:1046A00000F11003DBB2102B9DBF4042024B53F8C8
:1046B00020000520704700BF702F01080000000097
:1046C00010B5044660B1006820B102F029FC002357
:1046D000C4E9003321460720BDE8104002F0F0B9DC
:1046E00010BD0000000000000000000000000000FD
:1046F00010B5044620B9BDE8104006480CF0D0BD06
:10470000006808B102F00CFC0023A373C4E9003375
:10471000238210BDC02F010800000000000000002F
:1047200070B50E461546044628B90D480CF0B8FD84
:104730006FF00F0070BD006808B102F0F1FB41227C
:104740000021362002F024FC206018B960604FF090
:10475000FF30EFE746600581458160600020E9E7B2
:10476000E02F010800000000000000000000000031
:104770000A68FA2310B50B710C320C4601F040FFA9
:1047800008B994F9040010BD00000000000000000A
:1047900000B589B038B909480CF082FD6FF00F0000
:1047A00009B05DF804FB00908DF8081029236946D4
:1047B00003488DF80930FFF7DBFFF1E7003001080F
:1047C000D1590008000000000000000000000000B7
:1047D00030B50D4689B0114600F032FE0446A0B156
:1047E000009069460A488DF80850FFF7C1FF60B194
:1047F00004F10C0009F014FD04F1100009F088FC2C
:104800002146082002F05CF90024204609B030BDA2
:10481000B15300080000000000000000000000008C
:1048200000B589B038B10090292304488DF80930CB
:104830006946FFF79DFF09B05DF804FB615600086B
:1048400038B5054640B1FFF7EBFF044610B92846DE
:1048500000F036FE204638BD0446FBE700000000AD
:1048600000B589B038B90C480CF01AFD6FF00F0094
:1048700009B05DF804FB09B90848F5E70AB908482A
:10488000F2E7CDE902120090694606488DF8103033
:10489000FFF76EFFECE700BF203001083E30010853
:1048A0005C300108615900080000000000000000B1
:1048B00000B589B038B90A480CF0F2FC6FF00F006F
:1048C00009B05DF804FB074B0090002908BF1946AA
:1048D00002910548ADF80C206946FFF749FFEFE764
:1048E00080300108D0420108015700080000000094
:1048F00000B589B038B908480CF0D2FC6FF00F0051
:1049000009B05DF804FB00908DF808100348694673
:10491000FFF72EFFF4E700BFA03001085157000851
:1049200000B589B020B1037803F0F003102B07D055
:1049300007480CF0B5FC6FF00F0009B05DF804FB00
:104940000090029103486946FFF712FFF5E700BFA8
:10495000C0300108A158000800000000000000005D
:1049600000B589B038B907480CF09AFC6FF00F0019
:1049700009B05DF804FB0090029103486946FFF717
:10498000F7FEF5E7F03001082158000800000000AC
:10499000F0B589B00E9E30B922480CF081FC6FF062
:1049A0000F0009B0F0BD047804F0F004102C05D01D
:1049B0001D480CF075FC6FF00500F2E7047F03F072
:1049C000040504F002042C4302D0002EF3D000248E
:1049D000254601F1040C04E05CF834707D19EAD23C
:1049E0000134A242F8DC002D01D10020D9E703DA1E
:1049F000002EE0D06FF0004500900291ADF80C2041
:104A00000A488DF81C3000226946CDE9055204920F
:104A1000FFF7AEFE0028C4D1002EE6D0069B33601F
:104A2000BFE700BF103101082C31010811590008FF
:104A30001FB5CDE90212069A009202A90122FFF7E2
:104A4000A7FF05B05DF804FB0000000000000000B7
:104A500038B5044660B1074800210CF051F8002336
:104A600094F90850034823720CF09AF8284638BD90
:104A70000546FBE79409002000000000000000004C
:104A8000F0B505468BB00E4639B924480CF008FC49
:104A90006FF00F0420460BB0F0BD00230B6008B987
:104AA0001F48F3E7FFF7D4FF04468DF80300002802
:104AB000F0D105F11407384609F072FB10B96FF018
:104AC0000E04E7E72B7FDA07F9D49B0708D501A985
:104AD000384609F055FB013007D16FF00604D9E7DD
:104AE000224601A9384609F033FB6B6A1BB100224C
:104AF00001212846984701980DF1030100F038FC88
:104B000010B19DF90340C5E7019D002DD7D00548A0
:104B1000029502A9FFF72CFE3560BBE75031010872
:104B200070310108E158000800000000000000009A
:104B3000F7B500230446164601930D4631B92A48BD
:104B40000CF0AEFB6FF00F0003B0F0BD0B6008B9C6
:104B50002648F5E700F11007384609F021FB38B97F
:104B60002046FFF775FF0028EED16FF00A00EBE753
:104B7000237F06F0040603F00303334301A93846FC
:104B800002D194F9082072B109F0FAFA01300CD17F
:104B90002046FFF75DFF0028D6D1237FDB07E4D452
:104BA0006FF00600D0E709F0D3FA2378019803F0FC
:104BB000F003102B16D10DF1030100F0D9FB30B139
:104BC0009DF9030010F10F0F08BF0020BCE7019B07
:104BD0001A89636A13B1012120469847019B2B6013
:104BE0000020B1E70368F3E790310108AE31010816
:104BF00008B540B1037803F0F003102B03D0BDE8F3
:104C00000840FFF795BF03480CF04AFB6FF00F0018
:104C100008BD00BFD0310108000000000000000006
:104C2000F0B5044689B010300F46164609F0B8FAC0
:104C3000002847D094F91C20237F002A12DA03F0C1
:104C40007F032377636A1BB1002201212046984726
:104C5000636883BB2046FFF7FBFE051E08BF6FF0AD
:104C60000D051CE0324639462046FFF761FF054638
:104C7000A8B932073F6809D4A7B13A89237803F06D
:104C8000F003102B10D011480CF00AFB3FB9F306CB
:104C9000D8D5237F63F07F0323776FF0060528467E
:104CA00009B0F0BD0122E9E7694609480094029283
:104CB000FFF75EFDEAE701212046FFF769FD6FF08F
:104CC0000E05ECE76FF00A05E9E700BFC030010808
:104CD000A1580008000000000000000000000000D3
:104CE00008B540B1037803F0F003102B03D1BDE801
:104CF0000840FFF795BF03480CF0D2FA6FF00F00A1
:104D000008BD00BFC0300108000000000000000026
:104D100010B588B030B90C480CF0C2FA6FF00F0033
:104D200008B010BD094C0090002908BF2146002A98
:104D300008BF2246CDE9021205488DF811306946B8
:104D4000FFF716FDECE700BF00320108D042010872
:104D5000315A0008000000000000000000000000C0
:104D60002DE9F0471746BDF820901D46064620B9AC
:104D70003846BDE8F04702F0D3B800F110084046CD
:104D800009F00EFA0028F3D01149FB22072001F0A8
:104D90007FFE04460028EBD0C0E9007705B12D68FE
:104DA000A5602146A4F80C9040463D8909F0C0F961
:104DB000014620B12046BDE8F047FFF781BC736A89
:104DC00023B12A463046BDE8F0471847BDE8F087D2
:104DD0003032010800000000000000000000000068
:104DE00010B544680146204602F012FE20460949EB
:104DF00002F016FE2046084902F01AFE2046074936
:104E0000022202F02DFE20460549BDE8104002F0C6
:104E100017BE00BF01530008B1520008D15100086D
:104E2000314E0008000000000000000000000000FB
:104E30002DE9F04104460D462D4800210BF060FE9F
:104E4000237F66782A48257243F0010300272377E1
:104E5000676067700BF0A4FE636A1BB13A460421D9
:104E600020469847636A1BB10022114620469847A6
:104E7000636A1BB1002202212046984705F10F0307
:104E8000DBB2022B98BF1B4A04F11008404694BFC6
:104E900052F82370002709F083F918B139464046CB
:104EA00009F046F904F11408404609F079F918B1FF
:104EB0003946404609F03CF9012E02D0F31E012B81
:104EC00013D8237F23F0040213F0040322770CD1BC
:104ED000226A042E10680CBF13711571002323621F
:104EE0000C30BDE8F04109F07BB9BDE8F08100BFAE
:104EF0009C09002090320108000000000000000022
:104F00002DE9F047036A067F93F81C8006F002063D
:104F100008F0040304461E434FF6FF79226A9368A3
:104F2000106919685B6801441B1A6068B3F5803F1B
:104F3000B0F864502ABF4FF6FF779FB248F00208DE
:104F4000AF4237D9002E31D0002D31D19369002BDB
:104F50000CBF6FF006050025236AD3E905329A429B
:104F60005FD2636A1BB10022032120469847237F4A
:104F700043F010032377002D68D1236AD3E905326B
:104F80009A4261D0003E18BF0126606805F028FAF9
:104F9000043068D16FF00305236A18681D7100237F
:104FA000236263700C3009F01BF95EE048F00208E0
:104FB0002F4604E04F4502D1B3F5803F05D29BB2A6
:104FC000BB4223D19389012B20D948F002084FF02E
:104FD000010A43463A4604F043FD0546C8B9216A32
:104FE0008B6988680A693B448B61436817449F4218
:104FF0000F6107D18B89013B9BB28B8113B10830C4
:1050000088600D61BAF1000F88D108E04FF0000A06
:10501000DFE7431CDBB2012BBED84FF0FF35002E7B
:105020009AD16368B3F8641040F6B732914203D95D
:10503000B3F86630042B9ED9636A002B9BD0002204
:1050400003212046984796E701269EE76B1CA3D1D3
:10505000606805F0C5F904309CD036B1236A9B69BD
:1050600033B1002598E7002EFBD10020BDE8F08782
:105070006FF0060590E7000000000000000000004F
:10508000036A1B7A032B2DE9F0474468054603F0B9
:10509000010903F002080FD0B9F1000F05D0237DFC
:1050A0005A1F012A08D9082B06D0B8F1000F16D0D4
:1050B000678B17F0100704D00021204602F0A8FCEF
:1050C0000127237D012B0CD10021204602F0C0FCDA
:1050D00027BB42464946204603F02AF821E04746CE
:1050E000EFE7B9F1000F07D00021204602F098FC4D
:1050F0000021204602F0ACFCB8F1000F03D00021E3
:10510000204602F095FC002FE3D0002211462046F5
:1051100002F0A6FC0021204602F092FC204602F09C
:105120004FFF064660B1431C0AD12B6A93F809A0D1
:10513000BAF1000F2DD11FB1204602F089FD56466D
:105140002B6A1C681E7100230C342B626B70CEB965
:1051500037B16B6A6E601BB132460421284698470E
:10516000B9F1000F05D06B6A1BB100221146284629
:105170009847B8F1000F05D06B6A1BB100220221DD
:1051800028469847204609F02BF800263046BDE80F
:10519000F087B8F1000F03D00849204602F048FC20
:1051A00001222046064902F05BFC2046054902F038
:1051B00047FC2946204602F02BFCE7E7B1520008E5
:1051C000D1510008314E000800000000000000002E
:1051D00010B54378012B04461BD1FFF791FE237FC6
:1051E000DA0614D5626892B1B2F8640040F6B731BD
:1051F00088420CD9B2F86620042A08D823F010039C
:105200002377636A1BB100220221204698470020C1
:1052100010BD042BE3D1026A1AB1537A0BB1013BE2
:1052200053722046FFF72CFFD9E700000000000072
:105230002DE9F0410F4614460646B8B100F11008BA
:10524000404608F0ADFF88B122464FF4207100209F
:1052500002F05EF8054648B11249B522072001F078
:1052600017FC044628B9284601F05AFE0020BDE884
:10527000F0810D4BC0E900551B6983603B7C838145
:10528000014640462D8908F053FF014618B12046DB
:10529000FFF716FAEAE7736A002BE7D02A46304692
:1052A0009847E3E73032010844290020000000005D
:1052B00038B515460446D0B14378012B19D1FFF714
:1052C0001FFE63689BB1B3F8641040F6B732914299
:1052D0000DD9B3F86630042B09D8237F23F01003CF
:1052E0002377636A1BB12A46022120469847002093
:1052F00038BD042BE5D1FFF7C3FEE2E70000000054
:105300002DE9F0410F461546064630B300F110086E
:10531000404608F045FF044660B91DB90024204608
:10532000BDE8F0813846298902F01AFB284601F0D1
:10533000F7FDF4E775B12F892946404608F0F8FEDD
:10534000044668B9736A002BE8D001463A463046F5
:105350009847E4E7044D0027EEE76FF00504DEE729
:105360004FF0FF34DBE700BFB0320108000000005F
:10537000094B984203D1F3230B7001207047074B70
:10538000984201D1F223F7E7054B984201D1F1236E
:10539000F2E70020704700BFA0320108C0320108C8
:1053A000B032010800000000000000000000000012
:1053B00038B505680023037104466868F0B92B7896
:1053C00003F0F003202B1FD0402B0AD0102B2AD142
:1053D00002F056FD6860206843683BB3FFF700FDAC
:1053E00009E0217A02F00CF9226868605068E8B19F
:1053F0000F4902F005F823685B68BBB12068BDE87F
:1054000038400C3008F0ECBE05F0BAFE2268686047
:10541000506858B113780749222B04BF0123037445
:1054200005F066FEE7E7FA232371E7E7FF23FBE7D2
:1054300031520008614D000800000000000000002B
:10544000F8B540F2C72205460E4608201A4901F079
:105450001FFB044668B3002303720570436005F028
:10546000F000202803D0402801D0102810D104F1EA
:1054700010070421384608F03BFE014640B904F10C
:105480000C0008F09DFE054640B1384608F040FE8D
:105490002146082001F014FB00240AE004F1140066
:1054A00008F086FEC4E908564FF0FF336570A3612B
:1054B00025772046F8BD00BF30320108000000000B
:1054C00038B500F10C050446284608F0A9FE284628
:1054D00008F0B6FE21460820BDE8384001F0F0BAD9
:1054E00073B500F110050446284608F059FE58B17E
:1054F00001A9284608F044FE013018D1284608F0DA
:1055000007FE284608F054FE1434204608F048FEF2
:1055100058B101A9204608F033FE01301AD12046C7
:1055200008F0F6FD204608F043FE02B070BD237877
:10553000019803F0F003102B09D10DF10301FFF7DF
:1055400017FF0028D4D1019801F0EAFCD0E7FFF75B
:10555000B7F8CDE701980DF10301FFF709FF064603
:105560000028D6D1019D2846FFF7BAFF686810B120
:1055700002F06EFB6E602846FFF7A2FFC9E700004D
:10558000F8B50C46054618B96FF005042046F8BD7D
:1055900000F11407384608F003FE0028F4D06CB977
:1055A0002C49384608F0C4FD02460028ECD16B6A4D
:1055B000002BE9D0014628469847E5E7696A287834
:1055C000FFF73EFF064668B92249384608F0B0FDAD
:1055D000024620B96B6A13B10146284698474FF03E
:1055E000FF34D3E74460FFF7FBFB204602F078F876
:1055F0003146384608F09CFD044618B37468002113
:10560000204602F005FA2046002102F009FA204661
:10561000002102F00DFA00221146204602F020FA85
:105620000021204602F00CFA06F1100400237360FA
:10563000204608F06DFD204608F0BAFD3046FFF721
:105640003FFFCCE76B6A002BA0D0024601462846FC
:1056500098479BE7A032010800000000000000000E
:1056600038B504460068437813F0FD0F12D0032BC1
:1056700002D1037F5B070DD4FB23237120680C301C
:1056800008F0D6FD002836D02068BDE838400C3040
:1056900008F0A6BD00252571FFF722FF2368586892
:1056A000B8B11A7802F0F002202A20D0402A0BD09C
:1056B000102A0BD104225A700322227218461C624F
:1056C000BDE83840FFF7DCBC01F062FF2368002230
:1056D0005A602068436A13B1002211469847206837
:1056E000436A002BCAD0002202219847C6E74562D0
:1056F00005F00EFDEAE738BD0000000000000000E4
:10570000036810B50446586840B11B7803F0F003F5
:10571000202B10D0402B04D0102B11D06FF005009F
:1057200002E0A16801F05CFE20712068BDE8104035
:105730000C3008F055BDA289A16805F0A1FAF3E785
:10574000A289A16802F02CF8EEE70000000000003A
:10575000036837B50446586800285AD01A7802F012
:10576000F002102A57D15B78002B47D1037D1BB183
:10577000FA238DF8073031E0217A0DF1070202F0AB
:105780005FF8054650B32068103008F009FD38B1C5
:105790002068103008F0BCFC2068103008F008FDCC
:1057A0002068002314308DF8073008F0F9FC30B978
:1057B00020680421143008F09BFC8DF807009DF947
:1057C0000730A3B9216802234B704D60284602F0D0
:1057D0001FF923681149586802F03AF920689DF8CA
:1057E000073023710C3008F0FBFC03B030BD2846B5
:1057F00002F0E6FB236800225A60EFE7022B08D193
:1058000000238DF80730237A012B38BF012303775B
:10581000E4E7F523ADE7F023ABE700BF81550008CF
:1058200073B504460068FFF713F978B92368586820
:1058300060B31B7803F0F003202B13D0402B25D14D
:10584000A268936811684BB901F09AFE2071206834
:105850000C3002B0BDE8704008F0C2BC083201F064
:1058600057FEF3E7A568AA7BAE6829682B8A02F089
:10587000020216B905F0D4FBE8E7AE89CDE90023B2
:10588000334605F1080205F073FBDFE76FF00A000D
:10589000DCE7000000000000000000000000000045
:1058A000F8B50023037103685A68044692B11B7867
:1058B00003F0F003102B0DD185684FF6FF77BD4242
:1058C00023682E4628BF3E465868B1B202F048F819
:1058D000AD1BF4D12068BDE8F8400C3008F080BC66
:1058E000002310B5037103680446586830B11B7873
:1058F00003F0F003102B01D101F002FF2068BDE896
:1059000010400C3008F06CBC0000000000000000EB
:1059100010B504460068FFF79BF8034620688BB972
:10592000037803F0F003102B0AD1437883B943685E
:105930008BB1012343700462BDE81040FFF7E0BA69
:105940006FF0050323710C30BDE8104008F048BC2F
:105950006FF00403F6E76FF00A03F3E700000000BE
:1059600030B4046863689BB1017C8268B9B11D687A
:10597000156000220271227802F0F002202A16D06F
:10598000402A0ED0102A05D1D9B91A7D012A1BD878
:10599000F523037104F10C0030BC08F021BC5D68F4
:1059A000E6E70029F4D0C2681B7C1380F2E711B14E
:1059B000C2685B8AF9E71A7C5207E9D5C2689B8AFC
:1059C000F3E7DB8AC268F0E71B8BFBE7000000000F
:1059D00010B504460068436863B1037803F0F00330
:1059E000102B07D1227A4378032A01D0022B01D051
:1059F000032B06D1F52323710C30BDE8104008F0CD
:105A0000EFBB012B01D1FB23F5E7D30701D5FFF74E
:105A100067FD2068042343700462BDE81040FFF76F
:105A20002FBB00000000000000000000000000008C
:105A3000F52310B5037103685A6804465AB11B7800
:105A400003F0F003202B0FD1637CD0E9021043B99F
:105A500007F0DEFA20712068BDE810400C3008F035
:105A6000BFBB07F065FBF5E7FA230371F3E700001E
:105A70002DE9F84FDFF86880DFF860B007460E4682
:105A80000025C2462C01002158460BF039F854F885
:105A90000890B9F1000F17D108EB040B0F4848F834
:105AA00004700BF07DF8CBF80490ABF808903B78CD
:105AB00003F0F0035444102B18BF01266681A4F8AC
:105AC0000C902846BDE8F88F584601350BF068F871
