:020000040800F2
:1000000000010020B1010008B1280008412C0008BF
:10001000412C0008412C0008412C0008412C00080C
:10002000412C0008412C0008412C0008A1280008A0
:10003000412C0008412C0008410C0008910C0008DC
:10004000712800087128000871280008712800082C
:10005000712800087128000871280008712800081C
:10006000712800087128000871280008712800080C
:1000700071280008712800087128000871280008FC
:1000800071280008712800087128000871280008EC
:1000900071280008712800087128000871280008DC
:1000A00071280008712800087128000871280008CC
:1000B00071280008712800087128000871280008BC
:1000C00071280008712800087128000871280008AC
:1000D000712800087128000871280008712800089C
:1000E000712800087128000871280008712800088C
:1000F000712800087128000871280008712800087C
:10010000712800087128000871280008712800086B
:10011000712800087128000871280008712800085B
:10012000712800087128000871280008712800084B
:10013000712800087128000871280008712800083B
:10014000712800087128000871280008712800082B
:10015000712800087128000871280008712800081B
:10016000712800087128000871280008712800080B
:1001700071280008712800087128000871280008FB
:1001800071280008712800087128000871280008EB
:1001900071280008712800087128000871280008DB
:1001A00071280008712800087128000871280008CB
:1001B00072B6304880F30988022080F31488BFF3B8
:1001C0006F8F2D482B49FA2200F04CF82B482C4910
:1001D000FA2200F047F82B482B492C4A00F037F858
:1001E0002B482C49002200F03DF82B4A90472B4821
:1001F0002B492C4A90472C482C49884200F0078014
:100200000268043003B4904703BCFFF7F6BF284AE6
:100210009047002000218646EC46264A9047264813
:100220002649884200F007800268043003B49047F2
:1002300003BCFFF7F6BFFFF7BBBFFFF7FEBF02F03F
:10024000FFBC02F0FDBC02F0FBBC02F0F9BC88422E
:1002500007D0521A05D0037801300B700131013AF2
:10026000F9D17047884203D002700130FFF7FABF1E
:100270007047000000020020000100200000002064
:10028000000100204047000800020020A0020020DA
:10029000A002002024090020612600082409002073
:1002A0000050002011110008B0010008B001000842
:1002B000A127000841040008B0010008B0010008AF
:1002C00080B483B000AF7860FEE700BF000000009C
:1002D00080B584B000AFF860B9607A60064B1A68E8
:1002E000054B9B881046194602F0BAFCF86800F0EE
:1002F00097FA1037BD4680BD0002002000000000C4
:1003000080B584B000AF78600023FB6028E08020D7
:1003100000F026FFB860BB68002B14D0FB684133A7
:10032000B8681946802201F053FCBB687F33002275
:100330001A70B86801F06CFC0246114B1B6813443C
:100340001A460F4B1A600F4B1B681846B9684FF0DE
:1003500000024FF0000301F053F8FB680133FB602B
:10036000FB68032BD3DD0848002100F041FF074B59
:100370001B685A1C054B1A60034800F0C1FFC3E715
:10038000B0080020A8080020A0080020AC08002029
:1003900080B584B000AF786013481449002201236F
:1003A00000F03EFD1048282100F092FD104B1B6824
:1003B00018464FF000024FF0000301F049F8F860D2
:1003C000F86800F0EDFE0B48002100F011FF0A4B29
:1003D0001B685A1E084B1A60064800F091FF002067
:1003E00000F00EFAE2E700BFB4080020D1020008D6
:1003F000A8080020A0080020AC0800200000000091
:1004000080B582B000AF786000F07AF9084B1B68C5
:100410005A1E074B1A6000F09BF9642000F0F0F9B7
:1004200000F096FE03460348194601F061FBEBE736
:10043000AC0800205045000800000000000000004B
:1004400080B586B004AF78603960002000F078F89D
:100450001B48002100F0B4FE042000F091FF02468A
:10046000184B1A60184B00934FF40073019301234B
:100470000293164816490022002300F049FA154B52
:1004800000934FF400730193012302931248134920
:100490000022002300F03CFA114B00934FF400734C
:1004A0000193012302930F480F490022002300F01B
:1004B0002FFA00F03DF8002318460837BD4680BDEE
:1004C000A0080020A8080020A00200206045000825
:1004D00001030008A00400207045000891030008F3
:1004E000A00600208045000801040008000000006C
:1004F00080B500AF02F0E4F90346184680BD00BFA6
:1005000080B582B000AF7860786802F0F9F90837FA
:10051000BD4680BD0000000000000000000000009B
:1005200080B500AF02F00CFA80BD00BF00000000F3
:1005300080B500AF00F024FB80BD00BF00000000CC
:1005400080B582B000AF0346FB7102F089FA00F07B
:100550000FFD0346184602F06BFA97F907309BB27D
:100560001BB2184600F07CFA02F072FA0837BD465A
:1005700080BD00BF0000000000000000000000007F
:10058000EFF30980704718460000000000000000EB
:1005900080B582B000AF0346FB80084B1B68002B80
:1005A00007D0064B1B68F988054A126808461146B1
:1005B0009847FB8818460837BD4680BDE4080020F0
:1005C000E80800200000000000000000000000001B
:1005D00080B584B000AF7860482000F0C1FDF860BD
:1005E000FB68002B08D0F8680021482201F0F0FADF
:1005F000FB687A689A6002E00820FFF7C9FFFB6891
:1006000018461037BD4680BD000000000000000005
:1006100080B582B000AF7860786800F0C1FD08371F
:10062000BD4680BD0000000000000000000000008A
:1006300080B485B000AF7860124B1B68FB60FB682C
:10064000002B0ED002E0FB685B68FB60FB685B6818
:10065000002BF8D1FB687A685A607B68FA681A60E8
:1006600008E0084B7A681A607B6800221A607B6891
:1006700000225A607B6818461437BD465DF8047B3B
:10068000704700BFD80800200000000000000000F4
:1006900080B483B000AF7860184B1B687A689A42C8
:1006A0000CD17B685A68154B1A60144B1B68002BE1
:1006B0001CD0124B1B6800221A6017E07B681B6875
:1006C000002B04D07B681B687A6852685A607B688C
:1006D0005B68002B04D07B685B687A6812681A60DC
:1006E0007B6800225A607B6800221A607B6818468B
:1006F0000C37BD465DF8047B704700BFD80800206A
:1007000080B582B000AF00237B6002F0D9F838607A
:100710000B4B1B68002B0AD0094B1B681B8F1BB2AD
:100720007B60074B1B681A8F013292B21A873868B8
:1007300002F0E6F87B6818460837BD4680BD00BF6A
:10074000DC080020000000000000000000000000A5
:1007500080B582B000AF00237B6002F0B1F8386052
:100760000F4B1B68002B10D00D4B1B681B8F1BB24F
:10077000002B0ADD0A4B1B681B8F1BB27B60084BEA
:100780001B681A8F013A92B21A87386802F0B8F8DB
:1007900000F05EF87B6818460837BD4680BD00BF94
:1007A000DC08002000000000000000000000000045
:1007B00080B584B000AF7860396000F0E1FBC7E934
:1007C00002017B681B8C43F001039AB27B681A8498
:1007D00001E000F03DF87B681B8C03F00103002B67
:1007E0000AD03B681A464FEAE273D7E9020100F0EB
:1007F0003FFB0346002BECD01037BD4680BD00BF49
:1008000080B582B000AF786000F01AF90346184650
:100810007968FFF7CDFF0837BD4680BD00000000B6
:1008200080B584B000AF7860FFF762FEF8607B6847
:100830001B8C23F001039AB27B681A84F868FFF7D7
:100840005FFE1037BD4680BD0000000000000000C4
:1008500080B500AF0F4B1B68002B18D00D4B1B68E9
:100860001B8F002B13D102F003F90346002B0ED08F
:10087000084B1B68074A1268128C42F0020292B2BF
:100880001A84054B4FF6FF721A80FFF749FE18468F
:1008900080BD00BFDC080020E00800200000000050
:1008A00080B584B000AF786002F0DAF8F8607B6859
:1008B0001B8C43F004039AB27B681A847B68DB6B61
:1008C000002B05D07B68DB6B7A68926A10469847EC
:1008D0007868FFF7DDFE7868FFF79AFE786800F029
:1008E0002FFBF86802F0CCF81037BD4680BD00BF82
:1008F00080B500AF054B1B68044A1268128C42F0A9
:10090000040292B21A84FFF7A3FFFCE7DC08002080
:1009100080B588B000AFF860B9607A603B600023B2
:10092000FB6102F09DF8B861BB6A002B1ED0FB6A28
:10093000B86AFA211A4601F04BF9FB6A403BBA6AE1
:1009400013447B6178690021402201F041F93A6843
:100950007B691A62334A7B695A63BB6823F00102E0
:100960007B699A637B694FF00452DA632E4B1B68F4
:10097000002B02D12D4B1B6801E02B4B1B68184646
:10098000FFF726FEF861FB69002B42D0FB690022CD
:100990001A84BB6A002B1AD0FB6ABA6A13443B6103
:1009A0003B69403B1A46FB69DA60FB6ABA6A1A4443
:1009B000FB699A61FB69BA6A5A61FB695B6903F179
:1009C0004002FB695A61FB69BA6ADA6112E0FB69AD
:1009D000174ADA60FB69DA68FB699A61FB69154AB4
:1009E0005A61FB695B6903F14002FB695A61FB696B
:1009F000104ADA61FB69FA685A62FB693A689A62DE
:100A0000FB693A8E5A84FB697A68DA63F869FFF702
:100A10000FFEB86902F034F8FB6918462037BD466E
:100A200080BD00BFF1080008DC080020D8080020C5
:100A30000002002000010020000000000000000073
:100A400080B400AF034B1B681846BD465DF8047BBD
:100A5000704700BFDC08002000000000000000001C
:100A600080B586B004AF0346FB80002300930023CB
:100A70000193B7F9063002930748002100220023B2
:100A8000FFF746FF0246054B1A60044B1B681846E9
:100A90000837BD4680BD00BFB0460008DC08002016
:100AA00080B582B000AF78607B68DA687B685B698C
:100AB0009A4205D97B68DA687B689B699A421CD99F
:100AC0007B68DA687B685B699A4203D80120FFF78C
:100AD0005FFD12E07B68DA687B68DB699A4203D8C5
:100AE0000420FFF755FD08E07B68DA687B689B69A6
:100AF0009A4202D90220FFF74BFD7B68DA687B68D7
:100B00001B699A4203D37B681B69002B03D17B6866
:100B1000DA687B681A610837BD4680BD00000000B6
:100B200080B582B000AF124B1B687B6001F058FEAD
:100B3000786800F075FA15E07B685B683B60786860
:100B4000FFF7AEFF7B681B8C03F00403002B07D07C
:100B5000084B1B687A689A4202D07868FFF7A0FEBB
:100B60003B687B607B68002BE6D10837BD4680BDC3
:100B7000D8080020DC080020000000000000000071
:100B800080B500AFFFF7CCFFFFF762FEFAE700BFCA
:100B900080B400AF244B1B68244A12685A64224B6D
:100BA0001B681B8F002B3AD1214B1B889BB21A4626
:100BB000013A91B21E4A11801BB2002B2FDA08E0D5
:100BC000194B1B68184A1268128C22F0020292B26A
:100BD0001A84154B1B685B68002B03D0124B1B68F3
:100BE0005B6801E0134B1B680F4A13600E4B1B68D8
:100BF0001B8C03F00603002BE2D10B4B1B685A8CB5
:100C00000B4B1A800A4B1B881BB2002B02DA084BD5
:100C100000221A80044B1B685A6C044B1A60BD46B4
:100C20005DF8047B704700BFDC080020F808002056
:100C3000E0080020D80800200000000000000000AC
:100C400000B5EFF3098020E9F00F80F3098801F087
:100C500087FE0B4B1C68FFF793FC0346E360FFF72E
:100C600097FF074B1B68DB6883F3098801F0A0FE40
:100C7000EFF30980B0E8F00F80F3098800BD00BFF2
:100C8000DC08002000000000000000000000000060
:100C900000B5EFF3098020E9F00F80F3098801F037
:100CA0005FFE144B1C68FFF76BFC0346E360124BBE
:100CB000D3E90023013243F100030F49C1E90023C6
:100CC0000C4B1968D1E90C23013243F10003C1E94F
:100CD0000C23FFF75DFF074B1B68DB6883F3098874
:100CE00001F066FEEFF30980B0E8F00F80F30988A9
:100CF00000BD00BFDC080020D0080020000000007C
:100D000080B483B000AF78607B681B69002B14BF90
:100D100000230123DBB218460C37BD465DF8047B87
:100D2000704700BF0000000000000000000000004D
:100D300080B582B000AF78607B681B7E03F0010352
:100D4000002B02D0786800F02BFA0837BD4680BD32
:100D500090B585B000AF78603960FFF7C9FBF860E7
:100D60007B681C6C002C09D000E064686368002B71
:100D7000FBD13B6863603B681C6008E07B683A68B5
:100D80001A643B6800221A603B6800225A60F868C7
:100D9000FFF7B6FB3B6818461437BD4690BD00BF51
:100DA00080B584B000AF78603960FFF7A1FBF860D0
:100DB0007B681A6C3B689A420CD13B685A687B6826
:100DC0001A647B681B6C002B1CD07B681B6C002298
:100DD0001A6017E03B681B68002B04D03B681B6857
:100DE0003A6852685A603B685B68002B04D03B68E5
:100DF0005B683A6812681A603B6800225A603B6878
:100E000000221A60F868FFF77BFB3B681846103732
:100E1000BD4680BD00000000000000000000000092
:100E200080B586B000AFF860B9607A60FB70FFF7FC
:100E300007FE7861FB68002B14D0F86800211C22A3
:100E400000F0C6FEFB7823F00103DAB2FB681A76E5
:100E5000FB68BA689A60FB687A68DA607869F96852
:100E6000FFF776FFFB6818461837BD4680BD00BF08
:100E700080B586B000AFC7E90201C7E900230023AF
:100E8000FB75D7E9002352EA03011BD0D7E9002301
:100E9000B3F1FF3F08BFB2F1FF3F11D000F070F88F
:100EA000D7E90223801A61EB0301D7E900239042BE
:100EB00071EB030CB4BF00230123DBB2FB7501E02F
:100EC0000123FB75FB7D18461837BD4680BD00BF6A
:100ED00080B584B000AF78603960FFF709FBF86037
:100EE0007B683A681A617B683A685A61F868FFF76C
:100EF00007FB7B6818461037BD4680BD0000000028
:100F000080B584B000AF78603960FFF7F1FAF8601F
:100F100038680021FFF7DCFF78683968FFF740FF89
:100F20003868FFF705FFF868FFF7EAFA1037BD46A3
:100F300080BD00BF000000000000000000000000B5
:100F400080B582B000AF786005E07B681B6C786884
:100F50001946FFF7D5FF7B681B6C002BF5D10837CE
:100F6000BD4680BD00000000000000000000000041
:100F700080B400AF01231846BD465DF8047B70477E
:100F800080B400AF044BD3E9002310461946BD4698
:100F90005DF8047B704700BFD0080020000000000F
:100FA00080B586B000AFF860B9607A6000237B61DD
:100FB000BB681B69002B28D0BB681A697B689A4202
:100FC00004D3BB681A697B68D31A00E00023BA68AF
:100FD0001361BB681B69002B17D1BB689B68002B92
:100FE00006D0BB689B68BA68D268F868B968984749
:100FF000BB681B7E03F00203002B03D1BB685A6958
:10100000BB681A617B6901337B617B6918461837BD
:10101000BD4680BD00000000000000000000000090
:1010200080B588B000AF786001F04AFC78611B4B56
:10103000D3E9002311461A4BD3E900231346CB1AF8
:101040003B613B69002B21D0144BD3E900231449A9
:10105000C1E9002317E07B681B6CBB610BE078687B
:10106000B9693A69FFF79CFF0346FA691344FB61CB
:10107000BB695B68BB61BB69002BF0D17B685B68B7
:10108000FB60FB687B607B68002BE4D1786901F032
:1010900037FCFB6918462037BD4680BDD0080020CC
:1010A000F008002000000000000000000000000028
:1010B00080B483B000AF0346FB800C37BD465DF8BB
:1010C000047B7047000000000000000000000000EA
:1010D00080B483B000AF0346FB800C37BD465DF89B
:1010E000047B7047000000000000000000000000CA
:1010F00080B483B000AF7860FEE700BF000000005E
:1011000080B483B000AF78603960FEE70000000073
:1011100080B582B000AF786039607868396800F0D7
:1011200097FD0837BD4680BD0000000000000000AC
:1011300080B500AF00F0F4FD03469BB21BB2184629
:1011400080BD00BF000000000000000000000000A3
:1011500080B500AF00F034FE0346184680BD00BFE6
:1011600080B582B000AF7860786801F059F9034625
:1011700018460837BD4680BD000000000000000092
:1011800080B582B000AF786039607868396801F066
:1011900087F9034618460837BD4680BD00000000A9
:1011A00080B582B000AF7860786801F029FA08371E
:1011B000BD4680BD000000000000000000000000EF
:1011C00080B582B000AF78600B46FB707868002174
:1011D000082200F0FDFC7B68FA785A710837BD469A
:1011E00080BD00BF00000000000000000000000003
:1011F00080B58AB000AF78603960FFF779F978621E
:101200007B689B790133DAB27B689A71786AFFF761
:1012100077F93B68002B0ED007F1080318463968B0
:10122000FFF756FE07F108031846002100220223AB
:10123000FFF7F6FD08E007E07B685B7903F0010348
:10124000002B01D1FFF704FB786800F029F8034672
:10125000002B0DD13B68002BEED03B68002B07D054
:1012600007F108031846FFF74BFD0346002BE3D0B8
:10127000FFF73EF978627B689B79013BDAB27B68C5
:101280009A71786AFFF73CF9012318462837BD4662
:1012900080BD00BF00000000000000000000000052
:1012A00080B586B000AF7860FFF7CAFB3861FFF702
:1012B0001FF9F8607B681B79002B07D07B681A68E0
:1012C0003B699A4202D00023FB750AE07B681B79D8
:1012D0000133DAB27B681A717B683A691A600123BC
:1012E000FB75F868FFF70CF9FB7D18461837BD460B
:1012F00080BD00BF000000000000000000000000F2
:1013000090B585B000AF78600023FB73FFF7F0F86D
:10131000B8607B681B79002B15D07B681C68FFF7D1
:101320008FFB03469C420ED17B681B79013BDAB2EE
:101330007B681A717B681B79002B02D17B680022C5
:101340001A600123FB737B689B79002B0BD0B86874
:10135000FFF7D6F87B685B7903F00103002B05D11A
:10136000FFF776FA02E0B868FFF7CAF8FB7B184689
:101370001437BD4690BD00BF000000000000000013
:1013800080B584B000AF78600C20FFF7E9FEF8600C
:10139000FB68002B2ED07B68B3F1FF3F09D1FB68BF
:1013A00000229A60FB687A681A60FB6800225A6023
:1013B00020E07B689B001846FFF7D2FE0246FB68E0
:1013C0009A60FB689B68002B0FD0FB689A687B686B
:1013D0009B00104600211A4600F0FAFBFB687A6871
:1013E0001A60FB6800225A6004E0F868FFF7D8FE34
:1013F0000023FB60FB6818461037BD4680BD00BF68
:1014000080B588B000AFF860B960C7E90023FFF786
:10141000B7FDC7E9060101E0FFF71AFAF868B968F5
:1014200000F03EF80346FB75FB7D002B08D1D7E9A1
:101430000601D7E90023FFF71BFD0346002BEBD085
:10144000FB7D18462037BD4680BD00BF0000000070
:1014500080B588B000AFF860C7E90023FFF790FDC2
:10146000C7E9060101E0FFF7F3F9F86800F068F852
:1014700078617B69002B08D1D7E90601D7E9002301
:10148000FFF7F6FC0346002BEDD07B6918462037AA
:10149000BD4680BD0000000000000000000000000C
:1014A00080B584B000AF786039600023FB7301F031
:1014B000D7FAB8607B681B68B3F1FF3F1ED17B6829
:1014C0009A687B685B6801339B0010461946FFF7FA
:1014D00057FE02467B689A607B689B68002B20D091
:1014E0007B689A687B685B68581C796848609B00D9
:1014F00013443A681A600123FB7312E07B685A6850
:101500007B681B689A420CDA7B689A687B685B6828
:10151000581C796848609B0013443A681A6001239C
:10152000FB73B86801F0ACFAFB7B18461037BD4678
:1015300080BD00BF000000000000000000000000AF
:1015400080B586B000AF786000237B6101F088FA37
:1015500038617B685B68002B15DD7B685B68591E12
:101560007A6851609B00FB607B689B681B687B61AD
:101570007B6899687B689B681A1DFB680846114662
:101580001A4600F0DDFA386901F07AFA7B691846EC
:101590001837BD4680BD00BF0000000000000000FD
:1015A00080B584B000AF786039600023FB60786854
:1015B000002102F0FDFCB860BB68002B07DBBA68B5
:1015C00013465B001344DB00034A1344FB60FB68D3
:1015D00018461037BD4680BDE046000800000000F8
:1015E00080B582B000AF786039603B689B683A1D77
:1015F00038681146012298470346012B01D17B68C8
:1016000001E04FF0FF3318460837BD4680BD00BFEC
:1016100080B582B000AF7860396078683968FFF7CC
:10162000DFFF034618460837BD4680BD00000000B6
:1016300080B584B000AFF860B9607A60BB68002BF9
:101640000AD0BB681B687A68D2B21A70BB681B6884
:101650005A1CBB681A600AE07B680A2B03D10D2074
:10166000F968FFF7D5FF7868F968FFF7D1FF103701
:10167000BD4680BD0000000000000000000000002A
:1016800080B588B000AFF860B9607A603B60002335
:10169000FB612023BB613B68002B20DD00237B61C5
:1016A0007B683B6105E07B6901337B613B6901330A
:1016B0003B613B691B78002BF5D17A693B689A4204
:1016C00002DB00233B6003E03A687B69D31A3B608E
:1016D000BB6A03F00203002B01D03023BB61BB6A5D
:1016E00003F00103002B0ED10AE0F868B968BA696B
:1016F000FFF79EFFFB690133FB613B68013B3B60E9
:101700003B68002BF1DC0CE07B681B78F868B9685B
:101710001A46FFF78DFFFB690133FB617B680133DC
:101720007B607B681B78002BEED10AE0F868B96813
:10173000BA69FFF77DFFFB690133FB613B68013B41
:101740003B603B68002BF1DCFB6918462037BD4647
:1017500080BD00BF0000000000000000000000008D
:1017600080B58EB002AFF860B9607A603B6000234C
:101770007B6200233B627B68FB617B68002B0FD19F
:1017800030233B7400237B7407F110033A6C009202
:10179000F868B9681A46FB6BFFF772FF03465EE014
:1017A000BB6B002B0AD03B680A2B07D17B68002B50
:1017B00004DA01237B627B685B42FB6107F1100363
:1017C0000B33FB62FB6A00221A701DE03A68FB696A
:1017D000B3FBF2F102FB01F29B1ABB62BB6A092B5D
:1017E00004DD7B6C3A3BBA6A1344BB62FB6A013B83
:1017F000FB62BB6ADBB23033DAB2FB6A1A703B6859
:10180000FA69B2FBF3F3FB61FB69002BDED17B6A63
:10181000002B19D0FB6B002B10D03B6C03F00203A4
:10182000002B0BD0F868B9682D22FFF701FF3B6A47
:1018300001333B62FB6B013BFB6305E0FB6A013B51
:10184000FB62FB6A2D221A703B6C0093F868B96842
:10185000FA6AFB6BFFF714FF02463B6A1344184613
:101860003037BD4680BD00BF000000000000000012
:1018700090B58DB004AFF860B9607A603B6000232A
:101880007B611FE17B681B78252B40F00E817B6814
:1018900001337B600023BB61BB69FB617B681B7804
:1018A000002B00D113E17B681B78252B00D1FCE0D5
:1018B0007B681B782D2B05D17B6801337B6001236E
:1018C000BB6107E006E07B6801337B60BB6943F0E6
:1018D0000203BB617B681B78302BF4D00EE0FA6901
:1018E00013469B0013445B00FB617B681B78303B15
:1018F000FA691344FB617B6801337B607B681B786A
:101900002F2B03D97B681B78392BE8D97B681B7890
:10191000732B18D13B6804333B603B68043B1B6866
:101920001C46002C01D0234600E06F4BBA690092A0
:10193000F868B9681A46FB69FFF7A2FE03467A69A0
:1019400013447B61BBE07B681B78642B18D13B6838
:1019500004333B603B68043B1B6801220092FA6938
:101960000192BA69029261220392F868B9681A4634
:101970000A23FFF7F5FE03467A6913447B619EE074
:101980007B681B786C2B18D13B6804333B603B6849
:10199000043B1B6801220092FA690192BA69029223
:1019A00061220392F868B9681A460A23FFF7D8FE45
:1019B00003467A6913447B6181E07B681B78782B4E
:1019C00018D13B6804333B603B68043B1B68002232
:1019D0000092FA690192BA69029261220392F86850
:1019E000B9681A461023FFF7BBFE03467A69134411
:1019F0007B6164E07B681B78582B03D07B681B7885
:101A0000702B18D13B6804333B603B68043B1B6878
:101A100000220092FA690192BA690292412203926D
:101A2000F868B9681A461023FFF79AFE03467A69E8
:101A300013447B6143E07B681B78752B18D13B68AE
:101A400004333B603B68043B1B6800220092FA6948
:101A50000192BA69029261220392F868B9681A4643
:101A60000A23FFF77DFE03467A6913447B6126E073
:101A70007B681B78632B22D13B6804333B603B6857
:101A8000043B1B68DBB23B7400237B7407F110033B
:101A9000BA690092F868B9681A46FB69FFF7F0FD69
:101AA00003467A6913447B6109E07B681B78F86818
:101AB000B9681A46FFF7BCFD7B6901337B617B681F
:101AC00001337B607B681B78002B7FF4DBAEBB6847
:101AD000002B03D0BB681B6800221A707B69184674
:101AE0002437BD4690BD00BFC0460008000000007E
:101AF0000FB480B582B000AF00237B6007F1140300
:101B00003B600C4B1B68002B09D00A4B1A683B69E1
:101B1000104600211A463B68FFF7AAFE78600023B2
:101B20003B607B6818460837BD46BDE8804004B07E
:101B3000704700BF00090020000000000000000006
:101B400080B489B000AFF860B9607A60FB687B61EF
:101B5000BB68FB617B69002B32D07A69FB699A42D2
:101B60001ED9FA697B681A447B699A4218D9FA69C6
:101B70007B681344FB617A697B681344BB6109E0AD
:101B8000BB69013BBB61FB69013BFB61FB691A78E7
:101B9000BB691A707B685A1E7A60002BF0D10FE087
:101BA0007B69BB6107E0BB695A1CBA61FA69511CC9
:101BB000F96112781A707B685A1E7A60002BF2D194
:101BC0007B6918462437BD465DF8047B704700BF2B
:101BD00080B487B000AFF860B9607A60FB687B6161
:101BE0007B69002B0BD005E07B695A1C7A61BA68CF
:101BF000D2B21A707B685A1E7A60002BF4D1FB684F
:101C000018461C37BD465DF8047B70470000000095
:101C100080B485B000AF78600023FB607B68BB6058
:101C2000BB68002B09D002E0FB680133FB60BB6896
:101C30005A1CBA601B78002BF6D1FB681846143783
:101C4000BD465DF8047B7047000000000000000006
:101C500080B584B000AF786039603A687B68D31A89
:101C6000FB60FB685B0ABB60BB68DB00FA68D21AEA
:101C7000224B1A60214B1B681B099AB2204B1A8019
:101C80001F4B1B881BB2002B00DA1F335B119BB26A
:101C90001BB29BB29B009AB21A4B1A801A4B7A68FD
:101CA0001A60BB689A007B6813441A46174B1A6087
:101CB000BB68DA007B6813441A46154B1A60144B54
:101CC0001A680E4B1B68104600211A46FFF780FF6A
:101CD0000D4B1A680B4B1B88104600211A46FFF764
:101CE00077FF0A4B1A68074B1B88104600211A46DB
:101CF000FFF76EFF1037BD4680BD00BF080900200A
:101D00000C0900200E0900201409002018090020E9
:101D1000100900200000000000000000000000008A
:101D200080B485B000AF0023BB8100237B8131E00C
:101D3000204B1A68B7F90A30002B00DA1F335B1109
:101D40009BB21BB29B0013441B687B607B68B3F1A2
:101D5000FF3F04D1BB8920339BB2BB8116E0002337
:101D6000FB810FE0B7F90E307A6822FA03F39BB2D9
:101D700003F001039AB2BB8913449BB2BB81FB8978
:101D80000133FB81B7F90E301F2BEBDD7B8920334C
:101D90009BB27B81084B1B88B7F90A201BB29A4281
:101DA000C6DBBB891BB218461437BD465DF8047B01
:101DB000704700BF140900200C090020000000003B
:101DC00098B500AF044B1B881CB2FFF7B1F903466E
:101DD000E31A1B01184698BD0C0900200000000002
:101DE00080B483B000AF03463960FB80B7F906309A
:101DF000002B28DB174B1B88B7F906201BB29A4231
:101E000021DAB7F90630002B00DA1F335B119BB2E1
:101E10001BB29B003A6813441A68B7F906100E4BC0
:101E20000B40002B03DA013B63F01F0301339BB22D
:101E30001BB2012101FA03F31340002B0CBF002356
:101E40000123DBB200E0002318460C37BD465DF8E5
:101E5000047B70470C0900201F0000800000000078
:101E600080B584B000AF02460B46FA80BB80FA888A
:101E7000BB8813449BB2BB81134B1B88B7F90C2062
:101E80001BB29A421ADAFB88FB810FE00F4B1B68EA
:101E9000B7F90E2010461946FFF7A2FF0346002BA4
:101EA00001D000230BE0FB890133FB81B7F90E2041
:101EB000B7F90C309A42E9DB012300E00023184611
:101EC0001037BD4680BD00BF0C090020140900205A
:101ED00080B584B000AF0346FB800023BB810023A4
:101EE000BB6034E0214B1A68B7F90C30002B00DAE4
:101EF0001F335B119BB21BB29B0013441B68BB607A
:101F0000BB68B3F1FF3F1ED00023FB8117E0BA8905
:101F1000FB8913449BB29BB21AB2B7F90630104644
:101F20001946FFF79DFF0346002B05D0BA89FB89B0
:101F300013449BB29BB213E0FB890133FB81B7F9D9
:101F40000E301F2BE3DDBB8920339BB2BB81084BD6
:101F50001B88B7F90C201BB29A42C3DB4FF6FF7304
:101F60001BB218461037BD4680BD00BF14090020C3
:101F70000C0900200000000000000000000000002C
:101F800080B584B000AF0346FB800023FB81B7F926
:101F90000630002B24DB154B1B88B7F906201BB23B
:101FA0009A421DDA00BFB7F90620B7F90E301A447D
:101FB0000E4B1B881BB29A4212DAFB891A46013279
:101FC000FA819AB2FB8813449BB29AB2084B1B6801
:101FD00012B210461946FFF703FF0346002BE2D06A
:101FE000FB891BB218461037BD4680BD0C09002086
:101FF00018090020000000000000000000000000A0
:1020000080B485B000AF396013460246FA807B7118
:10201000B7F90630002B41DB234B1B88B7F90620AC
:102020001BB29A423ADAB7F90620204B1340002B34
:1020300003DA013B63F01F030133FB81B7F906307C
:10204000002B00DA1F335B11BB817B79002B12D090
:10205000B7F90C309B003A681344B7F90C20920092
:1020600039680A441168B7F90E20012000FA02F21B
:102070000A431A6012E0B7F90C309B003A68134427
:10208000B7F90C20920039680A441168B7F90E209C
:10209000012000FA02F2D2430A401A601437BD460A
:1020A0005DF8047B704700BF0C0900201F00008012
:1020B00080B485B000AF78607B68002B12D07A685E
:1020C0000D4B1B68D31A1B09FB81B7F90E30002B8F
:1020D00008DB0A4B1B88B7F90E201BB29A4201DAC3
:1020E000FB8901E04FF6FF731BB218461437BD465B
:1020F0005DF8047B704700BF100900200C09002028
:1021000080B485B000AF0346FB800023FB60B7F9C5
:102110000630002B0DDB0A4B1B88B7F906201BB2DB
:102120009A4206DA074B1A68B7F906301B011344C6
:10213000FB60FB6818461437BD465DF8047B7047AA
:102140000C09002010090020000000000000000021
:1021500080B584B000AF02460B46FA80BB800023F6
:10216000BB60B7F90630002B4CDB294B1B88B7F955
:1021700006201BB29A4245DA0023FB8131E0B7F911
:102180000E20B7F90430013B9A420DD1FA88FB8941
:1021900013449BB29AB21F4B1B6812B210461946E9
:1021A0000122FFF72DFF0CE0FA88FB8913449BB254
:1021B0009AB2184B1B6812B2104619460022FFF75C
:1021C0001FFFFA88FB8913449BB29AB2124B1B681B
:1021D00012B2104619460122FFF712FFFB890133A4
:1021E000FB81B7F90E20B7F904309A42C7DBB7F983
:1021F00006301846FFF784FFB860B7F90430184678
:10220000FEF756FFBB6818461037BD4680BD00BFBD
:102210000C0900201809002014090020000000000B
:1022200080B584B000AF02460B46FA80BB80B7F998
:102230000630002B32DB1C4B1B88B7F906201BB283
:102240009A422BDA0023FB811CE0FA88FB891344B5
:102250009BB29AB2154B1B6812B210461946002267
:10226000FFF7CEFEFA88FB8913449BB29AB2104B5B
:102270001B6812B2104619460022FFF7C1FEFB8907
:102280000133FB81FA89B7F904309A42DDDBB7F9F3
:1022900004301846FEF71CFF012300E00023184617
:1022A0001037BD4680BD00BF0C0900201409002076
:1022B00018090020000000000000000000000000DD
:1022C00080B584B000AF13460246FA800A46BA8051
:1022D0007B8000237B73B7F90630002B28DB174B7C
:1022E0001B88B7F906201BB29A4221DA0023FB8132
:1022F00016E0FA88BB8813449AB2FB8913449BB258
:102300009AB20F4B1B6812B210461946FFF768FDD0
:102310000346002B01D07B7B0BE0FB890133FB8163
:10232000B7F90E20B7F902309A42E2DB01237B7342
:102330007B7B18461037BD4680BD00BF0C090020CE
:102340001409002000000000000000000000000050
:1023500080B584B000AF13460246FA800A46BA80C0
:102360007B8000237B73B7F90610B7F90420B7F917
:102370000230084611461A46FFF7A2FF0346002B1B
:102380003ED0BA887B8813447B810023FB8130E0F8
:10239000B7F90E207B89013B9A420DD1FA88FB895F
:1023A00013449BB29AB2194B1B6812B210461946DD
:1023B0000122FFF725FE0CE0FA88FB8913449BB24B
:1023C0009AB2124B1B6812B2104619460022FFF750
:1023D00017FEFA88FB8913449BB29AB20C4B1B6818
:1023E00012B2104619460122FFF70AFEFB8901339B
:1023F000FB81B7F90E207B899A42C9DB01237B73ED
:102400007B7B18461037BD4680BD00BF18090020F1
:10241000140900200000000000000000000000007F
:1024200080B586B000AF786000237B617B68002BAD
:102430002DD07B681B099AB27B6803F00F03002B39
:1024400001D0012300E0002313449BB27B8200F003
:1024500007FBF860B7F912301846FFF739FD03465D
:102460007B81B7F90A30002B09DBB7F90A20B7F9ED
:10247000123010461946FFF76BFE786104E0786869
:10248000FDF71EFF00237B61F86800F0F9FA7B6915
:1024900018461837BD4680BD00000000000000004F
:1024A00080B588B000AF786039607B68002B00F0A1
:1024B0008D803B68002B00F089803B681B099AB235
:1024C0003B6803F00F03002B01D0012300E0002341
:1024D00013449BB2FB8300F0C3FAB8617868FFF73E
:1024E000E7FD0346FB82B7F91630002B64DBB7F932
:1024F00016301846FFF744FD0346BB82B7F91E208D
:10250000B7F914309A4240DDFA8BBB8AD31A9BB2DA
:102510009BB2B7F91610B7F914201BB20846114642
:102520001A46FFF715FF0346002B2DD1B7F91620E9
:10253000B7F9143010461946FFF772FEB7F91E308E
:102540001846FFF7C5FC03467B82B7F91230002B13
:1025500013DBB7F91220B7F91E3010461946FFF702
:10256000F7FDF860B7F914301B01F86879681A466E
:10257000FFF7E6FAFB687B6006E078683968FEF7EB
:10258000BFFD00237B601DE01CE0B7F91E20B7F9FA
:1025900014309A4216DAB7F91620B7F914301046FB
:1025A0001946FFF73DFEB7F91620B7F91E30104661
:1025B0001946FFF7CDFD05E078683968FEF7A0FD04
:1025C00000237B60B86900F05BFA12E07B68002BA7
:1025D00008D03B68002B05D1786800F011F8002383
:1025E0007B6006E07B68002B03D13868FFF718FF9B
:1025F00078607B6818462037BD4680BD000000002B
:1026000080B584B000AF786000F02AFAF86078688E
:10261000FFF74EFD03467B81B7F90A30002B0FD040
:10262000B7F90A301846FFF7ABFC03463B81B7F910
:102630000A20B7F9083010461946FFF7F1FD02E00D
:102640007868FEF755FDF86800F01AFA1037BD46B5
:1026500080BD00BF0000000000000000000000007E
:1026600080B586B000AF4FF4803000F0C1FE00BFEF
:1026700000F0FEFE0346012BFAD1012000F020FFFE
:102680003B1D184600F044FF00F082FD00F0B8FD4D
:102690003B1D184600F03CFF0120012100F0F0FF37
:1026A0000120012101F024F80420012101F020F88B
:1026B0000820012101F01CF81020012101F018F878
:1026C0002020012101F014F84020012101F010F830
:1026D0008020012101F00CF84FF48070012101F0FD
:1026E00007F84FF48050012101F002F84FF48040C8
:1026F000012100F0FDFF4FF40060012100F0F8FF20
:102700004FF40060012101F02BF84FF0006001212F
:1027100001F026F84FF08050012101F021F84FF030
:102720008040012101F01CF8144B4FF044321A6034
:10273000124B4FF044325A60114B4FF044321A6042
:102740000F4B4FF044325A600E4B4FF044321A6038
:102750000C4B0D4A5A600D4B4FF044321A600B4B34
:102760004FF044325A600A4B4FF044321A60084B23
:102770004FF044325A601837BD4680BD0008014012
:10278000000C014000100140444424440014014066
:1027900000180140000000000000000000000000E0
:1027A00080B500AF00200749FEF7FAFE0246064B4F
:1027B0001A60054B1A68054B1A60044B1A68044BE3
:1027C0001A6080BDD046000804090020FC080020E3
:1027D00000090020000000000000000000000000D0
:1027E00080B500AF00F05CF980BD00BF00000000C4
:1027F00080B483B000AF03463960FB7197F90730AE
:10280000002B0BDA0D49FB7903F00F03043B3A6808
:10281000D2B21201D2B20B441A7609E0084997F9F4
:1028200007303A68D2B21201D2B20B4483F80023C7
:102830000C37BD465DF8047B704700BF00ED00E03B
:1028400000E100E0000000000000000000000000C7
:1028500080B483B000AF78607B68002BFCD00C376D
:10286000BD465DF8047B70470000000000000000DA
:1028700000B5F0B42DE9000F064B5B68DBB2103BEE
:10288000DBB2DBB25BB2184601F052FBBDE8000FD1
:10289000F0BC00BD00ED00E0000000000000000002
:1028A00080B400AFBD465DF8047B704700000000B7
:1028B00080B400AFBD465DF8047B704700000000A7
:1028C00080B483B000AF0B4B1B6803F00203002BF6
:1028D0000CBF00230123DBB27B60064B054A126864
:1028E00022F002021A607B6818460C37BD465DF87C
:1028F000047B704710E000E00000000000000000D2
:1029000080B483B000AF78607B68002B06D0094BA1
:10291000084A126842F002021A6005E0054B054AB7
:10292000126822F002021A600C37BD465DF8047B83
:10293000704700BF10E000E0000000000000000051
:1029400080B400AF044B044A526842F080525A608F
:10295000BD465DF8047B704700ED00E0000000001C
:1029600080B483B000AF0F4B5B68C3F308037B6098
:102970007B680E2B02D00F2B07D00DE0094B094AC4
:10298000526842F000625A6006E0064B054A5268FF
:1029900042F000725A6000BF0C37BD465DF8047B00
:1029A000704700BF00ED00E00000000000000000E4
:1029B00080B400AFBD465DF8047B704700000000A6
:1029C00080B500AF00F0E4FB80BD00BF0000000058
:1029D00080B582B000AF00F0E3F802460C4BA3FBD9
:1029E00002139B097B600B4B7A6822F07F42013A0D
:1029F0005A604FF0FF300F21FFF7FAFE054B00221F
:102A00009A60044B07221A600837BD4680BD00BF9C
:102A1000D34D621010E000E0000000000000000054
:102A200080B400AFBD465DF8047B70470000000035
:102A300080B582B000AF786000F012F8FFF7C0FFF9
:102A4000FFF7C6FFFFF7ECFF0837BD4680BD00BFAC
:102A500062B67047000000000000000000000000A7
:102A6000EFF3108080F0010072B67047184600BF87
:102A7000EFF3108080F0010070471846000000005E
:102A800080B483B000AF78607B68002B01D062B661
:102A900000E072B60C37BD465DF8047B704700BF9E
:102AA00030BF704700000000000000000000000080
:102AB00080B487B000AF786000237B617B681F2BF8
:102AC00012D87B68012202FA03F33B61134B1A68A8
:102AD0003B691340002B0CBF00230123DBB27B6159
:102AE0000E4B3A691A6012E07B68203B012202FA21
:102AF00003F3FB60094B5A68FB681340002B0CBFC3
:102B000000230123DBB27B61044BFA685A607B69C6
:102B100018461C37BD465DF8047B704700E100E0B5
:102B200080B487B000AF786000237B617B681F2B87
:102B300013D87B68012202FA03F33B61144B1A6835
:102B40003B691340002B0CBF00230123DBB27B61E8
:102B50000F4B3A69C3F8802013E07B68203B0122C9
:102B600002FA03F3FB600A4B5A68FB681340002B20
:102B70000CBF00230123DBB27B61054BFA68C3F86D
:102B800084207B6918461C37BD465DF8047B70477E
:102B900000E100E000000000000000000000000074
:102BA00080B586B000AF3B1D184600F0B1FC7B68D5
:102BB00018461837BD4680BD000000000000000028
:102BC00080B491B000AF78607B681B68FB637B6862
:102BD0005B68BB637B689B687B637B68DB683B638C
:102BE0007B681B69FB627B685B69BB627B689B6976
:102BF0007B627B68DB693B620B4B1B68FB610B4BA9
:102C00001B68BB610A4B1B687B610A4B1B683B61FD
:102C1000094B1B68BB60094B1B68FB6000BE443757
:102C2000BD465DF8047B704728ED00E02CED00E028
:102C300030ED00E03CED00E034ED00E038ED00E088
:102C400004207146084200F00480EFF30980FFF78A
:102C5000B7BFEFF30880FFF7B3BFFFF7F1BF00BFC7
:102C600080B584B000AF78600B467B807B88786845
:102C7000194600F01DF80346FB817B8878681946E9
:102C800000F016F803469BB2DB439AB27B881340F0
:102C90009BB2BB81FB891B041A467B681A61BA8907
:102CA0007B681A611037BD4680BD00BF0000000080
:102CB00080B485B000AF78600B467B807B689B68F2
:102CC0009AB27B881340FB81FB8918461437BD46B6
:102CD0005DF8047B704700BF0000000000000000AA
:102CE00080B584B000AF78607B68FB60F86800F066
:102CF0000FF8B860FB681B68184640F225510022A7
:102D000000F086FFBB6818461037BD4680BD00BF87
:102D100080B485B000AF78607B68FB60FB681B689F
:102D20009B899BB21A4640F225531340002B0CBFDF
:102D300000230123DBB2BB60BB6818461437BD46D5
:102D40005DF8047B704700BF000000000000000039
:102D500080B588B000AF786039604FF0FF33FB6119
:102D60007B68BB613B68002B02D1BB6908333B60C9
:102D7000BB691B681846002100F0FAFE3B68002B77
:102D800071D03B681B68BB603B681B79BB813B68AB
:102D90001B79092B02D00023BB8103E04FF4805341
:102DA000BB8100BF3B685B79022B04D0032B06D0AC
:102DB0000023FB8107E04FF44053FB8103E04FF415
:102DC0000053FB8100BF3B689B79012B08D0022B8D
:102DD00002D000233B8207E04FF4C0633B8203E054
:102DE0004FF480633B8200BF3B68DB79022B0AD043
:102DF000032B0CD0012B02D00023BB820BE04FF43D
:102E00008073BB8207E04FF40073BB8203E04FF492
:102E10004073BB8200BF0C237B82BB691A6807F139
:102E200008031046194600F033FDBB691B681846BD
:102E3000012100F09DFEBB691B795BB218460C496D
:102E4000BA6901F015F8BB691B795BB21846FFF748
:102E50002FFEBB691B68184640F22551012200F085
:102E6000D7FE0023FB61FB6918462037BD4680BDB5
:102E7000E130000800000000000000000000000039
:102E800080B483B000AF78607B6818460C37BD46CD
:102E90005DF8047B704700BF0000000000000000E8
:102EA00080B485B000AF786039607B68FB60FB68F8
:102EB0003A685A613B6818461437BD465DF8047B92
:102EC000704700BF0000000000000000000000008C
:102ED00080B485B000AF786039607B68FB60FB68C8
:102EE0003A689A613B6818461437BD465DF8047B22
:102EF000704700BF0000000000000000000000005C
:102F000080B485B000AF78607B68FB60FB685B696C
:102F100018461437BD465DF8047B7047000000007A
:102F200080B485B000AF78607B68FB60FB689B690C
:102F300018461437BD465DF8047B7047000000005A
:102F400080B485B000AF78607B68FB60FB681B795C
:102F50005BB218461437BD465DF8047B704700BF6E
:102F600080B485B000AF78607B68FB60FB681B694C
:102F700018461437BD465DF8047B7047000000001A
:102F800080B485B000AF786039607B68FB60FB6817
:102F90003A681A61FB681B6918461437BD465DF82C
:102FA000047B7047000000000000000000000000EB
:102FB00080B485B000AF78607B68FB60FB681B68FD
:102FC0001B889BB203F08003002B0CBF002301235E
:102FD000DBB2FB72FB7A18461437BD465DF8047B02
:102FE000704700BF0000000000000000000000006B
:102FF00080B487B000AF78607B687B617B691B68B9
:103000001B889BB23B613B6903F02003002B0CBF84
:1030100000230123DBB2FB73FB7B18461C37BD4644
:103020005DF8047B704700BF000000000000000056
:1030300080B485B000AF786039607B68FB60FB6866
:103040001B683A6892B29A803B6818461437BD46AE
:103050005DF8047B704700BF000000000000000026
:1030600080B485B000AF78607B68FB60FB681B684C
:103070009B889BB218461437BD465DF8047B7047A9
:1030800080B485B000AF78607B68FB60FB681B682C
:10309000FA681268928992B242F0800292B29A81E2
:1030A0001437BD465DF8047B704700BF0000000088
:1030B00080B485B000AF78607B68FB60FB681B68FC
:1030C000FA681268928992B222F0800292B29A81D2
:1030D0001437BD465DF8047B704700BF0000000058
:1030E00090B585B000AF03463960FB713B68FB606B
:1030F000FB681B7997F907205BB29A4243D119E02C
:10310000FB685C69F868FFF7ABFF0346DBB220465B
:10311000194601F0ADF90346002B05D1FB681B6988
:1031200043F01002FB681A61FB681B6943F001025F
:10313000FB681A61F868FFF75BFF0346002BDFD1DD
:10314000FB689B69184601F04BF90346002B0FD131
:10315000F868FFF72DFF0346002B09D0FB689B6939
:10316000184601F0C5F90346F8681946FFF760FFF5
:10317000FB689B69184601F033F90346002B02D027
:10318000F868FFF795FF1437BD4690BD00000000BA
:1031900080B500AF154B154A126842F001021A6063
:1031A000124A124B5968124B0B4053600F4A0F4B97
:1031B0001B6823F0847323F4803313600B4B0B4A9A
:1031C000126822F480221A60084B084A526822F4DE
:1031D000FE025A60054B4FF41F029A6000F080F81F
:1031E000044B4FF000629A6080BD00BF00100240A7
:1031F0000000FFF800ED00E000000000000000000B
:1032000080B485B000AF0023FB600023BB600023C7
:103210007B602C4B5B6803F00C03FB60FB68042BAA
:1032200007D0082B09D0002B34D1274B274A1A602E
:1032300034E0254B254A1A6030E0224B5B6803F4EA
:103240007013BB601F4B5B6803F480337B60BB680B
:103250009B0C0233BB607B68002B06D1BB681C4A09
:1032600002FB03F2184B1A6013E0164B5B6803F481
:103270000033002B06D0BB68154A02FB03F2124B49
:103280001A6006E0BB68114A02FB03F20E4B1A609B
:1032900004E003E00C4B0D4A1A6000BF094B5B6869
:1032A00003F0F0031B090B4AD35CDBB2FB60064B57
:1032B0001A68FB68DA40044B1A601437BD465DF8A3
:1032C000047B7047001002407802002000127A0050
:1032D00000093D007C02002000000000000000000A
:1032E00080B500AF00F004F880BD00BF0000000012
:1032F00080B483B000AF00237B6000233B603A4B77
:10330000394A126842F480321A60374B1B6803F462
:1033100000333B607B6801337B603B68002B03D14B
:103320007B68B3F5A06FF0D12F4B1B6803F400331B
:10333000002B02D001233B6001E000233B603B688F
:10334000012B4BD1294B294A126842F010021A6016
:10335000264B264A126822F003021A60234B234AA6
:10336000126842F002021A601F4B1F4A52685A60EC
:103370001D4B1D4A52685A601B4B1B4A526842F44F
:1033800080625A60184B184A526822F47C125A60C4
:10339000154B154A526842F4E8125A60124B124A11
:1033A000126842F080721A6000BF0F4B1B6803F076
:1033B0000073002BF9D00C4B0B4A526822F0030229
:1033C0005A60094B084A526842F002025A6000BF34
:1033D000054B5B6803F00C03082BF9D10C37BD4695
:1033E0005DF8047B704700BF0010024000200240DF
:1033F00080B582B000AF78607B68002B07D07B6817
:10340000B3F5803F03D07B68B3F5802F01D1012352
:1034100000E000231846FFF71BFA124B114A12680E
:1034200022F480321A600F4B0E4A126822F4802276
:103430001A607B68B3F5803F03D0B3F5802F07D0C7
:103440000DE0084B074A126842F480321A6006E029
:10345000044B044A126842F4A0221A6000BF0837E5
:10346000BD4680BD001002400000000000000000CA
:1034700080B582B000AF00233B600023FB710023C6
:10348000BB71312000F0A4F90346BB713B680133E6
:103490003B603B68B3F5A06F02D0BB79002BF0D046
:1034A000312000F095F90346002B02D00123FB7177
:1034B00001E00023FB71FB7918460837BD4680BD4B
:1034C00080B584B000AF78600023FB607B68002B80
:1034D00005D07B68012B02D07B68022B01D1012330
:1034E00000E000231846FFF7B3F9084B5B68FB6068
:1034F000FB6823F00303FB60FA687B681343FB60FF
:10350000024BFA685A601037BD4680BD0010024079
:1035100080B487B000AF786000237B6100233B61FB
:103520000023FB600023BB604D4B5B6803F00C0382
:103530007B617B69042B07D0082B09D0002B34D189
:103540007B68484A1A6034E07B68464A1A6030E07B
:10355000434B5B6803F470133B61414B5B6803F4BE
:103560008033FB603B699B0C02333B61FB68002BA3
:1035700006D13B693C4A02FB03F27B681A6013E008
:10358000374B5B6803F40033002B06D03B69364AA7
:1035900002FB03F27B681A6006E03B69314A02FBDA
:1035A00003F27B681A6004E003E07B682D4A1A602E
:1035B00000BF2B4B5B6803F0F0037B617B691B0949
:1035C0007B612A4A7B6913441B78DBB2BB607B6852
:1035D0001A68BB68DA407B685A60214B5B6803F469
:1035E000E0637B617B691B0A7B61204A7B69134432
:1035F0001B78DBB2BB607B685A68BB68DA407B68CB
:103600009A60174B5B6803F460537B617B69DB0A4C
:103610007B61164A7B6913441B78DBB2BB607B6815
:103620005A68BB68DA407B68DA600D4B5B6803F46C
:1036300040437B617B699B0B7B610D4A7B69134433
:103640001B78DBB2BB607B68DA68BB68B2FBF3F265
:103650007B681A611C37BD465DF8047B704700BF6C
:103660000010024000127A0000093D008C02002088
:103670009C0200200000000000000000000000008C
:1036800080B582B000AF78600B46FB707B6823F496
:10369000AA6323F00703002B04D17B68002B01D021
:1036A000012300E000231846FFF7D2F8FB78002B37
:1036B00002D0FB78012B01D1012300E00023184642
:1036C000FFF7C6F8FB78002B06D0084B074A516974
:1036D0007A680A435A6106E0044B044A51697A68E1
:1036E000D2430A405A610837BD4680BD00100240EF
:1036F00080B582B000AF78600B46FB707A68164BDD
:103700001340002B04D17B68002B01D0012300E083
:1037100000231846FFF79CF8FB78002B02D0FB78BB
:10372000012B01D1012300E000231846FFF790F898
:10373000FB78002B06D0094B084A91697A680A4346
:103740009A6106E0054B054A91697A68D2430A40BE
:103750009A610837BD4680BD0200C0FF00100240DC
:1037600080B582B000AF78600B46FB707A68164B6C
:103770001340002B04D17B68002B01D0012300E013
:1037800000231846FFF764F8FB78002B02D0FB7883
:10379000012B01D1012300E000231846FFF758F860
:1037A000FB78002B06D0094B084AD1697A680A4396
:1037B000DA6106E0054B054AD1697A68D2430A40CE
:1037C000DA610837BD4680BD003601810010024035
:1037D00080B586B000AF0346FB710023FB60002379
:1037E0007B610023FB74FB79212B1DD0FB79312BEE
:1037F0001AD0FB79392B17D0FB79412B14D0FB79E8
:10380000612B11D0FB797A2B0ED0FB797B2B0BD05F
:10381000FB797C2B08D0FB797D2B05D0FB797E2BA7
:1038200002D0FB797F2B01D1012300E00023184651
:10383000FFF70EF8FB795B09DBB2FB60FB68012B3D
:1038400003D1114B1B687B6109E0FB68022B03D19C
:103850000D4B1B6A7B6102E00B4B5B6A7B61FB7962
:1038600003F01F03FB60FB6801229A407B69134051
:10387000002B02D00123FB7401E00023FB74FB7CCE
:1038800018461837BD4680BD0010024000000000F9
:1038900080B58CB000AF786039600023FB620023F4
:1038A000BB6200237B6200233B620023FB617A68DA
:1038B0009B4B9A420FD07A689A4B9A420BD07A6807
:1038C000994B9A4207D07A68984B9A4203D07A680B
:1038D000974B9A4201D1012300E000231846FEF7DE
:1038E000B7FF3B681B68002B06D03B681A68914BFA
:1038F0009A4201D8012300E000231846FEF7A8FFF2
:103900003B689B88002B04D03B689B88B3F5805FA5
:1039100001D1012300E000231846FEF799FF3B6820
:10392000DB88002B0ED03B68DB88B3F5805F09D0C5
:103930003B68DB88B3F5005F04D03B68DB88B3F5F8
:10394000405F01D1012300E000231846FEF780FF0D
:103950003B681B89002B09D03B681B89B3F5806F3E
:1039600004D03B681B89B3F5C06F01D1012300E08F
:1039700000231846FEF76CFF3B685B891A464FF63A
:10398000F3731340002B05D13B685B89002B01D0FA
:10399000012300E000231846FEF75AFF3B689B898D
:1039A000002B0ED03B689B89B3F5807F09D03B6824
:1039B0009B89B3F5007F04D03B689B89B3F5407FBA
:1039C00001D1012300E000231846FEF741FF3B68C8
:1039D0009B89002B11D07A68514B9A4207D07A68A4
:1039E000504B9A4203D07A684F4B9A4201D101233F
:1039F00000E000231846FEF72BFF7B68FB617B6825
:103A00001B8A9BB2FB62FA6A4CF6FF731340FB629F
:103A10003B68DB88FA6A1343FB62FB6A9AB27B68F5
:103A20001A827B689B899BB2FB62FA6A4EF6F3139B
:103A30001340FB623B689A883B681B8913439AB228
:103A40003B685B8913439BB2FA6A1343FB62FB6AD0
:103A50009AB27B689A817B689B8A9BB2FB62FA6A06
:103A60004FF6FF431340FB623B689B89FA6A13439E
:103A7000FB62FB6A9AB27B689A8207F108031846D8
:103A8000FFF746FDFA69264B9A4202D17B69BB6279
:103A900001E03B69BB627B689B899BB29BB21BB216
:103AA000002B0CDABA6A13469B0013449A001A449E
:103AB0003B681B685B00B2FBF3F37B620BE0BA6A06
:103AC00013469B0013449A001A443B681B689B00F2
:103AD000B2FBF3F37B627A6A174BA3FB02135B0919
:103AE0001B01FB62FB6A1B09642202FB03F37A6A77
:103AF000D31A3B627B689B899BB29BB21BB2002BA3
:103B00001CDA3B6ADB0003F132020B4BA3FB02130E
:103B10005B0903F00703FA6A1343FB621BE000BF73
:103B2000003801400044004000480040004C004084
:103B30000050004020AA44001F85EB513B6A1B0146
:103B400003F13202074BA3FB02135B0903F00F03DF
:103B5000FA6A1343FB62FB6A9AB27B681A813037B8
:103B6000BD4680BD1F85EB51000000000000000035
:103B700080B582B000AF78600B46FB707A681E4B50
:103B80009A420FD07A681D4B9A420BD07A681C4B30
:103B90009A4207D07A681B4B9A4203D07A681A4B34
:103BA0009A4201D1012300E000231846FEF750FE9F
:103BB000FB78002B02D0FB78012B01D1012300E020
:103BC00000231846FEF744FEFB78002B08D07B68E4
:103BD0009B899BB243F400539AB27B689A8107E0B9
:103BE0007B689B899BB223F400539AB27B689A81CD
:103BF0000837BD4680BD00BF00380140004400408A
:103C000000480040004C0040005000400000000010
:103C100080B586B000AF786013460A467A807B7024
:103C200000233B610023FB600023BB6000237B611A
:103C30007A684D4B9A420FD07A684C4B9A420BD01F
:103C40007A684B4B9A4207D07A684A4B9A4203D023
:103C50007A68494B9A4201D1012300E000231846BB
:103C6000FEF7F6FD7B88282B20D07A8840F2277358
:103C70009A421BD07A8840F226639A4216D07A88FC
:103C800040F225539A4211D07A8840F224439A4256
:103C90000CD07A8840F646039A4207D07A8840F6DC
:103CA0006A139A4202D07B88602B01D1012300E085
:103CB00000231846FEF7CCFD7B78002B02D07B78E2
:103CC000012B01D1012300E000231846FEF7C0FDBF
:103CD0007A8840F66A139A4211D17A68224B9A4246
:103CE00007D07A68214B9A4203D07A68204B9A42D7
:103CF00001D1012300E000231846FEF7A9FD7B68EF
:103D00007B617B88DBB25B09DBB23B617B8803F0C4
:103D10001F03FB60FB68012202FA03F3BB603B69EF
:103D2000012B03D17B690C337B6109E03B69022BDA
:103D300003D17B6910337B6102E07B6914337B61C3
:103D40007B78002B06D07B697A691168BA680A43D0
:103D50001A6006E07B697A691168BA68D2430A4042
:103D60001A601837BD4680BD00380140004400404D
:103D700000480040004C004000500040000000009F
:103D800080B584B000AF7860174B1B687A689A42A0
:103D900023DD164B1A687B689B0010461946FDF719
:103DA000EFF90246114B1A60104B1B68002B14D020
:103DB0000D4B1B68FB6009E00C4B1A68FB689B000D
:103DC000134400221A60FB680133FB60FA687B68C9
:103DD0009A42F1DB044B7A681A60034B1B68184661
:103DE0001037BD4680BD00BF200900201C090020FF
:103DF00080B588B000AF0346B9607A60FB730023DA
:103E0000FB61FEF72DFE7861154B1B68DBB297F95D
:103E10000F205BB29A421ADA124B1A68FB7B9B00A6
:103E200013441B68BB610FE0BB691A68BB689A4208
:103E300007D1BB695A687B689A4202D10123FB61B2
:103E400005E0BB699B68BB61BB69002BECD178695D
:103E5000FEF716FEFB6918462037BD4680BD00BF41
:103E6000200900201C0900200000000000000000C4
:103E700080B588B000AF0346B9607A60FB7397F9EC
:103E80000F301846B9687A68FFF7B2FF0346002B77
:103E900044D1FEF7E5FDB861FB7B01331846FFF71F
:103EA0006FFF0246FB7B9A4233DD0C20FDF758F989
:103EB00078617B69002B2CD0786900210C22FDF7FA
:103EC00087FE7B69BA681A607B697A685A60164B0C
:103ED0001A68FB7B9B0013441B68002B07D1124B15
:103EE0001A68FB7B9B0013447A691A6011E00E4B41
:103EF0001A68FB7B9B0013441B68FB6102E0FB69B3
:103F00009B68FB61FB699B68002BF8D1FB697A69B0
:103F10009A60B869FEF7B4FDFB7B01E04FF0FF3318
:103F200018462037BD4680BD1C0900200000000057
:103F300080B584B000AF0346FB710D4B1A68FB7966
:103F40009B0013441B68FB600BE0FB681B68FA686E
:103F5000526897F90710084611469847FB689B6816
:103F6000FB60FB68002BF0D11037BD4680BD00BF61
:103F70001C090020000000000000000000000000FC
:103F800080B485B000AF78607A6813465B00134454
:103F9000DB00064A1344FB60FB681B68BB60BB6820
:103FA00018461437BD465DF8047B7047E0460008AC
:103FB00080B586B000AF78603960454B00221A604A
:103FC000FCF79EFB7B687B617B69002B5BDB7A697E
:103FD00013465B001344DB003E4A13443B613B69DC
:103FE0001B68FB60F868FEF78BFF0346184600F07D
:103FF000CFF9F868FEF794FF0346184600F0C8F9B9
:10400000F8680021FEF74CFFF8680021FEF760FF1A
:1040100000F0D6F803469BB2184600F089F9034633
:10402000F8681946FEF73CFF0346002B28D000F045
:10403000BFF803469BB2184600F07AF90346F868C9
:104040001946FEF745FF0346002B0ED0F868002105
:10405000FEF77EFEF868FEF783FF034643F0040395
:10406000F8681946FEF78CFF0DE0F868FEF748FF88
:104070000346184600F08CF9154B0C221A6002E03A
:10408000134B0C221A60FCF763FB7B69002B0FDBE0
:104090003B68002B0CD07869396800F071F8034652
:1040A000002B05DA786900F01BF84FF0FF337B61D5
:1040B0007869FEF7E5FE02467B699A4202D078698C
:1040C00000F00EF87B6918461837BD4680BD00BF6A
:1040D000F8080020E0460008000000000000000092
:1040E00080B586B000AF786000237B61204B002252
:1040F0001A60FCF705FB7A6813465B001344DB008B
:104100001C4A13443B613B691B68FB60F868FEF77F
:10411000E7FDF868FEF714FF03461846FEF700FDBA
:10412000F868FEF7EDFE0346184600F031F9F8682E
:10413000FEF7F6FE0346184600F02AF9F86800215B
:10414000FEF7AEFEF8680021FEF7C2FEF868FEF743
:1041500007FF034623F00403F8681946FEF710FF33
:10416000FCF7F6FA7B6918461837BD4680BD00BFDC
:10417000F8080020E04600080000000000000000F1
:1041800080B584B000AF786039607868FFF7F8FEDA
:10419000034618463968FEF7DBFDF860FB681846F1
:1041A0001037BD4680BD00BF0000000000000000C9
:1041B00080B400AF20231846BD465DF8047B7047ED
:1041C00080B400AF20231846BD465DF8047B7047DD
:1041D00090B589B000AFF860B9607A600023FB61E8
:1041E000BB68BB6125E0FB681B681846FEF788FECC
:1041F0000346184600F07CF978617B69002B16DBDA
:10420000FB695A1CFA61BA6913447A69D2B21A700E
:10421000FB681C68FB681B681846FEF7A1FE034696
:1042200043F0010320461946FEF7AAFE01E0FCF721
:104230000FFBFA697B689A42D5DBFB691846243785
:10424000BD4690BD0000000000000000000000001E
:1042500080B586B000AFF860B9607A6000237B61FA
:10426000BB683B611BE0FB681B681846FEF758FE05
:1042700002467B6939690B441B781046194600F0E9
:10428000F7F80346002B03D07B6901337B6101E023
:10429000FCF7DEFAFB681B681846FEF7F1FE7A6948
:1042A0007B689A42DFDB7B6918461837BD4680BDC4
:1042B00080B582B000AF78607B681B681846FEF757
:1042C0001FFE0346184600F0ABF8034618460837B1
:1042D000BD4680BD0000000000000000000000009E
:1042E00080B582B000AF78607B681B681846FEF727
:1042F00017FE0346184600F093F8034618460837A1
:10430000BD4680BD0000000000000000000000006D
:1043100080B582B000AF78607B681B681846FEF7F6
:104320001FFE034618460837BD4680BD000000004A
:1043300080B584B000AF0346FB800C20FCF710FF73
:10434000F860FB68002B18D0F86800210C22FDF7FC
:104350003FFCFB881846FCF703FF0246FB681A6027
:10436000FB681B68002B03D0FB68FA889A8004E086
:10437000F868FCF715FF0023FB60FB681846103750
:10438000BD4680BD000000000000000000000000ED
:1043900080B584B000AF78600023FB737B68002B8E
:1043A00013D0FEF75DFBB8607B681B68002B04D060
:1043B0007B681B681846FCF7F3FE7868FCF7F0FE94
:1043C0000123FB73B868FEF75BFBFB7B18461037D5
:1043D000BD4680BD0000000000000000000000009D
:1043E00080B584B000AF7860FEF73AFBF8607B6878
:1043F000DA887B681B899A4214BF00230123DBB251
:10440000FB72F868FEF73CFBFB7A18461037BD4696
:1044100080BD00BF000000000000000000000000A0
:1044200080B584B000AF7860FEF71AFBB8607B6897
:10443000DB881A467B681B89D31AFB60FB68002B5C
:1044400009DA7B689B881A467B681B89D21A7B68CD
:10445000DB881344FB60B868FEF712FBFB68184664
:104460001037BD4680BD00BF000000000000000006
:1044700080B584B000AF78600B46FB70FEF7F0FAB1
:10448000F8607B68DB881A467B681B89013B9A428F
:104490000DD07B68DB881A467B689B88013B9A427B
:1044A00003D17B681B89002B01D0012300E000238E
:1044B000FB72FB7A002B13D07B681A687B68DB8861
:1044C000591C88B27968C8801344FA781A707B68DE
:1044D000DA887B689B889A4202D37B680022DA8064
:1044E000F868FEF7CDFAFB7A18461037BD4680BD56
:1044F00080B584B000AF7860FEF7B2FAB8604FF0D4
:10450000FF33FB607B68DA887B681B899A4213D093
:104510007B681A687B681B89591C88B27968088196
:1045200013441B78FB607B681A897B689B889A42DE
:1045300002D37B6800221A81B868FEF7A1FAFB68F3
:1045400018461037BD4680BD000000000000000086
:10455000256420627974657320667265650A0000BF
:10456000656E71756575655F74687265616400007C
:10457000646571756575655F746872656164000076
:104580006C6F636B5F7468726561640000000000AB
:104590002D2D2D2D2D2D2D2D2D2D2D2D0A000000F5
:1045A00009207468726561643A2030782530387863
:1045B0000A0000000920706172656E743A2030783C
:1045C000253038780A0000000920202070726576B6
:1045D0003A203078253038780A0000000920202061
:1045E0006E6578743A203078253038780A000000FB
:1045F00009092073703A203078253038780A000095
:104600002020737461636B5F6C6F773A203078257C
:104610003038780A000000002020737461636B5FFB
:10462000746F703A203078253038780A0000000026
:1046300020737461636B5F626173653A2030782523
:104640003038780A00000000092020737461746516
:104650003A203078253032780A00000009202020E6
:104660007072696F3A203078253032780A00000085
:10467000286E756C6C290000092020206E616D6524
:104680003A20222573220A005F63757272656E7488
:104690005F7468726561645F203D2022257322206B
:1046A00028307825303858290A0000000000000022
:1046B00063617269626F7500000000000000000015
:1046C000286E756C6C2900000000000000000000DE
:1046D00072770000000000000000000000000000F1
:1046E00008020020D141000851420008B1420008F0
:1046F000E14200081143000824020020D1410008D3
:1047000051420008B1420008E1420008114300088C
:1047100040020020D141000851420008B142000887
:10472000E142000811430008000000000000000002
:104730000000000000000000000000000000000079
:10474000001001400020000000380140250000005A
:1047500080250000080100000000000000000000AB
:1047600000000000004400402600000080250000FA
:104770000801000000000000000000000000000030
:1047800000480040270000008025000008010000CC
:104790000000000000000000000000000000000019
:1047A0000000000000000000000000000000000009
:1047B000000000000000000000A24A040000000009
:1047C00000000000010203040607080900000000C1
:1047D0000102030401020304060708090204060893
:04000005080001B13D
:00000001FF
