S02B00002F686F6D652F6D696B652F446F63756D656E74732F63617269626F752D72746F732F6272616E6368A0
S3150800000000020020C1000008810D0008A10F0008A9
S31508000010A10F0008A10F0008A10F0008A10F0008F2
S31508000020A10F0008A10F0008A10F0008710D000814
S31508000030A10F0008A10F0008C10700082108000841
S31508000040410D0008410D0008410D0008410D00084A
S31508000050410D0008410D0008410D0008410D00083A
S31508000060410D0008410D0008410D0008410D00082A
S31508000070410D0008410D0008410D0008410D00081A
S31508000080410D0008410D0008410D0008410D00080A
S31508000090410D0008410D0008410D0008410D0008FA
S315080000A0410D0008410D0008410D0008410D0008EA
S315080000B0410D0008410D0008410D0008410D0008DA
S315080000C072B6294880F30988022080F31488BFF3A2
S315080000D06F8F26482449FA2200F03FF8244825491C
S315080000E0FA2200F03AF824482449254A00F02AF86A
S315080000F024482549002200F030F8244A904724482D
S315080001002449254A904725482549884205D002684A
S31508000110043003B4904703BCF7E7224A904700200F
S3150800012000218646EC46204A9047204820498842C6
S3150800013005D00268043003B4904703BCF7E7BFE76D
S31508000140FEE7FDE7884207D0521A05D0037801304A
S315080001500B700131013AF9D17047884202D002701A
S315080001600130FAE770470000000400200002002072
S315080001700000002000020020E81E000800040020FD
S315080001808C04002090040020040D0020510C000867
S31508000190040D002000200020410A0008C0000008C5
S315080001A0C0000008F10C0008D1020008C0000008D1
S315080001B0C000000800000000000000000000000069
S315080001C080B584B000AF7860022000F041FC031CC3
S315080001D0FB600A2000F0D4F9104B1A680F4B9B8875
S315080001E0101C191C00F0FCFE031C002B06D1FA6833
S315080001F00B4B101C191C00F00BFD05E0FA68094BA7
S31508000200101C191C00F004FD074AFB68101C191C79
S315080002100022002300F064FCD6E7C0461004002044
S31508000220501E0008541E0008900C00200000000014
S3150800023080B584B000AF78600023FB601D4A3B1C84
S315080002400C33101C191C0022002300F089FC031C27
S31508000250002B2ED0FA68184B101C191C00F0E0FC75
S31508000260031C002B10D0154B1A68144B9B88101CC6
S31508000270191C00F0A5FE124B1A68114B9B88101C1E
S31508000280191C00F0A5FE0FE00D4B1A680C4B9B8855
S31508000290101C191C00F094FE084B1A68074B9B8823
S315080002A0101C191C00F094FEFB68181C00F0E0FBFB
S315080002B0C2E7C1E7900C0020501E00080004002089
S315080002C008040020000000000000000000000000F4
S315080002D080B586B004AF78603960002000F060F819
S315080002E0154A164B101C04211A1C00F0C9FB144AA7
S315080002F0144B154900918021C900019101210291F1
S31508000300101C191C0022002300F07AF90F4A104B22
S31508000310104900918021C900019101210291101C08
S31508000320191C0022002300F06BF900F031F80023B5
S31508000330181CBD4602B080BD900C00209C0C002005
S31508000340581E0008C101000890040020681E000815
S31508000350310200089008002000000000000000009C
S3150800036008B500F015FD08BD0000000000000000FB
S3150800037008B500F01DFD08BD0000000000000000E3
S3150800038008B500F025FD08BD0000000000000000CB
S3150800039008B500F00DFA08BD0000000000000000D6
S315080003A010B5041C00F04CFD012000F0A1FD201C36
S315080003B000F09EF900F03CFD10BD000000000000B2
S315080003C0EFF30980704700000000000000000000FD
S315080003D0094A1368984206D1036813600AE01A6846
S315080003E0824203D0131C002BF9D101E002681A607F
S315080003F0002303607047C046B00C002000000000D0
S3150800040030B51449144A08685368D8633024185F0D
S315080004100C1C00281CD11189481E09B2108100291C
S3150800042016DA15681B68002B00D12B1C988B062141
S31508000430014003D0022188439883F3E75360D88BA1
S3150800044005B2002D01DB108100E01181DB6B236012
S3150800045030BDC046D80C0020B00C002000000000BB
S31508000460044A10B5D368041C002B01D011699847BB
S31508000470201C10BDB00C0020000000000000000089
S3150800048010B500F085FC074B5B68002B04D01A8E6C
S3150800049014B201321A8600E01C1C00F089FC201CEC
S315080004A010BDC046B00C002000000000000000008F
S315080004B010B500F06DFC094B5B68002B06D01A8E50
S315080004C014B2002C04DD013A1A8602E01C1C00E076
S315080004D0002400F06DFC201C10BDC046B00C0020A6
S315080004E010B50B4C6368002B11D030229B5E002B95
S315080004F00DD100F0ADFC002809D0636802219A8B63
S315080005000A439A8301235B422381FFF739FF10BD13
S31508000510B00C0020000000000000000000000000F1
S31508000520F7B50F1C019000F0BBF9041C0D1C00F078
S3150800053087FC019B0233DA8F0132DA8700F090FCE0
S31508000540019E02363E22B35E002B12DDFB17201CED
S31508000550291C3A1C00F0ACF9002807D000F070FC02
S31508000560F38F013BF38700F07BFC02E0FFF7B8FF4F
S31508000570E6E7F7BD000000000000000000000000EC
S3150800058008B5034B011C5868FFF7CAFF08BDC046EB
S31508000590B00C002000000000000000000000000071
S315080005A008B5044B04215B689A8B0A439A83FFF7C4
S315080005B097FFFCE7B00C00200000000000000000D8
S315080005C038B5041C00F03CFCA38B04221343A38318
S315080005D0636B051C002B01D0606A9847201CFFF747
S315080005E0F7FE201C00F044FA201C00F0C1F9281C74
S315080005F000F036FC38BD00000000000000000000D6
S31508000600F0B587B001930EAB04920F1C0022995ED9
S3150800061003900C9D0D9E059100F012FC0290002D92
S3150800062016D0341C403C2C19FA21321C281C00F028
S31508000630DFFA201C0021402200F0DAFA019B23622F
S31508000640254B636301239F4384239B05A763E363C9
S31508000650224B5F68002F00D11F68482000F0F8F988
S31508000660041E12D00021482200F0C2FA0023676057
S31508000670A3839D420DD0AE19331C403BA3602B1CAF
S31508000680403366612361A5610AE00820FFF7E8FEAA
S315080006901BE0134BA3606361124B2361403BA361CC
S315080006A0019A0399059B62620C4A2162E3830499C5
S315080006B013686163002B06D01A68002A01D0131C40
S315080006C0FAE71C6001E014602360029800F0C8FB9A
S315080006D0201C07B0F0BDC046A1050008B00C0020DC
S315080006E00004002040020020000000000000000076
S315080006F030B50A4C85B0051C0021201C282200F0C4
S3150800070077FA0023009301930295191C1A1C0448D2
S31508000710FFF776FF606005B030BDC046B00C00201C
S31508000720801E000800000000000000000000000015
S3150800073070470000000000000000000000000000F4
S3150800074070B5FFF7F5FF164D286800F021F92C68FB
S31508000750002C23D0A36822692668934203D96269CC
S31508000760934202D808E0012004E0A26904209342DB
S3150800077000D90220FFF774FEA368E268934201D30A
S31508000780002A00D1E360A38B5A0705D56B689C4203
S3150800079002D0201CFFF714FF341CD9E770BDC046F1
S315080007A0B00C00200000000000000000000000005F
S315080007B008B5FFF7C5FFFFF793FEFAE7000000004C
S315080007C000B5EFF309801038F0C044464D4656464A
S315080007D05F462038F0C0103880F3098800F008FB1F
S315080007E000F006FB0D4C6568002D08D0FFF7E8FD04
S315080007F0A860FFF705FE63689B6883F3098800F025
S315080008000FFB00F00DFBEFF30980F0C8BB46B246BC
S31508000810A946A046F0C880F3098800BDB00C0020A0
S3150800082000B5EFF309801038F0C044464D465646E9
S315080008305F462038F0C0103880F3098800F0D8FAEF
S3150800084000F0D6FA154C6568002D17D0FFF7B8FDED
S3150800085001220023A860A069E16980185941A061B6
S31508000860E16161688D6ACE6A521973418A62CB6208
S31508000870FFF7C6FD63689B6883F3098800F0D0FA22
S3150800088000F0CEFAEFF30980F0C8BB46B246A94697
S31508000890A046F0C880F3098800BDC046B00C002009
S315080008A0014B9869D9697047B00C00200000000018
S315080008B030B501240025A4185D41002D01D1012C75
S315080008C00DD9084CE569A469241A8D410120AB426B
S315080008D002DC02D1A24200D90020C0B200E0281CE6
S315080008E030BDC046B00C002000000000000000002B
S315080008F038B50D1C041CFFF733FD25616561FFF74C
S3150800090037FD201C38BD0000000000000000000074
S3150800091070B50C1C061CFFF723FD0021051C201CC6
S31508000920FFF7E6FFFFF71CFDB26B6368944205D13B
S31508000930B363002B0DD000221A600AE02268002A51
S3150800094000D053606368002B00D01A6000236360F0
S315080009502360FFF70DFD237EDA0702D5201C00F081
S3150800096087F8281CFFF704FD70BD00000000000092
S3150800097010B5041CA16B002903D0201CFFF7C8FF83
S31508000980F8E710BD000000000000000000000000AD
S31508000990F7B5051C00F0FCF9184B01909A69186A1E
S315080009A0D969161A24D01A625962002D20D0AC6B68
S315080009B0002C1BD02269002A01D1002313E0002352
S315080009C0B24200D3931B2361002BF6D1A368002BF8
S315080009D003D0281C211CE2689847227E0123910730
S315080009E001D462692261FF186468E1E72D68DCE7D3
S315080009F0019800F0DDF9381CFEBDC046B00C002099
S31508000A007047000000000000000000000000000021
S31508000A107047000000000000000000000000000011
S31508000A20FEE70000000000000000000000000000D3
S31508000A30FEE70000000000000000000000000000C3
S31508000A4008B500F055FE08BD0000000000000000D3
S31508000A5008B500F07DFE08BD00000000000000009B
S31508000A6008B500F0BDFE08BD00000000000000004B
S31508000A7008B500F095FE08BD000000000000000063
S31508000A800023436001608260704700000000000098
S31508000A9070B5041C0E1C00F0D3F92268051C6368A7
S31508000AA0511C0FD101339900A068FFF7D9FFA06048
S31508000AB0002801D100240DE063685A1C9B0062607F
S31508000AC01E5006E09342F5DAA268591C9B00616045
S31508000AD09E500124281C00F0C3F9201C70BD00009C
S31508000AE0F0B585B001900D1C02920393FFF7D8FE6E
S31508000AF0061C0F1C0198291CFFF7CAFF041E0AD101
S31508000B00301C391C029A039BFFF7D2FE002803D13A
S31508000B10FFF7E6FCEEE70124201C05B0F0BD000057
S31508000B20F8B500250D60041C0E1C00F089F96268F2
S31508000B30071CAA420ADD531E6360A36892001B685D
S31508000B4001253360A068011D00F032F8381C00F05A
S31508000B5087F9281CF8BD000000000000000000000E
S31508000B60F0B585B00D1C029203930190FFF798FE2D
S31508000B700023061C0F1C2B600198291CFFF7D0FFC9
S31508000B80041E0AD1301C391C029A039BFFF790FEFB
S31508000B90002803D1FFF7A4FCEEE70124201C05B0CA
S31508000BA0F0BD00000000000000000000000000008A
S31508000BB070B5002816D0884201D800230CE08C189E
S31508000BC0A042FAD28518131C013B0BD35142661872
S31508000BD0F65C6918CE54F7E7934203D0CC5CC4544C
S31508000BE00133F9E770BD00000000000000000000B6
S31508000BF0031C8218002804D0934202D019700133CE
S31508000C00FAE770470000000000000000000000003E
S31508000C100023CA5CC2540133002AFAD17047000087
S31508000C2003780A78002B04D09A4205D101300131A5
S31508000C30F6E7181C002A04D0087883429B41012055
S31508000C401843704700000000000000000000000084
S31508000C501E4B1F495A69A0200A435A61DA691D4981
S31508000C60C0020A43DA6199699422D2010A439A6159
S31508000C709022A023D2059B051360C023DB00938036
S31508000C80154B1649936090239B05D3600023136286
S31508000C905362134A136093809160D3601362536260
S31508000CA0104A106093809160D360136253620E4AB3
S31508000CB0136093809160D360136253620B4A13608A
S31508000CC093809160D36013625362704700100240AC
S31508000CD001005E0002082010AAAAAA96AAAAAAAA31
S31508000CE00004004800080048000C004800140048AA
S31508000CF01FB50B49002000F0BBFE0A4B18600A4BD3
S31508000D0018600A4B186001A800F0CAFA96239B01DE
S31508000D1001A90020019300F0DBFA05B000BDC0462A
S31508000D20901E0008FC0C0020F80C0020000D002086
S31508000D30FEE70000000000000000000000000000C0
S31508000D4000B5F0B444464D4656465F46F0B4064BE9
S31508000D505868C0B2103800F053FAF0BCBB46B24629
S31508000D60A946A046F0BC00BD00ED00E0000000006A
S31508000D7070470000000000000000000000000000AE
S31508000D80704700000000000000000000000000009E
S31508000D90044B022118681A6880078A43C00F1A6034
S31508000DA07047C04610E000E00000000000000000A8
S31508000DB0054B02221968002801D00A4301E0914335
S31508000DC00A1C1A607047C04610E000E000000000E8
S31508000DD0034B8022596852050A435A607047C04639
S31508000DE000ED00E000000000000000000000000028
S31508000DF0084B5A68D205D20D0E2A05D00F2A08D1FB
S31508000E0080225968920402E08022596812050A4332
S31508000E105A60704700ED00E0000000000000000086
S31508000E2070470000000000000000000000000000FD
S31508000E3062B67047000000000000000000000000D5
S31508000E4002B40121EFF31080484002BC72B6704725
S31508000E5002B40121EFF31080484002BC704700003D
S31508000E60002801D062B600E072B6704700000000A4
S31508000E700122094B1F2806D8824018681A601040BC
S31508000E80411E884106E02038824058685A60104062
S31508000E90411E88417047C04600E100E0000000009E
S31508000EA00123094A1F2806D8834010681840421EA5
S31508000EB09041064A06E02038834050681840421E92
S31508000EC09041034AD367704700E100E004E100E07F
S31508000ED008E100E00000000000000000000000003B
S31508000EE000B589B001A800F093F8019809B000BDD3
S31508000EF008B5FFF7A5FFFFF7F3FFFA21890000F011
S31508000F008DFF084B084A01385860106AC021000254
S31508000F10000A09060143116200229A6007221A6034
S31508000F2008BDC04610E000E000ED00E0000000004B
S31508000F3003688EB000934368019383680293C3687D
S31508000F400393036904934369059383690693C36905
S31508000F5007930A4B1B680893094B1B680993094BAF
S31508000F601B680A93084B1B680B93084B1B680D9369
S31508000F70074B1B680C9300BE0EB0704728ED00E0C7
S31508000F802CED00E030ED00E03CED00E034ED00E053
S31508000F9038ED00E00000000000000000000000003E
S31508000FA004207146084202D0EFF30980C0E7EFF348
S31508000FB00880BDE7F4E7000000000000000000001C
S31508000FC0816170470000000000000000000000007A
S31508000FD0090481617047000000000000000000005D
S31508000FE04A0010B50323046893402340D3409BB2BC
S31508000FF0012B04D0022B04D0002B05D101E0808AF6
S3150800100000E0008A084000E0002010BD0000000053
S3150800101070B5334D0C236A68041C1340042B01D0A9
S31508001020082B02D02F4B236012E06E686B68B6025D
S31508001030360F0236D90302D42B4B5E4307E0E96A22
S315080010400F2319400131274800F0E8FE4643266081
S315080010506A68264B1206120F20689A5C011CD1405A
S3150800106061600A1C69684905490F5B5CDA40A26041
S315080010702B6BD90501D41E4B06E0194B5B68590446
S3150800108001D4530800E09308E3602B6B590601D49A
S31508001090184B01E080231B0223612B6BD90602D46F
S315080010A0104B636100E060612D6B03230C491D4200
S315080010B001D1A26112E00A6B1A40012A01D1A0618E
S315080010C00CE00A6B1A40022A02D180231B0204E0B4
S315080010D00A6B1340032B01D1024BA36170BDC046B6
S315080010E00010024000127A0000093D001804002092
S315080010F0809FD5001280000000000000000000005C
S31508001100F8B5071C0D1C161CFFF79AFE0C4B00249D
S315080011101B78BB4210D90B4BBF001B68FB58002B32
S3150800112007D01A68AA4202D15A68B24203D09B680D
S31508001130F5E71C1C00E00124FFF792FE201CF8BD11
S31508001140E00C0020DC0C002000000000000000007D
S31508001150F0B585B0041C01910292FFF7D1FF002873
S315080011603ED1FFF76DFE214E651C3368039000944F
S315080011709D4212DD1E4FA9003868FFF771FC3860E2
S3150800118000280AD033689A00AB4205DA386800218D
S31508001190815001330432F7E735603368A3421BDD1B
S315080011A00C20FFF755FC051E16D000210C22FFF770
S315080011B01FFD029B01996B600D4BA4001B682960FB
S315080011C01C192368002B01D1256005E09A68002ABE
S315080011D001D0131CFAE79D600398FFF741FE02E071
S315080011E001235B420093009805B0F0BDE00C002097
S315080011F0DC0C0020000000000000000000000000D9
S3150800120038B5074B82001B68051CD458002C05D03E
S3150800121061682368281C9847A468F7E738BDC04664
S31508001220DC0C0020000000000000000000000000A8
S3150800123038B5184B00251D60041CFFF721F9182343
S315080012405C43154B1C59201C00F032FC201C00F096
S31508001250CFFCFFF725FE201C00F0BAFC00F088FB47
S31508001260201C00F0BDFC00F083FB291C201C00F0AC
S315080012709FFC291C201C00F0A3FC201C00F0C0FCCD
S315080012800423011C9943201C00F0C2FCFFF710F947
S31508001290281C38BDD80C0020A01E0008000000003D
S315080012A010B5041E0DD000210C22FFF7A1FC9623D1
S315080012B09B01236008232371012363710023A37113
S315080012C0E37110BD000000000000000000000000EF
S315080012D008B518235843024B185800F0F9FB08BD07
S315080012E0A01E00080000000000000000000000002A
S315080012F0F7B5304F0026041C01913E60FFF7C0F891
S31508001300B4423BDB182363432B4AD558281C00F00C
S315080013105FFC00F02DFB281C00F062FC00F028FBA7
S31508001320311C281C00F044FC311C281C00F048FC29
S31508001330802000F0FDFA011C281C00F039FCB042A0
S315080013401AD0082000F0F4FA011C281C00F038FC1A
S31508001350B0420CD0311C281C00F0BAFB281C00F047
S315080013604FFC04210143281C00F052FC06E0281C0F
S3150800137000F02EFC00F0FCFA0C233B60FFF798F80F
S31508001380002C0DDB019B002B0AD0201C191CFFF733
S315080013909FFF002804DA201CFFF74AFF0124644255
S315080013A0201C00F0FDFBA04202D0201CFFF740FFE6
S315080013B0201CFEBDD80C0020A01E0008000000005E
S315080013C0F7B5051C0E1C01920024019B9C4216DAF7
S315080013D0286800F0FDFB00F02BFB00280CDB3055DD
S315080013E0671C2C68201C00F00BFC01210143201C03
S315080013F000F00EFC3C1CE8E7FFF772F8E5E7201C56
S31508001400FEBD000000000000000000000000000013
S31508001410F8B5051C0F1C161C0024B4420FDA286800
S3150800142000F0DEFB395D00F0DBFA002801D001345C
S3150800143001E0FFF755F8286800F002FCEDE7201CEC
S31508001440F8BD0000000000000000000000000000D9
S3150800145008B5006800F0BCFB00F0B2FA08BD000051
S3150800146008B5006800F0BCFB00F0AAFA08BD000049
S3150800147008B5006800F0C4FB08BD000000000000C5
S3150800148010B500290BD0C368CA1A120992B213B252
S31508001490002B04DB1024015F101C994200DC014874
S315080014A000B210BDFFFF00000000000000000000B1
S315080014B0C317DB0E1B180A4A5B119B00104004D5A4
S315080014C02022013852421043013000B201225B58F3
S315080014D08240101C1840431E9841C0B27047C0464F
S315080014E01F0000800000000000000000000000004F
S315080014F010B5002921DB0024005F88421DDD0F4856
S31508001500084004D520240138644220430130CC1712
S31508001510E40E61184911890000B25218002B06D052
S3150800152001238340181C13681843106005E0012343
S315080015308340181C13688343136010BD1F00008086
S31508001540F0B589B00791018A0022071C059101921E
S31508001550019A059953019BB200930DB21BB2AB4297
S3150800156030DA3968DB105B580291013326D0009ACD
S315080015700799002453189BB206930699A3B25A18E2
S3150800158011B20491A94216DA009A9B189BB20393EA
S315080015901E1C049B30B298420BDA002806DBA842D0
S315080015A004DA0299FFF784FF002804D10136B6B29F
S315080015B0EFE7039807E00134202CDED101990131C9
S315080015C00191C5E7014800B209B0F0BDFFFF000070
S315080015D0F7B5071C0D1E1EDB1023C65E0024B1429C
S315080015E01ADA0194019B9CB223B2EB18B34213DAC0
S315080015F0201C4019013400B2A4B27968002803DA25
S31508001600019B01330193EDE7B042F9DAFFF750FF8A
S315080016100028F5D000E0002420B2FEBD000000003E
S31508001620F7B5041C0D1C01922DD41022835E8B4243
S3150800163029DD0026019A33B2934217DA019B271C4B
S3150800164010377119013B626809B2381C9E4201D1F4
S31508001650012300E00023FFF74BFF711909B2381C7C
S3150800166022680123FFF744FF0136E3E71022A35E51
S31508001670AB4203DDE3682D015D1900E00025019802
S31508001680FFF7BEF900E00025281CFEBD000000009B
S31508001690F7B5051C0E1C009221D41021435E0020CC
S315080016A0041CB3421CDD0099A2B28A4212DA9219CE
S315080016B02F1C13B21037191C0193381C2A680023F3
S315080016C0FFF716FF381C01996A680023FFF710FF19
S315080016D00134E8E7081CFFF79BF9012000E0002029
S315080016E0FEBD000000000000000000000000000031
S315080016F070B5144D041C0E1C286800211422FFF72F
S3150800170077FA301B410ACA00801A2B68000980B292
S31508001710188200B2C217D20E12188900521108197F
S31508001720920092B241181A811C605860D960201C38
S315080017300021FFF75DFA2B68002158681A89FFF720
S3150800174057FA70BD280400200000000000000000C1
S31508001750F8B5041E1FD00F2505406B1E9D410309D1
S31508001760ED18FFF76DFB0D4BADB21F682DB2291CA6
S31508001770061C381CFFF7E4FE011E05DB381C2A1C74
S31508001780FFF74EFF041C03E0201CFFF7D1FA0024E4
S31508001790301CFFF765FB201CF8BDC0462804002056
S315080017A0F8B5061CFFF74CFB0C4B071C1D68311CD3
S315080017B0281CFFF765FE041E09D0211C281CFFF70C
S315080017C007FF211C021C281CFFF762FF02E0301CE1
S315080017D0FFF726F9381CFFF743FBF8BD280400205D
S315080017E0F0B58BB0041C02917DD0002977D0FFF7A5
S315080017F027FB4D4E09903568211C281CFFF740FE33
S315080018000190002855DB02980F2303405A1E934186
S3150800181002099B189BB2281C01999FB20493FFF7F3
S31508001820D7FE3FB20390874249DD1022A95E019B8D
S3150800183008918B425CDA80B299B243189BB2069043
S31508001840059107931E1C079B04980699F21A431ADA
S3150800185012B21BB29A420DDA30B22968002806DBAA
S31508001860089A904203DAFFF723FE002840D1013692
S31508001870B6B2E8E70026049833B283422BDA059A13
S31508001880049F9119281C013F10306A6809B2BB42AF
S3150800189001D1012300E00023FFF72AFE059B281C3F
S315080018A0991909B210302A680123FFF721FE01367B
S315080018B0E1E7201C0299FFF7BBF800240BE0039A26
S315080018C0974208DA0199281CFFF7E2FE3068019969
S315080018D03A1CFFF7A5FE0998FFF7C2FA21E0FFF7C1
S315080018E05FFF029C1DE00298FFF732FF041C18E018
S315080018F0281C0199039AFFF7CBFE0B4B391C1D6870
S31508001900281CFFF71DFE011ED3DB281C3A1CFFF717
S3150800191087FE0399051C0A01211CFFF749F92C1CAF
S31508001920D9E7201C0BB0F0BD2804002000000000F9
S3150800193070B5061C0C20FFF78BF8041E0FD000218B
S315080019400C22FFF755F9301CFFF782F8051C2060BA
S3150800195001D0A68003E0201CFFF78AF82C1C201C67
S3150800196070BD00000000000000000000000000003C
S3150800197038B5041E0FD0FFF763FA051C2068002847
S3150800198001D0FFF775F8201CFFF772F8281CFFF73F
S3150800199067FA0120FFE738BD0000000000000000DC
S315080019A010B5041CFFF74CFA2389E288D41A63425F
S315080019B05C41E4B2FFF754FA201C10BD0000000099
S315080019C038B5051CFFF73CFAEB882A899C1A02D51C
S315080019D0AC88A41AE418FFF743FA201C38BD0000A7
S315080019E070B5041C0E1CFFF72BFA2289E388511EDA
S315080019F08B420AD0A188012501398B4207D1551E91
S31508001A00AA41D5B2002D02D10BE0002509E05A1CE7
S31508001A10E2802268D654E288A3889A4201D300233A
S31508001A20E380FFF71DFA281C70BD000000000000C7
S31508001A3038B5041CFFF704FA2389E2889A420AD0CB
S31508001A405A1C92B221682281CD5CA388934204D89D
S31508001A500023238101E001256D42FFF701FA281CC6
S31508001A6038BD000000000000000000000000000073
S31508001A7008B50021FFF73CFC002804DB182358436F
S31508001A80024BC01800E0002008BDC046A01E000892
S31508001A9003681868024B1840431E98417047C046B1
S31508001AA0050105000000000000000000000000001D
S31508001AB038B5041CFFF7ECFF0349051C0022206813
S31508001AC000F076F9281C38BD050105000000000065
S31508001AD030B5041C87B00D1E01D1051C08352068D9
S31508001AE0002100F055F9002D4BD02B6800932B7977
S31508001AF0092B01D0002301E080235B0101936B7958
S31508001B00022B03D0032B03D0002303E0C02300E0FD
S31508001B1080239B010293AB79012B05D0022B01D0C0
S31508001B20002303E0C02300E08023DB000393EB7966
S31508001B30022B08D0032B08D0012B01D0002306E086
S31508001B4080235B0003E0802300E0C0239B0005930D
S31508001B5020680C236946049300F0BAF8206801212E
S31508001B6000F016F90949221C2079FFF7F1FA2079C5
S31508001B70FFF77EF920680649012200F019F90020CE
S31508001B8001E00120404207B030BDC046611C000894
S31508001B90050105000000000000000000000000002C
S31508001BA07047000000000000000000000000000070
S31508001BB08161081C7047000000000000000000005A
S31508001BC0C161081C7047000000000000000000000A
S31508001BD08069704700000000000000000000000057
S31508001BE0C069704700000000000000000000000007
S31508001BF000797047000000000000000000000000A7
S31508001C004069704700000000000000000000000066
S31508001C104161081C70470000000000000000000039
S31508001C200368D8690006C00F70470000000000006E
S31508001C300368D8698006C00F7047000000000000DE
S31508001C40036880211A680A431A607047000000007A
S31508001C50036880211A688A431A60704700000000EA
S31508001C6010B50B790C1C834230D1201CFFF7E0FF1E
S31508001C70002810D02268A069918CC9B2FFF7B0FE7F
S31508001C80002803D162691023134363616269012343
S31508001C9013436361E9E7E069FFF782FE00280AD18A
S31508001CA0201CFFF7BDFF002805D0E069FFF7C0FE3E
S31508001CB0236880B21885E069FFF772FE002802D013
S31508001CC0201CFFF7C5FF236808221A6210BD000012
S31508001CD003680122934370B503604268254B0D1CC7
S31508001CE0896813400B4343600268234B69681A40AE
S31508001CF0EB6888B00B432969041C0B431343036044
S31508001D0082681E4B13406A691343836001A8FFF774
S31508001D107FF91B4B9C4201D1079B00E0039B22687D
S31508001D20192029685843150401D5490000E089009F
S31508001D3000F074F86421061C00F070F805012B0900
S31508001D4064214B43F61A23681A0406D5F600301C9C
S31508001D50323000F063F8072305E03601301C3230D4
S31508001D6000F05CF80F2318400543ADB2A58108B012
S31508001D7070BDC046FFCFFFFFF3E9FFFFFFFCFFFF83
S31508001D8000380140000000000000000000000000CC
S31508001D9001230268002901D0134301E09A43131C6A
S31508001DA0036070470000000000000000000000000B
S31508001DB08BB210B5C9B201248C401B0A211C022B18
S31508001DC001D1043002E0032B00D108300368002A51
S31508001DD002D01943016001E08B43036010BD000087
S31508001DE0CA1751408B1A17D0C1174A4004B4484045
S31508001DF0411A48081A0000E052008242FCD9002025
S31508001E0000E05208914200D3891A40419A42F8D11B
S31508001E1004BC5040801A7047002070470A000FD053
S31508001E200300400800E052008242FCD9002000E08E
S31508001E305208934200D39B1A40418A42F8D1704710
S31508001E4000207047000000000000000000000000AD
S31508001E504400000055000000627574746F6E5F746C
S31508001E6068726561640000006C65645F7468726519
S31508001E70616400000000000000000000000000008F
S31508001E8043415249424F550000000000000000003F
S31508001E90727700000000000000000000000000004B
S31508001EA02C040020C113000811140008511400085E
S31508001EB061140008711400084C040020C1130008BE
S31508001EC01114000851140008611400087114000860
S31508001ED000000000000000000000000000000000F4
S30D08001EE00000000000000000EC
S31508001EE80008004800010000000800480002000039
S31508001EF80000004801000000000000000102030479
S31508001F080102030406070809E40C0020003801400A
S31508001F181B000000802500000801000000000000E2
S31508001F280000000000000000000000000044004017
S31508001F381C000000802500000801000000000000C1
S31508001F48000000000000000000000000000000007B
S31508001F58000000000000000000000000000000006B
S31108001F680000000000000000000000005F
S705080000C131
