:020000040800F2
:10000000880100207102000815020008170200088C
:10001000190200081B0200081D0200080000000071
:100020000000000000000000000000001F020008A7
:100030002102000800000000230200082502000839
:1000400027020008290200082B0200082D020008E0
:100050002F020008310200083302000835020008B0
:1000600037020008390200083B0200083D02000880
:100070003F02000841020008430200084502000850
:1000800047020008490200084B0200084D02000820
:100090004F020008510200085302000855020008F0
:1000A00057020008590200085B0200085D020008C0
:0C00B0005F020008610200086302000803
:1000BC00354936480A1A02D0072291438D463449F5
:1000CC0034480A1A06D00722914381F30988022288
:1000DC0082F3148830483149314A00F043F83148F2
:1000EC003149324A00F03EF831483249324A00F088
:1000FC0039F832483249334A00F034F8324833493F
:10010C00334A00F02FF833483349344A00F02AF8C8
:10011C0033483449344A00F025F834483449002235
:10012C0000F02BF833483449002200F026F833480D
:10013C003349091A082903DB0022026004300160EC
:10014C001F482049884205D00268043003B4904708
:10015C0003BCF7E700208646EC4600200021294A24
:10016C009047FEE7884207D0521A05D00378013039
:10017C000B700131013AF9D17047884202D00270FC
:10018C000130FAE770470000880100208800002049
:10019C008801002088010020F802000800000020DF
:1001AC00000000207802000878020008E80200082D
:1001BC00F80200080000002000000020E8020008FF
:1001CC00E8020008E8020008E8020008E80200085B
:1001DC00E8020008E8020008E8020008F50200083E
:1001EC00F8020008000000200000002000000020A1
:1001FC000800002008000020080000200800002053
:10020C008800002079020008FEE7FEE7FEE7FEE723
:10021C00FEE7FEE7FEE7FEE7FEE7FEE7FEE7FEE7AA
:10022C00FEE7FEE7FEE7FEE7FEE7FEE7FEE7FEE79A
:10023C00FEE7FEE7FEE7FEE7FEE7FEE7FEE7FEE78A
:10024C00FEE7FEE7FEE7FEE7FEE7FEE7FEE7FEE77A
:10025C00FEE7FEE7FEE7FEE70348854600F001F8FF
:0C026C0026E77047FEE70000008000203D
:1002780080B500AF044B180000F010F8002000F023
:1002880007F8C046BD4680BDE802000870477047C1
:1002980010B501002E2000F00BF810BD0FB400B50A
:1002A8000A2001A900F004F802BC04B00847C046BF
:1002B80070B504000D00FFF7E9FF074B1D608020B3
:1002C8002043064B18601A001368002BFCD1FFF777
:1002D800DEFF014B186870BD0000002004000020FC
:0D02E80068656C6C6F20776F726C640A00A3
:040000050800026588
:00000001FF
