S02B00002F686F6D652F6D696B652F446F63756D656E74732F63617269626F752D72746F732F6272616E6368A0
S3150800000000020020B1010008211D0008C1420008B5
S31508000010C1420008C1420008C1420008C1420008A6
S31508000020C1420008C1420008C1420008111D00086B
S31508000030C1420008C1420008A10D0008F10D0008E0
S31508000040E11C0008E11C0008E11C0008E11C00088E
S31508000050E11C0008E11C0008E11C0008E11C00087E
S31508000060E11C0008E11C0008E11C0008E11C00086E
S31508000070E11C0008E11C0008E11C0008E11C00085E
S31508000080E11C0008E11C0008E11C0008E11C00084E
S31508000090E11C0008E11C0008E11C0008E11C00083E
S315080000A0E11C0008E11C0008E11C0008E11C00082E
S315080000B0E11C0008E11C0008E11C0008E11C00081E
S315080000C0E11C0008E11C0008E11C0008E11C00080E
S315080000D0E11C0008E11C0008E11C0008E11C0008FE
S315080000E0E11C0008E11C0008E11C0008E11C0008EE
S315080000F0E11C0008E11C0008E11C0008E11C0008DE
S31508000100E11C0008E11C0008E11C0008E11C0008CD
S31508000110E11C0008E11C0008E11C0008E11C0008BD
S31508000120E11C0008E11C0008E11C0008E11C0008AD
S31508000130E11C0008E11C0008E11C0008E11C00089D
S31508000140E11C0008E11C0008E11C0008E11C00088D
S31508000150E11C0008E11C0008E11C0008E11C00087D
S31508000160E11C0008E11C0008E11C0008E11C00086D
S31508000170E11C0008E11C0008E11C0008E11C00085D
S31508000180E11C0008E11C0008E11C0008E11C00084D
S31508000190E11C0008E11C0008E11C0008E11C00083D
S315080001A0E11C0008E11C0008E11C0008E11C00082D
S315080001B072B62D4880F30988022080F31488BFF3AD
S315080001C06F8F2A482849FA2200F048F82848294912
S315080001D0FA2200F043F828482849294A00F033F85B
S315080001E028482949002200F039F8284A9047284823
S315080001F02849294A904729482949884205D002684A
S31508000200043003B4904703BCF7E7264A904700201A
S3150800021000218646EC46244A9047244824498842C9
S3150800022005D00268043003B4904703BCF7E7FFF72C
S31508000230BFBFFFF7FEBF04F043B804F041B804F0AF
S315080002403FB804F03DB8884207D0521A05D0037863
S3150800025001300B700131013AF9D17047884202D05A
S3150800026002700130FAE770470004002000020020FF
S315080002700000002000020020B0450008000400200D
S31508000280D0040020D004002034060020C102000853
S31508000290340600200000012081110008B001000882
S315080002A0B0010008B104000801070008B001000801
S315080002B0B001000800000000000000000000000077
S315080002C080B588B000AF4FF4803002F099FA00BFCD
S315080002D002F0D6FA0346012BFAD1012002F0F8FA09
S315080002E03B1D184602F024FB02F0FAF802F038F932
S315080002F03B1D184602F01CFB0120012102F038FCC8
S315080003000120012102F0FCFB0220012102F0F8FB8A
S315080003104020012102F0F4FB0420012102F028FC10
S315080003200820012102F024FC1020012102F020FC03
S315080003302020012102F01CFC4020012102F018FCBB
S315080003408020012102F014FC4FF48070012102F094
S315080003500FFC4FF48020012102F042FC4FF400709C
S31508000360012102F005FC4FF40060012102F000FCB7
S315080003700220012102F034FC4FF40060012102F052
S315080003802FFC4FF00060012102F02AFC4FF080504C
S31508000390012102F025FC4FF08040012102F020FCEB
S315080003A0134B144A1A60124B4FF044325A60124BE0
S315080003B04FF044321A60104B4FF044325A600F4BDC
S315080003C00F4A1A600D4B4FF044325A600D4B4FF0EE
S315080003D044321A600B4B0C4A5A600C4B4FF04432AD
S315080003E01A600A4B4FF044325A602037BD4680BD2A
S315080003F0000801404444444B000C014000100140F1
S3150800040044444422001401404A424444001801402E
S3150800041080B58AB000AF1E23FB84F923BB84A623CC
S315080004207B8453233B840023FB831B4B1B681B4A9B
S31508000430A2FB03239B0D9BB2013BFB833C233B831F
S31508000440FB8BBB8200237B830023FB8207F114030B
S315080004501348194602F064FC3B1D184602F0B0FE2C
S315080004606023BB800123FB80FB8C7B810023BB813F
S315080004703B1D0B48194602F053FD0948082102F0B6
S31508000480F7FF0748012102F05BFF0548012102F04A
S31508000490BFFE2837BD4680BDA8040020819F5E1692
S315080004A000040040000000000000000000000000FA
S315080004B080B500AF0E4B1B680D4A92881A610D4B2A
S315080004C01B680C4A928812041A6102200A4900F035
S315080004D097FE0246094B1A60084B1B68084A1360C8
S315080004E0074B1B68074A1360FFF792FF80BD00BFE2
S315080004F00004002008040020E0420008140600203A
S315080005000C06002010060020000000000000000075
S3150800051080B400AFBD465DF8047B7047000000005C
S3150800052080B483B000AF7860FEE700BF000000002B
S3150800053080B582B000AF7860684B1B68674A9288BE
S3150800054012041A61664B1B68654A928812041A617E
S31508000550644B1B689B68634A92881340002B1ED025
S31508000560614B1B78002B0CBF01230023DBB21A4614
S315080005705D4B1A700BE0594B1B68584A9288120457
S315080005801A61574B1B68564A928812041A61554BD2
S315080005901B689B68534A92881340002BEBD1534B38
S315080005A01B689B68514A92881340002B1ED1504BFA
S315080005B01B78002B0CBF01230023DBB21A464C4BD9
S315080005C01A700BE0454B1B68444A928812041A615C
S315080005D0434B1B68424A928812041A61434B1B68B4
S315080005E09B68424A92881340002BEBD0414BD3E9D3
S315080005F00023104619464FF032024FF0000300F070
S315080006008FFC0346002B68D0374B1B78002B14D081
S31508000610334B1B689B68324A92881340002B06D0DE
S315080006202F4B1B682E4A928812041A610BE02C4B3A
S315080006301B682B4A92881A6105E0294B1B68284AD1
S31508000640928812041A612A4B1B78002B14D0234B6C
S315080006501B689B68214A92881340002B06D01F4BC3
S315080006601B681E4A928812041A610BE01B4B1B6812
S315080006701A4A92881A6105E0184B1B68174A92882D
S3150800068012041A6100F0ECFB02460B461949C1E94F
S315080006900023194B1B68002B0FD1184A174B9B8D4B
S315080006A09BB2023B9BB29385144B9B8D9BB21E2B30
S315080006B013D8114B01221A604AE7104A0F4B9B8D3B
S315080006C09BB202339BB293850C4B9B8D9BB2B3F5C1
S315080006D0FA7F02D3084B00221A6039E7000400208B
S315080006E0080400201004002020040020180400201C
S315080006F021040020D0050020D80500200004004071
S3150800070080B586B004AF78603960002000F048F8FC
S31508000710094B00934FF48073019301230293074812
S3150800072007490022002300F0B3F900F031F800234E
S3150800073018460837BD4680BDD0040020F0420008A0
S31508000740310500080000000000000000000000005D
S3150800075080B500AF01F0ECFA0346184680BD00BF2D
S3150800076080B582B000AF7860786801F001FB083781
S31508000770BD4680BD0000000000000000000000002B
S3150800078080B500AF01F014FB80BD00BF000000007B
S3150800079080B500AF00F0ACFA80BD00BF00000000D5
S315080007A080B582B000AF0346FB7101F091FB0120D2
S315080007B001F076FB97F907309BB21BB2184600F09A
S315080007C0FFF901F07DFB0837BD4680BD000000003B
S315080007D0EFF309807047184600000000000000008B
S315080007E080B582B000AF0346FB80084BDB68002B60
S315080007F007D0064BDB68F988044A12690846114691
S315080008009847FB8818460837BD4680BDE005002096
S3150800081080B584B000AF7860482000F0C1FCF8606D
S31508000820FB68002B08D0F8680021482200F040FD3C
S31508000830FB687A685A6002E00820FFF7D1FFFB6878
S3150800084018461037BD4680BD0000000000000000B5
S3150800085080B582B000AF7860786800F0C1FC0837D0
S31508000860BD4680BD0000000000000000000000003A
S3150800087080B485B000AF78600F4B1B68FB60FB68DF
S31508000880002B0BD002E0FB681B68FB60FB681B684B
S31508000890002BF8D1FB687A681A6005E0064A7B687F
S315080008A013607B6800221A607B6818461437BD46B9
S315080008B05DF8047B704700BFE005002000000000DB
S315080008C080B485B000AF7860134B1A687B689A428B
S315080008D004D17B681B68104A136016E00E4B1B6830
S315080008E0FB600CE0FB681A687B689A4204D17B6857
S315080008F01A68FB681A6005E0FB681B68FB60FB6802
S31508000900002BEFD17B6800221A607B6818461437E3
S31508000910BD465DF8047B7047E00500200000000036
S3150800092080B582B000AF00237B6001F001FA386021
S315080009300C4B5B68002B0CD00A4B5B681B8E1BB2FA
S315080009407B60084B5B681A8E92B2013292B292B201
S315080009501A86386801F00CFA7B6818460837BD46CF
S3150800096080BD00BFE0050020000000000000000078
S3150800097080B582B000AF00237B6001F0D9F93860FA
S315080009800F4B5B68002B12D00D4B5B681B8E1BB29E
S31508000990002B0CDD0A4B5B681B8E1BB27B60084B79
S315080009A05B681A8E92B2013A92B292B21A86386887
S315080009B001F0DEF97B6818460837BD4680BD00BFE2
S315080009C0E005002000000000000000000000000014
S315080009D080B500AF0E4B5B68002B18D00C4B5B68DC
S315080009E01B8E002B13D101F07BFA0346002B0ED089
S315080009F0074B5B68064A5268928B42F0020292B233
S31508000A009A83034B4FF6FF721A81FFF7B9FE80BD32
S31508000A10E0050020000000000000000000000000C3
S31508000A2080B584B000AF786001F052FAF8607B6850
S31508000A309B8B43F004039AB27B689A837B685B6B53
S31508000A40002B05D07B685B6B7A68526A104698471C
S31508000A507868FFF735FF7868FFF7FAFE786800F0E0
S31508000A60C7FAF86801F044FA1037BD4680BD00BFE2
S31508000A7080B500AF054B5B68044A5268928B42F01A
S31508000A80040292B29A83FFF7A3FFFCE7E005002071
S31508000A9080B588B000AFF860B9607A603B60002323
S31508000AA0FB6101F015FAB861BB6A002B1ED0FB6A20
S31508000AB0B86AFA211A4600F0FBFBFB6A403BBA6AA1
S31508000AC013447B6178690021402200F0F1FB3A6803
S31508000AD07B691A62334A7B695A63BB6823F0010251
S31508000AE07B699A637B694FF00452DA632E4B5B6825
S31508000AF0002B02D12C4B1B6801E02B4B5B68184678
S31508000B00FFF786FEF861FB69002B42D0FB690022DD
S31508000B109A83BB6A002B1AD0FB6ABA6A13443B61F4
S31508000B203B69403B1A46FB699A60FB6ABA6A1A44F3
S31508000B30FB695A61FB69BA6A1A61FB691B6903F1A9
S31508000B404002FB691A61FB69BA6A9A6112E0FB699D
S31508000B50164A9A60FB699A68FB695A61FB69144AE6
S31508000B601A61FB691B6903F14002FB691A61FB699B
S31508000B700F4A9A61FB69FA681A62FB693A685A620F
S31508000B80FB693A8EDA83FB697A685A63F869FFF774
S31508000B906FFEB86901F0ACF9FB6918462037BD4607
S31508000BA080BD00BF710A0008E0050020000400208F
S31508000BB00002002000000000000000000000000005
S31508000BC080B586B004AF0346FB800D480021282275
S31508000BD000F06EFB0023009300230193B7F906305B
S31508000BE002930848002100220023FFF751FF02461E
S31508000BF0034B5A60024B5B6818460837BD4680BDF2
S31508000C00E005002004430008000000000000000082
S31508000C1080B582B000AF78607B689A687B681B698C
S31508000C209A4205D97B689A687B685B699A421CD99F
S31508000C307B689A687B681B699A4203D80120FFF78C
S31508000C40CFFD12E07B689A687B689B699A4203D855
S31508000C500420FFF7C5FD08E07B689A687B685B6936
S31508000C609A4202D90220FFF7BBFD7B689A687B6827
S31508000C70DB689A4203D37B68DB68002B03D17B6869
S31508000C809A687B68DA600837BD4680BD00000000B8
S31508000C9080B582B000AF154B1B687B60FFF738FC48
S31508000CA0124B1B68184600F0FBF9104B1B687B605B
S31508000CB015E07B681B683B607868FFF7A9FF7B68CF
S31508000CC09B8B03F00403002B07D0084B5A687B68FC
S31508000CD09A4202D07868FFF7A3FE3B687B607B6880
S31508000CE0002BE6D10837BD4680BD00BFE0050020D1
S31508000CF080B500AFFFF7CCFFFFF76AFEFAE700BF43
S31508000D0080B400AF244B5B68244A1268DA63224B2E
S31508000D105B681B8E002B3BD11F4B1B899BB29AB27B
S31508000D20013A92B291B21C4A11811BB2002B2FDAFA
S31508000D3008E0194B5B68184A5268928B22F0020247
S31508000D4092B29A83144B5B681B68002B03D0124B34
S31508000D505B681B6801E0104B1B680F4A53600E4B1B
S31508000D605B689B8B03F00603002BE2D10A4B5B689A
S31508000D70DA8B094B1A81084B1B891BB2002B02DA46
S31508000D80054B00221A81044B5B68DB6B034A136030
S31508000D90BD465DF8047B7047E00500200806002084
S31508000DA000B5EFF3098020E9F00F80F3098801F018
S31508000DB00FF80D4B5B68002B0CD00B4B5C68FFF7EC
S31508000DC007FD0346A360FFF79BFF074B5B689B681D
S31508000DD083F3098801F024F8EFF30980B0E8F00FEF
S31508000DE080F3098800BD00BFE00500200000000070
S31508000DF000B5EFF3098020E9F00F80F3098800F0C9
S31508000E00E7FF164B5B68002B1ED0144B5C68FFF798
S31508000E10DFFC0346A360114BD3E90623013243F1F5
S31508000E2000030E49C1E906230C4B5968D1E90A2388
S31508000E30013243F10003C1E90A23FFF761FF074BBB
S31508000E405B689B6883F3098800F0EAFFEFF3098083
S31508000E50B0E8F00F80F3098800BD00BFE005002068
S31508000E6080B400AF044BD3E9062310461946BD46A5
S31508000E705DF8047B704700BFE00500200000000015
S31508000E8080B582B000AF78607B681B7E03F00103F3
S31508000E90002B02D0786800F0A3F90837BD4680BD5C
S31508000EA080B584B000AF78603960FFF751FCF86010
S31508000EB07B689A6B3B689A420CD13B685A687B6898
S31508000EC09A637B689B6B002B1CD07B689B6B00220C
S31508000ED01A6017E03B681B68002B04D03B681B6848
S31508000EE03A6852685A603B685B68002B04D03B68D6
S31508000EF05B683A6812681A603B6800225A603B6869
S31508000F0000221A60F868FFF72BFC3B681846103772
S31508000F10BD4680BD00000000000000000000000083
S31508000F2080B487B000AFC7E90201C7E900230023F0
S31508000F30FB75D7E90023134319D0D7E90023B3F18A
S31508000F40FF3F08BFB2F1FF3F11D00C4BD3E90601B2
S31508000F50D7E90223801A61EB0301D7E900239042FF
S31508000F6071EB0303ACBF01230023DBB2FB75FB7DEA
S31508000F7018461C37BD465DF8047B7047E00500201F
S31508000F8080B584B000AF78603960FFF7E1FBF860A0
S31508000F907B683A681A617B683A685A61F868FFF7AD
S31508000FA0DFFB7B6818461037BD4680BD0000000091
S31508000FB080B584B000AF78603960FFF7C9FBF86088
S31508000FC038680021FFF7DCFF78683968FFF768FFA3
S31508000FD03868FFF755FFF868FFF7C2FB1037BD46BC
S31508000FE080BD00BF000000000000000000000000F7
S31508000FF080B582B000AF786005E07B689B6B786847
S315080010001946FFF7D5FF7B689B6B002BF5D1083790
S31508001010BD4680BD00000000000000000000000082
S3150800102080B586B000AFF860B9607A6000237B614E
S31508001030BB681B69002B28D0BB681A697B689A4273
S3150800104004D3BB681A697B68D31A00E00023BA6820
S315080010501361BB681B69002B17D1BB689B68002B03
S3150800106006D0BB689B68BA68D268F868B9689847BA
S31508001070BB681B7E03F00203002B03D1BB685A69C9
S31508001080BB681A617B6901337B617B69184618372F
S31508001090BD4680BD00000000000000000000000002
S315080010A080B586B000AF786000F042FEF8601A4B53
S315080010B0D3E906231146184BD3E908231346CB1A5E
S315080010C0BB60BB68002B1FD0134BD3E9062312491C
S315080010D0C1E9082315E07B689B6B3B610BE07868E8
S315080010E03969BA68FFF79CFF02467B6913447B613E
S315080010F03B695B683B613B69002BF0D17B681B68E9
S315080011007B607B68002BE6D1F86800F031FE7B69CE
S3150800111018461837BD4680BDE005002000000000CF
S3150800112080B483B000AF0346FB800C37BD465DF83C
S31508001130047B70470000000000000000000000006B
S3150800114080B483B000AF0346FB800C37BD465DF81C
S31508001150047B70470000000000000000000000004B
S3150800116080B483B000AF7860FEE700BF00000000DF
S3150800117080B483B000AF78603960FEE700000000F5
S3150800118080B582B000AF786039607868396800F059
S31508001190AFF80837BD4680BD00000000000000001B
S315080011A080B582B000AF7860786800F019FC034615
S315080011B018460837BD4680BD000000000000000044
S315080011C080B582B000AF786039607868396800F019
S315080011D04FFC034618460837BD4680BD0000000090
S315080011E080B582B000AF7860786800F009FD0837EE
S315080011F0BD4680BD000000000000000000000000A1
S3150800120080B584B000AF786039600023FB607868E9
S31508001210002102F035FCB860BB68002B07DBBA6812
S3150800122013465B001344DB00034A1344FB60FB6868
S3150800123018461037BD4680BD50450008000000001E
S31508001240F0B484B000AFF860B9607A60FD68BC6835
S31508001250002D21D0A54212D97B682344AB420ED972
S315080012607B681C447B68EE1803E0013E013C23784A
S3150800127033707B685A1E7A60002BF6D10CE02E4636
S3150800128005E033465E1C2246541C12781A707B68A9
S315080012905A1E7A60002BF4D12B4618461037BD46E5
S315080012A0F0BC7047000000000000000000000000CD
S315080012B0B0B485B000AFF860B9607A60FD68002DFB
S315080012C009D0002404E02B19BA68D2B21A70013486
S315080012D07B689C42F7D3FB6818461437BD46B0BCFA
S315080012E0704700BF0000000000000000000000007A
S315080012F080B586B000AF786039602A4B1B681846FF
S3150800130000211422FFF7D4FF3A687B68D31A7B6161
S315080013107B695B0A3B613B69DB007A69D31AFB6030
S31508001320204B1B68FA68120992B21A821D4B1A687A
S315080013301C4B1B681B8A1BB2002B00DA1F335B1180
S315080013409BB21BB29BB29B009BB21381154B1B68C9
S315080013507A681A60134B1B683A6991007A680A44DE
S315080013605A60104B1B683A69D1007A680A44DA60F9
S315080013700C4B1B681A680B4B1B681B89104600210F
S315080013801A46FFF795FF074B1B685A68054B1B68FB
S315080013901B89104600211A46FFF78AFF1837BD46F3
S315080013A080BD00BF240400200000000000000000EB
S315080013B080B485B000AFF8600B467A607B81B7F9D8
S315080013C00A30002B28DBFB681B8AB7F90A201BB2F8
S315080013D09A4221DAB7F90A30002B00DA1F335B117B
S315080013E09BB21BB29B007A6813441A68B7F90A10B5
S315080013F00D4B0B40002B03DA013B63F01F0301334F
S315080014009BB21BB2012101FA03F31340002B14BF50
S3150800141001230023DBB200E0002318461437BD463B
S315080014205DF8047B704700BF1F00008000000000C5
S3150800143080B487B000AFF8607A601A460B467B81A5
S3150800144013467B72B7F90A30002B41DBFB681B8A0F
S31508001450B7F90A201BB29A423ADAB7F90A201F4BA3
S315080014601340002B03DA013B63F01F030133FB82B1
S31508001470B7F90A30002B00DA1F335B11BB827B7A7F
S31508001480002B12D0B7F914309B007A681344B7F9C9
S315080014901420920079680A441268B7F916100120D8
S315080014A000FA01F10A431A6012E0B7F914309B00FA
S315080014B07A681344B7F91420920079680A441268C6
S315080014C0B7F91610012000FA01F1C9430A401A605B
S315080014D01C37BD465DF8047B704700BF1F000080BF
S315080014E080B584B000AF78600B467B8013463B809E
S315080014F07A883B8813449BB2BB817B681B8AB7F901
S315080015000C201BB29A421DDA7B88FB8112E07B68AD
S315080015101B68B7F90E20786811461A46FFF748FF88
S315080015200346002B01D000230DE0FB899BB2013353
S315080015309BB2FB81B7F90E20B7F90C309A42E6DB6D
S31508001540012300E0002318461037BD4680BD00BFC2
S3150800155080B584B000AF78600B467B800023BB81E2
S315080015600023BB6037E07B681A68B7F90C30002B9C
S3150800157000DA1F335B119BB21BB29B0013441B6836
S31508001580BB60BB68B3F1FF3F21D00023FB811AE0A3
S31508001590BA89FB8913449BB29BB21AB2B7F90230D7
S315080015A0786811461A46FFF79BFF0346002B05D0BD
S315080015B0BA89FB8913449BB29BB215E0FB899BB29F
S315080015C001339BB2FB81B7F90E301F2BE0DDBB89D7
S315080015D020339BB2BB817B681B8AB7F90C201BB2F0
S315080015E09A42C0DB4FF6FF731BB218461037BD464A
S315080015F080BD00BF000000000000000000000000E1
S3150800160080B584B000AF78600B467B800023FB81F1
S31508001610B7F90230002B26DB7B681B8AB7F9022054
S315080016201BB29A421FDA00BFB7F90220B7F90E308B
S315080016301A447B681B8A1BB29A4214DAFA8993B257
S3150800164001339BB2FB8192B27B8813449BB29AB258
S315080016507B685B6812B2786811461A46FFF7A8FEDF
S315080016600346002BE0D0FB891BB218461037BD464F
S3150800167080BD00BF00000000000000000000000060
S3150800168080B485B000AF786039603B68002B12D013
S315080016903B687A68D2689B1A1B09FB81B7F90E303A
S315080016A0002B08DB7B681B8AB7F90E201BB29A420F
S315080016B001DAFB8901E04FF6FF731BB218461437AF
S315080016C0BD465DF8047B704700000000000000007E
S315080016D080B485B000AF78600B467B800023FB6042
S315080016E0B7F90230002B0DDB7B681B8AB7F902209D
S315080016F01BB29A4206DA7B68DB68B7F90220120148
S315080017001344FB60FB6818461437BD465DF8047B36
S31508001710704700BF00000000000000000000000045
S3150800172080B584B000AF78600B467B8013463B805B
S315080017300023BB60B7F90230002B52DB7B681B8A9B
S31508001740B7F902201BB29A424BDA0023FB8136E036
S31508001750B7F90E20B7F90030013B9A420ED17A88C4
S31508001760FB8913449BB29AB27B685B6812B27868AD
S3150800177011461A460123FFF75BFE0DE07A88FB89BE
S3150800178013449BB29AB27B685B6812B278681146BA
S315080017901A460023FFF74CFE7A88FB8913449BB24E
S315080017A09AB27B681B6812B2786811461A460123FA
S315080017B0FFF73EFEFB899BB201339BB2FB81B7F96B
S315080017C00E20B7F900309A42C2DBB7F902307868C2
S315080017D01946FFF77DFFB860B7F900301846FFF7DE
S315080017E09FFCBB6818461037BD4680BD0000000048
S315080017F080B584B000AF78600B467B8013463B808B
S31508001800B7F90230002B34DB7B681B8AB7F9022054
S315080018101BB29A422DDA0023FB811EE07A88FB89E7
S3150800182013449BB29AB27B681B6812B27868114659
S315080018301A460023FFF7FCFD7A88FB8913449BB2FE
S315080018409AB27B685B6812B2786811461A4600231A
S31508001850FFF7EEFDFB890133FB81FA89B7F9003002
S315080018609A42DBDBB7F900301846FFF769FC01231B
S3150800187000E0002318461037BD4680BD0000000072
S3150800188080B586B000AFF860084611461A4603468A
S315080018907B810B463B811346FB8000237B75B7F99A
S315080018A00A30002B2BDBFB681B8AB7F90A201BB210
S315080018B09A4224DA0023FB8219E07A893B89134489
S315080018C09AB2FB8A13449BB29AB2FB681B6812B29F
S315080018D0F86811461A46FFF76BFD0346002B01D040
S315080018E07B7D0DE0FB8A9BB201339BB2FB82B7F985
S315080018F01620B7F906309A42DFDB01237B757B7D1C
S3150800190018461837BD4680BD0000000000000000DC
S3150800191080B586B000AFF860084611461A460346F9
S315080019207B810B463B811346FB8000237B75B7F909
S315080019300A10B7F90820B7F90630F868FFF7A0FFCC
S315080019400346002B43D03A89FB8813447B82002345
S31508001950FB8235E0B7F916207B8A013B9A420ED105
S315080019607A89FB8A13449BB29AB2FB685B6812B207
S31508001970F86811461A460123FFF75AFD0DE07A89E1
S31508001980FB8A13449BB29AB2FB685B6812B2F8688A
S3150800199011461A460023FFF74BFD7A89FB8A134442
S315080019A09BB29AB2FB681B6812B2F86811461A46CF
S315080019B00123FFF73DFDFB8A9BB201339BB2FB82F5
S315080019C0B7F916207B8A9A42C4DB01237B757B7D97
S315080019D018461837BD4680BD00000000000000000C
S315080019E080B586B000AF786000237B617B68002BEA
S315080019F033D07B681B099AB27B6803F00F03002B70
S31508001A0001D0012300E0002313449BB27B8200F03F
S31508001A105FFAF860134B1A68B7F912301046194680
S31508001A20FFF796FD03467B81B7F90A30002B0CDBDE
S31508001A300C4B1968B7F90A20B7F91230084611464F
S31508001A401A46FFF76DFE786104E07868FEF768FDD0
S31508001A5000237B61F86800F04BFA7B691846183753
S31508001A60BD4680BD240400200000000000000000E0
S31508001A7080B588B000AF786039607B68002B00F0CD
S31508001A80A1803B68002B00F09D803B681B099AB239
S31508001A903B6803F00F03002B01D0012300E000236D
S31508001AA013449BB2FB8300F013FAB861514B1B68D1
S31508001AB018467968FFF7E4FD0346FB82B7F9163046
S31508001AC0002B75DB4B4B1A68B7F9163010461946CA
S31508001AD0FFF796FD0346BB82B7F91E20B7F9143007
S31508001AE09A4248DD434B1868FA8BBB8AD31A9BB2D5
S31508001AF09BB2B7F91610B7F914201BB2FFF708FF07
S31508001B000346002B36D13B4B1968B7F91620B7F9AF
S31508001B101430084611461A46FFF76AFE354B1A680E
S31508001B20B7F91E3010461946FFF712FD03467B82A9
S31508001B30B7F91230002B16DB2E4B1968B7F91220AD
S31508001B40B7F91E30084611461A46FFF7E9FDF86050
S31508001B50B7F914301B01F86879681A46FFF770FB65
S31508001B60FB687B6006E078683968FFF701FB0023AD
S31508001B707B6023E022E0B7F91E20B7F914309A42B9
S31508001B801CDA1C4B1968B7F91620B7F91430084641
S31508001B9011461A46FFF72CFE164B1968B7F9162098
S31508001BA0B7F91E30084611461A46FFF7B9FD05E093
S31508001BB078683968FFF7DCFA00237B60B86900F0BB
S31508001BC097F912E07B68002B08D03B68002B05D1FB
S31508001BD0786800F015F800237B6006E07B68002B28
S31508001BE003D13868FFF7FCFE78607B681846203713
S31508001BF0BD4680BD2404002000000000000000004F
S31508001C0080B584B000AF786000F062F9F860154BD3
S31508001C101B6818467968FFF733FD03467B81B7F9D9
S31508001C200A30002B15D00F4B1A68B7F90A30104640
S31508001C301946FFF7E5FC03463B810A4B1968B7F9D5
S31508001C400A20B7F90830084611461A46FFF7D0FDAC
S31508001C5002E07868FFF784FAF86800F049F9103767
S31508001C60BD4680BD240400200000000000000000DE
S31508001C7080B483B000AF03463960FB7197F907302B
S31508001C80002B0BDA0D49FB7903F00F03043B3A6886
S31508001C90D2B21201D2B20B441A7609E0084997F972
S31508001CA007303A68D2B21201D2B20B4483F8002345
S31508001CB00C37BD465DF8047B704700BF00ED00E0B9
S31508001CC000E100E000000000000000000000000045
S31508001CD080B483B000AF78603960FEE7000000008A
S31508001CE000B5F0B42DE9000F064B5B68DBB2103B7C
S31508001CF0DBB2DBB25BB2184602F06AF9BDE8000F48
S31508001D00F0BC00BD00ED00E000000000000000008F
S31508001D1080B400AFBD465DF8047B70470000000044
S31508001D2080B400AFBD465DF8047B70470000000034
S31508001D3080B483B000AF0B4B1B6803F00203002B83
S31508001D4014BF01230023DBB27B60064A054B1B68E0
S31508001D5023F0020313607B6818460C37BD465DF80E
S31508001D60047B704710E000E000000000000000005F
S31508001D7080B483B000AF78607B68002B06D0094A30
S31508001D80084B1B6843F00203136005E0054A054B40
S31508001D901B6823F0020313600C37BD465DF8047B0D
S31508001DA0704700BF10E000E00000000000000000DF
S31508001DB080B400AF044A044B5B6843F08053536019
S31508001DC0BD465DF8047B704700ED00E000000000AA
S31508001DD080B483B000AF0F4B5B68C3F308037B6026
S31508001DE07B680E2B02D00F2B07D00DE0094A094B52
S31508001DF05B6843F00063536006E0064A054B5B6880
S31508001E0043F00073536000BF0C37BD465DF8047B92
S31508001E10704700BF00ED00E0000000000000000071
S31508001E2080B400AFBD465DF8047B70470000000033
S31508001E3080B500AF00F054FB80BD00BF0000000075
S31508001E4080B582B000AF00F0DBF802460C4BA3FB6E
S31508001E5002239B097B600B4A7B6823F07F43013B87
S31508001E6053604FF0FF300F21FFF702FF054B0022AA
S31508001E709A60044B07221A600837BD4680BD00BF2A
S31508001E80D34D621010E000E00000000000000000E2
S31508001E9080B400AFBD465DF8047B704700000000C3
S31508001EA080B582B000AF786000F012F8FFF7C0FF87
S31508001EB0FFF7C6FFFFF7ECFF0837BD4680BD00BF3A
S31508001EC062B6704700000000000000000000000035
S31508001ED0EFF3108080F0010072B67047184600BF15
S31508001EE0EFF3108080F001007047184600000000EC
S31508001EF080B483B000AF78607B68002B01D062B6EF
S31508001F0000E072B60C37BD465DF8047B704700BF2B
S31508001F1080B487B000AF786000237B617B681F2B95
S31508001F2012D87B68012202FA03F33B61134B1A6845
S31508001F303B691340002B14BF01230023DBB27B61EE
S31508001F400E4A3B69136012E07B68203B1A46012360
S31508001F509340FB60094B5A68FB681340002B14BF7B
S31508001F6001230023DBB27B61044AFB6853607B696B
S31508001F7018461C37BD465DF8047B704700E100E053
S31508001F8080B487B000AF786000237B617B681F2B25
S31508001F9013D87B68012202FA03F33B61144B1A68D3
S31508001FA03B691340002B14BF01230023DBB27B617E
S31508001FB00F4A3B69C2F8803013E07B68203B1A461B
S31508001FC001239340FB600A4B5A68FB681340002BB9
S31508001FD014BF01230023DBB27B61054AFB68C2F804
S31508001FE084307B6918461C37BD465DF8047B70470C
S31508001FF000E100E000000000000000000000000012
S3150800200080B586B000AF3B1D184600F091FC7B6892
S3150800201018461837BD4680BD0000000000000000C5
S3150800202080B584B000AF78607B68FB60F86800F024
S315080020300FF8B860FB681B68184640F22551002265
S3150800204001F04EFCBB6818461037BD4680BD00BF80
S3150800205080B485B000AF78607B68FB60FB681B685E
S315080020609B899BB21A4640F225531340002B14BF96
S3150800207001230023DBB2BB60BB6818461437BD4694
S315080020805DF8047B704700BF0000000000000000F8
S3150800209080B588B000AF786039604FF0FF33FB61D8
S315080020A07B68BB613B68002B02D1BB6908333B6088
S315080020B0BB691B681846002101F0C2FB3B68002B70
S315080020C078D03B681B68BB603B681B799BB2BB81B9
S315080020D03B681B79092B02D00023BB8103E04FF430
S315080020E08053BB8100BF3B685B79022B0AD0032B68
S315080020F00CD0002B03D14FF48053FB810AE0002358
S31508002100FB8107E04FF44053FB8103E04FF4005393
S31508002110FB8100BF3B689B79012B08D0022B02D0BC
S3150800212000233B8207E04FF4C0633B8203E04FF491
S3150800213080633B8200BF3B68DB79022B0AD0032B06
S315080021400CD0012B02D00023BB820BE04FF4807326
S31508002150BB8207E04FF40073BB8203E04FF4407381
S31508002160BB8200BF0C237B82BB691A6807F1080390
S315080021701046194601F004FABB691B681846012186
S3150800218001F05EFBBB691B795BB218460C49BA695C
S3150800219001F0BEFEBB691B795BB21846FFF7B8FEB5
S315080021A0BB691B68184640F22551012201F098FBCD
S315080021B00023FB61FB6918462037BD4680BD00BF7A
S315080021C031240008000000000000000000000000A4
S315080021D080B483B000AF78607B6818460C37BD467C
S315080021E05DF8047B704700BF000000000000000097
S315080021F080B485B000AF786039607B68FB60FB68A7
S315080022003A689A613B6818461437BD465DF8047B00
S31508002210704700BF0000000000000000000000003A
S3150800222080B485B000AF786039607B68FB60FB6876
S315080022303A68DA613B6818461437BD465DF8047B90
S31508002240704700BF0000000000000000000000000A
S3150800225080B485B000AF78607B68FB60FB689B69DB
S3150800226018461437BD465DF8047B70470000000029
S3150800227080B485B000AF78607B68FB60FB68DB697B
S3150800228018461437BD465DF8047B70470000000009
S3150800229080B485B000AF78607B68FB60FB681B790B
S315080022A05BB218461437BD465DF8047B704700BF1D
S315080022B080B485B000AF78607B68FB60FB685B69BB
S315080022C018461437BD465DF8047B704700000000C9
S315080022D080B485B000AF786039607B68FB60FB68C6
S315080022E03A685A61FB685B6918461437BD465DF85B
S315080022F0047B70470000000000000000000000009A
S3150800230080B485B000AF78607B68FB60FB681B68AB
S315080023101B889BB203F08003002B14BF0123002304
S31508002320DBB2FB72FB7A18461437BD465DF8047BB0
S31508002330704700BF00000000000000000000000019
S3150800234080B487B000AF78607B687B617B691B6867
S315080023501B889BB23B613B6903F02003002B14BF2B
S3150800236001230023DBB2FB73FB7B18461C37BD46F3
S315080023705DF8047B704700BF000000000000000005
S3150800238080B485B000AF786039607B68FB60FB6815
S315080023901B683A6892B29A803B6818461437BD465D
S315080023A05DF8047B704700BF0000000000000000D5
S315080023B080B485B000AF78607B68FB60FB681B68FB
S315080023C09B889BB218461437BD465DF8047B704758
S315080023D080B485B000AF78607B68FB60FB681B68DB
S315080023E0FA681268928992B242F0800292B29A8191
S315080023F01437BD465DF8047B704700BF0000000037
S3150800240080B485B000AF78607B68FB60FB681B68AA
S31508002410FA681268928992B222F0800292B29A8180
S315080024201437BD465DF8047B704700BF0000000006
S3150800243090B585B000AF03463960FB713B68FB6019
S31508002440FB681B7997F907205BB29A4243D119E0DA
S31508002450FB689C69F868FFF7ABFF0346DBB22046CA
S31508002460194601F07DFE0346002B05D1FB685B6922
S3150800247043F01002FB685A61FB685B6943F001028E
S31508002480FB685A61F868FFF75BFF0346002BDFD14C
S31508002490FB68DB69184601F01BFE0346002B0FD1CB
S315080024A0F868FFF72DFF0346002B09D0FB68DB69A8
S315080024B0184601F095FE0346F8681946FFF760FFCF
S315080024C0FB68DB69184601F003FE0346002B02D0C1
S315080024D0F868FFF795FF1437BD4690BD0000000069
S315080024E080B500AF194A194B1B6843F00103136006
S315080024F01649164B5A68164B13404B60134A134B32
S315080025001B6823F0847323F4803313600F4A0F4B40
S315080025101B6823F4802313600C4A0C4B5B6823F476
S31508002520FE035360094A094B1B6823F0A053136046
S31508002530064B4FF47F029A60044B0022DA6200F0E1
S31508002540B7F8044B4FF000629A6080BD0010024055
S315080025500000FFF000ED00E00000000000000000B1
S3150800256080B489B000AF0023BB610023FB61002360
S315080025707B6100233B610023FB600023BB600023D3
S315080025807B60424B5B6803F00C03BB61BB69042BA1
S3150800259007D0082B09D0002B5ED13D4B3D4A1A6067
S315080025A05EE03B4B3C4A1A605AE0384B5B6803F4E2
S315080025B07013FB61354B5B6803F480337B61FB6901
S315080025C09B0CFB61FB690D2B03D0FB690233FB6196
S315080025D001E00623FB617B69002B06D1FB692F4AC4
S315080025E002FB03F32A4A136035E0284BDB6A03F43F
S315080025F080333B61254BDB6A03F00F030133FB6035
S315080026003B69002B09D1244AFB68B2FBF3F3FA694C
S3150800261002FB03F31E4A13601DE01C4BDB6A03F042
S31508002620F0031B090133BB60184BDB6A03F47063C4
S315080026301B0A02337B60184ABB68B2FBF3F37A685D
S3150800264002FB03F2FB68B2FBF3F3FA6902FB03F33E
S315080026500F4A136004E003E00D4B0E4A1A6000BFF0
S315080026600A4B5B6803F0F0031B090D4AD35CDBB227
S31508002670BB61074B1A68BB6922FA03F3044A136065
S315080026802437BD465DF8047B704700BF0010024042
S31508002690A804002000127A0040787D0100093D0058
S315080026A0AC0400200000000000000000000000004C
S315080026B080B500AF00F004F880BD00BF0000000040
S315080026C080B483B000AF00237B6000233B60474A99
S315080026D0464B1B6843F480331360444B1B6803F472
S315080026E000333B607B6801337B603B68002B03D17A
S315080026F07B68B3F5A06FF0D13C4B1B6803F400333D
S31508002700002B02D001233B6001E000233B603B68BD
S31508002710012B66D1364A364B1B6843F0100313600B
S31508002720334A334B1B6823F003031360304A304B9C
S315080027301B6843F0020313602C4A2C4B5B685360FA
S315080027402A4A2A4B5B685360284A284B5B6843F43D
S31508002750806353602549254BDA6A264B1340CB62C2
S31508002760224A224BDB6A43F4833343F04403D362A1
S315080027701E4A1E4B1B6843F08063136000BF1B4B49
S315080027801B6803F00063002BF9D0184A174B5B68E7
S3150800279023F47C135360154A144B5B6843F4E8131F
S315080027A05360124A114B1B6843F08073136000BFD5
S315080027B00E4B1B6803F00073002BF9D00B4A0B4B2A
S315080027C05B6823F003035360084A084B5B6843F0D1
S315080027D00203536000BF054B5B6803F00C03082B2C
S315080027E0F9D10C37BD465DF8047B704700100240EE
S315080027F00020024000F0FEFF00000000000000007C
S3150800280080B582B000AF78607B68002B0CD07B68FF
S31508002810B3F5803F08D07B68B3F5802F04D0154800
S3150800282040F21111FFF754FA134A134B1B6823F4AD
S3150800283080331360104A104B1B6823F480231360FF
S315080028407B68B3F5803F03D0B3F5802F07D00DE042
S31508002850094A094B1B6843F48033136006E0064AAD
S31508002860054B1B6843F4A023136000BF0837BD4619
S3150800287080BD00BF104300080010024000000000A1
S3150800288080B582B000AF00233B600023FB710023B4
S31508002890BB71312000F0DCF90346BB713B6801339C
S315080028A03B603B68B3F5A06F02D0BB79002BF0D034
S315080028B0312000F0CDF90346002B02D00123FB712D
S315080028C001E00023FB71FB7918460837BD4680BD39
S315080028D080B584B000AF78600023FB607B68002B6E
S315080028E00AD07B68012B07D07B68022B04D00B48E3
S315080028F04FF40E71FFF7ECF9094B5B68FB60FB6858
S3150800290023F00303FB60FA687B681343FB60044A01
S31508002910FB6853601037BD4680BD00BF10430008F2
S315080029200010024000000000000000000000000047
S3150800293080B48BB000AF786000233B6200237B62D3
S315080029400023FB610023BB6100237B6100233B61FD
S315080029500023FB600023BB60624B5B6803F00C033B
S315080029603B623B6A042B07D0082B09D0002B5ED1AB
S315080029707B685D4A1A605EE07B685C4A1A605AE0CA
S31508002980584B5B6803F470137B62564B5B6803F421
S315080029908033FB617B6A9B0C7B627B6A0D2B03D0C1
S315080029A07B6A02337B6201E006237B62FB69002BAC
S315080029B006D17B6A4E4A02FB03F27B681A6035E051
S315080029C0484BDB6A03F480337B61464BDB6A03F0D2
S315080029D00F0301333B617B69002B09D1434A3B69ED
S315080029E0B2FBF3F37A6A02FB03F27B681A601DE016
S315080029F03C4BDB6A03F0F0031B090133FB60394BE0
S31508002A00DB6A03F470631B0A0233BB60374AFB6850
S31508002A10B2FBF3F3BA6802FB03F23B69B2FBF3F3CA
S31508002A207A6A02FB03F27B681A6004E003E07B68BB
S31508002A302D4A1A6000BF2B4B5B6803F0F0033B621C
S31508002A403B6A1B093B622B4A3B6A13441B78DBB281
S31508002A50BB617B681A68BB69DA407B685A60214BA0
S31508002A605B6803F4E0633B623B6A1B0A3B62214AEC
S31508002A703B6A13441B78DBB2BB617B685A68BB6947
S31508002A80DA407B689A60174B5B6803F460533B62D5
S31508002A903B6ADB0A3B62174A3B6A13441B78DBB284
S31508002AA0BB617B685A68BB69DA407B68DA600D4BA4
S31508002AB05B6803F440433B623B6A9B0B3B620E4AEE
S31508002AC03B6A13441B78DBB2BB617B68DA68BB6977
S31508002AD0B2FBF3F27B681A612C37BD465DF8047BBE
S31508002AE0704700BF0010024000127A0040787D014E
S31508002AF000093D00BC040020CC04002000000000B2
S31508002B0080B582B000AF78600B46FB707B6823F413
S31508002B10E83323F05703002B02D17B68002B04D13E
S31508002B20114840F22B41FFF7D3F8FB78002B07D06A
S31508002B30FB78012B04D00C4840F22C41FFF7C8F86B
S31508002B40FB78002B06D00949084B5A697B68134362
S31508002B504B6106E00549054B5A697B68DB43134020
S31508002B604B610837BD4680BD10430008001002407F
S31508002B7080B582B000AF78600B46FB707A68154B5B
S31508002B801340002B02D17B68002B04D1124840F277
S31508002B904A41FFF79DF8FB78002B07D0FB78012BFD
S31508002BA004D00D4840F24B41FFF792F8FB78002B12
S31508002BB006D00A49094B9A697B6813438B6106E07C
S31508002BC00649064B9A697B68DB4313408B610837D5
S31508002BD0BD4680BD0200C0FF104300080010024039
S31508002BE080B582B000AF78600B46FB707A68154BEB
S31508002BF01340002B02D17B68002B04D1124840F207
S31508002C006941FFF765F8FB78002B07D0FB78012BA5
S31508002C1004D00D4840F26A41FFF75AF8FB78002BBA
S31508002C2006D00A49094BDA697B681343CB6106E08B
S31508002C300649064BDA697B68DB431340CB610837E4
S31508002C40BD4680BD003601811043000800100240D1
S31508002C5080B586B000AF0346FB710023FB600023F6
S31508002C607B610023FB74FB79212B28D0FB79312B60
S31508002C7025D0FB79392B22D0FB79412B1FD0FB7944
S31508002C803B2B1CD0FB793D2B19D0FB79612B16D039
S31508002C90FB797A2B13D0FB797B2B10D0FB797C2B15
S31508002CA00DD0FB797D2B0AD0FB797E2B07D0FB79DB
S31508002CB07F2B04D0174840F23451FFF709F8FB7907
S31508002CC05B09DBB2FB60FB68012B03D1124B1B6867
S31508002CD07B6109E0FB68022B03D10F4B1B6A7B6102
S31508002CE002E00D4B5B6A7B61FB7903F01F03FB6017
S31508002CF0FB6801229A407B691340002B02D001230E
S31508002D00FB7401E00023FB74FB7C18461837BD46AC
S31508002D1080BD00BF104300080010024000000000FC
S31508002D2080B584B000AF786039600023FB817B688A
S31508002D30674A934243D07B68B3F1804F3FD07B68A4
S31508002D40644A93423BD07B68634A934237D07B6898
S31508002D50624A934233D07B68614A93422FD07B689C
S31508002D60604A93422BD07B685F4A934227D07B68A0
S31508002D705E4A934223D07B685D4A93421FD07B68A4
S31508002D805C4A93421BD07B685B4A934217D07B68A8
S31508002D905A4A934213D07B68594A93420FD07B68AC
S31508002DA0584A93420BD07B68574A934207D07B68B0
S31508002DB0564A934203D05648E721FEF789FF3B68F7
S31508002DC05B88002B13D03B685B88102B0FD03B68C1
S31508002DD05B88202B0BD03B685B88402B07D03B6871
S31508002DE05B88602B03D04A48E821FEF771FF3B68F1
S31508002DF0DB88002B0DD03B68DB88B3F5807F08D0D5
S31508002E003B68DB88B3F5007F03D04148E921FEF72C
S31508002E105FFF7B681B88FB817B682D4A934213D032
S31508002E207B68314A93420FD07B68B3F1804F0BD051
S31508002E307B68284A934207D07B68274A934203D087
S31508002E407B68264A934208D1FB8923F07003FB81ED
S31508002E503B685A88FB891343FB817B68204A934267
S31508002E600CD07B681F4A934208D0FB8923F4407331
S31508002E70FB813B68DA88FB891343FB817B68FA8907
S31508002E801A803B689A887B689A853B681A887B68AB
S31508002E901A857B680E4A93420FD07B68124A934282
S31508002EA00BD07B68174A934207D07B68164A934231
S31508002EB003D07B68154A934204D13B681B7A9AB2C1
S31508002EC07B681A867B6801229A821037BD4680BDC8
S31508002ED0002C01400004004000080040000C00409F
S31508002EE0001000400014004000340140004C01402E
S31508002EF0005001400054014000180040001C0040EA
S31508002F0000200040004001400044014000480140C4
S31508002F10D043000800000000000000000000000088
S31508002F2080B584B000AF7860396000237B810023C8
S31508002F30FB810023BB817B68904A93423CD07B6827
S31508002F40B3F1804F38D07B688D4A934234D07B6882
S31508002F508C4A934230D07B688B4A93422CD07B684C
S31508002F608A4A934228D07B68894A934224D07B6850
S31508002F70884A934220D07B68874A93421CD07B6854
S31508002F80864A934218D07B68854A934214D07B6858
S31508002F90844A934210D07B68834A93420CD07B685C
S31508002FA0824A934208D07B68814A934204D081487A
S31508002FB04FF48E71FEF78CFE3B681B88002B18D0E9
S31508002FC03B681B88102B14D03B681B88202B10D01D
S31508002FD03B681B88302B0CD03B681B88602B08D0BD
S31508002FE03B681B88702B04D0724840F21D11FEF70F
S31508002FF06FFE3B685B88002B08D03B685B88012B1B
S3150800300004D06C484FF48F71FEF762FE3B681B894B
S31508003010002B08D03B681B89022B04D0654840F278
S315080030201F11FEF755FE7B681B8C9BB223F001032C
S315080030309AB27B681A847B681B8CFB817B689B88A9
S31508003040BB817B681B8B7B817B8923F070037B812B
S315080030507B8923F003037B813B681A887B891343AA
S315080030607B81FB8923F00203FB813B681A89FB8974
S315080030701343FB813B685A88FB891343FB817B68B2
S315080030803E4A93420FD07B68404A93420BD07B68F6
S31508003090454A934207D07B68444A934203D07B68EB
S315080030A0434A934259D13B689B88002B08D03B681A
S315080030B09B88042B04D03F484FF49E71FEF708FE08
S315080030C03B685B89002B08D03B685B89082B04D0DA
S315080030D0384840F23D11FEF7FBFD3B68DB89B3F546
S315080030E0007F08D03B68DB89002B04D031484FF4B9
S315080030F09F71FEF7EDFD3B689B89B3F5807F08D08D
S315080031003B689B89002B04D02A4840F23F11FEF702
S31508003110DFFDFB8923F00803FB813B685A89FB899D
S315080031201343FB81FB8923F00403FB813B689A88E0
S31508003130FB891343FB81BB8923F48073BB81BB895D
S3150800314023F40073BB813B689A89BB891343BB810F
S315080031503B68DA89BB891343BB817B68BA899A8045
S315080031607B687A891A833B68DA887B689A867B68E3
S31508003170FA891A841037BD4680BD00BF002C01406D
S315080031800004004000080040000C004000340140E4
S31508003190004C014000500140005401400018004016
S315080031A0001C00400020004000400140004401404F
S315080031B000480140D043000800000000000000005D
S315080031C080B483B000AF78607B6800221A807B6881
S315080031D000225A807B6800229A807B680022DA8067
S315080031E07B6800221A817B6800225A817B6800224C
S315080031F09A817B680022DA810C37BD465DF8047B2C
S31508003200704700BF0000000000000000000000003A
S3150800321080B582B000AF78600B46FB707B68354A94
S31508003220934244D07B68B3F1804F40D07B68324AE2
S3150800323093423CD07B68314A934238D07B68304A07
S31508003240934234D07B682F4A934230D07B682E4A0B
S3150800325093422CD07B682D4A934228D07B682C4A0F
S31508003260934224D07B682B4A934220D07B682A4A13
S3150800327093421CD07B68294A934218D07B68284A17
S31508003280934214D07B68274A934210D07B68264A1B
S3150800329093420CD07B68254A934208D07B68244A1F
S315080032A0934204D0234840F22931FEF711FDFB78FA
S315080032B0002B07D0FB78012B04D01E4840F22A3198
S315080032C0FEF706FDFB78002B08D07B681B889BB2AF
S315080032D043F001039AB27B681A8007E07B681B8873
S315080032E09BB223F001039AB27B681A800837BD4661
S315080032F080BD00BF002C01400004004000080040CB
S31508003300000C00400010004000140040003401404A
S31508003310004C014000500140005401400018004094
S31508003320001C0040002000400040014000440140CD
S3150800333000480140D04300080000000000000000DB
S3150800334080B582B000AF78600B46FB707B68354A63
S31508003350934244D07B68B3F1804F40D07B68324AB1
S3150800336093423CD07B68314A934238D07B68304AD6
S31508003370934234D07B682F4A934230D07B682E4ADA
S3150800338093422CD07B682D4A934228D07B682C4ADE
S31508003390934224D07B682B4A934220D07B682A4AE2
S315080033A093421CD07B68294A934218D07B68284AE6
S315080033B0934214D07B68274A934210D07B68264AEA
S315080033C093420CD07B68254A934208D07B68244AEE
S315080033D0934204D0234840F28451FEF779FCFB78E7
S315080033E0002B07D0FB78012B04D01E4840F28551EC
S315080033F0FEF76EFCFB78002B08D07B681B889BB217
S3150800340043F080039AB27B681A8007E07B681B88C2
S315080034109BB223F080039AB27B681A800837BD46B0
S3150800342080BD00BF002C0140000400400008004099
S31508003430000C004000100040001400400034014019
S31508003440004C014000500140005401400018004063
S31508003450001C00400020004000400140004401409C
S3150800346000480140D04300080000000000000000AA
S3150800347080B584B000AF78600B467B800023FB8163
S315080034807B682E4A93423CD07B68B3F1804F38D094
S315080034907B682B4A934234D07B682A4A934230D0C1
S315080034A07B68294A93422CD07B68284A934228D0C5
S315080034B07B68274A934224D07B68264A934220D0C9
S315080034C07B68254A93421CD07B68244A934218D0CD
S315080034D07B68234A934214D07B68224A934210D0D1
S315080034E07B68214A93420CD07B68204A934208D0D5
S315080034F07B681F4A934204D01E4840F2E951FEF702
S31508003500E7FB7B88082B07D07B88002B04D019485B
S3150800351040F2EA51FEF7DCFB7B681B8BFB81FB89DB
S3150800352023F00803FB81FA897B881343FB817B68B8
S31508003530FA891A831037BD4680BD00BF002C0140AA
S315080035400004004000080040000C00400034014020
S31508003550004C014000500140005401400018004052
S31508003560001C00400020004000400140004401408B
S3150800357000480140D0430008000000000000000099
S3150800358080B58CB000AF786039600023FB620023F9
S31508003590BB6200237B6200233B620023FB617B68DE
S315080035A09D4A934213D07B689C4A93420FD07B680E
S315080035B09B4A93420BD07B689A4A934207D07B6812
S315080035C0994A934203D09948B821FEF781FB3B6894
S315080035D01B68002B04D03B681B68954A934203D9A5
S315080035E09248B921FEF774FB3B689B88002B08D0EC
S315080035F03B689B88B3F5805F03D08C48BA21FEF7F9
S3150800360067FB3B68DB88002B12D03B68DB88B3F589
S31508003610805F0DD03B68DB88B3F5005F08D03B6858
S31508003620DB88B3F5405F03D08048BB21FEF750FB2B
S315080036303B681B89002B0DD03B681B89B3F5806F4F
S3150800364008D03B681B89B3F5C06F03D07748BC2107
S31508003650FEF73EFB3B685B891A464FF6F373134049
S31508003660002B03D13B685B89002B03D16F48BD2132
S31508003670FEF72EFB3B689B89002B12D03B689B8983
S31508003680B3F5807F0DD03B689B89B3F5007F08D0E2
S315080036903B689B89B3F5407F03D06448BE21FEF79B
S315080036A017FB3B689B89002B0FD07B685A4A9342CD
S315080036B00BD07B68594A934207D07B68584A934295
S315080036C003D05A48C221FEF703FB7B68FB617B687F
S315080036D01B8A9BB2FB62FA6A4CF6FF731340FB62C5
S315080036E03B68DB881A46FB6A1343FB62FB6A9AB29D
S315080036F07B681A827B689B899BB2FB62FA6A4EF6E4
S31508003700F3131340FB623B689A883B681B89134393
S315080037109AB23B685B8913439BB21A46FB6A13430A
S31508003720FB62FB6A9AB27B689A817B689B8A9BB22A
S31508003730FB62FA6A4FF6FF431340FB623B689B89BC
S315080037401A46FB6A1343FB62FB6A9AB27B689A8243
S3150800375007F108031846FFF7EBF8FB692E4A934270
S3150800376002D17B69BB6201E03B69BB627B689B89CE
S315080037709BB29BB21BB2002B0CDABA6A13469B00AB
S3150800378013449A001A443B681B685B00B2FBF3F3C8
S315080037907B620BE0BA6A13469B0013449A001A44EC
S315080037A03B681B689B00B2FBF3F37B627B6A214A8A
S315080037B0A2FB03235B091B01FB62FB6A1B0964224C
S315080037C002FB03F37A6AD31A3B627B689B899BB236
S315080037D09BB21BB2002B0CDA3B6ADB003233154A6C
S315080037E0A2FB03235B0903F00703FA6A1343FB6290
S315080037F00BE03B6A1B0132330E4AA2FB03235B092B
S3150800380003F00F03FA6A1343FB62FB6A9AB27B68FA
S315080038101A813037BD4680BD00380140004400405B
S3150800382000480040004C004000500040904400080A
S3150800383020AA44001F85EB5100000000000000008C
S3150800384080B582B000AF78600B46FB707B681D4A76
S31508003850934214D07B681C4A934210D07B681B4A5B
S3150800386093420CD07B681A4A934208D07B68194A5F
S31508003870934204D018484FF4B171FEF729FAFB7841
S31508003880002B07D0FB78012B04D0134840F26311B4
S31508003890FEF71EFAFB78002B08D07B689B899BB243
S315080038A043F400539AB27B689A8107E07B689B8948
S315080038B09BB223F400539AB27B689A810837BD46B7
S315080038C080BD00BF00380140004400400048004069
S315080038D0004C0040005000409044000800000000E2
S315080038E080B586B000AF78600B467B8013467B7048
S315080038F000233B610023FB600023BB6000237B6140
S315080039007B684B4A934214D07B684A4A934210D04C
S315080039107B68494A93420CD07B68484A934208D050
S315080039207B68474A934204D0464840F28911FEF71D
S31508003930CFF97B88282B25D07B8840F227729342C3
S3150800394020D07B8840F2266293421BD07B8840F2C7
S315080039502552934216D07B8840F22442934211D0D6
S315080039607B8840F6460293420CD07B8840F66A1262
S31508003970934207D07B88602B04D032484FF4C57138
S31508003980FEF7A6F97B78002B07D07B78012B04D0AD
S315080039902C4840F28B11FEF79BF97B8840F66A1299
S315080039A0934210D17B68224A93420CD07B68214A05
S315080039B0934208D07B68204A934204D0214840F2BB
S315080039C08F11FEF785F97B687B617B88DBB25B0923
S315080039D0DBB23B617B8803F01F03FB60FB680122B7
S315080039E002FA03F3BB603B69012B03D17B690C33F5
S315080039F07B6109E03B69022B03D17B6910337B614C
S31508003A0002E07B6914337B617B78002B06D07B69E7
S31508003A107A691168BA680A431A6006E07B697A69A6
S31508003A201168BA68D2430A401A601837BD4680BD85
S31508003A30003801400044004000480040004C004067
S31508003A4000500040904400080000000000000000FC
S31508003A5080B485B000AF78607A6813465B0013447B
S31508003A60DB00064A1344FB60FB681B68BB60BB6847
S31508003A7018461437BD465DF8047B70475045000864
S31508003A8080B586B000AF78603960454B00221A6071
S31508003A90FCF746FF7B687B617B69002B5BDB7A69F9
S31508003AA013465B001344DB003E4A13443B613B6903
S31508003AB01B68FB60F868FEF7CBFB0346184600F068
S31508003AC0DFFAF868FEF7D4FB0346184600F0D8FA82
S31508003AD0F8680021FEF78CFBF8680021FEF7A0FBCA
S31508003AE000F0DEF803469BB2184600F099FA034642
S31508003AF0F8681946FEF77CFB0346002B28D000F031
S31508003B00BFF803469BB2184600F08AFA0346F868DF
S31508003B101946FEF785FB0346002B0ED0F8680021F0
S31508003B20FEF7B6FAF868FEF7C3FB034643F004034C
S31508003B30F8681946FEF7CCFB0DE0F868FEF788FB37
S31508003B400346184600F09CFA154B0C221A6002E050
S31508003B50134B0C221A60FCF70BFF7B69002B0FDB5B
S31508003B603B68002B0CD07869396800F071F8034679
S31508003B70002B05DA786900F01BF84FF0FF337B61FC
S31508003B807869FEF725FB02467B699A4202D0786976
S31508003B9000F00EF87B6918461837BD4680BD00BF91
S31508003BA0080600205045000800000000000000003C
S31508003BB080B586B000AF786000237B61204B002279
S31508003BC01A60FCF7ADFE7A6813465B001344DB0007
S31508003BD01C4A13443B613B691B68FB60F868FEF7A7
S31508003BE01FFAF868FEF754FB03461846FEF7C8F9AD
S31508003BF0F868FEF72DFB0346184600F041FAF86808
S31508003C00FEF736FB0346184600F03AFAF868002134
S31508003C10FEF7EEFAF8680021FEF702FBF868FEF7F1
S31508003C2047FB034623F00403F8681946FEF750FBE2
S31508003C30FCF79EFE7B6918461837BD4680BD00BF57
S31508003C40080600205045000800000000000000009B
S31508003C5080B584B000AF786039607868FFF7F8FE01
S31508003C60034618463968FEF713FAF860FB681846E3
S31508003C701037BD4680BD00BF0000000000000000F0
S31508003C8080B400AF4FF400731846BD465DF8047B58
S31508003C90704700BF000000000000000000000000A0
S31508003CA080B400AF4FF400731846BD465DF8047B38
S31508003CB0704700BF00000000000000000000000080
S31508003CC090B589B000AFF860B9607A600023FB61EF
S31508003CD0BB68BB6126E0FB681B681846FEF7B8FAA6
S31508003CE00346184600F07CFA78617B69002B17DBDF
S31508003CF0FB695A1CFA611A46BB6913447A69D2B23F
S31508003D001A70FB681C68FB681B681846FEF7D0FA31
S31508003D10034643F0010320461946FEF7D9FA01E0A7
S31508003D20FCF756FEFA697B689A42D4DBFB691846AB
S31508003D302437BD4690BD00BF00000000000000000B
S31508003D4080B586B000AFF860B9607A6000237B6101
S31508003D50BB683B611BE0FB681B681846FEF788FAE0
S31508003D6001467B693A6913441B780846194600F0F0
S31508003D70F7F90346002B03D07B6901337B6101E029
S31508003D80FCF726FEFB681B681846FEF721FB7A69D6
S31508003D907B689A42DFDB7B6918461837BD4680BDCB
S31508003DA080B582B000AF78607B681B681846FEF75E
S31508003DB04FFA0346184600F0ABF90346184608378B
S31508003DC0BD4680BD000000000000000000000000A5
S31508003DD080B582B000AF78607B681B681846FEF72E
S31508003DE047FA0346184600F093F90346184608377B
S31508003DF0BD4680BD00000000000000000000000075
S31508003E0080B582B000AF78607B681B681846FEF7FD
S31508003E104FFA034618460837BD4680BD0000000025
S31508003E2080B584B000AF7860174B1B687A689A42F1
S31508003E3023DD164B1A687B689B0010461946FDF76A
S31508003E40BFF90246114B1A60104B1B68002B14D0A1
S31508003E500D4B1B68FB6009E00C4B1A68FB689B005E
S31508003E60134400221A60FB680133FB60FA687B681A
S31508003E709A42F1DB044A7B681360034B1B681846B9
S31508003E801037BD4680BD00BF300600202C06002036
S31508003E9080B588B000AF0346B9607A60FB7300232B
S31508003EA0FB61FEF715F87861154B1B68DBB297F9CD
S31508003EB00F205BB29A421ADA124B1A68FB7B9B00F8
S31508003EC013441B68BB610FE0BB691A68BB689A425A
S31508003ED007D1BB695A687B689A4202D10123FB6104
S31508003EE005E0BB699B68BB61BB69002BECD17869AF
S31508003EF0FDF7FEFFFB6918462037BD4680BD00BFAB
S31508003F00300600202C0600200000000000000000FB
S31508003F1080B588B000AF0346B9607A60FB7397F93D
S31508003F200F301846B9687A68FFF7B2FF0346002BC8
S31508003F3044D1FDF7CDFFB861FB7B01331846FFF787
S31508003F406FFF0246FB7B9A4233DD0C20FDF728F90A
S31508003F5078617B69002B2CD0786900210C22FDF74B
S31508003F60A7F97B69BA681A607B697A685A60164B42
S31508003F701A68FB7B9B0013441B68002B07D1124B66
S31508003F801A68FB7B9B0013447A691A6011E00E4B92
S31508003F901A68FB7B9B0013441B68FB6102E0FB6904
S31508003FA09B68FB61FB699B68002BF8D1FB697A6902
S31508003FB09A60B869FDF79CFFFB7B01E04FF0FF3381
S31508003FC018462037BD4680BD2C060020000000009C
S31508003FD080B584B000AF0346FB710D4B1A68FB79B8
S31508003FE09B0013441B68FB600BE0FB681B68FA68C0
S31508003FF0526897F90710084611469847FB689B6868
S31508004000FB60FB68002BF0D11037BD4680BD00BFB2
S315080040102C06002000000000000000000000000040
S3150800402080B584B000AF0346FB800C20FDF7B8F8D6
S31508004030F860FB68002B18D0F86800210C22FDF701
S3150800404037F9FB881846FDF7ABF80246FB681A6095
S31508004050FB681B68002B03D0FB68FA889A8004E08B
S31508004060F868FDF7BDF80023FB60FB6818461037B3
S31508004070BD4680BD000000000000000000000000F2
S3150800408080B584B000AF78600023FB737B68002B93
S3150800409013D0FDF71DFFB8607B681B68002B04D0A2
S315080040A07B681B681846FDF79BF87868FDF798F853
S315080040B00123FB73B868FDF71BFFFB7B1846103717
S315080040C0BD4680BD000000000000000000000000A2
S315080040D080B584B000AF7860FDF7FAFEF8607B68BB
S315080040E0DA887B681B899A420CBF01230023DBB25E
S315080040F0FB72F868FDF7FCFEFB7A18461037BD46DA
S3150800410080BD00BF000000000000000000000000A5
S3150800411080B584B000AF7860FDF7DAFEB8607B68DA
S31508004120DB881A467B681B89D31AFB60FB68002B61
S3150800413009DA7B689B881A467B681B89D31A7A68D2
S31508004140D2881344FB60B868FDF7D2FEFB681846B0
S315080041501037BD4680BD00BF00000000000000000B
S3150800416080B584B000AF78600B46FB70FDF7B0FEF3
S31508004170F8607B68DB881A467B681B89013B9A4294
S315080041800DD07B68DB881A467B689B88013B9A4280
S3150800419003D17B681B89002B01D0012300E0002393
S315080041A0FB72FB7A002B13D07B681A687B68DB8866
S315080041B0591C88B27968C8801344FA781A707B68E3
S315080041C0DA887B689B889A4202D37B680022DA8069
S315080041D0F868FDF78DFEFB7A18461037BD4680BD98
S315080041E080B584B000AF7860FDF772FEB8604FF016
S315080041F0FF33FB607B68DA887B681B899A4213D099
S315080042007B681A687B681B89591C88B2796808819B
S3150800421013441B78FB607B681A897B689B889A42E3
S3150800422002D37B6800221A81B868FDF761FEFB6835
S3150800423018461037BD4680BD00000000000000008B
S3150800424080B491B000AF78607B681B68FB637B68BD
S315080042505B68BB637B689B687B637B68DB683B63E7
S315080042607B681B69FB627B685B69BB627B689B69D1
S315080042707B627B68DB693B620B4B1B68FB610B4B04
S315080042801B68BB610A4B1B687B610A4B1B683B6159
S31508004290094B1B68BB60094B1B68FB6000BE4437B3
S315080042A0BD465DF8047B704728ED00E02CED00E084
S315080042B030ED00E03CED00E034ED00E038ED00E0E4
S315080042C004207146084203D0EFF30980FFF7B8BF10
S315080042D0EFF30880FFF7B4BFFFF7F2BF0000000056
S315080042E072770000000000000000000000000000D7
S315080042F07468726561643100000000000000000007
S315080043000000000043415249424F5500000000009A
S315080043102F686F6D652F6D696B652F446F63756DBB
S31508004320656E74732F63617269626F752D72746F2F
S31508004330732F6272616E636865732F302E392F632F
S31508004340617269626F752F7461726765742F626F27
S315080043506172642F6F6C696D65785F73746D333243
S315080043605F703130372F63726F7373776F726B7349
S315080043702F2E2E2F2E2E2F2E2E2F636869702F7319
S31508004380746D33322F73746D3332663130332F6C5C
S3150800439069622F53544D3332463130785F53746413
S315080043A05065726970685F4472697665722F7372B8
S315080043B0632F73746D3332663130785F7263632EA0
S315080043C0630000000000000000000000000000007C
S315080043D02F686F6D652F6D696B652F446F63756DFB
S315080043E0656E74732F63617269626F752D72746F6F
S315080043F0732F6272616E636865732F302E392F636F
S31508004400617269626F752F7461726765742F626F66
S315080044106172642F6F6C696D65785F73746D333282
S315080044205F703130372F63726F7373776F726B7388
S315080044302F2E2E2F2E2E2F2E2E2F636869702F7358
S31508004440746D33322F73746D3332663130332F6C9B
S3150800445069622F53544D3332463130785F53746452
S315080044605065726970685F4472697665722F7372F7
S31508004470632F73746D3332663130785F74696D2ECD
S3150800448063000000000000000000000000000000BB
S315080044902F686F6D652F6D696B652F446F63756D3A
S315080044A0656E74732F63617269626F752D72746FAE
S315080044B0732F6272616E636865732F302E392F63AE
S315080044C0617269626F752F7461726765742F626FA6
S315080044D06172642F6F6C696D65785F73746D3332C2
S315080044E05F703130372F63726F7373776F726B73C8
S315080044F02F2E2E2F2E2E2F2E2E2F636869702F7398
S31508004500746D33322F73746D3332663130332F6CDA
S3150800451069622F53544D3332463130785F53746491
S315080045205065726970685F4472697665722F737236
S31508004530632F73746D3332663130785F75736172C9
S31508004540742E630000000000000000000000000058
S3150800455028040020C13C0008413D0008A13D000890
S31508004560D13D0008013E000848040020C13C00086F
S31508004570413D0008A13D0008D13D0008013E000864
S3150800458068040020C13C0008413D0008A13D000820
S31508004590D13D0008013E00080000000000000000B0
S315080045A000000000000000000000000000000000FD
S315080045B0001001404000000000100140800000008B
S315080045C00008014001000000001001400020000022
S315080045D001010000180600200038014025000000EF
S315080045E0802500000801000000000000000000000F
S315080045F00000000000000000004400402600000003
S3150800460080250000080100000000000000000000EE
S3150800461000000000000000000048004027000000DD
S3150800462080250000080100000000000000000000CE
S31508004630000000000000000000000000000000006C
S31508004640000000000000000000000000000000005C
S31508004650000000000000000000A24A04000000005C
S315080046600000000001020304060708090000000014
S3150800467001020304010203040607080902040608E6
S705080001B140
