S02B00002F686F6D652F6D696B652F446F63756D656E74732F63617269626F752D72746F732F6272616E6368A0
S3150800000000060020B1010008A1B400085108000844
S31508000010510800085108000851080008510800084E
S31508000020510800085108000851080008211D000859
S31508000030510800085108000881190008311A0008FB
S3150800004081B4000881B4000881B4000881B40008AE
S3150800005081B4000881B4000881B4000881B400089E
S3150800006081B4000881B4000881B4000881B400088E
S3150800007081B4000881B4000881B4000881B400087E
S3150800008081B4000881B4000881B4000881B400086E
S3150800009081B4000881B4000881B4000881B400085E
S315080000A081B4000881B4000881B4000881B400084E
S315080000B081B4000881B4000881B4000881B400083E
S315080000C081B4000881B4000881B4000881B400082E
S315080000D081B4000881B4000881B4000881B400081E
S315080000E081B4000881B4000881B4000881B400080E
S315080000F081B4000881B4000881B4000881B40008FE
S3150800010081B4000881B4000881B4000881B40008ED
S3150800011081B4000881B4000881B4000881B40008DD
S3150800012081B4000881B4000881B4000881B40008CD
S3150800013081B4000881B4000881B4000881B40008BD
S3150800014081B4000881B4000881B4000881B40008AD
S3150800015081B4000881B4000881B4000881B400089D
S3150800016081B4000881B4000881B4000881B400088D
S3150800017081B4000881B4000881B4000881B400087D
S3150800018081B4000881B4000881B4000881B400086D
S3150800019081B4000881B4000881B4000881B400085D
S315080001A081B4000881B4000881B4000881B400084D
S315080001B072B62E4880F30988022080F31488BFF3AC
S315080001C06F8F2B482949FA2200F048F829482A490E
S315080001D0FA2200F043F8294829492A4A00F033F858
S315080001E029482A49002200F039F8294A9047294A1D
S315080001F09047294829492A4A90472A482A4988423D
S3150800020000F007800268043003B4904703BCFFF788
S31508000210F6BF264A9047002000218646EC46244A27
S31508000220904724482449884200F007800268043031
S3150800023003B4904703BCFFF7F6BFFFF7B9BFFFF754
S31508000240FEBFFFF7FCBF884207D0521A05D00378D5
S3150800025001300B700131013AF9D17047884203D059
S3150800026002700130FFF7FABF70470000000C00204B
S31508000270000600200000002000060020D02B010800
S31508000280000C00202C110020301100208C30012099
S315080002905115000821AF00088C300120000002200B
S315080002A0811D0008B0010008B0010008E1B000088F
S315080002B061040008B0010008B00100080000000051
S315080002C082B0394BD3F8882042F47002C3F88820EC
S315080002D0364B1A6842F001021A6000229A601968C1
S315080002E021F0847121F48031196031495960196807
S315080002F021F480211960DA60009201921A6842F4AA
S3150800030080321A601A46136803F400330193009B7F
S3150800031001330093019B1BB9009BB3F5A06FF2D183
S31508000320224B1B6813F4003F14BF012300230193DB
S31508000330019B012B32D11D4B1A6C42F080521A6474
S315080003401C4A116841F4404111609A689A609A689B
S3150800035042F400429A609A6842F4A0529A60164A99
S315080003605A601A6842F080721A601A46136813F0C7
S31508000370007FFBD040F20572104B1A60A3F580632C
S315080003809A6822F003029A609A6842F002029A601A
S315080003901A46936803F00C03082BFAD14FF0006253
S315080003A0014B9A6002B0704700ED00E00038024049
S315080003B0103000240070004008544007003C0240FA
S315080003C01E4B9B6803F00C03042B06D0082B08D0A1
S315080003D023BB1B4A1B4B1A6023E01B4A194B1A60A6
S315080003E01FE0164B59685B6803F03F0311F4800F52
S315080003F0124A5168C1F3881114BF134A104AB2FB56
S31508000400F3F202FB01F20D4B5B68C3F301430133C0
S315080004105B00B2FBF3F20B4B1A6002E0084A094B89
S315080004201A60064B9B68C3F30313084AD15CC9B22A
S31508000430044B1A68CA401A60704700BF0038024069
S315080004400024F400100C002000127A00000C002092
S31508000450FEE700BF000000000000000000000000EA
S3150800046010B5002001F0A4F80A4802F069F800F077
S3150800047017F8094C04F50060002101F0A1FC04F608
S315080004800800102104F6140201F062FD01F088F854
S31508000490002010BDECFB0008301100200000000011
S315080004A010B58CB00020014602F06AFC154B0B9380
S315080004B06FF07F430A9303F5D433C13309930123BD
S315080004C000930A23019304A80F49C022A82302F027
S315080004D01FF80E4804A902F033F80D4C00230093C8
S315080004E00C4B01930C4B029320460BA90AAA09ABA5
S315080004F006F00EFA204606F04BFA204606F060FA99
S315080005000CB010BDC0A8010A20FC000830FC000889
S315080005108819002061060008D12C00080000000098
S3150800052008B50AF055F941F288300249002209F067
S31508000530DFFB08BD210500080000000000000000E0
S3150800054070B50B4B1B689E680C4659B1002570198F
S315080005506168628902F024F863891D442468002CC6
S31508000560F5D100E00025A8B200F0B2FA002070BD6F
S315080005700C38002000000000000000000000000009
S315080005802DE9F04F85B0DFF8D0A0304F304901F59E
S31508000590805B0BF1140B50464FF0FF324FF0FF33E0
S315080005A001F09EFD00284DD001A800F031FA039D08
S315080005B02B6813F4004F17D1DDF808800320BDF827
S315080005C00410024606F01CFB814678B10446002654
S315080005D0606808EB0601628901F0E2FF63891E4440
S315080005E02468002CF4D101E04FF000093A689368BA
S315080005F0012B88BF156893684BB100234FF0004064
S315080006002860ED6801333A6891688B42F8D3002375
S315080006109360DBF8003013F0800F07D08023CBF807
S315080006200030002241F208030949CA50B9F1000F07
S3150800063008D0084B19680B694846984710B14846D0
S3150800064006F07EFA01F024F8A5E700BFFC37002083
S3150800065000800240E0190020140C00200000000071
S3150800066070B584B0044630B92F4830494FF49172BA
S315080006702F4B01F07DFF732384F82A30742384F806
S315080006802B302C4B63612C4BA361062384F8223054
S31508000690002084F8230084F82400CF2384F825302A
S315080006A084F8260084F82700012384F8283040F2CD
S315080006B0DC532384222384F82930204B1C6004F160
S315080006C0230100F07DF91E481E49052200F0A0FA14
S315080006D01D4E30461D49052200F06AFA3446A036FA
S315080006E001252046294600F0BBFA2034B442F8D149
S315080006F04FF4806001F04CFB00904FF48063019347
S3150800070001230293124813490022134601F050F8B8
S3150800071008B100F045FB41F288300F49002209F084
S31508000720E7FA002004B070BD50FC000878FC000809
S3150800073088FC0008A1AB000841050008E019002064
S31508000740D45500201038002074560020381A00208E
S31508000750FCFC0008810500082105000800000000CF
S3150800076008B5088804220D4B5A61122100F028FBAF
S3150800077000F4005080B278B1094B1A7AD243D2B24B
S315080007801A721B7A13F0FF0F03D0064801F0D8FE41
S3150800079008BD054801F0D4FE08BD00BF003C014075
S315080007A0E82E012004FD000820FD000800000000D6
S315080007B008B541F21403074AD35813F0400F02D084
S315080007C0054801F065FC054941F21403014AD15078
S315080007D008BD00BF00800240140C00204000010044
S315080007E08EB003680D9343680C9383680B93C368B4
S315080007F00A93036909934369089383690793C3694D
S3150800080006930A4B1B680593094B1B680493094B0F
S315080008101B680393084B1B680293084B1B680093DD
S31508000820074B1B68019300BE0EB0704728ED00E029
S315080008302CED00E030ED00E03CED00E034ED00E0AA
S3150800084038ED00E000000000000000000000000095
S3150800085004207146084200F00480EFF30980FFF790
S31508000860BFBFEFF30880FFF7BBBFFFF7F1BF00BFBD
S3150800087084B0019000230393019B0393039B2BB140
S31508000880039B013B0393039B002BF9D104B07047EC
S3150800089008B54FF0007001210BF02AFE4FF00070EA
S315080008A000210BF025FE08BD000000000000000036
S315080008B001230360002343608360C36003614FF430
S315080008C0804242618361C3614FF4006202624362FF
S315080008D08362C362036343638363C3634022026420
S315080008E0202242648364C364036543658365C365E4
S315080008F00366802242668366C36603674367836727
S31508000900C3674FF08062C0F880204FF00072C0F8CD
S315080009108420C0F888304FF40011C0F88C10C0F855
S315080009209030C0F89430C0F89830C0F89C30C0F8C1
S31508000930A030C0F8A4204FF48032C0F8A8204FF4A5
S315080009408002C0F8AC204FF40052C0F8B020C0F8BE
S31508000950B430C0F8B830704700000000000000004E
S3150800096010B5044601288CBF002001200AF080FD3E
S315080009702CB1064B1A6842F008021A6010BD034BE8
S315080009801A6822F008021A6010BD00BF00800240F3
S3150800099010B5044601288CBF002001200AF068FD26
S315080009A02CB1064B1A6842F004021A6010BD034BBC
S315080009B01A6822F004021A6010BD00BF00800240C7
S315080009C038B505460C4630F0080004D0102814BF88
S315080009D00020012000E001200AF04AFD627923790F
S315080009E043EA0222074BEA50E378A278120442EA65
S315080009F0036223781A43637842EA0322024BEA50D9
S31508000A0038BD00BF4080024044800240000000001C
S31508000A1070B483B000230193294A2A4C012540E08B
S31508000A20019901310191196811F4007F0BD01968F9
S31508000A3011F4807F07D121680B6023689D601368D5
S31508000A40DB6813602DE0196811F4807F0AD11968F4
S31508000A5011F4007F06D121688E6801368E60DB6846
S31508000A6013601EE0174A126853609168013191605D
S31508000A709168012908BF1360114B1B681968C1F3F7
S31508000A800D4104390F4A12689468012C86BF126812
S31508000A9092689A68DD680A4C256001604260836046
S31508000AA00AE013681968002902DB01990429B7D9F5
S31508000AB0002303604360836003B070BC704700BFC7
S31508000AC0341A0020FC370020000000000000000057
S31508000AD0F0B4334B1B681A68002A5CDB40F2F45208
S31508000AE090420FD92F4AA2FB0012920A94B240F202
S31508000AF0F45101FB120292B202B10134012C01D069
S31508000B008CB934E01A6842F040521A60244B1A68CD
S31508000B10C0F30C005060116841F0004111601A687A
S31508000B20D2681A6025E000F2F4501F4E06FB040650
S31508000B30C6F30C0600221A4F40F2F455601E32B96D
S31508000B403968D1F800C04CF0805CC1F800C05D601F
S31508000B50904204D1196841F0005119605E60196825
S31508000B6041F000411960DB680132A242E7D10C4A24
S31508000B70136041F214030D4AD35813F0040F0CD036
S31508000B801346042141F214029950002141F204024D
S31508000B909950012002E0002000E00120F0BC7047D7
S31508000BA00C3800200BB002AC0CFAFFFF00800240A4
S31508000BB0F0B4134B18601646CAB100F1200300249E
S31508000BC04FF0004C44F2F457013A43F820CC43F86E
S31508000BD01C7C43F8181CA24294BF05461D4643F8E0
S31508000BE0145C013401F2F4512033B442EDD141F2E0
S31508000BF00C03044AD050044A044B1A60F0BC7047F0
S31508000C00341A00200080024000380020FC370020FB
S31508000C10F0B484460E4B1860154692B1634600241C
S31508000C204FF48016013A1E609960A24286BF03F10E
S31508000C302007DF60D8600134203301F2F451AC425A
S31508000C40F1D141F21003034A42F803C0F0BC7047E1
S31508000C500C38002000800240000000000000000060
S31508000C6038B504460D4601298CBF002001200AF03C
S31508000C70FFFB25B1636823F00043636038BD6368F2
S31508000C8043F00043636038BD000000000000000028
S31508000C90024B1A6842F001021A607047009002403F
S31508000CA0024B186800F00100704700BF0090024030
S31508000CB038B504460D46104B03401BB9003018BF23
S31508000CC0012000E000200AF0D3FB012D8CBF002094
S31508000CD001200AF0CDFB35B1084A41F21C03D15870
S31508000CE00C43D45038BD054A41F21C03D15821EAB9
S31508000CF00404D45038BD00BF0018FEFF008002402F
S31508000D00034A41F21803D15841F48011D150704773
S31508000D100080024000000000000000000000000003
S31508000D2010B5044601288CBF002001200AF0A0FB5C
S31508000D303CB1084A41F21803D15841F40051D15048
S31508000D4010BD044A41F21803D15821F40051D1507C
S31508000D5010BD00BF00800240000000000000000037
S31508000D6010B5044601288CBF002001200AF080FB3C
S31508000D703CB1084A41F21803D15841F00201D1505A
S31508000D8010BD044A41F21803D15821F00201D1508E
S31508000D9010BD00BF008002400000000000000000F7
S31508000DA008B50120FFF7DCFDFFF7AAFF0120FFF7D2
S31508000DB0EFFD0120FFF7B4FF0120FFF7D1FF08BDC3
S31508000DC030B583B005460C460023019320288CBF16
S31508000DD0002001200AF04CFB012C04D9102C14BF6A
S31508000DE00020012000E001200AF042FB114B19699E
S31508000DF001F01C01A20102F4F8620A43ED02ADB249
S31508000E002A4342F001021A611A460B49019B013333
S31508000E100193136913F0010F02D0019B8B42F5D998
S31508000E20019A064B9A421DBF024B586980B20020B0
S31508000E3003B030BD00800240FEFF0400FFFF04003F
S31508000E4070B582B005460C46164600230193202845
S31508000E508CBF002001200AF00BFB012C04D9102CB2
S31508000E6014BF0020012000E001200AF001FB114B0D
S31508000E701A6902F01C0242F00302A40104F4F864A1
S31508000E801443ED02ADB225435E611D611A460A4957
S31508000E90019B01330193136913F0010F02D0019BE3
S31508000EA08B42F5D90198054BC01A18BF012002B02C
S31508000EB070BD00BF00800240FEFF0400FFFF040073
S31508000EC0F0B587B004460D460023059300930068E5
S31508000ED001288CBF002001200AF0CAFA636833F49F
S31508000EE0000214BF002001200AF0C2FAA36833F4F6
S31508000EF0800214BF002001200AF0BAFAE36833F42E
S31508000F0000330BD0B3F5802F0AD0B3F5002F09D0E4
S31508000F10B3F5402F14BF0020012004E0012002E0B1
S31508000F20012000E001200AF0A3FA236933F4803295
S31508000F3014BF002001200AF09BFA636933F480424B
S31508000F4014BF002001200AF093FAA36933F4005273
S31508000F5014BF002001200AF08BFAE36933F48052AB
S31508000F6014BF002001200AF083FA236A33F40062D2
S31508000F7014BF002001200AF07BFA636A33F480620A
S31508000F8014BF002001200AF073FAA36A33F4007232
S31508000F9014BF002001200AF06BFAE36A33F08002DE
S31508000FA014BF002001200AF063FA206B30F02000FD
S31508000FB004D0402814BF0020012000E001200AF0D8
S31508000FC057FA636B33F0100214BF002001200AF0B1
S31508000FD04FFAA06B20F00040D0F1010038BF002086
S31508000FE00AF046FAE36BB3F5407F05D033F4007296
S31508000FF014BF0020012000E001200AF039FA206C15
S3150800100020F08003402B04D0802814BF0020012044
S3150800101000E001200AF02CFA636C33F0200214BFBA
S31508001020002001200AF024FAA36C33F0080214BF4A
S31508001030002001200AF01CFAE06C01288CBF002071
S3150800104001200AF015FA206D40F20443984207D0B1
S3150800105030F0040306D0102814BF0020012002E057
S31508001060012000E001200AF003FA636D40F2024213
S31508001070934205D033F0020214BF0020012000E09D
S3150800108001200AF0F5F9206EB0F5803F2CBF00204C
S3150800109001200AF0EDF9636E33F0800214BF0020D8
S315080010A001200AF0E5F9A06E30F0100004D02028DF
S315080010B014BF0020012000E001200AF0D9F9E36EF0
S315080010C033F0080214BF002001200AF0D1F9236F7B
S315080010D033F0040214BF002001200AF0C9F9636F37
S315080010E033F0020214BF002001200AF0C1F9A36FF1
S315080010F033F4803214BF002001200AF0B9F9E06FFA
S31508001100B0F5803F2CBF002001200AF0B1F9D4F8D1
S31508001110803033F0806214BF002001200AF0A8F95D
S31508001120D4F8843033F0007214BF002001200AF08E
S315080011309FF9D4F8883033F0807214BF002001205C
S315080011400AF096F9D4F88C3033F4001214BF002054
S3150800115001200AF08DF9D4F8903033F480430BD08F
S31508001160B3F5004F0AD0B3F5803F09D0B3F5C03FB9
S3150800117014BF0020012004E0012002E0012000E065
S3150800118001200AF075F9D4F8943033F0800214BFC0
S31508001190002001200AF06CF9D4F8983033F04002A8
S315080011A014BF002001200AF063F9D4F89C0030F03F
S315080011B0080004D0102814BF0020012000E00120F8
S315080011C00AF056F9D4F8A03033F0040214BF002010
S315080011D001200AF04DF9D4F8A43033F0007214BF98
S315080011E0002001200AF044F9D4F8A83033F48032FC
S315080011F014BF002001200AF03BF9D4F8AC0020F017
S315080012008070B0F5003F11D0B0F5802F10D0B0F542
S31508001210002F0FD0B0F5801F0ED0B0F5001F0DD0EF
S31508001220B0F5800F14BF0020012008E0012006E079
S31508001230012004E0012002E0012000E001200AF07C
S3150800124017F9D4F8B00020F08070B0F5807F11D07F
S31508001250B0F5007F10D0B0F5806F0FD0B0F5006FF5
S315080012600ED0B0F5805F0DD0B0F5005F14BF00203A
S31508001270012008E0012006E0012004E0012002E048
S31508001280012000E001200AF0F3F8D4F8B4001F2882
S315080012908CBF002001200AF0EBF8D4F8B80030F033
S315080012A002030AD020F40043B3F5804F07D0B0F507
S315080012B0004F14BF0020012002E0012000E00120B9
S315080012C00AF0D6F8934B1E6926F01C0601A80BF007
S315080012D037F8029A904B134490498B4202D846F04D
S315080012E0080615E08E4B13448E498B4202D846F009
S315080012F00C060DE08C4B13448C498B4208D98C4B59
S3150800130013448C4A934294BF46F0040646F01006EE
S31508001310804B1E61284600214FF40042FFF790FDDE
S315080013200346002800F0F2808348FFF7A1FA2368F5
S31508001330002B4FD00126814F009B0133009328468E
S315080013403146FFF73DFD00F0040080B210B9009B5E
S31508001350BB42F1D9009A7A4B9A4200F0D480002118
S31508001360009128464FF48052FFF76AFD034600288D
S3150800137000F0CC800126714F009B0133009328466C
S315080013803146FFF71DFD00F0200080B210B9009B22
S31508001390BB42F1D9009A6A4B9A4200F0B680002304
S315080013A0009328461021FFF70BFD00F004039BB2BB
S315080013B01BB14FF40063236201E00023236200F0AF
S315080013C0020080B210B10023636115E04FF4804338
S315080013D0636111E06369226AD20842EA5302284629
S315080013E0002192B2FFF72CFD0346002800F08E80FC
S315080013F06FF07F40FFF73CFA464B1968514A0A409E
S31508001400A06861680843E16808432169084361697F
S315080014100843A1690843E1690843216A0843616AE8
S315080014200843A16A0843E16A0843216B0843616BD4
S3150800143001430A431A60E16BA26B1143226C114304
S31508001440626C1143A26C1143E26C1143226D114385
S31508001450626D0A435A60A26D9A60E26DDA60986915
S31508001460A16E626E1143E26E1143226F1143626FE1
S315080014700A434FF6417101401143226E41EA024286
S315080014809A61E16FA26F0A43DA6141F2180158586E
S315080014902D4A0240D4F88450D4F880000543D4F885
S315080014A088000543D4F88C000543D4F8900005431A
S315080014B0D4F894000543D4F898000543D4F89C0062
S315080014C00543D4F8A000284302435A50D4F8A41080
S315080014D0D4F8A820114341F40001D4F8AC201143F4
S315080014E0D4F8B0201143D4F8B8200A43D4F8B4107D
S315080014F042EA810203F580531A601A6842F08002B4
S315080015001A60012302E0002300E00023184607B012
S31508001510F0BD00BF0080024000D3CEFEBFE1E4006C
S3150800152040F1E9FD3F787D0100796CFCFF596202C4
S31508001530001F0AFA7FF0FA02FFFF0F00FEFF040001
S31508001540FFFF04000F8120FF233FDEF800000000A4
S31508001550064BD3F8882042F47002C3F8882003F5B6
S315080015600C735A6842F040425A60704700ED00E03A
S3150800157008B509F09DFF08BD000000000000000046
S3150800158008B509F0A5FF08BD00000000000000002E
S3150800159008B509F0ADFF08BD000000000000000016
S315080015A008B500F0E5F908BD0000000000000000DD
S315080015B010B5044609F0ACFF01200AF051F82046A0
S315080015C000F076F909F09CFF10BD00BF000000008E
S315080015D0EFF30980704700BF00000000000000001C
S315080015E00C4B1A6882420DD112681A6070471A6845
S315080015F0824204D01346002BF9D108E0134602684C
S315080016001A6004E01AB113688342F4D1F6E700239E
S315080016100360704718570020000000000000000013
S3150800162010B50446034BDB6813B1024A11699847A3
S31508001630204610BD185700200000000000000000DA
S3150800164010B509F065FF064B5B6823B11A8E14B214
S3150800165001321A8600E0002409F06AFF204610BD10
S3150800166018570020000000000000000000000000DD
S3150800167010B5044609F04CFFB4F84030013BA4F815
S31508001680403009F055FF10BD0000000000000000C2
S3150800169008B5044B5B6823B1B3F930300BB9FFF7D3
S315080016A077FF08BD18570020000000000000000062
S315080016B010B509F02DFF0C4B5B683BB11A8E11B2C1
S315080016C0002905DD0C46013A1A8602E0002400E0EE
S315080016D0002409F02DFF044B5B68B3F930300BB9D1
S315080016E0FFF7D6FF204610BD18570020000000005F
S315080016F02DE9F04180460E4600F02AFA04460D46CA
S3150800170009F006FFB8F840300133A8F8403009F070
S315080017100FFFB8F94030002B18DDF7172046294689
S3150800172032463B4600F044FA50B109F0F1FEB8F8EB
S315080017304030013BA8F8403009F0FAFEBDE8F081D8
S31508001740FFF7A6FFB8F94030002BE7DCBDE8F081CB
S3150800175008B5044B5B689A8B42F004029A83FFF73C
S3150800176097FFFCE718570020000000000000000063
S3150800177038B5044609F0CCFE0546A38B43F00403AE
S31508001780A383636B0BB1606A98472046FFF728FF6F
S31508001790204600F00DFB204600F06AFA284609F0BC
S315080017A0C7FE38BD00000000000000000000000071
S315080017B02DE9F84F82468B4691461E460A9C09F04B
S315080017C0A7FE8046CCB12046FA210B9A00F020FFEE
S315080017D00B9BA3F14407E51928460021442200F093
S315080017E017FF6E62284BAB632BF00103EB634FF0D8
S315080017F004532B646FF00203E351244B5B6813B95F
S31508001800224B1F6800E01F46482000F0C1FA054633
S3150800181040B10021482200F0FBFE6F600023AB8335
S3150800182024B90EE00820FFF7FBFE26E00B9B2344B5
S31508001830A3F14402AA606B6104F144032B61AC6115
S3150800184006E0134BAB606B61124B2B61443BAB61FB
S31508001850C5F820A06E62BDF93030EB83C5F8349028
S315080018600A4B1A682AB113680BB11A46FBE71560CA
S3150800187003E0064B1D6000232B60404609F058FE26
S315080018802846BDE8F88F00BF5117000818570020F2
S31508001890000C0020440600200000000000000000A4
S315080018A0014B5868704700BF185700200000000019
S315080018B030B585B00546094C20460021282200F09F
S315080018C0A7FE0023009301930295054819461A4678
S315080018D0FFF76EFF606005B030BD00BF18570020E7
S315080018E040FD0008000000000000000000000000A5
S315080018F02DE9F04109F08CFC194C206800F0C8F974
S3150800190024685CB34FF001080227154E2568A368C2
S315080019102269934203D96269934204D80AE0404691
S31508001920FFF77EFE06E0A269934294BF042038467C
S31508001930FFF776FEA368E268934200D302B9E36034
S31508001940A38B03F004039BB22BB17368A34202D0A6
S315080019502046FFF70DFF0DB12C46D7E7BDE8F0810D
S3150800196018570020000000000000000000000000DA
S3150800197008B5FFF7BDFFFFF78BFEFAE7000000008A
S31508001980EFF3098020E9F00F1EF0100F01D120EDCA
S31508001990108A40F804ED80F30988224B5A6842F011
S315080019A000625A60204C6568FFF712FEA8606368FB
S315080019B09A8B42F002029A834FF6FF7222811B4AE3
S315080019C01268DA63B3F93030C3B94FF6FE72228172
S315080019D02068214602E022F002029A834B681B68BF
S315080019E0002B08BF03464B609A8B12F0060FF2D104
S315080019F0D98B0D4A1181DA6B0C4B1A600A4B5B685E
S31508001A009B6883F30988EFF3098050F804EB1EF00E
S31508001A10100F01D1B0EC108AB0E8F00F80F30988F6
S31508001A20704700BF00ED00E018570020405700201F
S31508001A30EFF3098020E9F00F1EF0100F01D120ED19
S31508001A40108A40F804ED80F30988274B5A6842F05B
S31508001A5000725A60254C6568FFF7BAFDA860D4E99C
S31508001A600623013243F10003C4E906236168D1E97C
S31508001A700A23013243F10003C1E90A231C4B1B6800
S31508001A80CB63B1F93030E3B92389013B9BB223819B
S31508001A9013F4004F15D02068214602E022F0020216
S31508001AA09A834B681B68002B08BF03464B609A8BCA
S31508001AB012F0060FF2D1D98B0C4A1181DA6B0C4B56
S31508001AC01A600A4B5B689B6883F30988EFF3098001
S31508001AD050F804EB1EF0100F01D1B0EC108AB0E8F4
S31508001AE0F00F80F30988704700ED00E018570020D2
S31508001AF04057002000000000000000000000000021
S31508001B0038B505460C46FFF79BFDAB6BB3B19C4257
S31508001B1011D05B68002BFAD110E01A465368002BE7
S31508001B20FBD15460226003E0AC630023236063604A
S31508001B30FFF7BEFD0AE0FFF7BBFD07E0FFF7B8FDBC
S31508001B40FFF77EFDAA6B002AE8D1EDE7204638BDEF
S31508001B50014BD3E906017047185700200000000022
S31508001B600069D0F1010038BF00207047000000006E
S31508001B702DE9F04104460F4616469846FFF790FEB3
S31508001B80054674B1204600211C2200F041FD28F0CC
S31508001B90010884F81880A760E66028462146FFF702
S31508001BA0AFFF2046BDE8F0810000000000000000FD
S31508001BB030B452EA030412D0B3F1FF3F08BFB2F1C2
S31508001BC0FF3F0ED0084CD4E90645201A65EB010103
S31508001BD0904271EB0304B4BF0020012002E000200C
S31508001BE000E0012030BC70471857002000000000B4
S31508001BF038B504460D46FFF723FD25616561FFF7F5
S31508001C0057FD204638BD00BF000000000000000058
S31508001C1038B505460C46FFF713FDFFF711FD0023FF
S31508001C2023616361FFF744FDFFF70AFDAB6B9C4236
S31508001C3005D16368AB636BB100221A600AE02368BA
S31508001C400BB162685A6063680BB122681A60002398
S31508001C5063602360FFF72CFD237E13F0010F02D08B
S31508001C60204600F0A5F8FFF723FD38BD0000000068
S31508001C7010B50446816B29B12046FFF7C9FFA16B51
S31508001C800029F9D110BD00BF0000000000000000C7
S31508001C902DE9F0470746FFF7D3FC1D49D1E906238E
S31508001CA00E6A961B2FD0C1E90823002F2BD04FF0C0
S31508001CB0000A4FF00109D046BC6BECB1236993B119
S31508001CC09E421DD89B1B23617BB9A3681BB138466E
S31508001CD02146E2689847237E13F0020F07D163690D
S31508001CE023614B4604E0434602E0434600E04B4688
S31508001CF01D446468002CE1D13F68002FDCD102E066
S31508001D00C4F810A0E1E7FFF7D3FC2846BDE8F08742
S31508001D101857002000000000000000000000000026
S31508001D2000B523462A46DBB2002B0CBF00234FF032
S31508001D30FF331C4600BD00BF000000000000000085
S31508001D40704700BF0000000000000000000000000F
S31508001D50704700BF000000000000000000000000FF
S31508001D60FEE700BF000000000000000000000000C1
S31508001D70FEE700BF000000000000000000000000B1
S31508001D8008B500F015FE08BD0000000000000000C0
S31508001D9008B500F03DFE08BD000000000000000088
S31508001DA008B500F07DFE08BD000000000000000038
S31508001DB008B500F055FE08BD000000000000000050
S31508001DC038B504460D460021082200F021FC65714D
S31508001DD038BD00BF00000000000000000000000041
S31508001DE038B505460820FFF7D3FF044630B1294623
S31508001DF0FFF7E6FF0022044B1A6002E00C22024BB2
S31508001E001A60204638BD00BF405700200000000079
S31508001E1038B50446FFF744FD0546FFF711FC23795C
S31508001E2013B12268AA4204D1013323712560012423
S31508001E3000E00024FFF73CFC204638BD0000000007
S31508001E4030B589B004460D46FFF7FAFBA37901338E
S31508001E50A371FFF72DFC85B101A82946FFF7C8FE37
S31508001E6001A800210A460223FFF782FE05E06379EE
S31508001E7013F0010F01D1FFF70BFC2046FFF7C8FF4F
S31508001E8030B9002DF3D001A8FFF76AFE0028EED07E
S31508001E90FFF7D6FBA379013BA371FFF709FC0120E5
S31508001EA009B030BD0000000000000000000000007E
S31508001EB038B50446FFF7C4FB237963B12568FFF7F5
S31508001EC0EFFC854209D12379013BDBB2237133B993
S31508001ED02360012504E0002502E0002500E0012535
S31508001EE0A37943B1FFF7E4FB637913F0010F04D13B
S31508001EF0FFF7CEFB01E0FFF7DBFB284638BD00BF46
S31508001F0070B505460C20FFF743FF0446D8B1B5F176
S31508001F10FF3F06D1002383604FF0FF320260436023
S31508001F2011E0AE003046FFF733FFA06038B100215C
S31508001F30324600F06DFB25600023636003E020460F
S31508001F40FFF736FF0024204670BD00BF00000000E2
S31508001F5010B400244460016082605DF8044B704749
S31508001F6070B504460E4609F0D3FA05462368B3F160
S31508001F70FF3F0ED16368591CA0688900FFF710FF60
S31508001F80A06080B163685A1C626040F8236001242F
S31508001F900CE06268934208DDA368511C616043F84F
S31508001FA02260012402E0002400E00024284609F00B
S31508001FB0BFFA204670BD00BF000000000000000008
S31508001FC02DE9F0478246894616461F46FFF7C0FDAB
S31508001FD004460D4608E02046294632463B46FFF7AA
S31508001FE0E7FD50B9FFF754FB50464946FFF7B8FFDF
S31508001FF080460028EFD04FF001084046BDE8F0873C
S3150800200070B504460D4600230B6009F081FA0646B2
S315080020106268002A0CDD013A6260A3681B682B60BF
S31508002020A16808460431920000F0CAFA012400E0CB
S315080020300024304609F07CFA204670BD00000000F6
S315080020402DE9F0478246884616461F46FFF780FD6B
S3150800205004460D460023C8F8003008E02046294605
S3150800206032463B46FFF7A4FD50B9FFF711FB504631
S315080020704146FFF7C5FF81460028EFD04FF001091A
S315080020804846BDE8F08700BF0000000000000000D9
S3150800209070B582B0044609F03BFA06462368013358
S315080020A02360002B0FDC606840B101A9FFF7A8FF89
S315080020B0054618B10198FFF7DBFA05E02368013BEE
S315080020C02360002500E00125304609F031FA28464C
S315080020D002B070BD00000000000000000000000013
S315080020E02DE9F0410646144609F012FA0746336808
S315080020F0013B3360002B1BDAD6F80480B8F1000FD9
S3150800210011D0FFF7CDFB01464046FFF729FF50B136
S3150800211009F0F6F9FFF7C4FB2146FFF7E9FA09F0DB
S31508002120F7F9012405E0336801333360002400E041
S315080021300124384609F0FCF92046BDE8F08100BFC5
S3150800214008B500210AF05CFD0028A3BF00EB40009B
S31508002150024B03EBC000002008BD00BFB0270108F2
S3150800216010B582B002AB43F8040D8C6808461946D0
S315080021700122A04701280CBF01984FF0FF3002B09A
S3150800218010BD00BF000000000000000000000000B5
S3150800219008B5FFF7E5FF08BD0000000000000000D5
S315080021A038B50546144629B10A6814700A6801321A
S315080021B00A6038BD0A2A03D10D202946FFF7E8FF31
S315080021C020462946FFF7E4FF38BD00BF000000009F
S315080021D02DE9F04705460E4614460898B3F100085F
S315080021E029DD13784BB113460021013113F8012F6D
S315080021F0002AFAD1884504DD00E00021C1EB080871
S3150800220001E04FF0000800F00203002B14BF4FF066
S3150800221030094FF0200910F0010F10D1B8F1000F66
S315080022200FDDC246284631464A46FFF7B9FFBAF1DE
S31508002230010AF7D107E04FF02009002705E000273B
S3150800224003E0002701E04746D046227842B12846F7
S315080022503146FFF7A5FF013714F8012F002AF6D1FA
S31508002260B8F1000F08DD4446284631464A46FFF7CE
S3150800227097FF013CF8D147443846BDE8F08700BFD0
S315080022802DE9F04687B0824689460F9E14466AB9FC
S3150800229030238DF80C3000238DF80D3010990091FD
S315080022A0494603AA3346FFF793FF45E00E9931B135
S315080022B00A2B06D1002A06DA5442012004E000203F
S315080022C002E0002000E0002000228DF817209CB1D3
S315080022D00DF1160211993A39B4FBF3F503FB1545CE
S315080022E0092DC8BF6D181746303502F80159B4FBD9
S315080022F0F3F4002CF0D101E00DF1170790B15EB1AF
S31508002300109B13F0020F07D0504649462D22FFF7BF
S3150800231047FF013E012406E02D2307F8013C013F53
S31508002320002400E0002410990091504649463A4698
S315080023303346FFF74DFF204407B0BDE8F08600BFDF
S315080023402DE9F04F87B080460F4615469946137813
S31508002350002B00F0CE800026B246DFF8A8B1252B68
S3150800236040F0BA806C1C6B78002B00F0C380252BDC
S3150800237000F0B1802D2B06BFAC1C012050462378F7
S31508002380302B07D1631C1C4640F00200013322782B
S31508002390302AF8D02278A2F13003DBB2092B0FD805
S315080023A0611C534603EB8303303A02EB43030C46A6
S315080023B011F8012BA2F13005EDB2092DF2D900E092
S315080023C05346732A0ED109F10405D9F80020009066
S315080023D040463946002A08BF5A46FFF7F9FE064422
S315080023E0A94680E0642A11D109F10405D9F800202C
S315080023F001210091019302906123039340463946D7
S315080024000A23FFF73DFF0644A9466CE06C2A11D162
S3150800241009F10405D9F800200121009101930290E1
S3150800242061230393404639460A23FFF729FF0644EA
S31508002430A94658E0782A11D109F10405D9F80020EF
S31508002440CDF800A0019302906123039340463946D4
S315080024501023FFF715FF0644A94644E0582A01D081
S31508002460702A11D109F10405D9F80020CDF800A089
S315080024700193029041230393404639461023FFF700
S31508002480FFFE0644A9462EE0752A11D109F1040576
S31508002490D9F80020CDF800A0019302906123039398
S315080024A0404639460A23FFF7EBFE0644A9461AE0DA
S315080024B0632A18D109F10405D9F800208DF81420EB
S315080024C08DF815A000904046394605AAFFF780FE0C
S315080024D00644A94607E02546404639462A78FFF7C6
S315080024E05FFE01362C46651C6378002B7FF437AFF8
S315080024F000E0002617B13B6800221A70304607B084
S31508002500BDE8F08F54FD0008000000000000000040
S315080025100EB400B582B002A941F8040D03AB002041
S3150800252053F8042BFFF70CFF02B05DF804EB03B079
S31508002530704700BF00000000000000000000000017
S315080025400FB408B5074B186830B102AB002153F831
S31508002550042BFFF7F5FE00E00020BDE8084004B0B4
S31508002560704700BF4C570020000000000000000024
S315080025700FB408B508F0D4FF40B102AB064A10689C
S31508002580002153F8042BFFF7DBFE00E00020BDE82E
S31508002590084004B0704700BF4857002000000000FC
S315080025A030B4054640B13AB10244034611F8014B2E
S315080025B003F8014B9342F9D1284630BC704700BF57
S315080025C030B40546E0B1884201D88AB918E08818BF
S315080025D08542FAD2AC18531E92B10146224611F82A
S315080025E0014D02F8014D013BB3F1FF3FF7D107E07A
S315080025F00A442B4611F8014B03F8014B9142F9D1D5
S31508002600284630BC704700BF0000000000000000EC
S3150800261010B4044630B12AB10346024403F8011B3C
S315080026209342FBD120465DF8044B7047000000003A
S3150800263070B49AB105780C78A54208D005E013F86D
S31508002640015F11F8014FA54204D0281B07E0034695
S31508002650561E30448342F2D1002000E0002070BCB0
S31508002660704700BF000000000000000000000000E6
S3150800267070B41546CAB1012A13D003788BB10A780B
S315080026809A420ED14B1C441C01394A192046194658
S31508002690934206D014F8015B1DB101330E78AE42A1
S315080026A0F4D000780B78C01A00E0002070BC7047A0
S315080026B000291BDBB0F910308B4219DD0B460029C7
S315080026C0B8BF01F11F0358110A4B194003D5013948
S315080026D061F01F01013109B2012303FA01F152F831
S315080026E0203019420CBF0020012070470020704797
S315080026F0002070471F000080000000000000000056
S3150800270010B4002929DBB0F91000884225DD1448E9
S31508002710084003D5013860F01F00013080B20C462E
S315080027200029B8BF01F11F04C4F34F1453B124B2F2
S3150800273000B2012303FA00F052F82430034342F8AA
S3150800274024300AE024B200B2012303FA00F052F85A
S31508002750243023EA000342F824305DF8044B70471E
S315080027601F000080000000000000000000000000BC
S315080027702DE9F04F85B007460391038A1AB2002A5D
S315080027803DDD0668002202920FFA83FB029A13B215
S31508002790002BB8BF1F335B1156F82330B3F1FF3F48
S315080027A024D0029B1FFA83F8DDF80C90C14408F187
S315080027B020039BB201931FFA89F91FFA89F52BB2F8
S315080027C05B4524DA1FFA88FA0FFA8AF29A421BDA6C
S315080027D054461D46384621B23246FFF769FFB0B95E
S315080027E00134A4B223B29D42F4DC0DE0029A02F150
S315080027F020039BB202931BB29B45C7DC02E04FF64F
S31508002800FF7A01E04FF6FF7A0FFA8AF00BE009F13A
S3150800281001091FFA89F908F101081FFA88F8019BCE
S315080028204345CAD1E2E705B0BDE8F08F00000000D5
S315080028302DE9F04106460F1E18DBB0F810800FFA96
S3150800284088F39F4214DABDB20024984607FA84F347
S3150800285043450EDA0134A4B2304629B27268FFF74E
S3150800286027FF0135ADB20028F0D002E0002400E0D1
S31508002870002420B2BDE8F08100000000000000003E
S315080028800B4681B1C168591AC1F30F1111F4004FF3
S315080028900CD1B0F910000AB24FF6FF739042CCBFC4
S315080028A00846184604E04FF6FF7001E04FF6FF7041
S315080028B000B27047000000000000000000000000A1
S315080028C02DE9F04F83B005469346002901912CDB8C
S315080028D0B0F910308B422ADD002A1EDD8CB204EBDB
S315080028E002091FFA89F9002602F1FF38B2460127C4
S315080028F04645284621B26A680CBF3B465346FFF751
S31508002900FFFE284621B22A683B46FFF7F9FE013644
S315080029100134A4B24C45EBD10BE0EC68019A04EB08
S3150800292002145846FFF70CFA0BE0002409E00024CD
S3150800293007E0B5F91030019A9342D8BF0024F0DDBC
S31508002940EBE7204603B0BDE8F08F00BF00000000AB
S315080029502DE9F04704469246B1F1000821DBB0F9AB
S315080029601030434520DD9146002A14DD00252F4608
S3150800297005EB080636B22046314622683B46FFF785
S31508002980BFFE2046314662683B46FFF7B9FE013571
S31508002990ADB24D45ECDB5046FFF7DAF90120BDE84C
S315080029A0F0870020BDE8F0870020BDE8F08700BF6B
S315080029B070B504460E46144D286800211422FFF708
S315080029C027FE321B500A2B68A2EBC002C2F30F1275
S315080029D01A8212B2002AB8BF1F32521192001A8107
S315080029E01C60094D2B68820014445C601444DC604A
S315080029F0186800211A89FFF70BFE2B685868002112
S31508002A001A89FFF705FE70BD280C0020000000009B
S31508002A10F8B50446F8B110F00F0318BF012303EB0D
S31508002A2010139DB208F074FD07460C4B1E6830461D
S31508002A3029B2FFF79DFE011E05DB30462AB2FFF7D5
S31508002A403FFF044603E02046FDF702FD0024384612
S31508002A5008F06EFD00E000242046F8BD280C002092
S31508002A60F8B5054608F054FD06460C4B1C6820468A
S31508002A702946FFF705FF074648B120463946FFF7BE
S31508002A80D7FE024620463946FFF762FF02E028468F
S31508002A90FFF766F9304608F04BFDF8BD280C002014
S31508002AA02DE9F04F87B00F460546002800F09380C1
S31508002AB0002900F08C8008F02BFD80465A4B1C68D4
S31508002AC020462946FFF7DCFE061E77DB17F00F03C4
S31508002AD018BF012303EB17139BB201931FFA83FB5D
S31508002AE020463146FFF7A4FE82460FFA8BF383424F
S31508002AF053DDB4F91030B34240F383801FFA80F9EE
S31508002B00019AC9EB02039BB21AB2002A68DD226851
S31508002B100292B1441FFA89F94B449BB20393CDF84C
S31508002B2010B0059092469B4620460FFA89F1524608
S31508002B30FFF7BEFD002860D109F101091FFA89F9DE
S31508002B40D945F1D14CE09B45204631B262680CBFAD
S31508002B504B460023FFF7D4FD204631B222684B4688
S31508002B60FFF7CEFD0137BFB23BB20136B6B25345C9
S31508002B70E9DB28E020460FFA8BF2FFF7A1FE0446B0
S31508002B8029464FEA0A12FFF71BFD25461BE0284691
S31508002B903946FFF7EDF8002515E00FFA8BF3834267
S31508002BA011DA204631465246FFF7D2FE1E4B186808
S31508002BB031460FFA8BF2FFF783FE04E028463946C2
S31508002BC0FFF7D6F80025404608F0B2FC28E0FFF7E4
S31508002BD047FF002524E00846FFF71AFF05461FE0D1
S31508002BE0DDF804A05346002BEDD0B6B200273B46CD
S31508002BF00AF1FF3B4FF00109A5E7DDF810B0DDF853
S31508002C0014A0204631465246FFF7A2FE064B1C6822
S31508002C1020460FFA8BF1FFF7ABFD011EAADAB6E7DD
S31508002C20284607B0BDE8F08F280C002000000000F9
S31508002C3070B582B01F4B1B6813B11F4A10689847BE
S31508002C401E4C1F4E1F4D204601A907F019F9019B7E
S31508002C501A78032A26D8DFE802F0020719219868AD
S31508002C60026804309047EEE7D96891F8292012F0F7
S31508002C70600F03D0986808F043F802E0986800F0FF
S31508002C80D7F80820019903F0A3FDDCE79A68D8680D
S31508002C9090470720019903F09BFDD4E79A68D86806
S31508002CA09047D0E7304629469222074BFFF760FC4B
S31508002CB0C9E700BF6C5700206857002064570020FA
S31508002CC050FC000880FD0008A0FD00080000000078
S31508002CD070B505460C460F4808F0BAFBA0B10820A7
S31508002CE003F03EFD064688B1012303708560C46083
S31508002CF00848314608F07CFB034640B108203146B7
S31508002D0003F066FDFF2302E0FA2300E0FF231846DE
S31508002D1070BD00BF645700200000000000000000DE
S31508002D20F8B506460D461446124808F091FBD8B188
S31508002D30072003F015FD0746C0B10223037086601D
S31508002D40C5602CB10B48394608F04AFB00230EE053
S31508002D500848394608F04CFB034640B10720394677
S31508002D6003F036FDFF2302E0FA2300E0FF231846AE
S31508002D70F8BD00BF645700200000000000000000F6
S31508002D8030B583B005460C4603F05AFA0C4B1D6065
S31508002D900C4B1C600C48402108F012FB30B10B4864
S31508002DA00B494FF4E7720B4BFFF7E2FB0022009248
S31508002DB009480A494FF4806308F0A2FA03B030BD07
S31508002DC06C570020685700206457002050FC000804
S31508002DD02CFE0008A0FD000850FE0008312C000853
S31508002DE008B5104B1B686BB193F8292012F0010F38
S31508002DF005D05968026851409A6811420ED01B687E
S31508002E00002BF1D1084B1B6823B193F8292012F047
S31508002E10010F05D102F034F9002008BD184608BD97
S31508002E20184608BD202D0120242D01200000000091
S31508002E302DE9F84F05460F4602F0E2F8D5F804806A
S31508002E4098F800301A09042A05D0284603F078FEB7
S31508002E5002F0DEF8BDE003F00F039C00B8F80200AC
S31508002E6003F0CEF906466B89A34202D32B89834227
S31508002E7005D2284603F064FE02F0E2F8A9E04046CF
S31508002E8021460AF02DFB28B1284603F059FE02F028
S31508002E90BFF89EE02846314603F0AAFFD8F810206E
S31508002EA04D4B1A60D8F80C204C4B1A603C4601264C
S31508002EB0DFF824B1DFF830A14FF0000994F8293083
S31508002EC013F0010F0CD014F1040F09D063683BB15D
S31508002ED0DBF8000083420ED021460AF031FB50B9D8
S31508002EE016B1DAF8004000E02468BC4208BF3C6826
S31508002EF00CB14E46E2E7394B186839460AF020FB12
S31508002F0028B9364B1B6803F0F003E02B07D1284697
S31508002F1003F016FE02F084F802F092F859E03CB984
S31508002F2002F07EF802F08CF8284603F009FE50E01D
S31508002F30B8F8063023F0C0039BB23BB1284600F030
S31508002F402FFA0546002844D0D0F80480244B1F6089
S31508002F50244BC3F8008098F80930062B0BD0112BA8
S31508002F6002D0012B15D10DE002F072F82846394639
S31508002F7006F0C6FF24E002F06BF82846394605F04D
S31508002F80E7FC1DE002F064F8284639460AF098F88E
S31508002F9016E0114B186839460AF0D2FA58B90E4BA2
S31508002FA01B6803F0F003E02B05D0C5F8048028461B
S31508002FB002210AF05DF9284603F0C2FD02F038F84E
S31508002FC00023074A1360074A1360044A1360024A3B
S31508002FD013600020BDE8F88F7C5700207857002042
S31508002FE08057002070570020202D01200000000087
S31508002FF02DE9F04F87B00446884616469A469DF84E
S3150800300040909DF844B0129FC389012B06D04248D0
S3150800301042494FF42772424BFFF7AAFA02F020F80A
S31508003020002E61D02046142103F02AFD18B102F0C3
S315080030301FF8FE206DE065686389132B06D83648AD
S31508003040384940F2CA22364BFFF792FA85F808A0AB
S3150800305085F809B04AEA0B2BCDF804B033682B6122
S315080030609AB202924FEA134B45232B7085F80190CA
S315080030704FEA092949EA0309CDF80C90208903F09B
S31508003080B7F8824668800023AB71EB71DFF8989039
S31508003090B9F8000003F0ACF8A880B9F8003001339D
S315080030A0A9F80030B8F1000F02D0D8F8003013B9EB
S315080030B07B68EB6000E0EB60EB68029A93441BFACE
S315080030C083FB0BEB1343039A1344019A13449A4464
S315080030D082441FFA8AF303EB1A4A0AEB1A4A6FEA82
S315080030E00A0AA5F80AA004E063681B6906AE46F852
S315080030F0043D3B8C43B122899A4205D9204639467C
S31508003100324600F025FB04E07B6938462146324604
S31508003110984707B0BDE8F08F50FC000860FE00082D
S315080031206CFE0008F8FE0008745700200000000036
S31508003130F0B585B005460F4614461E46C289012AD3
S3150800314006D00E480E4940F239320E4BFFF710FAF8
S315080031502046FFF745FE68B19DF8282000929DF8A5
S315080031602C20019202902846394622463346FFF71C
S315080031703FFF00E0FC2005B0F0BD00BF50FC000892
S3150800318060FE00086CFE0008000000000000000059
S3150800319038B504460D460B4B1B68834203D11A68A3
S315080031A0084B1A6009E031B90748084940F2391254
S315080031B0074BFFF7DDF923682B600420214603F04F
S315080031C007FB38BD8457002050FC000830FF000874
S315080031D04CFF00080000000000000000000000008E
S315080031E02DE9F84F80468946814205D13648374948
S315080031F0A522374BFFF7BCF9B9F1000F09D0D9F86A
S315080032000030434505D030483249A722304BFFF7F6
S31508003210AFF901F045FFD8F8044063689A88EAB91F
S315080032201B68C8F80430606808F108011422FFF723
S31508003230B7F9204601210AF023F8204603F040FE9C
S315080032400546B0F5803F05DB1F482349B622204BCB
S31508003250FFF78EF9204603F073FC00E00025D8F846
S315080032600440DCB1DFF860B0DFF86CA063681F6863
S31508003270204603F025FE06462B18B3F5803F05DBEE
S3150800328058465146C622124BFFF772F93544ADB27D
S31508003290204603F055FC0FB13C46E7E74046494651
S315080032A0FFF776FF0D4B1B88AB4205D206480C4943
S315080032B0CC22074BFFF75CF9084B1A88521B1A8079
S315080032C02846BDE8F88F00BF50FC0008E0FF00085C
S315080032D04CFF0008ECFF0008000001088857002092
S315080032E020000108000000000000000000000000A7
S315080032F02DE9F84F054689460026DFF86480B24670
S315080033003746D8F8003043B3D5F80CC0544639468A
S3150800331038465A69624509D1D5F810B09A695A45AE
S3150800332004D1B3F80CB0AA88934509D0013430B15A
S3150800333093F81FB0C27F934598BF184600E0184619
S315080033401A6812B119461346E3E710B1FFF748FFAA
S3150800335006444E4501DA012CD3DC3046BDE8F88F29
S315080033608457002000000000000000000000000054
S3150800337038B5094B186870B10024C37F23B1013BE7
S31508003380C3770446006804E005682146FFF728FF6E
S3150800339028460028F1D138BD8457002000000000D7
S315080033A02DE9F04F83B0074601F072FE7E68337848
S315080033B003F00F03052B40F05881F08802F020FF38
S315080033C08146708802F01CFF824696F800B038469F
S315080033D003F076FD8046AD4B1B880344042B0CDDB9
S315080033E030464146FFF784FF002800F03E81A74B90
S315080033F01B884344042B00F33881A54B1C68A4B1F1
S31508003400F26800256369934207D13169A3698B4243
S3150800341003D1A189B388994204D023682BB12546E4
S315080034201C46EFE70194B4B92C46042003F098F93A
S315080034300190002840F05B8130464146FFF758FF6F
S31508003440804500F31281042003F08AF901900028D0
S3150800345040F04D8109E1F08802F0D2FEC0F30C007D
S3150800346068B90199C88902F0CBFEC0F30C0030B1E7
S31508003470019A02F1080031461422FFF791F8834BAE
S315080034801A889044A3F80080F38803F020039BB2BF
S315080034906BB9A37F43F00103A3770BF00F0BCBEBBC
S315080034A08B3B0AEB8B0A0AEBC909A4F81C907E68C9
S315080034B0708802F0A5FE337803F00F03C3EB83335D
S315080034C000EB83001FFA80F8F08802F099FEC0F33B
S315080034D00C00C100D7F80490002389F8003089F859
S315080034E0013089F8023089F80330A9F8041008EB8E
S315080034F0010C1FFA8CFCA9F806C06368002B45D09E
S315080035005E68B2889142C0F0B58000F08A80F38880
S315080035108B4200F286804FF001081EE043689A88C5
S3150800352091420ED2C9F80000002E00F0F580B6F8D8
S3150800353006A08A4575D89B88634572D3376040BB19
S3150800354011E091426DD0D88888426AD826B1F088B1
S31508003550904218BF4FF000081E4630680028DDD19B
S31508003560002E00F0DB80F288B9F804309A4206D9BA
S315080035704848494940F29312484BFEF7F9FF37602D
S31508003580F288B9F804309A427DD102E04FF001087A
S315080035906760A37F13F0010F75D0B8F1000F72D0E2
S315080035A0606843689B88002B6DD1D9F80030002BE2
S315080035B065D05E68B9F80620B3889A4206D062E0FC
S315080035C05B68F1889A8891425DD11E463368002B64
S315080035D0F6D155E02F4832494FF4DE722F4BFEF7ED
S315080035E0C7FF63685B68B34206D12A482C494FF483
S315080035F0DF722A4BFEF7BCFF336833B125482949E9
S315080036004FF4E072254BFEF7B3FFF288A38B9A427C
S315080036104CD0204824494FF4E172204BFEF7A8FF0E
S3150800362044E01A4C2588384603F04AFC281A2080BC
S31508003630384603F085FA26E077683046494603F0AF
S315080036401FFA4046314603F05BFC3E68002EF3D174
S3150800365020462946FFF79CFD0C4C2588404603F07A
S315080036602FFC281A2080404660E0384603F068FAA6
S3150800367000205BE0C9F800304FF001084CE04E46E8
S315080036800028AED1A6E7002050E000BF88570020EA
S315080036908457002050FC00083C0001084CFF000835
S315080036A05C0001086C00010890000108A38B143324
S315080036B0A38363685F683E68384604F108011422EC
S315080036C0FEF76EFFA08B02F093FD78800023BB7196
S315080036D0FB71BB72FB723846142109F001FF788131
S315080036E0D4F80480002EB3D06FF01309A4E701982C
S315080036F000212022FEF78CFF03230199CB770D4B7F
S315080037001A680A60196001F1080031461422FEF7AA
S3150800371047FF2546019CB2E667603AE7064807492F
S315080037204FF4CE72064BFEF723FF31E703B0BDE830
S31508003730F08F00BF8457002050FC0008C000010825
S315080037404CFF000800000000000000000000000018
S315080037502DE9F04F8BB00290894606920E8C022016
S315080037600021024603F04CFA8246002800F08180C8
S3150800377046810681514D25F0030545602846029A83
S3150800378051681422FEF70CFFE88802F039FDC0F3F1
S315080037900C0800F4005080B20790029B1C89143C68
S315080037A0A4B2143E03963346002EB8BFF31DC3F3E6
S315080037B0CF030593002C55D0DB009BB2049314333A
S315080037C09BB209931427EA1908924FF0000BCDF81B
S315080037D004A0C8F30C06079B1E43039AA2424ADAC2
S315080037E002980899049A3B4603F06AFC384487B263
S315080037F046F4005002F0FCFCE880099802F0F8FC58
S315080038006880A5F80AB02846142109F069FE68817F
S31508003810DDF810A0022059465A4603F0F1F906468B
S31508003820C8B1019903F0ACFBD9F8143048463146C3
S31508003830069A984701F044FC304603F081F9CAEB32
S315080038400404A4B2059B98441FFA88F8002CC0D13A
S31508003850DDF804A006E0DDF804A0504603F070F990
S31508003860FF2028E0504603F06BF901F021FC002008
S3150800387021E0FF201FE00298089922463B4603F004
S315080038801FFC384487B2304602F0B2FCE88004F1E7
S315080038901406B6B2304602F0ABFC6880A5F80AB04A
S315080038A02846142109F01CFE68810198314603F068
S315080038B09FFAA246AEE70BB0BDE8F08F8F570020FF
S315080038C04AB1013A92B20132024411F8013B00F8BA
S315080038D0013B9042F9D1704700000000000000004B
S315080038E000231370704700BF0000000000000000AE
S315080038F0704700BF00000000000000000000000044
S3150800390000207047000000000000000000000000D2
S31508003910704700BF00000000000000000000000023
S3150800392001280AD10223937104399160012111708B
S315080039305170937004239380704700231370704767
S3150800394083681B68012B02D1014B9B8B1360704760
S31508003950DC0C002000000000000000000000000051
S31508003960012829D106239371A1F11403936051F814
S31508003970143C022B0BD0032B12D0012B19D1022396
S3150800398013700321517093700423938070470223A8
S315080039901370032353700423937006239380704790
S315080039A002231370032353704023937004239380D8
S315080039B0704700231370704700231370704700BFC9
S315080039C0012810D151F8043C013B192B0BD80223CE
S315080039D093710439916001231370537041239370D6
S315080039E0042393807047002313707047000000007B
S315080039F0012810D151F8043C013B042B0BD80223B3
S31508003A0093710439916001231370537041239370A5
S31508003A10042393807047002313707047000000004A
S31508003A2001281FD106239371A1F11403936051F85D
S31508003A30143C012B02D0022B09D010E0022313708C
S31508003A400123537040239370042393807047022305
S31508003A5013700121517093700423938070470023DB
S31508003A601370704700231370704700BF00000000F2
S31508003A7038B50446154683681B68FF2B06D90848DF
S31508003A80084941F22702084BFEF772FDA3681B7826
S31508003A901E2B03D12A78054B1B681A7038BD00BF48
S31508003AA050FC0008B0020108BC020108A80D00205D
S31508003AB038B50446154683681B68FF2B06D90F4898
S31508003AC00F4941F206020F4BFEF752FDA3681B7819
S31508003AD01E2B11D10C4B1A680C4B9A4206D028683B
S31508003AE0013801288CBF0020012038BD286802282B
S31508003AF014BF0020012038BD002038BD50FC000846
S31508003B00B0020108BC020108A80D002050050108F2
S31508003B1038B50446154683681B68FF2B06D94748FF
S31508003B20474940F69D72474BFEF722FDA3681B786E
S31508003B30013B1D2B00F28180DFE803F00F13171BF2
S31508003B401F237F272B2F33373B3F43474B4F535773
S31508003B505B5F7F63676B6F73777B3B4B1B682B6081
S31508003B6038BD3A4B1B682B6038BD394B1B682B6038
S31508003B7038BD384B1B682B6038BD374B1B682B602C
S31508003B8038BD364B1B682B6038BD354B1B682B6020
S31508003B9038BD344B1B682B6038BD334B1B682B6014
S31508003BA038BD324B1B682B6038BD314B1B682B6008
S31508003BB038BD304B1B682B6038BD2F4B1B682B60FC
S31508003BC038BD2E4B1B682B6038BD2D4B1B682B60F0
S31508003BD038BD2C4B1B682B6038BD2B4B1B682B60E4
S31508003BE038BD2A4B1B682B6038BD294B1B682B60D8
S31508003BF038BD284B1B682B6038BD274B1B682B60CC
S31508003C0038BD264B1B682B6038BD254B1B682B60BF
S31508003C1038BD244B1B682B6038BD234B1B682B60B3
S31508003C2038BD224B1B682B6038BD214B1B682B60A7
S31508003C3038BD204B1B681B782B6038BD50FC00082C
S31508003C40B0020108BC020108AC5D0020845E0020B9
S31508003C50705E00208C5D0020845D0020745E00206C
S31508003C60305E0020B45E00204C5E00201C5E002002
S31508003C70F05D0020505E0020585E0020DC5D0020CC
S31508003C806C5D0020905E0020D85D0020785D0020E5
S31508003C90C05D0020945D0020745D0020B85E0020A1
S31508003CA0E45D0020885E0020945E0020085E002007
S31508003CB0E05D0020A80D00200000000000000000C4
S31508003CC038B50D461446012838D1022393710B1FC7
S31508003CD0936051F8043CFF2B06D91A481A4940F656
S31508003CE05F721A4BFEF744FC15F8043C013B1D2B8A
S31508003CF021D8DFE803F00F0F0F0F0F0F200F0F0F5C
S31508003D000F0F0F0F0F0F0F0F0F0F0F0F200F0F0FA4
S31508003D100F0F0F170123237063704123A370042329
S31508003D20A38038BD01232370032363700223A37085
S31508003D300423A38038BD0023237038BD00231370E5
S31508003D4038BD00BF50FC0008B0020108BC020108DB
S31508003D5038B50446154683681B68FF2B06D91048F4
S31508003D60104940F6ED62104BFEF702FCA3681B787B
S31508003D70013B032B12D8DFE803F002060A0E0B4BB1
S31508003D801B682B6038BD0A4B1B682B6038BD094B76
S31508003D901B682B6038BD084B1B682B6038BD00BFFD
S31508003DA050FC0008B0020108BC020108545E00205D
S31508003DB0045E0020805E0020FC5D002000000000FC
S31508003DC038B50446154683681B68FF2B06D92D4867
S31508003DD02D4940F646622D4BFEF7CAFBA3681B78B1
S31508003DE0013B0E2B4CD8DFE803F0080B0F13161A0D
S31508003DF01E2226383C404B44480004232B6038BD1D
S31508003E004FF47A732B6038BD4EF660232B6038BDAD
S31508003E1010232B6038BD1E4B1B682B6038BD1D4B0D
S31508003E201B682B6038BD1C4B1B682B6038BD1B4BB1
S31508003E301B682B6038BD1A4B1B685BB100211A7EC4
S31508003E40042A01D0072A01D1013189B2DB68002B87
S31508003E50F5D100E00021296038BD124B1B682B60A4
S31508003E6038BD114B1B682B6038BD104B1B682B6087
S31508003E7038BD0F4B1B682B6038BD0E4B1B682B607B
S31508003E8038BD00BF50FC0008B0020108BC0201089A
S31508003E90985D0020C45D0020145E0020A85D002007
S31508003EA03C2D0120285E0020785E0020485E002018
S31508003EB0CC5D0020385E00200000000000000000F5
S31508003EC038B50D461446012839D1022393710B1FC4
S31508003ED0936051F8043CFF2B06D91A481A4940F654
S31508003EE00E621A4BFEF744FB15F8043C013B0E2BF9
S31508003EF022D8DFE803F00808080810101010181078
S31508003F001010211010000123237063700223A37080
S31508003F100423A38038BD0123237063704123A37053
S31508003F200423A38038BD0223237001236370422330
S31508003F30A3700423A38038BD0023237038BD002353
S31508003F40137038BD50FC0008B0020108BC02010815
S31508003F5038B50446154683681B68FF2B06D94148C1
S31508003F60414940F6AA52414BFEF702FBA3681B786B
S31508003F70013B192B75D8DFE803F00D1115191D2122
S31508003F8025292D3135393D4145494D5155595D61F3
S31508003F9065696D71364B1B682B6038BD354B1B68E0
S31508003FA02B6038BD344B1B682B6038BD334B1B6800
S31508003FB02B6038BD324B1B682B6038BD314B1B68F4
S31508003FC02B6038BD304B1B682B6038BD2F4B1B68E8
S31508003FD02B6038BD2E4B1B682B6038BD2D4B1B68DC
S31508003FE02B6038BD2C4B1B682B6038BD2B4B1B68D0
S31508003FF02B6038BD2A4B1B682B6038BD294B1B68C4
S315080040002B6038BD284B1B682B6038BD274B1B68B7
S315080040102B6038BD264B1B682B6038BD254B1B68AB
S315080040202B6038BD244B1B682B6038BD234B1B689F
S315080040302B6038BD224B1B682B6038BD214B1B6893
S315080040402B6038BD204B1B682B6038BD1F4B1B6887
S315080040502B6038BD1E4B1B682B6038BD1D4B1B687B
S315080040602B6038BD50FC0008B0020108BC020108EC
S31508004070A05D0020205E00207C5D0020645E00209C
S31508004080985E0020885D0020B45D00205C5E0020FC
S31508004090C85D0020905D0020F85D00209C5E002031
S315080040A0345E0020245E0020AC5E00203C5E0020CA
S315080040B0E85D0020B05D0020005E0020BC5D0020A9
S315080040C0A85E0020445E00200C5E0020EC5D002007
S315080040D0B85D0020185E0020000000000000000007
S315080040E038B50446154683681B68FF2B06D90E4863
S315080040F00E4940F6B5320E4BFEF73AFAA3681B781E
S31508004100012B02D0022B06D00BE02868022814BF28
S315080041100020012038BD2868FF2814BF0020012090
S3150800412038BD002038BD00BF50FC0008B0020108A9
S31508004130BC020108000000000000000000000000AA
S3150800414038B50446154683681B68FF2B06D93348DD
S31508004150334940F61932334BFEF70AFAA3681B783F
S31508004160013B162B59D8DFE803F00C0F12161A1E5E
S3150800417022262A2E32363A3D4145494D515858583D
S31508004180550002232B6038BDFF232B6038BD264B14
S315080041901B682B6038BD254B1B682B6038BD244B2C
S315080041A01B682B6038BD234B1B682B6038BD224B20
S315080041B01B682B6038BD214B1B682B6038BD204B14
S315080041C01B682B6038BD1F4B1B682B6038BD1E4B08
S315080041D01B682B6038BD1D4B1B682B6038BD03233D
S315080041E02B6038BD1A4B1B682B6038BD194B1B68F2
S315080041F02B6038BD184B1B682B6038BD174B1B68E6
S315080042002B6038BD164B1B682B6038BD154B1B68D9
S315080042102B6038BD144B1B682B6038BD50FC00085A
S31508004220B0020108BC020108105E00209C5D002057
S31508004230805D0020A05E0020D45D00206C5E00201A
S31508004240A45E00208C5E00202C5E0020B05E00205C
S31508004250F45D0020A45D0020605E0020705D0020F3
S31508004260D05D00207C5E0020685E00200000000013
S3150800427038B50D46144601283DD1022393710B1F0C
S31508004280936051F8043CFF2B06D91C481C4940F69C
S31508004290DE221C4BFEF76CF915F8043C013B162B85
S315080042A026D8DFE803F00C0C151515151515151588
S315080042B015151D1515151515152525251500012383
S315080042C02370032363700223A3700423A38038BDDD
S315080042D00123237063704123A3700423A38038BD90
S315080042E00123237063700223A3700423A38038BDBF
S315080042F00023237038BD0023137038BD50FC000816
S31508004300B0020108BC02010800000000000000001D
S3150800431070B505460C461646FF2906D91B481C49A2
S3150800432040F6E4021B4BFEF723F9AB681B68FF2B2C
S3150800433006D91648184940F6E502164BFEF718F94D
S31508004340AB681B78052B0DD0062B15D0042B1CD17A
S31508004350124B186831462246FFF7B2FA104B1B6813
S315080043601C7070BD0F4B186831462246FFF7A8FA35
S315080043700D4B1B681C7070BD0C4B186831462246E5
S31508004380FFF79EFA0A4B1B681C7070BD50FC0008AC
S315080043904C030108BC020108B00201081C0E0020EB
S315080043A0A80C0020B40D0020A00C0020300F00201F
S315080043B0AC0D002000000000000000000000000016
S315080043C038B504460D4683681B68FF2B06D91A487C
S315080043D01A4940F6C2021A4BFEF7CAF8A3681B78B8
S315080043E0052B0DD0062B15D0042B1DD1154B1A689D
S315080043F0154B9A421AD0FF2D8CBF0020012038BDDC
S31508004400124B1A68124B9A4212D0FF2D8CBF00200D
S31508004410012038BD0F4B1A680F4B9A420AD0FF2D60
S315080044208CBF0020012038BD002038BD002038BDD3
S31508004430002038BD002038BD50FC0008B002010835
S31508004440BC0201081C0E0020F0060108B40D00206D
S3150800445030020108300F0020700201080000000039
S3150800446038B50D461446012861D1022393710B1FF6
S31508004470936051F8043CFF2B06D92E482E4940F686
S3150800448051022E4BFEF774F815F8043C013B062B37
S315080044904AD8DFE803F0040E18202B364100012322
S315080044A0237063700423A370254B1B681B78A380B5
S315080044B038BD0123237063700623A370214B1B7834
S315080044C09B00A38038BD0123237063704323A37028
S315080044D00423A38038BD01232370032363700423B8
S315080044E0A370194B1B681B78A38038BD0123237062
S315080044F0032363700423A370144B1B681B78A380E3
S3150800450038BD01232370032363700423A370104B63
S315080045101B681B78A38038BD0123237063700223B0
S31508004520A3700423A38038BD0023237038BD00235D
S31508004530137038BD50FC0008B0020108BC0201081F
S31508004540440E0020FC0C0020A80C0020A00C002023
S31508004550AC0D002000000000000000000000000074
S3150800456038B50D461446012835D106239371A1F1B5
S315080045701403936051F8143CFF2B06D917481849C1
S3150800458040F62F52174BFDF7F3FF15F8143C013B85
S31508004590032B1DD8DFE803F0020A13020223237057
S315080045A003226270A3700423A38038BD02232370FC
S315080045B0032363700423A3700623A38038BD022354
S315080045C02370032363704023A3700423A38038BD9C
S315080045D00023237038BD0023137038BD50FC000833
S315080045E0B0020108BC02010800000000000000003B
S315080045F038B50D46144601282DD105239371A1F12E
S315080046001003936051F8103CFF2B06D91348144940
S3150800461040F6DD32134BFDF7ABFF15F8103C013BB6
S31508004620042B15D8DFE803F0030C030C0C00022357
S315080046302370012363704023A3700423A38038BD2D
S315080046400223237001226270A3700423A38038BD5D
S315080046500023237038BD0023137038BD50FC0008B2
S31508004660B0020108BC0201080000000000000000BA
S3150800467038B50D461446012842D105239371A1F198
S315080046801003936051F8103CFF2B06D91E481F49AA
S3150800469040F657421E4BFDF76BFF15F8103C013BE1
S315080046A00C2B2AD8DFE803F007101010101007109B
S315080046B01810071020000223237003236370402379
S315080046C0A3700423A38038BD0223237003226270DB
S315080046D0A3700423A38038BD0223237001226270CD
S315080046E0A3700423A38038BD0223237001236370BB
S315080046F00623A3700823A38038BD0023237038BD82
S315080047000023137038BD00BF50FC0008B002010832
S31508004710BC020108000000000000000000000000C4
S3150800472030B583B00D46144601286ED10223937125
S315080047300B1F936051F8043CFF2B06D935483649C0
S3150800474040F63D12354BFDF713FF15F8043C013BC7
S31508004750152B57D8DFE803F00B130B0B1B24330B71
S315080047603B44444444444444444444441B4D022387
S31508004770237001226270A3700423A38047E00223FA
S315080047802370012262700422A270A3803FE00223F4
S315080047902370012363704223A3700423A38036E0A9
S315080047A0286801A901F02CF80223237001236370FD
S315080047B00423A370019B93F82230A38027E00223E9
S315080047C0237003226270A3700423A3801FE00223D0
S315080047D02370012363704323A3700423A38016E088
S315080047E002232370012363704123A3700423A3804B
S315080047F00DE002232370012363700623A3700823A8
S31508004800A38004E00023237001E00023137003B0A3
S3150800481030BD00BF50FC0008B0020108BC02010808
S31508004820F0B583B0064617461F4B1C6880680430EF
S3150800483001A901F015F8002C33D001996368994253
S3150800484029D0002524680135ADB254B363688B427C
S31508004850F8D121E0154816494FF44162154BFDF78A
S3150800486087FEB3681B78013B042B1AD8DFE803F0F0
S315080048700306090C0F0063683B6012E001353D60D2
S315080048800FE0A3683B600CE001233B6009E040F6BB
S31508004890A8333B6005E00025B3681B68FF2BE0D909
S315080048A0D8E703B0F0BD00BF202D012050FC00085A
S315080048B0B0020108BC020108000000000000000068
S315080048C0F0B583B0064617468068043001A900F0A3
S315080048D0C7FFB3685B69B3F5803F06D31748184925
S315080048E040F63172174BFDF743FEB068858A164BC2
S315080048F01C6804B3019901E0E468E4B123688B42BB
S31508004900FAD1638AAB42F7D1ACB10368FF2B06D95B
S315080049100A480E4940F63E720A4BFDF729FEB3686F
S315080049201B78012B02D0022B03D004E023683B60DE
S3150800493001E0638A3B6003B0F0BD00BF50FC00088D
S3150800494058030108BC020108882D0120B00201089D
S3150800495030B585B00446154683685868694600F040
S315080049604FFFA068083001A900F07AFF009801A956
S3150800497003AA02AB05F054FFA3681B68FF2B06D9F0
S315080049801048114940F66752104BFDF7F1FDA16832
S315080049900B78013B032B12D8DFE803F002050B0F57
S315080049A04B682B600BE0039B1A682A609B88AB80D8
S315080049B005E0029B1B682B6001E003232B6005B012
S315080049C030BD00BF50FC0008B0020108BC02010857
S315080049D030B585B00446154683685868694600F0C0
S315080049E00FFFA068083001A900F03AFF009801A956
S315080049F003AA02AB05F014FFA3681B68FF2B06D9B0
S31508004A000E480F4940F6B4220E4BFDF7B1FDA168DA
S31508004A100B78022B06D0032B0AD0012B0BD14B683F
S31508004A202B6008E0039B1A682A609B88AB8002E02B
S31508004A30029B1B682B6005B030BD00BF50FC000808
S31508004A40B0020108BC0201080000000000000000D6
S31508004A5013463AB15A1E51F8043B40F8043B12F08B
S31508004A60FF03F7D1704700BF0000000000000000F8
S31508004A7070B582B004460E4615468368586801A983
S31508004A8000F0BEFEA3681B68FF2B06D942484349BF
S31508004A9040F6A312424BFDF76BFDA4682378013B51
S31508004AA0152B77D8DFE803F00B0E151A1E222939C5
S31508004AB043474B4F5357575A5E62666A6D70636831
S31508004AC02B6067E0284601992A313246FEF7F8FE40
S31508004AD060E0019B93F82D302B605BE0019B1B8CFB
S31508004AE02B6057E0019B1B6B2B6053E0284601990E
S31508004AF023313246FEF7E4FE4CE0019B93F8293059
S31508004B0013F0010F06D013F0100F14BF012307236B
S31508004B102B603FE002232B603CE0019B93F8293091
S31508004B2013F0010F14BF012302232B6032E0019B0F
S31508004B305B6B2B602EE0019B9B6B2B602AE0019B35
S31508004B40DB6B2B6026E0019B1B6C2B6022E0019B34
S31508004B505B6C2B601EE000232B601BE0019B9B6CAB
S31508004B602B6017E0019BDB6C2B6013E0019B1B6D30
S31508004B702B600FE0019B5B6D2B600BE000232B6025
S31508004B8008E000232B6005E028460649C6F387029D
S31508004B90FFF75EFF02B070BD50FC0008B0020108C6
S31508004BA0BC020108B405010800000000000000006E
S31508004BB02DE9F04383B0894690468768381D01A9D8
S31508004BC000F04EFE019E1EB93D4B1C689CB973E071
S31508004BD03C4B1C68002C6FD0636886EA0302A36806
S31508004BE01A4208D02468002C66D0636886EA030552
S31508004BF0A3681D42F6D13B68FF2B06D932483349D4
S31508004C0040F6A642324BFDF7B3FC3B78013B0C2B32
S31508004C1052D8DFE803F007121721212126303A3E41
S31508004C2042214B00019B13B9C8F8003044E0A26842
S31508004C3063681340C8F800303EE02046414600F05D
S31508004C40F7FD39E0019B1BB90123C8F8003033E0B2
S31508004C500023C8F800302FE04FF0FF33C8F80030C3
S31508004C602AE0019B1BB9E368C8F8003024E06368B2
S31508004C70C8F8003020E0019B1BB90423C8F80030AF
S31508004C801AE00323C8F8003016E00223C8F80030FB
S31508004C9012E00023C8F800300EE0019B13B9C8F8EB
S31508004CA0003009E0A368C8F8003005E04046094925
S31508004CB0C9F38702FFF7CCFE03B0BDE8F08300BF57
S31508004CC0242D0120202D012050FC0008B0020108E7
S31508004CD0BC020108A4010108000000000000000051
S31508004CE010B5044606F004FB034BA3FB0023DB08C0
S31508004CF0024A1360236010BDCDCCCCCC405E0020A8
S31508004D0070B504460E46154683681B68FF2B06D900
S31508004D101D481E4940F69A021D4BFDF729FCA3685B
S31508004D201B78013B062B2ED8DFE803F0040B12167E
S31508004D301D242B002846174B19683246FEF7C0FD7E
S31508004D4070BD28461449C6F38702FFF781FE70BD79
S31508004D502846FFF7C5FF70BD2846104B196832462E
S31508004D60FEF7AEFD70BD28460D4B19683246FEF7B4
S31508004D70A7FD70BD28460B4B19683246FEF7A0FD05
S31508004D8070BD48232B6070BD50FC0008B0020108B6
S31508004D90BC020108D40D0020000D00201C0E0020C6
S31508004DA0B40D0020300F00200000000000000000B5
S31508004DB000B583B002AA002342F8043D0548818B5A
S31508004DC0013100F0ADFD0122034B5A8203B05DF8B4
S31508004DD004FB00BFDC0C00204C0E00200000000085
S31508004DE02DE9F04F87B00C46054630B930483149B1
S31508004DF04FF48962304BFDF7BBFB2846694600F045
S31508004E0017FD204601A900F03BFD00272B4DDFF8D2
S31508004E10C4B0DFF8C4A0DFF8C490DFF8C48039E076
S31508004E20274B264D002F18BF1D4633E006AA002340
S31508004E3042F8043D284656F8041F00F071FD013477
S31508004E40E4B2052C1CD0059BC3B1DD68B5B900F0EA
S31508004E503FFD0546059BD86090B1042C0ED127B9B5
S31508004E60184B0360184B436003E0C0F80090C0F885
S31508004E700480C5F808B0C5F80CA0D7E7042CD5D926
S31508004E800137FFB2022FCBD10123104A5382104AB1
S31508004E90538209E0002305932846009905AA00F0E5
S31508004EA03FFD6E460124CEE707B0BDE8F08F00BF90
S31508004EB050FC000868030108BC020108200E002007
S31508004EC00C0F002061390008D1490008480C002061
S31508004ED02C0C00200139000811390008614500082A
S31508004EE05149000800000000000000000000000012
S31508004EF02DE9F04F93B00C4602A900F099FC204624
S31508004F0003A900F0BDFC4FF00008354EDFF8E0B00D
S31508004F10DFF8E0A0DFF8E090CDF8048058E0314BE8
S31508004F202F4EB8F1000F18BF1E4651E0304655F80F
S31508004F30041F0CAA00F054FD002835D001280BD117
S31508004F4012AB03EB840242F8146C0C9B42F82C3C1F
S31508004F500134E4B2DE6804E0022802D10C9BDE6864
S31508004F60019CBD4201D11CB91EE0002EDED1FAE734
S31508004F70013CE4B212AA02EB840353F8140C53F86A
S31508004F802C1C0C9100F064FD054658B1838B33B197
S31508004F905046594640F2C3424B46FDF7E9FA2846C1
S31508004FA000F0B6FC002CE3D108F101085FFA88F896
S31508004FB0B8F1020FB3D10A4B9B8B13B900220A4BE7
S31508004FC05A82084B9B8B3BB90022084B5A8203E056
S31508004FD001AD06AF0024A9E713B0BDE8F08F00BF06
S31508004FE0200E00200C0F0020480C00202C0C00205E
S31508004FF07403010850FC0008BC0201080000000008
S31508005000024B1A6801321A60704700BF105E002012
S31508005010024B1A6801321A60704700BF9C5D002077
S31508005020024B1A6801321A60704700BF805D002083
S31508005030024B1A6801321A60704700BFD45D00201F
S31508005040024B1A6801321A60704700BF6C5E002076
S31508005050024B1A6801321A60704700BFA45E00202E
S31508005060024B1A6801321A60704700BF8C5E002036
S31508005070024B1A6801321A60704700BF2C5E002086
S31508005080024B1A6801321A60704700BFB05E0020F2
S31508005090024B1A6801321A60704700BFF45D00209F
S315080050A0024B1A6801321A60704700BF605E002022
S315080050B0024B1A6801321A60704700BF705D002003
S315080050C0024B1A6801321A60704700BF7C5E0020E6
S315080050D02DE9F04387B0044630B92248224940F208
S315080050E02D52224BFDF744FA201D01A900F0C8FBFA
S315080050F0002305931E4D2846019905AA00F010FCC9
S3150800510001AE0124DFF87890DFF87880194F0CE0BB
S3150800511006AA002342F8043D284656F8041F00F064
S31508005120FFFB0134E4B2042C15D0059B8BB1DD6876
S315080051307DB900F0CDFB0546059BD86058B1032C18
S3150800514007D1C0F80090C0F8048087600A4BC36096
S31508005150DEE7032CDCD90122084B5A8207B0BDE8EA
S31508005160F08300BF50FC000868030108BC02010870
S31508005170840D00200139000811390008000E0020AE
S31508005180F145000821480008000000000000000062
S315080051902DE9F0418EB0044630B92D482D4940F22C
S315080051A063522D4BFDF7E4F9201D01A900F068FBB9
S315080051B06D4604AF0024294EA046304655F8041F14
S315080051C009AA00F00DFC002839D001280BD10EAB36
S315080051D003EB840242F8106C099B42F8243C013424
S315080051E0E4B2DE6804E0022802D1099BDE68444680
S315080051F0BD4201D11CB922E0002EDED1FAE7DFF864
S315080052005080174F144E013CE4B20EAB03EB8402F8
S3150800521052F8100C52F8241C099100F019FC0546A6
S3150800522058B1838B33B14046394640F28D523346E6
S31508005230FDF79EF9284600F06BFB002CE3D1074BDF
S315080052409B8B13B90022074B5A820EB0BDE8F0813A
S3150800525050FC000868030108BC020108840D002000
S3150800526074030108000E0020000000000000000082
S315080052702DE9F04387B010B10023059305E08A684D
S315080052804B6813400593002B37D005A801A900F0F9
S31508005290F7FA002300931C4D284601996A4600F048
S315080052A03FFB01AE0124DFF87090DFF87080174FDE
S315080052B00DE006AA002342F8183D284656F8041FB2
S315080052C06A4600F02DFB0134E4B2042C15D0009B8D
S315080052D08BB1DD687DB900F0FBFA0546009BD86006
S315080052E058B1032C07D1C0F80090C0F80480876035
S315080052F0074BC360DDE7032CDBD90122054B5A8235
S3150800530007B0BDE8F08300BFB40C002001390008DF
S3150800531011390008680E002071460008B14B0008D4
S315080053202DE9F0418EB010B100230D9305E08A688F
S315080053304B6813400D93002B4AD00DA809A900F01D
S315080053409FFA08AD0CAF0024264EA046304655F805
S31508005350041F6A4600F044FB002839D001280BD107
S315080053600EAB03EB840242F8346C009B42F8243CF3
S315080053700134E4B2DE6804E0022802D1009BDE684C
S315080053804446BD4201D11CB922E0002EDED1FAE71F
S31508005390DFF86080144F154E013CE4B20EAB03EB08
S315080053A0840252F8340C52F8241C009100F050FB89
S315080053B0054658B1838B33B14046394640F22F62D1
S315080053C03346FDF7D5F8284600F0A2FA002CE3D1BB
S315080053D0044B9B8B13B90022054B5A820EB0BDE8CD
S315080053E0F08100BFB40C002074030108BC02010858
S315080053F0680E002050FC00080000000000000000B5
S31508005400024B1A6801321A60704700BFA05D00207F
S31508005410024B1A6801321A60704700BF205E0020EE
S31508005420024B1A6801321A60704700BF245E0020DA
S31508005430024B1A6801321A60704700BFE85D002007
S31508005440024B1A6801321A60704700BF445E00209A
S31508005450024B1A6801321A60704700BFC45D00200B
S31508005460024B1A6801321A60704700BF145E0020AA
S31508005470024B1A6801321A60704700BFA85D002007
S31508005480024B1A6801321A60704700BF285E002076
S31508005490024B1A6801321A60704700BF785E002016
S315080054A0024B1A6801321A60704700BF485E002036
S315080054B0024B1A6801321A60704700BFCC5D0020A3
S315080054C0024B1A6801321A60704700BF385E002026
S315080054D0024B1A6801321A60704700BF545E0020FA
S315080054E0024B1A6801321A60704700BF045E00203A
