S02B00002F686F6D652F6D696B652F446F63756D656E74732F63617269626F752D72746F732F6272616E6368A0
S3150800000000060020B1010008612B000891090008CC
S31508000010910900089109000891090008910900084A
S31508000020910900089109000891090008B11C000807
S315080000309109000891090008C12200081123000847
S31508000040312B0008312B0008312B0008312B000812
S31508000050312B0008312B0008312B0008312B000802
S31508000060312B0008312B0008312B0008312B0008F2
S31508000070312B0008312B0008312B0008312B0008E2
S31508000080312B0008312B0008312B0008312B0008D2
S31508000090312B0008312B0008312B0008312B0008C2
S315080000A0312B0008312B0008312B0008312B0008B2
S315080000B0312B0008312B0008312B0008312B0008A2
S315080000C0312B0008312B0008312B0008312B000892
S315080000D0312B0008312B0008312B0008312B000882
S315080000E0312B0008312B0008312B0008312B000872
S315080000F0312B0008312B0008312B0008312B000862
S31508000100312B0008312B0008312B0008312B000851
S31508000110312B0008312B0008312B0008312B000841
S31508000120312B0008312B0008312B0008312B000831
S31508000130312B0008312B0008312B0008312B000821
S31508000140312B0008312B0008312B0008312B000811
S31508000150312B0008312B0008312B0008312B000801
S31508000160312B0008312B0008312B0008312B0008F1
S31508000170312B0008312B0008312B0008312B0008E1
S31508000180312B0008312B0008312B0008312B0008D1
S31508000190312B0008312B0008312B0008312B0008C1
S315080001A0312B0008312B0008312B0008312B0008B1
S315080001B072B62E4880F30988022080F31488BFF3AC
S315080001C06F8F2B482949FA2200F048F829482A490E
S315080001D0FA2200F043F8294829492A4A00F033F858
S315080001E029482A49002200F039F8294A9047294A1D
S315080001F09047294829492A4A90472A482A4988423D
S3150800020000F007800268043003B4904703BCFFF788
S31508000210F6BF264A9047002000218646EC46244A27
S31508000220904724482449884200F007800268043031
S3150800023003B4904703BCFFF7F6BFFFF7B9BFFFF754
S31508000240FEBFFFF7FCBF884207D0521A05D00378D5
S3150800025001300B700131013AF9D17047884203D059
S3150800026002700130FFF7FABF70470000000C00204B
S31508000270000600200000002000060020C8520008E2
S31508000280000C0020080E0020080E0020E4160020AE
S31508000290B10E000851260008E416002000000220CE
S315080002A0210F0008B0010008B0010008E128000885
S315080002B001050008B0010008B001000800000000B0
S315080002C080B483B000AF7860FEE700BF000000008E
S315080002D080B584B000AF0123FB730023BB601FE029
S315080002E0202000F02DFE78607B68002B0CBF0023D1
S315080002F00123DBB2FB73FB7B002B0ED07868412110
S31508000300202201F05DFA0C4879684FF47A724FF0B2
S31508000310000300F075FE0346FB73BB680133BB6040
S31508000320FB7B002B02D0BB680F2BD9DDFB7B184665
S315080003301037BD4680BD00BF101600200000000023
S3150800034080B584B000AF0123FB731F4841212022EA
S3150800035001F036FA0023BB602BE03B1D1B4819460B
S315080003604FF47A724FF0000300F072FE0346FB73F7
S31508000370FB7B002B1AD07B68002B0CBF00230123C4
S31508000380DBB2FB73FB7B002B10D07B6818460E494B
S31508000390202201F035FA0346002B14BF002301235F
S315080003A0DBB2FB737B68184600F0EAFDBB680133D5
S315080003B0BB60FB7B002B02D0BB680F2BCDDDFB7B24
S315080003C018461037BD4680BD60160020101600205E
S315080003D080B584B000AFF860B9601346FB71FB794D
S315080003E0002B0AD1FB79002B01D0064B00E0064B07
S315080003F00648F968BA6801F083F9FB791846103798
S31508000400BD4680BD5051000858510008605100088B
S3150800041080B584B000AF78600123FB730A4B93F86C
S315080004205438002B04D1FFF753FF0346FB7300BF74
S31508000430054B93F854381A46FB7B044811461A466E
S31508000440FFF7C6FFEAE700BF080E00206C51000858
S3150800045080B584B000AF78600123FB730A4B93F82C
S315080004605438002B04D1FFF76BFF0346FB7300BF1C
S31508000470054B93F854381A46FB7B044811461A462E
S31508000480FFF7A6FFEAE700BF080E00207C51000828
S3150800049080B584B000AF3B46184600F049FB7A6841
S315080004A0124BA3FB02139B0C1148194601F028F9BD
S315080004B03A680E4BA3FB02139B0C0E48194601F033
S315080004C01FF9BA68094BA3FB02139B0C0A48194685
S315080004D001F016F9FA68054BA3FB02139B0C0748B3
S315080004E0194601F00DF91037BD4680BD83DE1B4362
S315080004F08C5100089C510008AC510008BC510008FA
S3150800050080B586B004AF78603960002001F0B8FB8A
S31508000510FFF7BEFF1448002100F042FD13481021E2
S31508000520134A00F055FD134B00934FF48063019373
S3150800053001230293104811490022002301F038FDD7
S315080005400F4B00934FF480630193012302930D48E8
S315080005500D490022002301F02BFD01F089FB002341
S3150800056018460837BD4680BD08160020101600201C
S315080005701C160020080E00206C5100081104000803
S31508000580081200207C5100085104000800000000F1
S3150800059080B500AF124B124A126842F001021A6087
S315080005A00F4B00229A600E4A0D4B1B6823F084738A
S315080005B023F4803313600A4B0A4A5A60084B084AE8
S315080005C0126822F480221A60054B0022DA6000F0D5
S315080005D00FF900F08DF8044B4FF000629A6080BD69
S315080005E0003802401030002400ED00E00000000052
S315080005F080B487B000AF00233B6100237B610223F0
S31508000600FB600023BB6002237B60324B9B6803F0D0
S315080006100C033B613B69042B07D0082B09D0002B40
S315080006203FD12D4B2D4A1A603FE02B4B2C4A1A60BE
S315080006303BE0284B5B6803F480039B0DBB60254BAE
S315080006405B6803F03F037B60BB68002B0DD0244A30
S315080006507B68B2FBF3F21F4B596847F6C0730B4031
S315080006609B0903FB02F37B610CE01C4A7B68B2FB27
S31508000670F3F2184B596847F6C0730B409B0903FB06
S3150800068002F37B61134B5B6803F440331B0C0133A5
S315080006905B00FB607A69FB68B2FBF3F20E4B1A60EB
S315080006A003E00D4B0D4A1A6000BF0A4B9B6803F026
S315080006B0F0031B090B4AD35CDBB23B61064B1A6895
S315080006C03B69DA40044B1A601C37BD465DF8047B6B
S315080006D0704700BF00380240000C00200024F400D8
S315080006E040787D01040C0020000000000000000096
S315080006F080B483B000AF00237B6000233B60354B9A
S31508000700344A126842F480321A60324B1B6803F48A
S3150800071000333B607B6801337B603B68002B03D169
S315080007207B68B3F5A06FF0D12A4B1B6803F400333E
S31508000730002B02D001233B6001E000233B603B68AD
S31508000740012B42D1234B234A126C42F080521A6481
S31508000750214B214A126842F440421A601D4B1D4A39
S3150800076092689A601B4B1B4A926842F400429A6050
S31508000770184B184A926842F4A0529A60154B174AC9
S315080007805A60144B134A126842F080721A6000BF0E
S31508000790104B1B6803F00073002BF9D0104B40F286
S315080007A005721A600B4B0B4A926822F003029A6094
S315080007B0084B084A926842F002029A6000BF054B4D
S315080007C09B6803F00C03082BF9D10C37BD465DF87E
S315080007D0047B7047003802400070004019544007F7
S315080007E0003C02400000000000000000000000007D
S315080007F080B400AF354B354A126B42F078021A6363
S31508000800334B4FF0CC121A62314B4FF0CC325A624E
S315080008102F4B304A1A602E4B2F4A9A602C4B0022D7
S315080008205A602B4B0022DA602C4B4FF0CC321A62FE
S315080008302A4B4FF0CC325A62284B4FF0AA321A6034
S31508000840264B4FF0FF329A60244B00225A60234B06
S315080008500022DA60224B234A1A62214B224A5A6244
S315080008601F4B224A1A601E4B214A9A601C4B0022D3
S315080008705A601B4B0022DA601E4B1A4A1A621D4B3D
S31508000880C0225A621B4B1C4A1A601A4B1B4A9A60B2
S31508000890184B00225A60174B0022DA600B4B0B4AA2
S315080008A0926B42F001029A634FF0204341F2110223
S315080008B09A604FF0204340F20122DA60104B6FF045
S315080008C070429A60BD465DF8047B70470038024066
S315080008D0000C02400A0AAAAA0F0FFFFF00100240E6
S315080008E000140240CCCCCC000000CCCCAA0A00AA4A
S315080008F0FF0F00FF00180240AA0A0800FF0F0C00AD
S31508000900040100A000000000000000000000000034
S3150800091080B491B000AF78607B681B68FB637B6826
S315080009205B68BB637B689B687B637B68DB683B6350
S315080009307B681B69FB627B685B69BB627B689B693A
S315080009407B627B68DB693B620B4B1B68FB610B4B6D
S315080009501B68BB610A4B1B687B610A4B1B683B61C2
S31508000960094B1B68BB60094B1B68FB6000BE44371C
S31508000970BD465DF8047B704728ED00E02CED00E0ED
S3150800098030ED00E03CED00E034ED00E038ED00E04D
S3150800099004207146084200F00480EFF30980FFF74F
S315080009A0B7BFEFF30880FFF7B3BFFFF7F1BF00BF8C
S315080009B080B582B000AF0346FB71FB79002B05D0EA
S315080009C0FB79012B02D0FB79052B01D1012300E02D
S315080009D00023184602F09CF8044B00221A70034BB9
S315080009E0FA791A700837BD4680BD00BF0238024042
S315080009F080B582B000AF00233B600023FB71002363
S31508000A00BB71312000F0ECF90346BB713B6801333A
S31508000A103B603B68B3F5A06F02D0BB79002BF0D0E2
S31508000A20312000F0DDF90346002B02D00123FB71CB
S31508000A3001E00023FB71FB7918460837BD4680BDE7
S31508000A4080B584B000AF786039600023FB607B68AE
S31508000A50002B0BD07B68B3F5001F07D07B68B3F576
S31508000A60800F03D07B68B3F5C00F01D1012300E0E6
S31508000A700023184602F04CF83B68002B0FD03B6861
S31508000A80B3F1806F0BD03B68B3F1A06F07D03B681A
S31508000A90B3F1C06F03D03B68B3F1E06F01D1012316
S31508000AA000E00023184602F033F8094B9B68FB6008
S31508000AB0FB6823F0EC63FB607A683B681343FA68CB
S31508000AC01343FB60024BFA689A601037BD4680BD37
S31508000AD0003802400000000000000000000000008E
S31508000AE080B584B000AF78600023FB607B68002B7C
S31508000AF005D07B68012B02D07B68022B01D101232C
S31508000B0000E00023184602F003F8084B9B68FB60D8
S31508000B10FB6823F00303FB60FA687B681343FB60FA
S31508000B20024BFA689A601037BD4680BD003802400D
S31508000B3080B489B000AF78600023BB6100237B6175
S31508000B400023FB6102233B610023FB600223BB6099
S31508000B50484B9B6803F00C03BB61BB69042B07D0A9
S31508000B60082B09D0002B3FD17B68434A1A603FE027
S31508000B707B68424A1A603BE03E4B5B6803F480039D
S31508000B809B0DFB603B4B5B6803F03F03BB60FB6858
S31508000B90002B0DD0394ABB68B2FBF3F2354B5968C6
S31508000BA047F6C0730B409B0903FB02F3FB610CE09D
S31508000BB0314ABB68B2FBF3F22E4B596847F6C0734D
S31508000BC00B409B0903FB02F3FB612A4B5B6803F4AA
S31508000BD040331B0C01335B003B61FA693B69B2FB8E
S31508000BE0F3F27B681A6003E07B68234A1A6000BF49
S31508000BF0204B9B6803F0F003BB61BB691B09BB6113
S31508000C001F4ABB6913441B78DBB27B617B681A6891
S31508000C107B69DA407B685A60164B9B6803F4E0539D
S31508000C20BB61BB699B0ABB61154ABB6913441B7848
S31508000C30DBB27B617B685A687B69DA407B689A60BD
S31508000C400C4B9B6803F46043BB61BB695B0BBB61E0
S31508000C500B4ABB6913441B78DBB27B617B685A6815
S31508000C607B69DA407B68DA602437BD465DF8047B29
S31508000C70704700BF003802400024F40040787D0128
S31508000C80140C002000000000000000000000000016
S31508000C9080B582B000AF78600B46FB707A68164B59
S31508000CA01340002B04D17B68002B01D0012300E000
S31508000CB00023184601F02CFFFB78002B02D0FB78A6
S31508000CC0012B01D1012300E00023184601F020FF83
S31508000CD0FB78002B06D0094B084A116B7A680A4341
S31508000CE01A6306E0054B054A116B7A68D2430A4037
S31508000CF01A630837BD4680BD00EE8B810038024076
S31508000D0080B582B000AF78600B46FB707A68164BE8
S31508000D101340002B04D17B68002B01D0012300E08F
S31508000D200023184601F0F4FEFB78002B02D0FB786E
S31508000D30012B01D1012300E00023184601F0E8FE4B
S31508000D40FB78002B06D0094B084A116C7A680A43CF
S31508000D501A6406E0054B054A116C7A68D2430A40C4
S31508000D601A640837BD4680BD0036010900380240BE
S31508000D7080B582B000AF78600B46FB707A68164B78
S31508000D801340002B04D17B68002B01D0012300E01F
S31508000D900023184601F0BCFEFB78002B02D0FB7836
S31508000DA0012B01D1012300E00023184601F0B0FE13
S31508000DB0FB78002B06D0094B084A516C7A680A431F
S31508000DC05A6406E0054B054A516C7A68D2430A40D4
S31508000DD05A640837BD4680BDCC80C8FF003802403B
S31508000DE080B586B000AF0346FB710023FB60002385
S31508000DF07B610023FB74FB79212B23D0FB79312BF4
S31508000E0020D0FB79392B1DD0FB79412B1AD0FB79E1
S31508000E10612B17D0FB79792B14D0FB797A2B11D05B
S31508000E20FB797B2B0ED0FB797C2B0BD0FB797D2BAA
S31508000E3008D0FB797E2B05D0FB797F2B02D0FB7976
S31508000E403B2B01D1012300E00023184601F060FE88
S31508000E50FB795B09DBB2FB60FB68012B03D1114B05
S31508000E601B687B6109E0FB68022B03D10D4B1B6FE6
S31508000E707B6102E00B4B5B6F7B61FB7903F01F0321
S31508000E80FB60FB6801229A407B691340002B02D065
S31508000E900123FB7401E00023FB74FB7C184618371A
S31508000EA0BD4680BD0038024000000000000000007A
S31508000EB080B400AFBD465DF8047B704700000000B3
S31508000EC080B483B000AF0346FB800C37BD465DF89F
S31508000ED0047B7047000000000000000000000000CE
S31508000EE080B483B000AF0346FB800C37BD465DF87F
S31508000EF0047B7047000000000000000000000000AE
S31508000F0080B483B000AF7860FEE700BF0000000041
S31508000F1080B483B000AF78603960FEE70000000057
S31508000F2080B582B000AF786039607868396803F0B8
S31508000F305FFA0837BD4680BD0000000000000000CB
S31508000F4080B582B000AF7860786803F0A9FD0346E3
S31508000F5018460837BD4680BD0000000000000000A6
S31508000F6080B582B000AF786039607868396803F078
S31508000F70DFFD034618460837BD4680BD0000000061
S31508000F8080B582B000AF7860786803F099FE0837BC
S31508000F90BD4680BD00000000000000000000000003
S31508000FA080B582B000AF78600B46FB707868002188
S31508000FB0082200F005FC7B68FA785A710837BD46A6
S31508000FC080BD00BF00000000000000000000000017
S31508000FD080B485B000AFF860B9607A60FB6800221B
S31508000FE05A60FB68BA681A60FB687A689A60FB6898
S31508000FF018461437BD465DF8047B704700000000AC
S3150800100080B586B000AFF860B960C7E9002301F083
S31508001010B7F9C7E904010CE0D7E90401D7E90023C9
S3150800102001F00EFA0346002B01D0002309E000F078
S315080010305FFFF868B96800F033F80346002BEBD079
S31508001040012318461837BD4680BD00BF00000000C2
S3150800105080B586B000AFF860B960C7E9002301F033
S315080010608FF9C7E90401BB6800221A600CE0D7E9CA
S315080010700401D7E9002301F0E3F90346002B01D068
S31508001080002309E000F034FFF868B96800F058F862
S315080010900346002BEBD0012318461837BD4680BD02
S315080010A080B584B000AF786039600023FB7301F027
S315080010B01FFEB8607B681B68B3F1FF3F1ED17B68D3
S315080010C09A687B685B6801339B0010461946FFF7F0
S315080010D047FF02467B689A607B689B68002B20D096
S315080010E07B689A687B685B68581C796848609B00CF
S315080010F013443A681A600123FB7312E07B685A6846
S315080011007B681B689A420CDA7B689A687B685B681E
S31508001110581C796848609B0013443A681A60012392
S31508001120FB73B86801F0F4FDFB7B18461037BD4623
S3150800113080BD00BF000000000000000000000000A5
S3150800114080B586B000AF786039600023FB753B68D0
S3150800115000221A6001F0CCFD38617B685B68002BC1
S3150800116018DD7B685B68591E7A6851609B00FB60D6
S315080011707B689B681A683B681A607B6899687B6815
S315080011809B681A1DFB68084611461A4600F0E0FAE5
S315080011900123FB75386901F0BBFDFB7D184618373E
S315080011A0BD4680BD000000000000000000000000F1
S315080011B080B584B000AF786039600023FB6078683A
S315080011C0002100F055FBB860BB68002B07DBBA6846
S315080011D013465B001344DB00034A1344FB60FB68B9
S315080011E018461037BD4680BD205200080000000092
S315080011F080B582B000AF786039603B689B683A1D5D
S3150800120038681146012298470346012B01D17B68AD
S3150800121001E04FF0FF3318460837BD4680BD00BFD2
S3150800122080B582B000AF7860396078683968FFF7B2
S31508001230DFFF034618460837BD4680BD000000009C
S3150800124080B584B000AFF860B9607A60BB68002BDF
S315080012500AD0BB681B687A68D2B21A70BB681B686A
S315080012605A1CBB681A600AE07B680A2B03D10D205A
S31508001270F968FFF7D5FF7868F968FFF7D1FF1037E7
S31508001280BD4680BD00000000000000000000000010
S3150800129080B588B000AFF860B9607A603B6000231B
S315080012A0FB612023BB613B68002B20DD00237B61AB
S315080012B07B683B6105E07B6901337B613B690133F0
S315080012C03B613B691B78002BF5D17A693B689A42EA
S315080012D002DB00233B6003E03A687B69D31A3B6074
S315080012E0BB6A03F00203002B01D03023BB61BB6A43
S315080012F003F00103002B0ED10AE0F868B968BA6951
S31508001300FFF79EFFFB690133FB613B68013B3B60CE
S315080013103B68002BF1DC0CE07B681B78F868B96841
S315080013201A46FFF78DFFFB690133FB617B680133C2
S315080013307B607B681B78002BEED10AE0F868B968F9
S31508001340BA69FFF77DFFFB690133FB613B68013B27
S315080013503B603B68002BF1DCFB6918462037BD462D
S3150800136080BD00BF00000000000000000000000073
S3150800137080B58EB002AFF860B9607A603B60002332
S315080013807B6200233B627B68FB617B68002B0FD185
S3150800139030233B7400237B7407F110033A6C0092E8
S315080013A0F868B9681A46FB6BFFF772FF03465EE0FA
S315080013B0BB6B002B0AD03B680A2B07D17B68002B36
S315080013C004DA01237B627B685B42FB6107F1100349
S315080013D00B33FB62FB6A00221A701DE03A68FB6950
S315080013E0B3FBF2F102FB01F29B1ABB62BB6A092B43
S315080013F004DD7B6C3A3BBA6A1344BB62FB6A013B69
S31508001400FB62BB6ADBB23033DAB2FB6A1A703B683E
S31508001410FA69B2FBF3F3FB61FB69002BDED17B6A49
S31508001420002B19D0FB6B002B10D03B6C03F002038A
S31508001430002B0BD0F868B9682D22FFF701FF3B6A2D
S3150800144001333B62FB6B013BFB6305E0FB6A013B37
S31508001450FB62FB6A2D221A703B6C0093F868B96828
S31508001460FA6AFB6BFFF714FF02463B6A13441846F9
S315080014703037BD4680BD00BF0000000000000000F8
S3150800148080B58EB004AFF860B9607A603B6000231F
S31508001490FB6120E17B681B78252B40F00F817B6878
S315080014A001337B6000233B623B6A7B627B681B7867
S315080014B0002B00D114E17B681B78252B00D1FDE0B9
S315080014C07B681B782D2B05D17B6801337B60012354
S315080014D03B6207E006E07B6801337B603B6A43F0CA
S315080014E002033B627B681B78302BF4D00EE07A6AE5
S315080014F013469B0013445B007B627B681B78303B7A
S315080015007A6A13447B627B6801337B607B681B784D
S315080015102F2B03D97B681B78392BE8D97B681B7876
S31508001520732B19D13B6804333B603B6853F8043C82
S31508001530BB61BB69002B01D0BB6900E06E4B3A6A00
S315080015400092F868B9681A467B6AFFF7A1FE034657
S31508001550FA691344FB61BBE07B681B78642B18D1DE
S315080015603B6804333B603B68043B1B6801220092DE
S315080015707A6A01923A6A029261220392F868B96815
S315080015801A460A23FFF7F4FE0346FA691344FB6179
S315080015909EE07B681B786C2B18D13B6804333B6054
S315080015A03B68043B1B68012200927A6A01923A6AF8
S315080015B0029261220392F868B9681A460A23FFF76D
S315080015C0D7FE0346FA691344FB6181E07B681B7802
S315080015D0782B18D13B6804333B603B68043B1B6897
S315080015E0002200927A6A01923A6A02926122039272
S315080015F0F868B9681A461023FFF7BAFE0346FA696F
S315080016001344FB6164E07B681B78582B03D07B6826
S315080016101B78702B18D13B6804333B603B68043B4E
S315080016201B68002200927A6A01923A6A0292412263
S315080016300392F868B9681A461023FFF799FE03461D
S31508001640FA691344FB6143E07B681B78752B18D154
S315080016503B6804333B603B68043B1B6800220092EE
S315080016607A6A01923A6A029261220392F868B96824
S315080016701A460A23FFF77CFE0346FA691344FB6100
S3150800168026E07B681B78632B22D13B6804333B60DA
S315080016903B68043B1B68DBB23B7500237B7507F18F
S315080016A014033A6A0092F868B9681A467B6AFFF723
S315080016B0EFFD0346FA691344FB6109E07B681B7872
S315080016C0F868B9681A46FFF7BBFDFB690133FB6189
S315080016D07B6801337B607B681B78002B7FF4DAAE6E
S315080016E0BB68002B03D0BB681B6800221A70FB6915
S315080016F018462837BD4680BDD451000800000000B2
S315080017000FB480B582B000AF00237B6007F11403E5
S315080017103B600C4B1B68002B09D00A4B1A683B69C7
S31508001720104600211A463B68FFF7AAFE7860002398
S315080017303B607B6818460837BD46BDE8804004B064
S31508001740704700BF8416002000000000000000005B
S31508001750F0B484B000AFF860B9607A60FD68BC6820
S31508001760002D21D0A54212D97B682344AB420ED95D
S315080017707B681C447B68EE1803E0013E013C237835
S3150800178033707B685A1E7A60002BF6D10CE02E4621
S3150800179005E033465E1C2246541C12781A707B6894
S315080017A05A1E7A60002BF4D12B4618461037BD46D0
S315080017B0F0BC7047000000000000000000000000B8
S315080017C0B0B485B000AFF860B9607A60FD68002DE6
S315080017D009D0002404E02B19BA68D2B21A70013471
S315080017E07B689C42F7D3FB6818461437BD46B0BCE5
S315080017F0704700BF00000000000000000000000065
S31508001800F0B484B000AFF860B9607A60FC68BD686F
S3150800181000260BE022782B789A4204D023781A46C1
S315080018202B78D31A06E00136013401357B689E42CF
S31508001830F0D3002318461037BD46F0BC704700BFEA
S3150800184080B485B000AF78607A6813465B001344AD
S31508001850DB00064A1344FB60FB681B68BB60BB6879
S3150800186018461437BD465DF8047B704720520008B9
S3150800187080B586B000AF78603960454B00221A60A3
S3150800188000F0E6FA7B687B617B69002B5BDB7A6993
S3150800189013465B001344DB003E4A13443B613B6935
S315080018A01B68FB60F86801F0C3FC0346184603F0A2
S315080018B06FFAF86801F0CCFC0346184603F068FA9C
S315080018C0F868002101F084FCF868002101F098FC12
S315080018D000F0F6F803469BB2184603F029FA0346C9
S315080018E0F868194601F074FC0346002B28D000F06E
S315080018F0DFF803469BB2184603F01AFA0346F8685F
S31508001900194601F07DFC0346002B0ED0F86800212D
S3150800191001F0AEFBF86801F0BBFC034643F0040394
S31508001920F868194601F0C4FC0DE0F86801F080FC7F
S315080019300346184603F02CFA154B0C221A6002E0EF
S31508001940134B0C221A6000F0ABFA7B69002B0FDBF5
S315080019503B68002B0CD07869396800F091F803468B
S31508001960002B05DA786900F01BF84FF0FF337B612E
S31508001970786901F01DFC02467B699A4202D07869B3
S3150800198000F00EF87B6918461837BD4680BD00BFC3
S31508001990D8160020205200080000000000000000B1
S315080019A080B586B000AF786000237B61204B0022AB
S315080019B01A6000F04DFA7A6813465B001344DB00A0
S315080019C01C4A13443B613B691B68FB60F86801F0DD
S315080019D077FAF86801F04CFC0346184601F028FA35
S315080019E0F86801F025FC0346184603F0D1F9F868B3
S315080019F001F02EFC0346184603F0CAF9F8680021E0
S31508001A0001F0E6FBF868002101F0FAFBF86801F03E
S31508001A103FFC034623F00403F868194601F048FC26
S31508001A2000F03EFA7B6918461837BD4680BD00BFF0
S31508001A30D816002020520008000000000000000010
S31508001A4080B582B000AF78607B68002B14D07868C8
S31508001A5000210C22FFF7B4FE7B684FF416521A6079
S31508001A607B6808221A717B6801225A717B680022FA
S31508001A709A717B680022DA710837BD4680BD00BFBF
S31508001A8080B584B000AF786039607868FFF7D8FE13
S31508001A9003461846396801F0EBFAF860FB68184601
S31508001AA01037BD4680BD00BF0000000000000000E2
S31508001AB080B400AF40231846BD465DF8047B7047E6
S31508001AC080B400AF40231846BD465DF8047B7047D6
S31508001AD090B589B000AFF860B9607A600023FB6101
S31508001AE0BB68BB6125E0FB681B68184601F0A0FBD4
S31508001AF00346184603F0FCF978617B69002B16DB70
S31508001B00FB695A1CFA61BA6913447A69D2B21A7027
S31508001B10FB681C68FB681B68184601F0B9FB03469E
S31508001B2043F001032046194601F0C2FB01E000F02C
S31508001B30DFF9FA697B689A42D5DBFB6918462437D0
S31508001B40BD4690BD00000000000000000000000037
S31508001B5080B586B000AFF860B9607A6000237B6113
S31508001B60BB683B611BE0FB681B68184601F070FB0D
S31508001B7002467B6939690B441B781046194603F0FF
S31508001B8077F90346002B03D07B6901337B6101E0BB
S31508001B9000F0AEF9FB681B68184601F009FC7A6983
S31508001BA07B689A42DFDB7B6918461837BD4680BDDD
S31508001BB080B582B000AF78607B681B68184601F074
S31508001BC037FB0346184603F02BF903461846083731
S31508001BD0BD4680BD000000000000000000000000B7
S31508001BE080B582B000AF78607B681B68184601F044
S31508001BF02FFB0346184603F013F903461846083721
S31508001C00BD4680BD00000000000000000000000086
S31508001C1080B582B000AF78607B681B68184601F013
S31508001C2037FB034618460837BD4680BD000000004E
S31508001C3080B500AF00F09CFF0346184680BD00BF84
S31508001C4080B582B000AF7860786800F0B1FF0837D9
S31508001C50BD4680BD00000000000000000000000036
S31508001C6080B500AF00F0C4FF80BD00BF00000000D3
S31508001C7080B500AF00F0CCFA80BD00BF00000000C0
S31508001C8080B582B000AF0346FB7101F031F8012040
S31508001C9001F016F897F907309BB21BB2184600F008
S31508001CA01FFA01F01DF80837BD4680BD0000000088
S31508001CB000B522462B46D5B21C462846214600F0DA
S31508001CC007F805462C4600BD00000000000000008D
S31508001CD080B485B000AF03463960FB714FF0FF331F
S31508001CE0FB60FB79002B02D10023FB6000BFFB6879
S31508001CF018461437BD465DF8047B7047000000009F
S31508001D00EFF3098070471846000000000000000045
S31508001D1080B582B000AF0346FB80084BDB68002B1A
S31508001D2007D0064BDB68F988044A1269084611464B
S31508001D309847FB8818460837BD4680BD9016002090
S31508001D4080B584B000AF78604820FFF7F9F8F860EE
S31508001D50FB68002B08D0F86800214822FFF730FD01
S31508001D60FB687A685A6002E00820FFF7D1FFFB6833
S31508001D7018461037BD4680BD000000000000000070
S31508001D8080B582B000AF78607868FFF7F9F8083751
S31508001D90BD4680BD000000000000000000000000F5
S31508001DA080B485B000AF78600F4B1B68FB60FB689A
S31508001DB0002B0BD002E0FB681B68FB60FB681B6806
S31508001DC0002BF8D1FB687A681A6005E0064B7A683A
S31508001DD01A607B6800221A607B6818461437BD466D
S31508001DE05DF8047B704700BF9016002000000000D5
S31508001DF080B485B000AF7860134B1A687B689A4246
S31508001E0004D17B681A68104B1A6016E00E4B1B68E3
S31508001E10FB600CE0FB681A687B689A4204D17B6811
S31508001E201A68FB681A6005E0FB681B68FB60FB68BC
S31508001E30002BEFD17B6800221A607B68184614379E
S31508001E40BD465DF8047B7047901600200000000030
S31508001E5080B582B000AF00237B6000F089FE386051
S31508001E600B4B5B68002B0AD0094B5B681B8E1BB2B9
S31508001E707B60074B5B681A8E013292B21A86386805
S31508001E8000F096FE7B6818460837BD4680BD00BF41
S31508001E90901600200000000000000000000000006E
S31508001EA080B582B000AF00237B6000F061FE386029
S31508001EB00E4B5B68002B10D00C4B5B681B8E1BB25D
S31508001EC0002B0ADD094B5B681B8E1BB27B60074B38
S31508001ED05B681A8E013A92B21A86386800F068FE74
S31508001EE07B6818460837BD4680BD00BF901600209F
S31508001EF080B500AF0E4B5B68002B18D00C4B5B68A7
S31508001F001B8E002B13D100F0FBFE0346002B0ED0D0
S31508001F10074B5B68064A5268928B42F0020292B2FD
S31508001F209A83034B4FF6FF721A81FFF799FE80BD1D
S31508001F3090160020000000000000000000000000CD
S31508001F4080B584B000AF786000F0D2FEF8607B6898
S31508001F509B8B43F004039AB27B689A837B685B6B1E
S31508001F60002B05D07B685B6B7A68526A10469847E7
S31508001F707868FFF73DFF7868FFF702FF786800F09A
S31508001F80CFFAF86800F0C4FE1037BD4680BD00BF22
S31508001F9080B500AF054B5B68044A5268928B42F0E5
S31508001FA0040292B29A83FFF7A3FFFCE7901600207B
S31508001FB080B588B000AFF860B9607A603B600023EE
S31508001FC0FB6100F095FEB861BB6A002B1ED0FB6A68
S31508001FD0B86AFA211A46FFF7F3FBFB6A403BBA6A6E
S31508001FE013447B61786900214022FFF7E9FB3A68D0
S31508001FF07B691A62334A7B695A63BB6823F001021C
S315080020007B699A637B694FF00452DA632E4B5B68EF
S31508002010002B02D12C4B1B6801E02B4B5B68184642
S31508002020FFF78EFEF861FB69002B42D0FB690022A0
S315080020309A83BB6A002B1AD0FB6ABA6A13443B61BF
S315080020403B69403B1A46FB699A60FB6ABA6A1A44BE
S31508002050FB695A61FB69BA6A1A61FB691B6903F174
S315080020604002FB691A61FB69BA6A9A6112E0FB6968
S31508002070164A9A60FB699A68FB695A61FB69144AB1
S315080020801A61FB691B6903F14002FB691A61FB6966
S315080020900F4A9A61FB69FA681A62FB693A685A62DA
S315080020A0FB693A8EDA83FB697A685A63F869FFF73F
S315080020B077FEB86900F02CFEFB6918462037BD4646
S315080020C080BD00BF911F000890160020000C00205C
S315080020D000060020000000000000000000000000CC
S315080020E080B586B004AF0346FB800D480021282240
S315080020F0FFF766FB0023009300230193B7F9063028
S3150800210002930848002100220023FFF751FF0246E8
S31508002110034B5A60024B5B6818460837BD4680BDBC
S31508002120901600200452000800000000000000007D
S3150800213080B582B000AF78607B689A687B681B6957
S315080021409A4205D97B689A687B685B699A421CD96A
S315080021507B689A687B681B699A4203D80120FFF757
S31508002160D7FD12E07B689A687B689B699A4203D818
S315080021700420FFF7CDFD08E07B689A687B685B69F9
S315080021809A4202D90220FFF7C3FD7B689A687B68EA
S31508002190DB689A4203D37B68DB68002B03D17B6834
S315080021A09A687B68DA600837BD4680BD0000000083
S315080021B080B582B000AF154B1B687B6000F0F0FB62
S315080021C0124B1B68184600F003FA104B1B687B601D
S315080021D015E07B681B683B607868FFF7A9FF7B689A
S315080021E09B8B03F00403002B07D0084B5A687B68C7
S315080021F09A4202D07868FFF7A3FE3B687B607B684B
S31508002200002BE6D10837BD4680BD00BF90160020DA
S3150800221080B500AFFFF7CCFFFFF76AFEFAE700BF0D
S3150800222080B400AF244B5B68244A1268DA63224BF9
S315080022305B681B8E002B3AD11F4B1B899BB21A4633
S31508002240013A91B21C4A11811BB2002B2FDA08E021
S31508002250194B5B68184A5268928B22F0020292B2B6
S315080022609A83154B5B681B68002B03D0124B5B687F
S315080022701B6801E0104B1B680F4A53600E4B5B68E6
S315080022809B8B03F00603002BE2D10B4B5B68DA8BC2
S31508002290094B1A81084B1B891BB2002B02DA064B25
S315080022A000221A81044B5B68DA6B044B1A60BD4640
S315080022B05DF8047B704700BF90160020D8160020F2
S315080022C000B5EFF3098020E9F00F80F3098800F0E4
S315080022D09FFC0C4B5B68002B0CD00A4B5C68FFF725
S315080022E00FFD0346A360FFF79BFF064B5B689B68E1
S315080022F083F30988EFF30980B0E8F00F80F30988C3
S3150800230000BD00BF9016002000000000000000007D
S3150800231000B5EFF3098020E9F00F80F3098800F093
S3150800232077FC154B5B68002B1ED0134B5C68FFF7D8
S31508002330E7FC0346A360104BD3E90623013243F1B9
S3150800234000030D49C1E906230B4B5968D1E90A2355
S31508002350013243F10003C1E90A23FFF761FF064B87
S315080023605B689B6883F30988EFF30980B0E8F00F90
S3150800237080F3098800BD00BF901600200000000009
S3150800238080B400AF044BD3E9062310461946BD4670
S315080023905DF8047B704700BF90160020000000001F
S315080023A080B582B000AF78607B681B7E03F00103BE
S315080023B0002B02D07868FEF7E3FD0837BD4680BDDE
S315080023C080B584B000AF78603960FFF731FCF860FB
S315080023D07B689A6B3B689A420CD13B685A687B6863
S315080023E09A637B689B6B002B1CD07B689B6B0022D7
S315080023F01A6017E03B681B68002B04D03B681B6813
S315080024003A6852685A603B685B68002B04D03B68A0
S315080024105B683A6812681A603B6800225A603B6833
S3150800242000221A60F868FFF70BFC3B68184610375D
S31508002430BD4680BD0000000000000000000000004E
S3150800244080B487B000AFC7E90201C7E900230023BB
S31508002450FB75D7E9002352EA030119D0D7E900230F
S31508002460B3F1FF3F08BFB2F1FF3F11D00C4BD3E9E0
S315080024700601D7E90223801A61EB0301D7E9002395
S31508002480904271EB030CB4BF00230123DBB2FB754A
S31508002490FB7D18461C37BD465DF8047B704700BFB8
S315080024A09016002000000000000000000000000058
S315080024B080B584B000AF78603960FFF7B9FBF86083
S315080024C07B683A681A617B683A685A61F868FFF768
S315080024D0B7FB7B6818461037BD4680BD0000000074
S315080024E080B584B000AF78603960FFF7A1FBF8606B
S315080024F038680021FFF7DCFF78683968FFF760FF66
S315080025003868FFF74DFFF868FFF79AFB1037BD46A6
S3150800251080BD00BF000000000000000000000000B1
S3150800252080B582B000AF786005E07B689B6B786801
S315080025301946FFF7D5FF7B689B6B002BF5D108374B
S31508002540BD4680BD0000000000000000000000003D
S3150800255080B586B000AFF860B9607A6000237B6109
S31508002560BB681B69002B28D0BB681A697B689A422E
S3150800257004D3BB681A697B68D31A00E00023BA68DB
S315080025801361BB681B69002B17D1BB689B68002BBE
S3150800259006D0BB689B68BA68D268F868B968984775
S315080025A0BB681B7E03F00203002B03D1BB685A6984
S315080025B0BB681A617B6901337B617B6918461837EA
S315080025C0BD4680BD000000000000000000000000BD
S315080025D080B586B000AF786000F0CAFAF8601A4B8A
S315080025E0D3E906231146184BD3E908231346CB1A19
S315080025F0BB60BB68002B1FD0134BD3E906231249D7
S31508002600C1E9082315E07B689B6B3B610BE07868A2
S315080026103969BA68FFF79CFF03467A6913447B61F8
S315080026203B695B683B613B69002BF0D17B681B68A3
S315080026307B607B68002BE6D1F86800F0B9FA7B6905
S3150800264018461837BD4680BD9016002000000000C9
S3150800265080B584B000AF0120FEF7AAF900BFFEF7E7
S31508002660C7F90346012BFAD10120FEF739FA3B4692
S315080026701846FEF75DFAFDF78BFFFDF7B9FF3B46F7
S315080026801846FEF755FA4FF480400121FEF770FB15
S315080026904FF060600121FEF7FBFA4FF080500121F0
S315080026A0FEF7F6FA4FF4C0004FF08061FEF7C8F95E
S315080026B0012001F05DFB4FF400100121FEF7E8FA56
S315080026C04FF480000121FEF7E3FA4FF48050012110
S315080026D0FEF7DEFA01200121FEF7DAFA02200121CF
S315080026E0FEF7D6FA04200121FEF7D2FA08200121C6
S315080026F0FEF7CEFA10200121FEF7CAFA20200121A2
S31508002700FEF7C6FA40200121FEF7C2FA8020012111
S31508002710FEF7BEFA4FF480700121FEF7B9FA1020D1
S315080027200121FEF725FB4FF400300121FEF7E8FAF8
S315080027304FF480200121FEF7E3FA4FF4002001212F
S31508002740FEF7DEFA4FF480100121FEF7D9FA2020B1
S315080027500121FEF70DFB554B554A1A60534B0022D3
S315080027605A60524B00229A60504B4FF0C842DA60CA
S315080027704E4B00221A624D4B00225A624D4B4FF4C3
S3150800278094521A604B4B00225A604A4BC0229A60F8
S31508002790484B4FF48072DA60464B00221A62454B6A
S315080027A000225A62444B4FF480521A60424B002270
S315080027B05A60414B00229A603F4B0022DA603E4B3A
S315080027C000221A623C4B00225A623C4B00221A60D5
S315080027D03A4B00225A60394B00229A60374B002246
S315080027E0DA60364B00221A62344B00225A62344BA6
S315080027F000221A60324B00225A60314B00229A603E
S315080028002F4B0022DA602E4B00221A622C4B002234
S315080028105A622C4B4FF480421A602A4B00225A60A7
S31508002820284B00229A60274B0022DA60254B0022AB
S315080028301A62244B00225A62234B244A1A60224BFE
S3150800284000225A60204B00229A601F4B0022DA6051
S315080028501D4B00221A621C4B1D4A5A621D4B002250
S315080028601A601C4B00225A601A4B00229A60194BB8
S315080028700022DA60174B00221A62164B00225A62AF
S31508002880154B00221A60144B00225A60124B002284
S315080028909A60114B0022DA600F4B00221A620E4B27
S315080028A000225A621037BD4680BD00BF00000240B4
S315080028B0001100A80004024000080240000C024073
S315080028C000100240001402400018024000000820D0
S315080028D080000008001C02400020024000000000A2
S315080028E080B584B000AF05202249FEF761FC024698
S315080028F0214B1A60204B1A68204B1A601F4B1A6826
S315080029001F4B1A603B1D1846FFF79AF84FF4E13340
S315080029107B6008233B7201237B720023BB7203236F
S31508002920FB723B1D05201946FFF7AAF8154B1A68D6
S31508002930144B9B881046194600F0CAFD124B1A68BC
S31508002940114B9B881046194600F0C2FD0F4B1A68BA
S315080029500E4B9B881046194600F0BAFD0C4B1A68B8
S315080029600B4B9B881046194600F0B2FD1037BD4642
S3150800297080BD00BF1052000888160020801600206F
S3150800298084160020240C00202C0C0020340C002077
S315080029903C0C0020000000000000000000000000C1
S315080029A080B582B000AFFFF7EBFC3B4BD3E90023C1
S315080029B0821A61EB03030A2A73F1000169DB374BBC
S315080029C01B785A1CD1B2354A1170DB43DBB203F0CF
S315080029D00F03FB71FB7903F00103002B08D0304B82
S315080029E01A682F4B9B881046194600F071FD07E0C0
S315080029F02B4B1A682A4B9B881046194600F078FD1F
S31508002A00FB7903F00203002B08D0264B1A68254BE6
S31508002A109B881046194600F05BFD07E0214B1A68B3
S31508002A20204B9B881046194600F062FDFB7903F09F
S31508002A300403002B08D01C4B1A681B4B9B881046B6
S31508002A40194600F045FD07E0174B1A68164B9B8898
S31508002A501046194600F04CFDFB7903F00803002BDD
S31508002A6008D0124B1A68114B9B881046194600F07D
S31508002A702FFD07E00D4B1A680C4B9B88104619462C
S31508002A8000F036FDFFF77CFC02460B460249C1E919
S31508002A9000230837BD4680BDB8160020C0160020A2
S31508002AA0240C00202C0C0020340C00203C0C0020A8
S31508002AB080B483B000AF03463960FB7197F90730DD
S31508002AC0002B0BDA0D49FB7903F00F03043B3A6838
S31508002AD0D2B21201D2B20B441A7609E0084997F924
S31508002AE007303A68D2B21201D2B20B4483F80023F7
S31508002AF00C37BD465DF8047B704700BF00ED00E06B
S31508002B0000E100E0000000000000000000000000F6
S31508002B1080B483B000AF78600C37BD465DF8047B9F
S31508002B20704700BF00000000000000000000000021
S31508002B3000B5F0B42DE9000F064B5B68DBB2103B1D
S31508002B40DBB2DBB25BB2184602F0DAFABDE8000F78
S31508002B50F0BC00BD00ED00E0000000000000000031
S31508002B6080B400AFBD465DF8047B704700000000E6
S31508002B7080B483B000AF0B4B1B6803F00203002B35
S31508002B800CBF00230123DBB27B60064B054A1268A3
S31508002B9022F002021A607B6818460C37BD465DF8BB
S31508002BA0047B704710E000E0000000000000000011
S31508002BB080B483B000AF78607B68002B06D0094BE1
S31508002BC0084A126842F002021A6005E0054B054AF7
S31508002BD0126822F002021A600C37BD465DF8047BC3
S31508002BE0704700BF10E000E0000000000000000091
S31508002BF080B400AF044B044A526842F080525A60CF
S31508002C00BD465DF8047B704700ED00E0000000005B
S31508002C1080B483B000AF0F4B5B68C3F308037B60D7
S31508002C207B680E2B02D00F2B07D00DE0094B094A03
S31508002C30526842F000625A6006E0064B054A52683E
S31508002C4042F000725A6000BF0C37BD465DF8047B3F
S31508002C50704700BF00ED00E0000000000000000023
S31508002C6080B582B000AF00F01BF902460C4BA3FBFF
S31508002C7002139B097B600B4B7A6822F07F42013A6C
S31508002C805A604FF0FF300F21FFF712FF054B002265
S31508002C909A60044B07221A600837BD4680BD00BFFC
S31508002CA0D34D621010E000E00000000000000000B4
S31508002CB080B400AFBD465DF8047B70470000000095
S31508002CC080B582B000AF786000F012F8FFF7C8FF51
S31508002CD0FFF7EEFF0837BD4680BD00BF00000000C5
S31508002CE062B6704700000000000000000000000007
S31508002CF0EFF3108080F0010072B67047184600BFE7
S31508002D00EFF3108080F001007047184600000000BD
S31508002D1080B483B000AF78607B68002B01D062B6C0
S31508002D2000E072B60C37BD465DF8047B704700BFFD
S31508002D3080B485B000AF78607B681F2B0DD81D4B1B
S31508002D401A687B68012101FA03F31340002B0CBFB4
S31508002D5000230123DBB2FB6025E07B683F2B11D8FB
S31508002D607B681F2B0ED9134B5A687B68203B0121C1
S31508002D7001FA03F31340002B0CBF00230123DBB237
S31508002D80FB6010E07B683F2B0DD90A4B9A687B687D
S31508002D90403B012101FA03F31340002B0CBF00232B
S31508002DA00123DBB2FB60FB6818461437BD465DF8A5
S31508002DB0047B704700E100E000000000000000000E
S31508002DC080B584B000AF78607868FFF7B1FFF86027
S31508002DD07B681F2B06D8124B7A68012101FA02F28A
S31508002DE01A6017E07B683F2B0AD87B681F2B07D928
S31508002DF00B4B7A68203A012101FA02F25A6009E07F
S31508002E007B683F2B06D9064B7A68403A012101FABE
S31508002E1002F29A60FB6818461037BD4680BD00BFAF
S31508002E2000E100E0000000000000000000000000D3
S31508002E3080B584B000AF78607868FFF779FFF860EE
S31508002E407B681F2B07D8134B7A68012101FA02F217
S31508002E50C3F8802019E07B683F2B0BD87B681F2BB3
S31508002E6008D90C4B7A68203A012101FA02F2C3F814
S31508002E7084200AE07B683F2B07D9064B7A68403ADC
S31508002E80012101FA02F2C3F88820FB6818461037B8
S31508002E90BD4680BD00E100E0000000000000000023
S31508002EA080B584B000AF3B461846FDF741FE3B6847
S31508002EB018461037BD4680BD00000000000000001F
S31508002EC080B584B000AF78607B68FB60F86800F076
S31508002ED00FF8B860FB681B68184640F225510022B7
S31508002EE001F0B6F9BB6818461037BD4680BD00BF6D
S31508002EF080B485B000AF78607B68FB60FB681B68B0
S31508002F009B899BB21A4640F225531340002B0CBFEF
S31508002F1000230123DBB2BB60BB6818461437BD46E5
S31508002F205DF8047B704700BF000000000000000049
S31508002F3080B582B000AF78607B68DB69184600F020
S31508002F40E7FA7B681B6B184600F0E2FA7B681B6899
S31508002F5018464021002201F003F97B681B681846D1
S31508002F608021002201F0FCF87B68DB6918461021F5
S31508002F70002200F045FE7B68DB691846082100221E
S31508002F8000F03EFE7B681B6B18461021002200F0FD
S31508002F9037FE7B681B6B18460821002200F030FEBE
S31508002FA07B68DB691846012100F09AFD7B681B6B7C
S31508002FB01846012100F094FD18460837BD4680BD25
S31508002FC080B592B000AF78607868FFF7B1FF7B688C
S31508002FD01B6AFB600023BB617B689B691B687B617E
S31508002FE07B689B699B88FB617B685B6A3B61002306
S31508002FF03B624FF480637B620023BB620023FB6263
S315080030004FF480733B637B689B6A7B630423BB63D3
S315080030100323FB6300233B6400237B647B68DA6934
S3150800302007F10C031046194600F08AFB7B681B68FB
S3150800303018464021012201F093F87B68DB6918469F
S315080030401021012200F0DCFD7B68DB6918460821A7
S31508003050012200F0D5FD7B68DB691846012100F0E6
S315080030603FFD18464837BD4680BD00BF000000003A
S3150800307080B588B000AF786039604FF0FF33FB61E8
S315080030807B68BB613B68002B02D1BB6908333B6098
S31508003090BB691B681846002101F002F83B68002B43
S315080030A079D03B681B68BB603B681B79BB813B6872
S315080030B01B79092B02D00023BB8103E04FF4805310
S315080030C0BB8100BF3B685B79022B04D0032B06D07B
S315080030D00023FB8107E04FF44053FB8103E04FF4E4
S315080030E00053FB8100BF3B689B79012B08D0022B5C
S315080030F002D000233B8207E04FF4C0633B8203E023
S315080031004FF480633B8200BF3B68DB79022B0AD011
S31508003110032B0CD0012B02D00023BB820BE04FF40B
S315080031208073BB8207E04FF40073BB8203E04FF461
S315080031304073BB8200BF0C237B82BB691A6807F108
S3150800314008031046194600F02BFEBB691B68184693
S31508003150012100F0A5FF3B681B7A002B03D0B86954
S31508003160FFF72EFF15E0BB691B795BB218460C49C1
S31508003170BA6901F065FFBB691B795BB21846FFF7B0
S315080031801FFEBB691B68184640F22551012201F053
S315080031905FF80023FB61FB6918462037BD4680BDF2
S315080031A011340008000000000000000000000000C4
S315080031B080B483B000AF78607B6818460C37BD468C
S315080031C05DF8047B704700BF0000000000000000A7
S315080031D080B485B000AF786039607B68FB60FB68B7
S315080031E03A689A613B6818461437BD465DF8047B11
S315080031F0704700BF0000000000000000000000004B
S3150800320080B485B000AF786039607B68FB60FB6886
S315080032103A68DA623B6818461437BD465DF8047B9F
S31508003220704700BF0000000000000000000000001A
S3150800323080B485B000AF78607B68FB60FB689B69EB
S3150800324018461437BD465DF8047B70470000000039
S3150800325080B485B000AF78607B68FB60FB68DB6A8A
S3150800326018461437BD465DF8047B70470000000019
S3150800327080B485B000AF78607B68FB60FB681B791B
S315080032805BB218461437BD465DF8047B704700BF2D
S3150800329080B485B000AF78607B68FB60FB685B69CB
S315080032A018461437BD465DF8047B704700000000D9
S315080032B080B485B000AF786039607B68FB60FB68D6
S315080032C03A685A61FB685B6918461437BD465DF86B
S315080032D0047B7047000000000000000000000000AA
S315080032E080B485B000AF78607B68FB60FB681B68BC
S315080032F01B889BB203F08003002B0CBF002301231D
S31508003300DBB2FB72FB7A18461437BD465DF8047BC0
S31508003310704700BF00000000000000000000000029
S3150800332080B487B000AF78607B687B617B691B6877
S315080033301B889BB23B613B6903F02003002B0CBF43
S3150800334000230123DBB2FB73FB7B18461C37BD4603
S315080033505DF8047B704700BF000000000000000015
S3150800336080B485B000AF786039607B68FB60FB6825
S315080033701B683A6892B29A803B6818461437BD466D
S315080033805DF8047B704700BF0000000000000000E5
S3150800339080B485B000AF78607B68FB60FB681B680B
S315080033A09B889BB218461437BD465DF8047B704768
S315080033B080B485B000AF78607B68FB60FB681B68EB
S315080033C0FA681268928992B242F0800292B29A81A1
S315080033D01437BD465DF8047B704700BF0000000047
S315080033E080B485B000AF78607B68FB60FB681B68BB
S315080033F0FA681268928992B222F0800292B29A8191
S315080034001437BD465DF8047B704700BF0000000016
S3150800341090B585B000AF03463960FB713B68FB6029
S31508003420FB681B79002B4BD0FB681B7997F90720A3
S315080034305BB29A4244D119E0FB689C69F868FFF7C9
S31508003440A7FF0346DBB22046194601F011FD0346E5
S31508003450002B05D1FB685B6943F01002FB685A61D3
S31508003460FB685B6943F00102FB685A61F868FFF77D
S3150800347057FF0346002BDFD109E0FB68DB6A1846D5
S3150800348001F036FD0346F8681946FFF769FFFB6841
S31508003490DB6A184601F0A4FC0346002B05D1F86840
S315080034A0FFF71EFF0346002BE7D1FB68DB6A1846C9
S315080034B001F096FC0346002B02D0F868FFF790FF50
S315080034C01437BD4690BD00BF000000000000000094
S315080034D080B483B000AF78600B467B807B687A88BF
S315080034E01A830C37BD465DF8047B70470000000060
S315080034F080B483B000AF78600B467B807B687A889F
S315080035005A830C37BD465DF8047B704700000000FF
S3150800351080B582B000AF78607A68734B9A423BD028
S315080035207A68724B9A4237D07A68714B9A4233D08E
S315080035307A68704B9A422FD07A686F4B9A422BD092
S315080035407A686E4B9A4227D07A686D4B9A4223D096
S315080035507A686C4B9A421FD07A686B4B9A421BD09A
S315080035607A686A4B9A4217D07A68694B9A4213D09E
S315080035707A68684B9A420FD07A68674B9A420BD0A2
S315080035807A68664B9A4207D07A68654B9A4203D0A6
S315080035907A68644B9A4201D1012300E00023184659
S315080035A0FFF7B6FA7B681B6823F001027B681A608E
S315080035B07B6800221A607B6800225A607B680022BA
S315080035C09A607B680022DA607B6800221A617B6851
S315080035D021225A617A68444B9A4203D1524B3D22C2
S315080035E09A607EE07A68414B9A4204D14E4B4FF47A
S315080035F074629A6075E07A683D4B9A4204D14A4BE8
S315080036004FF474129A606CE07A683A4B9A4204D185
S31508003610454B4FF074629A6063E07A68364B9A427B
S3150800362003D1414B414ADA605BE07A68334B9A42F0
S3150800363003D13D4B3E4ADA6053E07A68304B9A42F2
S3150800364003D1394B3B4ADA604BE07A682D4B9A42F4
S3150800365004D1354B4FF03D52DA6042E07A682A4B86
S315080036609A4203D1344B3D229A603AE07A68274B56
S315080036709A4204D1304B4FF474629A6031E07A680A
S31508003680234B9A4204D12C4B4FF474129A6028E0CB
S315080036907A68204B9A4204D1274B4FF074629A609D
S315080036A01FE07A681C4B9A4203D1234B1F4ADA6003
S315080036B017E07A68194B9A4203D11F4B1C4ADA6005
S315080036C00FE07A68164B9A4203D11B4B194ADA6007
S315080036D007E07A68134B9A4203D1174B4FF03D52D5
S315080036E0DA600837BD4680BD106002402860024097
S315080036F040600240586002407060024088600240A4
S31508003700A0600240B860024010640240286402408B
S315080037104064024058640240706402408864024073
S31508003720A0640240B8640240006002403D000020E8
S31508003730400F002000003D20006402400000000009
S3150800374080B584B000AF786039600023FB607A6882
S315080037509C4B9A423BD07A689B4B9A4237D07A6800
S315080037609A4B9A4233D07A68994B9A422FD07A6804
S31508003770984B9A422BD07A68974B9A4227D07A6808
S31508003780964B9A4223D07A68954B9A421FD07A680C
S31508003790944B9A421BD07A68934B9A4217D07A6810
S315080037A0924B9A4213D07A68914B9A420FD07A6814
S315080037B0904B9A420BD07A688F4B9A4207D07A6818
S315080037C08E4B9A4203D07A688D4B9A4201D10123D7
S315080037D000E000231846FFF79BF93B681B68002B9F
S315080037E022D03B681B68B3F1007F1DD03B681B687D
S315080037F0B3F1806F18D03B681B68B3F1C06F13D064
S315080038003B681B68B3F1006F0ED03B681B68B3F1C9
S31508003810206F09D03B681B68B3F1406F04D03B6842
S315080038201B68B3F1606F01D1012300E0002318463D
S31508003830FFF76EF93B68DB68002B07D03B68DB684F
S31508003840402B03D03B68DB68802B01D1012300E0C5
S3150800385000231846FFF75CF93B681B69002B06D066
S315080038603B681B69B3F5803F01D2012300E00023C2
S315080038701846FFF74DF93B685B69B3F5007F03D03F
S315080038803B685B69002B01D1012300E00023184641
S31508003890FFF73EF93B689B69B3F5806F03D03B6839
S315080038A09B69002B01D1012300E000231846FFF78E
S315080038B02FF93B68DB69002B09D03B68DB69B3F558
S315080038C0006F04D03B68DB69B3F5805F01D1012343
S315080038D000E000231846FFF71BF93B681B6A002B1C
S315080038E009D03B681B6AB3F5005F04D03B681B6AC6
S315080038F0B3F5804F01D1012300E000231846FFF7F6
S3150800390007F93B685B6A002B04D03B685B6AB3F532
S31508003910807F01D1012300E000231846FFF7F8F85D
S315080039203B689B6A002B0ED03B689B6AB3F5803FC9
S3150800393009D03B689B6AB3F5003F04D03B689B6A95
S31508003940B3F5403F01D1012300E000231846FFF7F5
S31508003950DFF83B68DB6A002B03D03B68DB6A042B85
S3150800396001D1012300E000231846FFF7D1F83B6890
S315080039701B6B002B0BD03B681B6B012B07D03B68DE
S315080039801B6B022B03D03B681B6B032B01D1012356
S3150800399000E000231846FFF7BBF83B685B6B002B7B
S315080039A00ED03B685B6BB3F5000F09D03B685B6BC9
S315080039B0B3F1807F04D03B685B6BB3F1C07F21D144
S315080039C0012320E010600240286002404060024067
S315080039D0586002407060024088600240A060024061
S315080039E0B860024010640240286402404064024005
S315080039F0586402407064024088640240A064024031
S31508003A00B864024000231846FFF782F83B689B6BB0
S31508003A10002B0ED03B689B6BB3F5001F09D03B68A3
S31508003A209B6BB3F5800F04D03B689B6BB3F5C00F57
S31508003A3001D1012300E000231846FFF769F87B68E7
S31508003A401B68FB60FA68234B1340FB603B681A68E7
S31508003A503B68DB681A433B685B691A433B689B69AA
S31508003A601A433B68DB691A433B681B6A1A433B687F
S31508003A705B6A1A433B689B6A1A433B685B6B1A434B
S31508003A803B689B6B1343FA681343FB607B68FA68D1
S31508003A901A607B685B69FB60FB6823F00703FB60C1
S31508003AA03B68DA6A3B681B6B1343FA681343FB608F
S31508003AB07B68FA685A613B681A697B685A603B6892
S31508003AC05A687B689A603B689A687B68DA60103740
S31508003AD0BD4680BD3F801CF00000000000000000CD
S31508003AE080B582B000AF78600B46FB707A68324BBF
S31508003AF09A423BD07A68314B9A4237D07A68304B33
S31508003B009A4233D07A682F4B9A422FD07A682E4B36
S31508003B109A422BD07A682D4B9A4227D07A682C4B3A
S31508003B209A4223D07A682B4B9A421FD07A682A4B3E
S31508003B309A421BD07A68294B9A4217D07A68284B42
S31508003B409A4213D07A68274B9A420FD07A68264B46
S31508003B509A420BD07A68254B9A4207D07A68244B4A
S31508003B609A4203D07A68234B9A4201D1012300E096
S31508003B7000231846FEF7CCFFFB78002B02D0FB7813
S31508003B80012B01D1012300E000231846FEF7C0FFF0
S31508003B90FB78002B06D07B681B6843F001027B6824
S31508003BA01A6005E07B681B6823F001027B681A60CF
S31508003BB00837BD4680BD00BF10600240286002403D
S31508003BC040600240586002407060024088600240CF
S31508003BD0A0600240B86002401064024028640240B7
S31508003BE0406402405864024070640240886402409F
S31508003BF0A0640240B8640240000000000000000013
S31508003C0080B584B000AFF860B9601346FB71FA68F6
S31508003C10474B9A423BD0FA68464B9A4237D0FA68E5
S31508003C20454B9A4233D0FA68444B9A422FD0FA68E9
S31508003C30434B9A422BD0FA68424B9A4227D0FA68ED
S31508003C40414B9A4223D0FA68404B9A421FD0FA68F1
S31508003C503F4B9A421BD0FA683E4B9A4217D0FA68F5
S31508003C603D4B9A4213D0FA683C4B9A420FD0FA68F9
S31508003C703B4B9A420BD0FA683A4B9A4207D0FA68FD
S31508003C80394B9A4203D0FA68384B9A4201D101233C
S31508003C9000E000231846FEF73BFFBB6823F09E03AF
S31508003CA0002B04D1BB68002B01D0012300E00023C0
S31508003CB01846FEF72DFFFB79002B02D0FB79012B66
S31508003CC001D1012300E000231846FEF721FFBB6857
S31508003CD003F08003002B0FD0FB79002B06D0FB687E
S31508003CE05B6943F08002FB685A6105E0FB685B6923
S31508003CF023F08002FB685A61BB68802B14D0FB79DD
S31508003D00002B08D0FB681A68BB6803F01E031A4329
S31508003D10FB681A6008E0FB681A68BB6803F01E03B4
S31508003D20DB431A40FB681A601037BD4680BD00BFEA
S31508003D30106002402860024040600240586002401D
S31508003D407060024088600240A0600240B86002408D
S31508003D5010640240286402404064024058640240ED
S31508003D607064024088640240A0640240B86402405D
S31508003D7080B582B000AF78607B68002B02D07B6884
S31508003D80012B01D1012300E000231846FEF7C0FEEF
S31508003D90024B7A681A600837BD4680BDDC002742A8
S31508003DA080B58AB000AF7860396000237B62002353
S31508003DB03B620023FB610023BB617A688B4B9A4206
S31508003DC01BD07A688A4B9A4217D07A68894B9A42EE
S31508003DD013D07A68884B9A420FD07A68874B9A42F2
S31508003DE00BD07A68864B9A4207D07A68854B9A42F6
S31508003DF003D07A68844B9A4201D1012300E000235C
S31508003E001846FEF785FE3B681B68002B06D03B6804
S31508003E101A687E4B9A4201D8012300E0002318460F
S31508003E20FEF776FE3B689B88002B04D03B689B8890
S31508003E30B3F5805F01D1012300E000231846FEF7A1
S31508003E4067FE3B68DB88002B0ED03B68DB88B3F542
S31508003E50805F09D03B68DB88B3F5005F04D03B6818
S31508003E60DB88B3F5405F01D1012300E00023184643
S31508003E70FEF74EFE3B681B89002B09D03B681B8961
S31508003E80B3F5806F04D03B681B89B3F5C06F01D1C9
S31508003E90012300E000231846FEF73AFE3B685B89DB
S31508003EA01A464FF6F3731340002B05D13B685B891E
S31508003EB0002B01D0012300E000231846FEF728FE58
S31508003EC03B689B89002B0ED03B689B89B3F5807FA6
S31508003ED009D03B689B89B3F5007F04D03B689B8972
S31508003EE0B3F5407F01D1012300E000231846FEF711
S31508003EF00FFE3B689B89002B15D07A683B4B9A428C
S31508003F000BD07A683A4B9A4207D07A68394B9A426C
S31508003F1003D07A683A4B9A4201D1012300E0002384
S31508003F201846FEF7F5FD7B681B8A9BB27B627B6AA7
S31508003F3023F440537B623B68DB887A6A13437B62CF
S31508003F407B6A9AB27B681A827B689B899BB27B6282
S31508003F507B6A23F4B05323F00C037B623B689A8890
S31508003F603B681B8913439AB23B685B8913439BB230
S31508003F707A6A13437B627B6A9AB27B689A817B680A
S31508003F809B8A9BB27B627B6A23F440737B623B68A5
S31508003F909B897A6A13437B627B6A9AB27B689A82A8
S31508003FA007F108031846FCF7C3FD7A680F4B9A42D7
S31508003FB003D07A68124B9A4202D17B693B6201E0D0
S31508003FC03B693B627B689B899BB29BB21BB2002B09
S31508003FD01EDA3A6A13469B0013449A001A443B6851
S31508003FE01B685B00B2FBF3F3FB611DE000100140A8
S31508003FF00044004000480040004C0040005000408B
S315080040000014014000780040007C0040E070720017
S315080040103A6A13469B0013449A001A443B681B6885
S315080040209B00B2FBF3F3FB61FA691B4BA3FB02137C
S315080040305B091B017B627B6A1B09642202FB03F393
S31508004040FA69D31ABB617B689B899BB29BB21BB288
S31508004050002B0DDABB69DB0003F132020E4BA3FB22
S3150800406002135B0903F007037A6A13437B620CE0C9
S31508004070BB691B0103F13202074BA3FB02135B0961
S3150800408003F00F037A6A13437B627B6A9AB27B68F2
S315080040901A812837BD4680BD1F85EB5100000000F8
S315080040A080B582B000AF78600B46FB707A68244B07
S315080040B09A421BD07A68234B9A4217D07A68224BC9
S315080040C09A4213D07A68214B9A420FD07A68204BCD
S315080040D09A420BD07A681F4B9A4207D07A681E4BD1
S315080040E09A4203D07A681D4B9A4201D1012300E017
S315080040F000231846FEF70CFDFB78002B02D0FB7850
S31508004100012B01D1012300E000231846FEF700FD2C
S31508004110FB78002B08D07B689B899BB243F400533D
S315080041209AB27B689A8107E07B689B899BB223F4E5
S3150800413000539AB27B689A810837BD4680BD00BF96
S31508004140001001400044004000480040004C004078
S31508004150005000400014014000780040007C0040F8
S3150800416080B582B000AF786013460A467A807B70C5
S315080041707A682C4B9A421BD07A682B4B9A4217D0F6
S315080041807A682A4B9A4213D07A68294B9A420FD0FA
S315080041907A68284B9A420BD07A68274B9A4207D0FE
S315080041A07A68264B9A4203D07A68254B9A4201D1FF
S315080041B0012300E000231846FEF7AAFC7A884FF68A
S315080041C03F731340002B04D17B88002B01D00123B9
S315080041D000E000231846FEF79BFC7B78002B02D0F4
S315080041E07B78012B01D1012300E000231846FEF756
S315080041F08FFC7B78002B08D07B689B8A9AB27B88D9
S3150800420013439AB27B689A8209E07B689B8A9AB2C2
S315080042107B88DB439BB213409AB27B689A82083745
S31508004220BD4680BD001001400044004000480040E3
S31508004230004C004000500040001401400078004047
S31508004240007C0040000000000000000000000000A4
S3150800425080B586B000AF786013460A467A807B70D0
S3150800426000233B610023FB600023BB6000237B61C6
S315080042707A68554B9A421BD07A68544B9A4217D0A3
S315080042807A68534B9A4213D07A68524B9A420FD0A7
S315080042907A68514B9A420BD07A68504B9A4207D0AB
S315080042A07A684F4B9A4203D07A684E4B9A4201D1AC
S315080042B0012300E000231846FEF72AFC7B88282BFA
S315080042C020D07A8840F227739A421BD07A8840F227
S315080042D026639A4216D07A8840F225539A4211D01C
S315080042E07A8840F224439A420CD07A8840F64603EC
S315080042F09A4207D07A8840F66A139A4202D07B8897
S31508004300602B01D1012300E000231846FEF700FCCC
S315080043107B78002B02D07B78012B01D1012300E0AA
S3150800432000231846FEF7F4FB7A8840F66A139A4289
S3150800433015D17A68244B9A420BD07A68234B9A4255
S3150800434007D07A68224B9A4203D07A68234B9A425E
S3150800435001D1012300E000231846FEF7D9FB7B684C
S315080043607B617B88DBB25B09DBB23B617B8803F050
S315080043701F03FB60FB68012202FA03F3BB603B697B
S31508004380012B03D17B690C337B6109E03B69022B66
S3150800439003D17B6910337B6102E07B6914337B614F
S315080043A07B78002B06D07B697A691168BA680A435C
S315080043B01A6006E07B697A691168BA68D2430A40CE
S315080043C01A601837BD4680BD001001400044004001
S315080043D000480040004C00400050004000140140D6
S315080043E000780040007C004000000000000000004B
S315080043F080B586B000AF786039602A4B1B681846CE
S3150800440000211422FDF7DCF93A687B68D31A7B6130
S315080044107B695B0A3B613B69DB007A69D31AFB60FF
S31508004420204B1B68FA68120992B21A821D4B1A6849
S315080044301C4B1B681B8A1BB2002B00DA1F335B114F
S315080044409BB21BB29BB29B009BB21381154B1B6898
S315080044507A681A60134B1B683A6991007A680A44AD
S315080044605A60104B1B683A69D1007A680A44DA60C8
S315080044700C4B1B681A680B4B1B681B8910460021DE
S315080044801A46FDF79DF9074B1B685A68054B1B68CA
S315080044901B89104600211A46FDF792F91837BD46C2
S315080044A080BD00BF040E00200000000000000000D0
S315080044B080B485B000AFF8600B467A607B81B7F9A7
S315080044C00A30002B28DBFB681B8AB7F90A201BB2C7
S315080044D09A4221DAB7F90A30002B00DA1F335B114A
S315080044E09BB21BB29B007A6813441A68B7F90A1084
S315080044F00D4B0B40002B03DA013B63F01F0301331E
S315080045009BB21BB2012101FA03F31340002B0CBF27
S3150800451000230123DBB200E0002318461437BD460A
S315080045205DF8047B704700BF1F0000800000000094
S3150800453080B487B000AFF8607A600A467A817B72E9
S31508004540B7F90A30002B41DBFB681B8AB7F90A204A
S315080045501BB29A423ADAB7F90A201F4B1340002BCE
S3150800456003DA013B63F01F030133FB82B7F90A3014
S31508004570002B00DA1F335B11BB827B7A002B12D02B
S31508004580B7F914309B007A681344B7F914209200DF
S3150800459079680A441168B7F91620012000FA02F270
S315080045A00A431A6012E0B7F914309B007A6813447C
S315080045B0B7F91420920079680A441168B7F91620E9
S315080045C0012000FA02F2D2430A401A601C37BD469F
S315080045D05DF8047B704700BF1F00008000000000E4
S315080045E080B584B000AF786013460A467A803B806F
S315080045F07A883B8813449BB2BB817B681B8AB7F9D0
S315080046000C201BB29A421BDA7B88FB8110E07B6880
S315080046101B68B7F90E20786811461A46FFF748FF57
S315080046200346002B01D000230BE0FB890133FB81F5
S31508004630B7F90E20B7F90C309A42E8DB012300E0FF
S31508004640002318461037BD4680BD00BF0000000095
S3150800465080B584B000AF78600B467B800023BB81B1
S315080046600023BB6035E07B681A68B7F90C30002B6D
S3150800467000DA1F335B119BB21BB29B0013441B6805
S31508004680BB60BB68B3F1FF3F1FD00023FB8118E076
S31508004690BA89FB8913449BB29BB21AB2B7F90230A6
S315080046A0786811461A46FFF79BFF0346002B05D08C
S315080046B0BA89FB8913449BB29BB213E0FB89013389
S315080046C0FB81B7F90E301F2BE2DDBB8920339BB285
S315080046D0BB817B681B8AB7F90C201BB29A42C2DBE6
S315080046E04FF6FF731BB218461037BD4680BD00BF94
S315080046F080B584B000AF78600B467B800023FB81D1
S31508004700B7F90230002B25DB7B681B8AB7F9022034
S315080047101BB29A421EDA00BFB7F90220B7F90E306B
S315080047201A447B681B8A1BB29A4213DAFB891A461B
S315080047300132FA819AB27B8813449BB29AB27B689B
S315080047405B6812B2786811461A46FFF7B1FE03464F
S31508004750002BE1D0FB891BB218461037BD4680BD39
S3150800476080B485B000AF786039603B68002B12D002
S315080047703A687B68DB68D31A1B09FB81B7F90E30E8
S31508004780002B08DB7B681B8AB7F90E201BB29A42FE
S3150800479001DAFB8901E04FF6FF731BB2184614379E
S315080047A0BD465DF8047B704700000000000000006D
S315080047B080B485B000AF78600B467B800023FB6031
S315080047C0B7F90230002B0DDB7B681B8AB7F902208C
S315080047D01BB29A4206DA7B68DA68B7F902301B011F
S315080047E01344FB60FB6818461437BD465DF8047B26
S315080047F0704700BF00000000000000000000000035
S3150800480080B584B000AF786013460A467A803B804C
S315080048100023BB60B7F90230002B50DB7B681B8A8C
S31508004820B7F902201BB29A4249DA0023FB8134E029
S31508004830B7F90E20B7F90030013B9A420ED17A88B3
S31508004840FB8913449BB29AB27B685B6812B278689C
S3150800485011461A460123FFF76BFE0DE07A88FB899D
S3150800486013449BB29AB27B685B6812B278681146A9
S315080048701A460023FFF75CFE7A88FB8913449BB22D
S315080048809AB27B681B6812B2786811461A460123E9
S31508004890FFF74EFEFB890133FB81B7F90E20B7F906
S315080048A000309A42C4DBB7F9023078681946FFF738
S315080048B07FFFB860B7F900301846FCF701FBBB6804
S315080048C018461037BD4680BD0000000000000000F5
S315080048D080B584B000AF786013460A467A803B807C
S315080048E0B7F90230002B34DB7B681B8AB7F9022044
S315080048F01BB29A422DDA0023FB811EE07A88FB89D7
S3150800490013449BB29AB27B681B6812B27868114648
S315080049101A460023FFF70CFE7A88FB8913449BB2DC
S315080049209AB27B685B6812B2786811461A46002309
S31508004930FFF7FEFDFB890133FB81FA89B7F90030E1
S315080049409A42DBDBB7F900301846FCF7C9FA0123AF
S3150800495000E0002318461037BD4680BD0000000061
S3150800496080B586B000AFF86079813A81FB80002374
S315080049707B75B7F90A30002B29DBFB681B8AB7F968
S315080049800A201BB29A4222DA0023FB8217E07A89B0
S315080049903B8913449AB2FB8A13449BB29AB2FB68CA
S315080049A01B6812B2F86811461A46FFF781FD0346DE
S315080049B0002B01D07B7D0BE0FB8A0133FB82B7F924
S315080049C01620B7F906309A42E1DB01237B757B7D19
S315080049D018461837BD4680BD0000000000000000DC
S315080049E080B586B000AFF86079813A81FB800023F4
S315080049F07B75B7F90A10B7F90820B7F90630F868D1
S31508004A00FFF7AEFF0346002B41D03A89FB881344D3
S31508004A107B820023FB8233E0B7F916207B8A013BB1
S31508004A209A420ED17A89FB8A13449BB29AB2FB68E2
S31508004A305B6812B2F86811461A460123FFF778FD3B
S31508004A400DE07A89FB8A13449BB29AB2FB685B68CD
S31508004A5012B2F86811461A460023FFF769FD7A89EB
S31508004A60FB8A13449BB29AB2FB681B6812B2F868B9
S31508004A7011461A460123FFF75BFDFB8A0133FB82C9
S31508004A80B7F916207B8A9A42C6DB01237B757B7DA4
S31508004A9018461837BD4680BD00000000000000001B
S31508004AA080B586B000AF786000237B617B68002BF9
S31508004AB033D07B681B099AB27B6803F00F03002B7F
S31508004AC001D0012300E0002313449BB27B82FEF74A
S31508004AD00FF9F860134B1A68B7F9123010461946E1
S31508004AE0FFF7B6FD03467B81B7F90A30002B0CDBCE
S31508004AF00C4B1968B7F90A20B7F91230084611465F
S31508004B001A46FFF77DFE786104E07868FBF7D8FB64
S31508004B1000237B61F868FEF7FBF87B6918461837AF
S31508004B20BD4680BD040E0020000000000000000005
S31508004B3080B588B000AF786039607B68002B00F0DC
S31508004B40A1803B68002B00F09D803B681B099AB248
S31508004B503B6803F00F03002B01D0012300E000237C
S31508004B6013449BB2FB83FEF7C3F8B861514B1B682D
S31508004B7018467968FFF7F4FD0346FB82B7F9163045
S31508004B80002B75DB4B4B1A68B7F9163010461946D9
S31508004B90FFF7AEFD0346BB82B7F91E20B7F91430FE
S31508004BA09A4248DD434B1868FA8BBB8AD31A9BB2E4
S31508004BB09BB2B7F91610B7F914201BB2FFF710FF0E
S31508004BC00346002B36D13B4B1968B7F91620B7F9BF
S31508004BD01430084611461A46FFF77AFE354B1A680E
S31508004BE0B7F91E3010461946FFF732FD03467B8299
S31508004BF0B7F91230002B16DB2E4B1968B7F91220BD
S31508004C00B7F91E30084611461A46FFF7F9FDF8604F
S31508004C10B7F914301B01F86879681A46FCF798FD4D
S31508004C20FB687B6006E078683968FCF771F9002351
S31508004C307B6023E022E0B7F91E20B7F914309A42C8
S31508004C401CDA1C4B1968B7F91620B7F91430084650
S31508004C5011461A46FFF73CFE164B1968B7F9162097
S31508004C60B7F91E30084611461A46FFF7C9FD05E092
S31508004C7078683968FCF74CF900237B60B869FEF759
S31508004C8047F812E07B68002B08D03B68002B05D15B
S31508004C90786800F015F800237B6006E07B68002B37
S31508004CA003D13868FFF7FCFE78607B681846203722
S31508004CB0BD4680BD040E0020000000000000000074
S31508004CC080B584B000AF7860FEF712F8F860154B2F
S31508004CD01B6818467968FFF743FD03467B81B7F9D9
S31508004CE00A30002B15D00F4B1A68B7F90A30104650
S31508004CF01946FFF7FDFC03463B810A4B1968B7F9CD
S31508004D000A20B7F90830084611461A46FFF7E0FDAB
S31508004D1002E07868FCF7F4F8F868FDF7F9FF103751
S31508004D20BD4680BD040E0020000000000000000003
S31508004D3080B584B000AF0346FB800C20FCF700F971
S31508004D40F860FB68002B18D0F86800210C22FCF7E5
S31508004D5037FDFB881846FCF7F3F80246FB681A602D
S31508004D60FB681B68002B03D0FB68FA889A8004E06E
S31508004D70F868FCF705F90023FB60FB68184610374E
S31508004D80BD4680BD000000000000000000000000D5
S31508004D9080B584B000AF78600023FB737B68002B76
S31508004DA013D0FDF7A5FFB8607B681B68002B04D0FD
S31508004DB07B681B681846FCF7E3F87868FCF7E0F8A8
S31508004DC00123FB73B868FDF7A3FFFB7B1846103772
S31508004DD0BD4680BD00000000000000000000000085
S31508004DE080B584B000AF7860FDF782FFF8607B6815
S31508004DF0DA887B681B899A4214BF00230123DBB239
S31508004E00FB72F868FDF784FFFB7A18461037BD4633
S31508004E1080BD00BF00000000000000000000000088
S31508004E2080B584B000AF7860FDF762FFB8607B6834
S31508004E30DB881A467B681B89D31AFB60FB68002B44
S31508004E4009DA7B689B881A467B681B89D21A7B68B5
S31508004E50DB881344FB60B868FDF75AFFFB68184601
S31508004E601037BD4680BD00BF0000000000000000EE
S31508004E7080B584B000AF78600B46FB70FDF738FF4D
S31508004E80F8607B68DB881A467B681B89013B9A4277
S31508004E900DD07B68DB881A467B689B88013B9A4263
S31508004EA003D17B681B89002B01D0012300E0002376
S31508004EB0FB72FB7A002B13D07B681A687B68DB8849
S31508004EC0591C88B27968C8801344FA781A707B68C6
S31508004ED0DA887B689B889A4202D37B680022DA804C
S31508004EE0F868FDF715FFFB7A18461037BD4680BDF2
S31508004EF080B584B000AF7860FDF7FAFEB8604FF071
S31508004F00FF33FB607B68DA887B681B899A4213D07B
S31508004F107B681A687B681B89591C88B2796808817E
S31508004F2013441B78FB607B681A897B689B889A42C6
S31508004F3002D37B6800221A81B868FDF7E9FEFB6890
S31508004F4018461037BD4680BD00000000000000006E
S31508004F5080B584B000AF7860174B1B687A689A42B0
S31508004F6023DD164B1A687B689B0010461946FBF72B
S31508004F70F7FF0246114B1A60104B1B68002B14D022
S31508004F800D4B1B68FB6009E00C4B1A68FB689B001D
S31508004F90134400221A60FB680133FB60FA687B68D9
S31508004FA09A42F1DB044B7A681A60034B1B68184671
S31508004FB01037BD4680BD00BFE0160020DC16002075
S31508004FC080B588B000AF0346B9607A60FB730023EA
S31508004FD0FB61FDF78DFE7861154B1B68DBB297F90F
S31508004FE00F205BB29A421ADA124B1A68FB7B9B00B7
S31508004FF013441B68BB610FE0BB691A68BB689A4219
S3150800500007D1BB695A687B689A4202D10123FB61C2
S3150800501005E0BB699B68BB61BB69002BECD178696D
S31508005020FDF776FEFB6918462037BD4680BD00BFF2
S31508005030E0160020DC16002000000000000000003A
S3150800504080B588B000AF0346B9607A60FB7397F9FC
S315080050500F301846B9687A68FFF7B2FF0346002B87
S3150800506044D1FDF745FEB861FB7B01331846FFF7CF
S315080050706FFF0246FB7B9A4233DD0C20FBF760FF8D
S3150800508078617B69002B2CD0786900210C22FCF70B
S3150800509097FB7B69BA681A607B697A685A60164B0F
S315080050A01A68FB7B9B0013441B68002B07D1124B25
S315080050B01A68FB7B9B0013447A691A6011E00E4B51
S315080050C01A68FB7B9B0013441B68FB6102E0FB69C3
S315080050D09B68FB61FB699B68002BF8D1FB697A69C1
S315080050E09A60B869FDF714FEFB7B01E04FF0FF33C9
S315080050F018462037BD4680BDDC160020000000009B
S3150800510080B584B000AF0346FB710D4B1A68FB7976
S315080051109B0013441B68FB600BE0FB681B68FA687E
S31508005120526897F90710084611469847FB689B6826
S31508005130FB60FB68002BF0D11037BD4680BD00BF71
S31508005140DC1600200000000000000000000000003F
S3150800515070617373656400006661696C656400005C
S3150800516025733A2025642025730A00007465737434
S31508005170315F746872656164000000007465737459
S31508005180325F74687265616400000000202048433D
S315080051904C4B3A2025644D487A0A0000535953432C
S315080051A04C4B3A2025644D487A0A00002050434C5F
S315080051B04B313A2025644D487A0A00002050434C6A
S315080051C04B323A2025644D487A0A00000000000058
S315080051D02D000000286E756C6C2900006469626FEA
S315080051E075786373656667250000000020090A0D57
S315080051F00C0B0000646F6278750000000000000068
S315080052000000000043415249424F5500000000008B
S315080052107277000000000000000000000000000097
S31508005220440C0020D11A0008511B0008B11B0008C5
S31508005230E11B0008111C0008840C0020D11A000884
S31508005240511B0008B11B0008E11B0008111C0008CF
S31508005250C40C0020D11A0008511B0008B11B000815
S31508005260E11B0008111C0008040D0020D11A0008D3
S31508005270511B0008B11B0008E11B0008111C00089F
S31508005280440D0020D11A0008511B0008B11B000864
S31508005290E11B0008111C0008840D0020D11A000823
S315080052A0511B0008B11B0008E11B0008111C00086F
S315080052B000000000000000000000000000000000E0
S30D080052C00000000000000000D8
S315080052C8007A030A00000000000000000102030437
S315080052D80607080900000000010203040102030486
S315080052E806070809000002404000000000000240C6
S315080052F810000000000402404000000000080240B8
S31508005308400000000010014025000000802500002C
S31508005318080100000000000000000000000000006E
S3150800532888640240000000080410014000000000DC
S3150800533800000000B864024000000008041001409C
S3150800534800000000004400402600000080250000F8
S31508005358080100000000000000000000000000002E
S3150800536888600240000000080410014000000000A0
S3150800537800000000A0600240000000080410014078
S3150800538800000000004800402700000080250000B3
S3150800539808010000000000000000000000000000EE
S315080053A828600240000000080410014000000000C0
S315080053B80000000058600240000000080410014080
S315080053C800000000004C0040340000008025000062
S315080053D808010000000000000000000000000000AE
S315080053E84060024000000008041001400000000068
S315080053F80000000070600240000000080410014028
S31508005408000000000050004035000000802500001C
S31508005418080100000000000000000000000000006D
S315080054281060024000000008041001400000000057
S3150800543800000000B860024000000008041001409F
S315080054480000000000140140470000008025000005
S31508005458080100000000000000000000000000002D
S31508005468406402400000000A0410014000000000E1
S3150800547800000000A06402400000000A0410014071
S315080054880000000000000000000000000000000006
S3150800549800000000000000000000000000000000F6
S315080054A800000000000000000000000000000000E6
S315080054B800000000000000000000000000000000D6
S30D080054C800000000C4160020D4
S705080001B140
