S02B00002F686F6D652F6D696B652F446F63756D656E74732F63617269626F752D72746F732F6272616E6368A0
S3150800000000020020B1010008C1200008C13C000818
S31508000010C13C0008C13C0008C13C0008C13C0008BE
S31508000020C13C0008C13C0008C13C0008B1200008DA
S31508000030C13C0008C13C0008A10B0008F10B0008F0
S3150800004081200008812000088120000881200008FE
S3150800005081200008812000088120000881200008EE
S3150800006081200008812000088120000881200008DE
S3150800007081200008812000088120000881200008CE
S3150800008081200008812000088120000881200008BE
S3150800009081200008812000088120000881200008AE
S315080000A0812000088120000881200008812000089E
S315080000B0812000088120000881200008812000088E
S315080000C0812000088120000881200008812000087E
S315080000D0812000088120000881200008812000086E
S315080000E0812000088120000881200008812000085E
S315080000F0812000088120000881200008812000084E
S31508000100812000088120000881200008812000083D
S31508000110812000088120000881200008812000082D
S31508000120812000088120000881200008812000081D
S31508000130812000088120000881200008812000080D
S3150800014081200008812000088120000881200008FD
S3150800015081200008812000088120000881200008ED
S3150800016081200008812000088120000881200008DD
S3150800017081200008812000088120000881200008CD
S3150800018081200008812000088120000881200008BD
S3150800019081200008812000088120000881200008AD
S315080001A0812000088120000881200008812000089D
S315080001B072B6304880F30988022080F31488BFF3AA
S315080001C06F8F2D482B49FA2200F04CF82B482C4902
S315080001D0FA2200F047F82B482B492C4A00F037F84A
S315080001E02B482C49002200F03DF82B4A90472B4813
S315080001F02B492C4A90472C482C49884200F0078006
S315080002000268043003B4904703BCFFF7F6BF284AD8
S315080002109047002000218646EC46264A9047264805
S315080002202649884200F007800268043003B49047E4
S3150800023003BCFFF7F6BFFFF7BBBFFFF7FEBF03F030
S315080002403FBD03F03DBD03F03BBD03F039BD884219
S3150800025007D0521A05D0037801300B700131013AE4
S31508000260F9D17047884203D002700130FFF7FABF10
S315080002707047000000040020000200200000002053
S3150800028000020020503F000800040020BC040020A3
S31508000290C00400201C060020C10200081C0600201D
S315080002A000500020A10F0008B0010008B0010008A6
S315080002B01104000811050008B0010008B001000883
S315080002C080B588B000AF4FF4803002F001FC00BF63
S315080002D002F03EFC0346012BFAD1012002F060FC35
S315080002E03B1D184602F08CFC02F0C2FA02F0F8FA3E
S315080002F03B1D184602F084FC0120012102F070FD26
S315080003000120012102F034FD0220012102F030FD16
S315080003104020012102F02CFD0420012102F060FD9D
S315080003200820012102F05CFD1020012102F058FD91
S315080003302020012102F054FD4020012102F050FD49
S315080003408020012102F04CFD4FF48070012102F05B
S3150800035047FD4FF40030012102F07AFD4FF400709A
S31508000360012102F03DFD4FF40060012102F038FD45
S315080003704FF40060012102F06BFD4FF0006001218F
S3150800038002F066FD4FF08050012102F061FD4FF04A
S315080003908040012102F05CFD134B144A1A60124B8F
S315080003A0134A5A60134B4FF044321A60114B124AE3
S315080003B05A60124B124A1A60104B4FF044325A6078
S315080003C0104B4FF044321A600E4B4FF044325A60CD
S315080003D00D4B4FF044321A600B4B4FF044325A60C3
S315080003E02037BD4680BD00BF00080140444A44444A
S315080003F064464444000C0140224444440010014031
S3150800040088444444001401400018014000000000DC
S3150800041080B500AF0120124900F002FE0246114BDA
S315080004201A60104B1A68104B1A600F4B1A680F4B5C
S315080004301A600F4B1B680E4A928812041A610D4BFC
S315080004401B680C4A928812041A610B4B1B680A4AED
S3150800045092881A61094B1B68084A92881A6180BDFE
S31508000460E03C0008FC050020F4050020F805002003
S3150800047000040020080400201004002018040020AE
S3150800048080B500AF144BD3E90023104619464FF444
S31508000490FA724FF0000300F043FC0346002B1AD013
S315080004A00E4B1B689A680D4B9B881340002B06D091
S315080004B00A4B1B68094A928812041A6104E0074B22
S315080004C01B68064A92881A6100F0CAFB02460B4668
S315080004D00149C1E9002380BDC004002008040020AA
S315080004E080B483B000AF7860FEE700BF000000006C
S315080004F080B584B000AF78600023FB81FB89024891
S31508000500194601F035F8F9E7F03C0008000000004C
S3150800051080B586B004AF78603960002000F048F8EE
S31508000520094B00934FF48073019301230293074804
S3150800053007490022002300F0B3F900F031F8002340
S3150800054018460837BD4680BDC80400201C3D000873
S31508000550F104000800000000000000000000000090
S3150800056080B500AF01F0B4FD0346184680BD00BF54
S3150800057080B582B000AF7860786801F0C9FD0837A9
S31508000580BD4680BD0000000000000000000000001D
S3150800059080B500AF01F0DCFD80BD00BF00000000A3
S315080005A080B500AF00F0A4FA80BD00BF00000000CF
S315080005B080B582B000AF0346FB7101F059FE00F02A
S315080005C037FC0346184601F03BFE97F907309BB205
S315080005D01BB2184600F0FCF901F042FE0837BD468A
S315080005E080BD00BF00000000000000000000000001
S315080005F0EFF309807047184600000000000000006D
S3150800060080B582B000AF0346FB80084BDB68002B41
S3150800061007D0064BDB68F988044A12690846114672
S315080006209847FB8818460837BD4680BDC805002090
S3150800063080B584B000AF7860482000F0C1FCF8604F
S31508000640FB68002B08D0F8680021482201F000F862
S31508000650FB687A685A6002E00820FFF7D1FFFB685A
S3150800066018461037BD4680BD000000000000000097
S3150800067080B582B000AF7860786800F0C1FC0837B2
S31508000680BD4680BD0000000000000000000000001C
S3150800069080B485B000AF78600F4B1B68FB60FB68C1
S315080006A0002B0BD002E0FB681B68FB60FB681B682D
S315080006B0002BF8D1FB687A681A6005E0064B7A6861
S315080006C01A607B6800221A607B6818461437BD4694
S315080006D05DF8047B704700BFC805002000000000D5
S315080006E080B485B000AF7860134B1A687B689A426D
S315080006F004D17B681A68104B1A6016E00E4B1B680B
S31508000700FB600CE0FB681A687B689A4204D17B6838
S315080007101A68FB681A6005E0FB681B68FB60FB68E3
S31508000720002BEFD17B6800221A607B6818461437C5
S31508000730BD465DF8047B7047C80500200000000030
S3150800074080B582B000AF00237B6001F0C1FC386041
S315080007500B4B5B68002B0AD0094B5B681B8E1BB2E0
S315080007607B60074B5B681A8E013292B21A8638682C
S3150800077001F0CEFC7B6818460837BD4680BD00BF31
S31508000780C80500200000000000000000000000006E
S3150800079080B582B000AF00237B6001F099FC386019
S315080007A00E4B5B68002B10D00C4B5B681B8E1BB284
S315080007B0002B0ADD094B5B681B8E1BB27B60074B5F
S315080007C05B681A8E013A92B21A86386801F0A0FC64
S315080007D07B6818460837BD4680BD00BFC80500209F
S315080007E080B500AF0E4B5B68002B18D00C4B5B68CE
S315080007F01B8E002B13D101F043FD0346002B0ED0B0
S31508000800074B5B68064A5268928B42F0020292B224
S315080008109A83034B4FF6FF721A81FFF7B9FE80BD24
S31508000820C8050020000000000000000000000000CD
S3150800083080B584B000AF786001F01AFDF8607B6877
S315080008409B8B43F004039AB27B689A837B685B6B45
S31508000850002B05D07B685B6B7A68526A104698470E
S315080008607868FFF73DFF7868FFF702FF786800F0C1
S31508000870C7FAF86801F00CFD1037BD4680BD00BF09
S3150800088080B500AF054B5B68044A5268928B42F00C
S31508000890040292B29A83FFF7A3FFFCE7C80500207B
S315080008A080B588B000AFF860B9607A603B60002315
S315080008B0FB6101F0DDFCB861BB6A002B1ED0FB6A48
S315080008C0B86AFA211A4600F0C3FEFB6A403BBA6AC8
S315080008D013447B6178690021402200F0B9FE3A682A
S315080008E07B691A62334A7B695A63BB6823F0010243
S315080008F07B699A637B694FF00452DA632E4B5B6817
S31508000900002B02D12C4B1B6801E02B4B5B68184669
S31508000910FFF78EFEF861FB69002B42D0FB690022C7
S315080009209A83BB6A002B1AD0FB6ABA6A13443B61E6
S315080009303B69403B1A46FB699A60FB6ABA6A1A44E5
S31508000940FB695A61FB69BA6A1A61FB691B6903F19B
S315080009504002FB691A61FB69BA6A9A6112E0FB698F
S31508000960164A9A60FB699A68FB695A61FB69144AD8
S315080009701A61FB691B6903F14002FB691A61FB698D
S315080009800F4A9A61FB69FA681A62FB693A685A6201
S31508000990FB693A8EDA83FB697A685A63F869FFF766
S315080009A077FEB86901F074FCFB6918462037BD4626
S315080009B080BD00BF81080008C8050020000400208B
S315080009C000020020000000000000000000000000F7
S315080009D080B586B004AF0346FB800023009300234E
S315080009E00193B7F906300293074800210022002335
S315080009F0FFF756FF0246054B5A60044B5B681846DC
S31508000A000837BD4680BD00BF343D0008C805002034
S31508000A1080B582B000AF78607B689A687B681B698E
S31508000A209A4205D97B689A687B685B699A421CD9A1
S31508000A307B689A687B681B699A4203D80120FFF78E
S31508000A40DFFD12E07B689A687B689B699A4203D847
S31508000A500420FFF7D5FD08E07B689A687B685B6928
S31508000A609A4202D90220FFF7CBFD7B689A687B6819
S31508000A70DB689A4203D37B68DB68002B03D17B686B
S31508000A809A687B68DA600837BD4680BD00000000BA
S31508000A9080B582B000AF154B1B687B60FFF7F0FC92
S31508000AA0124B1B68184600F00BFA104B1B687B604C
S31508000AB015E07B681B683B607868FFF7A9FF7B68D1
S31508000AC09B8B03F00403002B07D0084B5A687B68FE
S31508000AD09A4202D07868FFF7ABFE3B687B607B687A
S31508000AE0002BE6D10837BD4680BD00BFC8050020EB
S31508000AF080B500AFFFF7CCFFFFF772FEFAE700BF3D
S31508000B0080B400AF244B5B68244A1268DA63224B30
S31508000B105B681B8E002B3AD11F4B1B899BB21A466A
S31508000B20013A91B21C4A11811BB2002B2FDA08E058
S31508000B30194B5B68184A5268928B22F0020292B2ED
S31508000B409A83154B5B681B68002B03D0124B5B68B6
S31508000B501B6801E0104B1B680F4A53600E4B5B681D
S31508000B609B8B03F00603002BE2D10B4B5B68DA8BF9
S31508000B70094B1A81084B1B891BB2002B02DA064B5C
S31508000B8000221A81044B5B68DA6B044B1A60BD4677
S31508000B905DF8047B704700BFC8050020F0050020FB
S31508000BA000B5EFF3098020E9F00F80F3098801F01A
S31508000BB0DFFA0D4B5B68002B0CD00B4B5C68FFF71C
S31508000BC017FD0346A360FFF79BFF074B5B689B680F
S31508000BD083F3098801F0F4FAEFF30980B0E8F00F1F
S31508000BE080F3098800BD00BFC8050020000000008A
S31508000BF000B5EFF3098020E9F00F80F3098801F0CA
S31508000C00B7FA164B5B68002B1ED0144B5C68FFF7CF
S31508000C10EFFC0346A360114BD3E90623013243F1E7
S31508000C2000030E49C1E906230C4B5968D1E90A238A
S31508000C30013243F10003C1E90A23FFF761FF074BBD
S31508000C405B689B6883F3098801F0BAFAEFF30980B9
S31508000C50B0E8F00F80F3098800BD00BFC805002082
S31508000C6080B400AF044BD3E9062310461946BD46A7
S31508000C705DF8047B704700BFC8050020000000002F
S31508000C8080B582B000AF78607B681B7E03F00103F5
S31508000C90002B02D0786800F0B3F90837BD4680BD4E
S31508000CA080B584B000AF78603960FFF759FCF8600A
S31508000CB07B689A6B3B689A420CD13B685A687B689A
S31508000CC09A637B689B6B002B1CD07B689B6B00220E
S31508000CD01A6017E03B681B68002B04D03B681B684A
S31508000CE03A6852685A603B685B68002B04D03B68D8
S31508000CF05B683A6812681A603B6800225A603B686B
S31508000D0000221A60F868FFF733FC3B68184610376C
S31508000D10BD4680BD00000000000000000000000085
S31508000D2080B487B000AFC7E90201C7E900230023F2
S31508000D30FB75D7E9002352EA030119D0D7E9002346
S31508000D40B3F1FF3F08BFB2F1FF3F11D00C4BD3E917
S31508000D500601D7E90223801A61EB0301D7E90023CC
S31508000D60904271EB030CB4BF00230123DBB2FB7581
S31508000D70FB7D18461C37BD465DF8047B704700BFEF
S31508000D80C805002000000000000000000000000068
S31508000D9080B584B000AF78603960FFF7E1FBF86092
S31508000DA07B683A681A617B683A685A61F868FFF79F
S31508000DB0DFFB7B6818461037BD4680BD0000000083
S31508000DC080B584B000AF78603960FFF7C9FBF8607A
S31508000DD038680021FFF7DCFF78683968FFF760FF9D
S31508000DE03868FFF74DFFF868FFF7C2FB1037BD46B6
S31508000DF080BD00BF000000000000000000000000E9
S31508000E0080B582B000AF786005E07B689B6B786838
S31508000E101946FFF7D5FF7B689B6B002BF5D1083782
S31508000E20BD4680BD00000000000000000000000074
S31508000E3080B400AF01231846BD465DF8047B7047B1
S31508000E4080B586B000AFF860B9607A6000237B6130
S31508000E50BB681B69002B28D0BB681A697B689A4255
S31508000E6004D3BB681A697B68D31A00E00023BA6802
S31508000E701361BB681B69002B17D1BB689B68002BE5
S31508000E8006D0BB689B68BA68D268F868B96898479C
S31508000E90BB681B7E03F00203002B03D1BB685A69AB
S31508000EA0BB681A617B6901337B617B691846183711
S31508000EB0BD4680BD000000000000000000000000E4
S31508000EC080B586B000AF786001F002F9F8601A4B79
S31508000ED0D3E906231146184BD3E908231346CB1A40
S31508000EE0BB60BB68002B1FD0134BD3E906231249FE
S31508000EF0C1E9082315E07B689B6B3B610BE07868CA
S31508000F003969BA68FFF79CFF03467A6913447B611F
S31508000F103B695B683B613B69002BF0D17B681B68CA
S31508000F207B607B68002BE6D1F86801F0F1F87B69F5
S31508000F3018461837BD4680BDC805002000000000C9
S31508000F4080B483B000AF0346FB800C37BD465DF81E
S31508000F50047B70470000000000000000000000004D
S31508000F6080B483B000AF0346FB800C37BD465DF8FE
S31508000F70047B70470000000000000000000000002D
S31508000F8080B483B000AF7860FEE700BF00000000C1
S31508000F9080B483B000AF78603960FEE700000000D7
S31508000FA080B582B000AF786039607868396800F03B
S31508000FB077FB0837BD4680BD000000000000000032
S31508000FC080B582B000AF7860786800F0D9FE034635
S31508000FD018460837BD4680BD000000000000000026
S31508000FE080B582B000AF786039607868396800F0FB
S31508000FF00FFF034618460837BD4680BD00000000AF
S3150800100080B582B000AF7860786800F0C9FF08370D
S31508001010BD4680BD00000000000000000000000082
S3150800102080B584B000AF786039600023FB607868CB
S31508001030002102F025FAB860BB68002B07DBBA6806
S3150800104013465B001344DB00034A1344FB60FB684A
S3150800105018461037BD4680BDF03E00080000000067
S3150800106080B582B000AF786039603B689B683A1DEE
S3150800107038681146012298470346012B01D17B683F
S3150800108001E04FF0FF3318460837BD4680BD00BF64
S3150800109080B582B000AF7860396078683968FFF744
S315080010A0DFFF034618460837BD4680BD000000002E
S315080010B080B584B000AFF860B9607A60BB68002B71
S315080010C00AD0BB681B687A68D2B21A70BB681B68FC
S315080010D05A1CBB681A600AE07B680A2B03D10D20EC
S315080010E0F968FFF7D5FF7868F968FFF7D1FF103779
S315080010F0BD4680BD000000000000000000000000A2
S3150800110080B588B000AFF860B9607A603B600023AC
S31508001110FB612023BB613B68002B20DD00237B613C
S315080011207B683B6105E07B6901337B613B69013381
S315080011303B613B691B78002BF5D17A693B689A427B
S3150800114002DB00233B6003E03A687B69D31A3B6005
S31508001150BB6A03F00203002B01D03023BB61BB6AD4
S3150800116003F00103002B0ED10AE0F868B968BA69E2
S31508001170FFF79EFFFB690133FB613B68013B3B6060
S315080011803B68002BF1DC0CE07B681B78F868B968D3
S315080011901A46FFF78DFFFB690133FB617B68013354
S315080011A07B607B681B78002BEED10AE0F868B9688B
S315080011B0BA69FFF77DFFFB690133FB613B68013BB9
S315080011C03B603B68002BF1DCFB6918462037BD46BF
S315080011D080BD00BF00000000000000000000000005
S315080011E080B58EB002AFF860B9607A603B600023C4
S315080011F07B6200233B627B68FB617B68002B0FD117
S3150800120030233B7400237B7407F110033A6C009279
S31508001210F868B9681A46FB6BFFF772FF03465EE08B
S31508001220BB6B002B0AD03B680A2B07D17B68002BC7
S3150800123004DA01237B627B685B42FB6107F11003DA
S315080012400B33FB62FB6A00221A701DE03A68FB69E1
S31508001250B3FBF2F102FB01F29B1ABB62BB6A092BD4
S3150800126004DD7B6C3A3BBA6A1344BB62FB6A013BFA
S31508001270FB62BB6ADBB23033DAB2FB6A1A703B68D0
S31508001280FA69B2FBF3F3FB61FB69002BDED17B6ADB
S31508001290002B19D0FB6B002B10D03B6C03F002031C
S315080012A0002B0BD0F868B9682D22FFF701FF3B6ABF
S315080012B001333B62FB6B013BFB6305E0FB6A013BC9
S315080012C0FB62FB6A2D221A703B6C0093F868B968BA
S315080012D0FA6AFB6BFFF714FF02463B6A134418468B
S315080012E03037BD4680BD00BF00000000000000008A
S315080012F080B58EB004AFF860B9607A603B600023B1
S31508001300FB6120E17B681B78252B40F00F817B6809
S3150800131001337B6000233B623B6A7B627B681B78F8
S31508001320002B00D114E17B681B78252B00D1FDE04A
S315080013307B681B782D2B05D17B6801337B600123E5
S315080013403B6207E006E07B6801337B603B6A43F05B
S3150800135002033B627B681B78302BF4D00EE07A6A76
S3150800136013469B0013445B007B627B681B78303B0B
S315080013707A6A13447B627B6801337B607B681B78DF
S315080013802F2B03D97B681B78392BE8D97B681B7808
S31508001390732B19D13B6804333B603B6853F8043C14
S315080013A0BB61BB69002B01D0BB6900E06E4B3A6A92
S315080013B00092F868B9681A467B6AFFF7A1FE0346E9
S315080013C0FA691344FB61BBE07B681B78642B18D170
S315080013D03B6804333B603B68043B1B680122009270
S315080013E07A6A01923A6A029261220392F868B968A7
S315080013F01A460A23FFF7F4FE0346FA691344FB610B
S315080014009EE07B681B786C2B18D13B6804333B60E5
S315080014103B68043B1B68012200927A6A01923A6A89
S31508001420029261220392F868B9681A460A23FFF7FE
S31508001430D7FE0346FA691344FB6181E07B681B7893
S31508001440782B18D13B6804333B603B68043B1B6828
S31508001450002200927A6A01923A6A02926122039203
S31508001460F868B9681A461023FFF7BAFE0346FA6900
S315080014701344FB6164E07B681B78582B03D07B68B8
S315080014801B78702B18D13B6804333B603B68043BE0
S315080014901B68002200927A6A01923A6A02924122F5
S315080014A00392F868B9681A461023FFF799FE0346AF
S315080014B0FA691344FB6143E07B681B78752B18D1E6
S315080014C03B6804333B603B68043B1B680022009280
S315080014D07A6A01923A6A029261220392F868B968B6
S315080014E01A460A23FFF77CFE0346FA691344FB6192
S315080014F026E07B681B78632B22D13B6804333B606C
S315080015003B68043B1B68DBB23B7500237B7507F120
S3150800151014033A6A0092F868B9681A467B6AFFF7B4
S31508001520EFFD0346FA691344FB6109E07B681B7803
S31508001530F868B9681A46FFF7BBFDFB690133FB611A
S315080015407B6801337B607B681B78002B7FF4DAAEFF
S31508001550BB68002B03D0BB681B6800221A70FB69A6
S3150800156018462837BD4680BD443D000800000000E7
S315080015700FB480B582B000AF00237B6007F1140377
S315080015803B600C4B1B68002B09D00A4B1A683B6959
S31508001590104600211A463B68FFF7AAFE786000232A
S315080015A03B607B6818460837BD46BDE8804004B0F6
S315080015B0704700BFF805002000000000000000008A
S315080015C080B489B000AFF860B9607A60FB687B6167
S315080015D0BB68FB617B69002B32D07A69FB699A424A
S315080015E01ED9FA697B681A447B699A4218D9FA693E
S315080015F07B681344FB617A697B681344BB6109E025
S31508001600BB69013BBB61FB69013BFB61FB691A785E
S31508001610BB691A707B685A1E7A60002BF0D10FE0FE
S315080016207B69BB6107E0BB695A1CBA61FA69511C40
S31508001630F96112781A707B685A1E7A60002BF2D10B
S315080016407B6918462437BD465DF8047B704700BFA2
S3150800165080B487B000AFF860B9607A60FB683B6118
S315080016603B69002B0FD000237B6108E03A697B6950
S315080016701344BA68D2B21A707B6901337B617A69FE
S315080016807B689A42F2D3FB6818461C37BD465DF85C
S31508001690047B704700000000000000000000000006
S315080016A080B586B000AF786039602A4B1B6818464B
S315080016B000211422FFF7CCFF3A687B68D31A7B61B6
S315080016C07B695B0A3B613B69DB007A69D31AFB607D
S315080016D0204B1B68FA68120992B21A821D4B1A68C7
S315080016E01C4B1B681B8A1BB2002B00DA1F335B11CD
S315080016F09BB21BB29BB29B009BB21381154B1B6816
S315080017007A681A60134B1B683A6991007A680A442A
S315080017105A60104B1B683A69D1007A680A44DA6045
S315080017200C4B1B681A680B4B1B681B89104600215B
S315080017301A46FFF78DFF074B1B685A68054B1B684F
S315080017401B89104600211A46FFF782FF1837BD4647
S3150800175080BD00BF2004002000000000000000003B
S3150800176080B485B000AFF8600B467A607B81B7F924
S315080017700A30002B28DBFB681B8AB7F90A201BB244
S315080017809A4221DAB7F90A30002B00DA1F335B11C7
S315080017909BB21BB29B007A6813441A68B7F90A1001
S315080017A00D4B0B40002B03DA013B63F01F0301339B
S315080017B09BB21BB2012101FA03F31340002B0CBFA5
S315080017C000230123DBB200E0002318461437BD4688
S315080017D05DF8047B704700BF1F0000800000000012
S315080017E080B487B000AFF8607A600A467A817B7267
S315080017F0B7F90A30002B41DBFB681B8AB7F90A20C8
S315080018001BB29A423ADAB7F90A201F4B1340002B4B
S3150800181003DA013B63F01F030133FB82B7F90A3091
S31508001820002B00DA1F335B11BB827B7A002B12D0A8
S31508001830B7F914309B007A681344B7F9142092005C
S3150800184079680A441168B7F91620012000FA02F2ED
S315080018500A431A6012E0B7F914309B007A681344F9
S31508001860B7F91420920079680A441168B7F9162066
S31508001870012000FA02F2D2430A401A601C37BD461C
S315080018805DF8047B704700BF1F0000800000000061
S3150800189080B584B000AF786013460A467A803B80EC
S315080018A07A883B8813449BB2BB817B681B8AB7F94D
S315080018B00C201BB29A421BDA7B88FB8110E07B68FE
S315080018C01B68B7F90E20786811461A46FFF748FFD5
S315080018D00346002B01D000230BE0FB890133FB8173
S315080018E0B7F90E20B7F90C309A42E8DB012300E07D
S315080018F0002318461037BD4680BD00BF0000000013
S3150800190080B584B000AF78600B467B800023BB812E
S315080019100023BB6035E07B681A68B7F90C30002BEA
S3150800192000DA1F335B119BB21BB29B0013441B6882
S31508001930BB60BB68B3F1FF3F1FD00023FB8118E0F3
S31508001940BA89FB8913449BB29BB21AB2B7F9023023
S31508001950786811461A46FFF79BFF0346002B05D009
S31508001960BA89FB8913449BB29BB213E0FB89013306
S31508001970FB81B7F90E301F2BE2DDBB8920339BB202
S31508001980BB817B681B8AB7F90C201BB29A42C2DB63
S315080019904FF6FF731BB218461037BD4680BD00BF11
S315080019A080B584B000AF78600B467B800023FB814E
S315080019B0B7F90230002B25DB7B681B8AB7F90220B2
S315080019C01BB29A421EDA00BFB7F90220B7F90E30E9
S315080019D01A447B681B8A1BB29A4213DAFB891A4699
S315080019E00132FA819AB27B8813449BB29AB27B6819
S315080019F05B6812B2786811461A46FFF7B1FE0346CD
S31508001A00002BE1D0FB891BB218461037BD4680BDB6
S31508001A1080B485B000AF786039603B68002B12D07F
S31508001A203A687B68DB68D31A1B09FB81B7F90E3065
S31508001A30002B08DB7B681B8AB7F90E201BB29A427B
S31508001A4001DAFB8901E04FF6FF731BB2184614371B
S31508001A50BD465DF8047B70470000000000000000EA
S31508001A6080B485B000AF78600B467B800023FB60AE
S31508001A70B7F90230002B0DDB7B681B8AB7F9022009
S31508001A801BB29A4206DA7B68DA68B7F902301B019C
S31508001A901344FB60FB6818461437BD465DF8047BA3
S31508001AA0704700BF000000000000000000000000B2
S31508001AB080B584B000AF786013460A467A803B80CA
S31508001AC00023BB60B7F90230002B57DB7B681B8A03
S31508001AD0B7F902201BB29A4250DA0023FB8134E0A0
S31508001AE0B7F90E20B7F90030013B9A420ED17A8831
S31508001AF0FB8913449BB29AB27B685B6812B278681A
S31508001B0011461A460123FFF76BFE0DE07A88FB891A
S31508001B1013449BB29AB27B685B6812B27868114626
S31508001B201A460023FFF75CFE7A88FB8913449BB2AA
S31508001B309AB27B681B6812B2786811461A46012366
S31508001B40FFF74EFEFB890133FB81B7F90E20B7F983
S31508001B5000309A42C4DBB7F9023078681946FFF7B5
S31508001B607FFFB860B7F900301846FFF7E9F97B68D8
S31508001B705A893B8813449AB27B685A81BB681846CF
S31508001B801037BD4680BD00BF000000000000000001
S31508001B9080B584B000AF786013460A467A803B80E9
S31508001BA0B7F90230002B3BDB7B681B8AB7F90220AA
S31508001BB01BB29A4234DA0023FB811EE07A88FB893D
S31508001BC013449BB29AB27B681B6812B278681146B6
S31508001BD01A460023FFF704FE7A88FB8913449BB252
S31508001BE09AB27B685B6812B2786811461A46002377
S31508001BF0FFF7F6FDFB890133FB81FA89B7F9003057
S31508001C009A42DBDBB7F900301846FFF7A9F97B687B
S31508001C105A893B88D31A9AB27B685A81012300E015
S31508001C20002318461037BD4680BD00BF00000000DF
S31508001C3080B586B000AFF86079813A81FB800023D1
S31508001C407B75B7F90A30002B29DBFB681B8AB7F9C5
S31508001C500A201BB29A4222DA0023FB8217E07A890D
S31508001C603B8913449AB2FB8A13449BB29AB2FB6827
S31508001C701B6812B2F86811461A46FFF771FD03464B
S31508001C80002B01D07B7D0BE0FB8A0133FB82B7F981
S31508001C901620B7F906309A42E1DB01237B757B7D76
S31508001CA018461837BD4680BD000000000000000039
S31508001CB080B586B000AFF86079813A81FB80002351
S31508001CC07B75B7F90A10B7F90820B7F90630F8682E
S31508001CD0FFF7AEFF0346002B48D03A89FB8813442A
S31508001CE07B820023FB8233E0B7F916207B8A013B0F
S31508001CF09A420ED17A89FB8A13449BB29AB2FB6840
S31508001D005B6812B2F86811461A460123FFF768FDA8
S31508001D100DE07A89FB8A13449BB29AB2FB685B682A
S31508001D2012B2F86811461A460023FFF759FD7A8958
S31508001D30FB8A13449BB29AB2FB681B6812B2F86816
S31508001D4011461A460123FFF74BFDFB8A0133FB8236
S31508001D50B7F916207B8A9A42C6DBFB685A89FB8844
S31508001D6013449AB2FB685A8101237B757B7D18461A
S31508001D701837BD4680BD00BF000000000000000007
S31508001D8080B586B000AF786000237B617B68002B46
S31508001D9033D07B681B099AB27B6803F00F03002BCC
S31508001DA001D0012300E0002313449BB27B8200F09C
S31508001DB05FFAF860134B1A68B7F9123010461946DD
S31508001DC0FFF79EFD03467B81B7F90A30002B0CDB33
S31508001DD00C4B1968B7F90A20B7F9123008461146AC
S31508001DE01A46FFF765FE786104E07868FEF778FB27
S31508001DF000237B61F86800F04BFA7B6918461837B0
S31508001E00BD4680BD20040020000000000000000040
S31508001E1080B588B000AF786039607B68002B00F029
S31508001E20A1803B68002B00F09D803B681B099AB295
S31508001E303B6803F00F03002B01D0012300E00023C9
S31508001E4013449BB2FB8300F013FAB861514B1B682D
S31508001E5018467968FFF7DCFD0346FB82B7F91630AA
S31508001E60002B75DB4B4B1A68B7F916301046194626
S31508001E70FFF796FD0346BB82B7F91E20B7F9143063
S31508001E809A4248DD434B1868FA8BBB8AD31A9BB231
S31508001E909BB2B7F91610B7F914201BB2FFF708FF63
S31508001EA00346002B36D13B4B1968B7F91620B7F90C
S31508001EB01430084611461A46FFF76AFE354B1A686B
S31508001EC0B7F91E3010461946FFF71AFD03467B82FE
S31508001ED0B7F91230002B16DB2E4B1968B7F912200A
S31508001EE0B7F91E30084611461A46FFF7E1FDF860B5
S31508001EF0B7F914301B01F86879681A46FFF760FBD2
S31508001F00FB687B6006E078683968FFF741F80023CC
S31508001F107B6023E022E0B7F91E20B7F914309A4215
S31508001F201CDA1C4B1968B7F91620B7F9143008469D
S31508001F3011461A46FFF72CFE164B1968B7F91620F4
S31508001F40B7F91E30084611461A46FFF7B1FD05E0F7
S31508001F5078683968FFF71CF800237B60B86900F0D9
S31508001F6097F912E07B68002B08D03B68002B05D157
S31508001F70786800F015F800237B6006E07B68002B84
S31508001F8003D13868FFF7FCFE78607B68184620376F
S31508001F90BD4680BD200400200000000000000000AF
S31508001FA080B584B000AF786000F062F9F860154B30
S31508001FB01B6818467968FFF72BFD03467B81B7F93E
S31508001FC00A30002B15D00F4B1A68B7F90A3010469D
S31508001FD01946FFF7E5FC03463B810A4B1968B7F932
S31508001FE00A20B7F90830084611461A46FFF7D0FD09
S31508001FF002E07868FEF7C4FFF86800F049F9103780
S31508002000BD4680BD2004002000000000000000003E
S3150800201080B483B000AF03463960FB7197F9073087
S31508002020002B0BDA0D49FB7903F00F03043B3A68E2
S31508002030D2B21201D2B20B441A7609E0084997F9CE
S3150800204007303A68D2B21201D2B20B4483F80023A1
S315080020500C37BD465DF8047B704700BF00ED00E015
S3150800206000E100E0000000000000000000000000A1
S3150800207080B483B000AF78603960FEE700000000E6
S3150800208000B5F0B42DE9000F064B5B68DBB2103BD8
S31508002090DBB2DBB25BB2184601F09AFCBDE8000F72
S315080020A0F0BC00BD00ED00E00000000000000000EC
S315080020B080B400AFBD465DF8047B704700000000A1
S315080020C080B400AFBD465DF8047B70470000000091
S315080020D080B483B000AF0B4B1B6803F00203002BE0
S315080020E00CBF00230123DBB27B60064B054A12684E
S315080020F022F002021A607B6818460C37BD465DF866
S31508002100047B704710E000E00000000000000000BB
S3150800211080B483B000AF78607B68002B06D0094B8B
S31508002120084A126842F002021A6005E0054B054AA1
S31508002130126822F002021A600C37BD465DF8047B6D
S31508002140704700BF10E000E000000000000000003B
S3150800215080B400AF044B044A526842F080525A6079
S31508002160BD465DF8047B704700ED00E00000000006
S3150800217080B483B000AF0F4B5B68C3F308037B6082
S315080021807B680E2B02D00F2B07D00DE0094B094AAE
S31508002190526842F000625A6006E0064B054A5268E9
S315080021A042F000725A6000BF0C37BD465DF8047BEA
S315080021B0704700BF00ED00E00000000000000000CE
S315080021C080B400AFBD465DF8047B70470000000090
S315080021D080B500AF00F04CFB80BD00BF00000000DA
S315080021E080B582B000AF00F0DBF802460C4BA3FBCB
S315080021F002139B097B600B4B7A6822F07F42013AF7
S315080022005A604FF0FF300F21FFF702FF054B0022FF
S315080022109A60044B07221A600837BD4680BD00BF86
S31508002220D34D621010E000E000000000000000003E
S3150800223080B400AFBD465DF8047B7047000000001F
S3150800224080B582B000AF786000F012F8FFF7C0FFE3
S31508002250FFF7C6FFFFF7ECFF0837BD4680BD00BF96
S3150800226062B6704700000000000000000000000091
S31508002270EFF3108080F0010072B67047184600BF71
S31508002280EFF3108080F00100704718460000000048
S3150800229080B483B000AF78607B68002B01D062B64B
S315080022A000E072B60C37BD465DF8047B704700BF88
S315080022B080B487B000AF786000237B617B681F2BF2
S315080022C012D87B68012202FA03F33B61134B1A68A2
S315080022D03B691340002B0CBF00230123DBB27B6153
S315080022E00E4B3A691A6012E07B68203B012202FA1B
S315080022F003F3FB60094B5A68FB681340002B0CBFBD
S3150800230000230123DBB27B61044BFA685A607B69C0
S3150800231018461C37BD465DF8047B704700E100E0AF
S3150800232080B487B000AF786000237B617B681F2B81
S3150800233013D87B68012202FA03F33B61144B1A682F
S315080023403B691340002B0CBF00230123DBB27B61E2
S315080023500F4B3A69C3F8802013E07B68203B0122C3
S3150800236002FA03F3FB600A4B5A68FB681340002B1A
S315080023700CBF00230123DBB27B61054BFA68C3F867
S3150800238084207B6918461C37BD465DF8047B704778
S3150800239000E100E00000000000000000000000006E
S315080023A080B586B000AF3B1D184600F029FC7B6857
S315080023B018461837BD4680BD000000000000000022
S315080023C080B584B000AF78607B68FB60F86800F081
S315080023D00FF8B860FB681B68184640F225510022C2
S315080023E000F07EFFBB6818461037BD4680BD00BFAB
S315080023F080B485B000AF78607B68FB60FB681B68BB
S315080024009B899BB21A4640F225531340002B0CBFFA
S3150800241000230123DBB2BB60BB6818461437BD46F0
S315080024205DF8047B704700BF000000000000000054
S3150800243080B588B000AF786039604FF0FF33FB6134
S315080024407B68BB613B68002B02D1BB6908333B60E4
S31508002450BB691B681846002100F0F2FE3B68002B9A
S3150800246077D03B681B68BB603B681B79BB813B68C0
S315080024701B79092B02D00023BB8103E04FF480535C
S31508002480BB8100BF3B685B79022B0AD0032B0CD0BB
S31508002490002B03D14FF48053FB810AE00023FB8114
S315080024A007E04FF44053FB8103E04FF40053FB81F0
S315080024B000BF3B689B79012B08D0022B02D0002372
S315080024C03B8207E04FF4C0633B8203E04FF480632E
S315080024D03B8200BF3B68DB79022B0AD0032B0CD06A
S315080024E0012B02D00023BB820BE04FF48073BB8222
S315080024F007E04FF40073BB8203E04FF44073BB82DE
S3150800250000BF0C237B82BB691A6807F108031046D3
S31508002510194600F035FDBB691B681846012100F015
S315080025208FFEBB691B795BB218460C49BA6901F084
S31508002530EFF9BB691B795BB21846FFF7B9FEBB69B1
S315080025401B68184640F22551012200F0C9FE0023F7
S31508002550FB61FB6918462037BD4680BDC1270008C8
S3150800256080B483B000AF78607B6818460C37BD46E8
S315080025705DF8047B704700BF000000000000000003
S3150800258080B485B000AF786039607B68FB60FB6813
S315080025903A685A613B6818461437BD465DF8047BAD
S315080025A0704700BF000000000000000000000000A7
S315080025B080B485B000AF786039607B68FB60FB68E3
S315080025C03A689A613B6818461437BD465DF8047B3D
S315080025D0704700BF00000000000000000000000077
S315080025E080B485B000AF78607B68FB60FB685B6988
S315080025F018461437BD465DF8047B70470000000096
S3150800260080B485B000AF78607B68FB60FB689B6927
S3150800261018461437BD465DF8047B70470000000075
S3150800262080B485B000AF78607B68FB60FB681B7977
S315080026305BB218461437BD465DF8047B704700BF89
S3150800264080B485B000AF78607B68FB60FB681B6967
S3150800265018461437BD465DF8047B70470000000035
S3150800266080B485B000AF786039607B68FB60FB6832
S315080026703A681A61FB681B6918461437BD465DF847
S31508002680047B704700000000000000000000000006
S3150800269080B485B000AF78607B68FB60FB681B6818
S315080026A01B889BB203F08003002B0CBF0023012379
S315080026B0DBB2FB72FB7A18461437BD465DF8047B1D
S315080026C0704700BF00000000000000000000000086
S315080026D080B487B000AF78607B687B617B691B68D4
S315080026E01B889BB23B613B6903F02003002B0CBFA0
S315080026F000230123DBB2FB73FB7B18461C37BD4660
S315080027005DF8047B704700BF000000000000000071
S3150800271080B485B000AF786039607B68FB60FB6881
S315080027201B683A6892B29A803B6818461437BD46C9
S315080027305DF8047B704700BF000000000000000041
S3150800274080B485B000AF78607B68FB60FB681B6867
S315080027509B889BB218461437BD465DF8047B7047C4
S3150800276080B485B000AF78607B68FB60FB681B6847
S31508002770FA681268928992B242F0800292B29A81FD
S315080027801437BD465DF8047B704700BF00000000A3
S3150800279080B485B000AF78607B68FB60FB681B6817
S315080027A0FA681268928992B222F0800292B29A81ED
S315080027B01437BD465DF8047B704700BF0000000073
S315080027C090B585B000AF03463960FB713B68FB6086
S315080027D0FB681B7997F907205BB29A4243D119E047
S315080027E0FB685C69F868FFF7ABFF0346DBB2204677
S315080027F0194601F0B5F90346002B05D1FB681B699C
S3150800280043F01002FB681A61FB681B6943F001027A
S31508002810FB681A61F868FFF75BFF0346002BDFD1F8
S31508002820FB689B69184601F053F90346002B0FD144
S31508002830F868FFF72DFF0346002B09D0FB689B6954
S31508002840184601F0CDF90346F8681946FFF760FF08
S31508002850FB689B69184601F03BF90346002B02D03A
S31508002860F868FFF795FF1437BD4690BD00000000D5
S3150800287080B500AF154B154A126842F001021A607E
S31508002880124A124B5968124B0B4053600F4A0F4BB2
S315080028901B6823F0847323F4803313600B4B0B4AB5
S315080028A0126822F480221A60084B084A526822F4F9
S315080028B0FE025A60054B4FF41F029A6000F080F83A
S315080028C0044B4FF000629A6080BD00BF00100240C2
S315080028D00000FFF800ED00E0000000000000000026
S315080028E080B485B000AF0023FB600023BB600023E3
S315080028F07B602C4B5B6803F00C03FB60FB68042BC6
S3150800290007D0082B09D0002B34D1274B274A1A6049
S3150800291034E0254B254A1A6030E0224B5B6803F405
S315080029207013BB601F4B5B6803F480337B60BB6826
S315080029309B0C0233BB607B68002B06D1BB681C4A24
S3150800294002FB03F2184B1A6013E0164B5B6803F49C
S315080029500033002B06D0BB68154A02FB03F2124B64
S315080029601A6006E0BB68114A02FB03F20E4B1A60B6
S3150800297004E003E00C4B0D4A1A6000BF094B5B6884
S3150800298003F0F0031B090B4AD35CDBB2FB60064B72
S315080029901A68FB68DA40044B1A601437BD465DF8BE
S315080029A0047B7047001002409404002000127A004D
S315080029B000093D0098040020000000000000000007
S315080029C080B500AF00F004F880BD00BF000000002D
S315080029D080B483B000AF00237B6000233B603A4B92
S315080029E0394A126842F480321A60374B1B6803F47E
S315080029F000333B607B6801337B603B68002B03D167
S31508002A007B68B3F5A06FF0D12F4B1B6803F4003336
S31508002A10002B02D001233B6001E000233B603B68AA
S31508002A20012B4BD1294B294A126842F010021A6031
S31508002A30264B264A126822F003021A60234B234AC1
S31508002A40126842F002021A601F4B1F4A52685A6007
S31508002A501D4B1D4A52685A601B4B1B4A526842F46A
S31508002A6080625A60184B184A526822F47C125A60DF
S31508002A70154B154A526842F4E8125A60124B124A2C
S31508002A80126842F080721A6000BF0F4B1B6803F091
S31508002A900073002BF9D00C4B0B4A526822F0030244
S31508002AA05A60094B084A526842F002025A6000BF4F
S31508002AB0054B5B6803F00C03082BF9D10C37BD46B0
S31508002AC05DF8047B704700BF0010024000200240FA
S31508002AD080B582B000AF78607B68002B0CD07B682D
S31508002AE0B3F5803F08D07B68B3F5802F04D015482E
S31508002AF040F21111FFF7BCFA134B134A126822F47D
S31508002B0080321A60104B104A126822F480221A602A
S31508002B107B68B3F5803F03D0B3F5802F07D00DE06F
S31508002B20094B094A126842F480321A6006E0064BDD
S31508002B30054A126842F4A0221A6000BF0837BD464B
S31508002B4080BD00BF703D0008001002400000000074
S31508002B5080B582B000AF00233B600023FB710023E1
S31508002B60BB71312000F0ACF90346BB713B680133F9
S31508002B703B603B68B3F5A06F02D0BB79002BF0D061
S31508002B80312000F09DF90346002B02D00123FB718A
S31508002B9001E00023FB71FB7918460837BD4680BD66
S31508002BA080B584B000AF78600023FB607B68002B9B
S31508002BB00AD07B68012B07D07B68022B04D00B4810
S31508002BC04FF40E71FFF754FA094B5B68FB60FB681C
S31508002BD023F00303FB60FA687B681343FB60044B2E
S31508002BE0FA685A601037BD4680BD00BF703D0008C0
S31508002BF00010024000000000000000000000000075
S31508002C0080B487B000AF786000237B6100233B6106
S31508002C100023FB600023BB604D4B5B6803F00C038D
S31508002C207B617B69042B07D0082B09D0002B34D194
S31508002C307B68484A1A6034E07B68464A1A6030E086
S31508002C40434B5B6803F470133B61414B5B6803F4C9
S31508002C508033FB603B699B0C02333B61FB68002BAE
S31508002C6006D13B693C4A02FB03F27B681A6013E013
S31508002C70374B5B6803F40033002B06D03B69364AB2
S31508002C8002FB03F27B681A6006E03B69314A02FBE5
S31508002C9003F27B681A6004E003E07B682D4A1A6039
S31508002CA000BF2B4B5B6803F0F0037B617B691B0954
S31508002CB07B612A4A7B6913441B78DBB2BB607B685D
S31508002CC01A68BB68DA407B685A60214B5B6803F474
S31508002CD0E0637B617B691B0A7B61204A7B6913443D
S31508002CE01B78DBB2BB607B685A68BB68DA407B68D6
S31508002CF09A60174B5B6803F460537B617B69DB0A58
S31508002D007B61164A7B6913441B78DBB2BB607B6820
S31508002D105A68BB68DA407B68DA600D4B5B6803F477
S31508002D2040437B617B699B0B7B610D4A7B6913443E
S31508002D301B78DBB2BB607B68DA68BB68B2FBF3F270
S31508002D407B681A611C37BD465DF8047B704700BF77
S31508002D500010024000127A0000093D00A804002075
S31508002D60B804002000000000000000000000000079
S31508002D7080B582B000AF78600B46FB707B6823F4A1
S31508002D80AA6323F00703002B02D17B68002B04D12A
S31508002D90114840F22B41FFF76BF9FB78002B07D05F
S31508002DA0FB78012B04D00C4840F22C41FFF760F960
S31508002DB0FB78002B06D0094B084A51697A680A4302
S31508002DC05A6106E0054B054A51697A68D2430A40BA
S31508002DD05A610837BD4680BD703D000800100240A4
S31508002DE080B582B000AF78600B46FB707A68154BE9
S31508002DF01340002B02D17B68002B04D1124840F205
S31508002E004A41FFF735F9FB78002B07D0FB78012BF1
S31508002E1004D00D4840F24B41FFF72AF9FB78002B06
S31508002E2006D00A4B094A91697A680A439A6106E00C
S31508002E30064B064A91697A68D2430A409A6108376E
S31508002E40BD4680BD0200C0FF703D0008001002406C
S31508002E5080B582B000AF78600B46FB707A68154B78
S31508002E601340002B02D17B68002B04D1124840F294
S31508002E706941FFF7FDF8FB78002B07D0FB78012B9B
S31508002E8004D00D4840F26A41FFF7F2F8FB78002BB0
S31508002E9006D00A4B094AD1697A680A43DA6106E01C
S31508002EA0064B064AD1697A68D2430A40DA6108377E
S31508002EB0BD4680BD00360181703D00080010024005
S31508002EC080B586B000AF0346FB710023FB60002384
S31508002ED07B610023FB74FB79212B22D0FB79312BF4
S31508002EE01FD0FB79392B1CD0FB79412B19D0FB79E4
S31508002EF0612B16D0FB797A2B13D0FB797B2B10D05C
S31508002F00FB797C2B0DD0FB797D2B0AD0FB797E2BA8
S31508002F1007D0FB797F2B04D0174840F23451FFF7CE
S31508002F20A7F8FB795B09DBB2FB60FB68012B03D1D1
S31508002F30124B1B687B6109E0FB68022B03D10F4B20
S31508002F401B6A7B6102E00D4B5B6A7B61FB7903F0D0
S31508002F501F03FB60FB6801229A407B691340002B24
S31508002F6002D00123FB7401E00023FB74FB7C1846A6
S31508002F701837BD4680BD00BF703D000800100240EE
S31508002F8080B58CB000AF786039600023FB620023FF
S31508002F90BB6200237B6200233B620023FB617A68E5
S31508002FA09D4B9A4213D07A689C4B9A420FD07A6806
S31508002FB09B4B9A420BD07A689A4B9A4207D07A680A
S31508002FC0994B9A4203D09948B821FFF751F83B68C4
S31508002FD01B68002B04D03B681A68954B9A4203D9A4
S31508002FE09248B921FFF744F83B689B88002B08D024
S31508002FF03B689B88B3F5805F03D08C48BA21FFF7FE
S3150800300037F83B68DB88002B12D03B68DB88B3F5C2
S31508003010805F0DD03B68DB88B3F5005F08D03B685E
S31508003020DB88B3F5405F03D08048BB21FFF720F863
S315080030303B681B89002B0DD03B681B89B3F5806F55
S3150800304008D03B681B89B3F5C06F03D07748BC210D
S31508003050FFF70EF83B685B891A464FF6F373134081
S31508003060002B03D13B685B89002B03D16F48BD2138
S31508003070FEF7FEFF3B689B89002B12D03B689B89B5
S31508003080B3F5807F0DD03B689B89B3F5007F08D0E8
S315080030903B689B89B3F5407F03D06448BE21FEF7A1
S315080030A0E7FF3B689B89002B0FD07A685A4B9A42F8
S315080030B00BD07A68594B9A4207D07A68584B9A428D
S315080030C003D05A48C221FEF7D3FF7B68FB617B68B1
S315080030D01B8A9BB2FB62FA6A4CF6FF731340FB62CB
S315080030E03B68DB88FA6A1343FB62FB6A9AB27B6821
S315080030F01A827B689B899BB2FB62FA6A4EF6F313C7
S315080031001340FB623B689A883B681B8913439AB253
S315080031103B685B8913439BB2FA6A1343FB62FB6AFB
S315080031209AB27B689A817B689B8A9BB2FB62FA6A31
S315080031304FF6FF431340FB623B689B89FA6A1343C9
S31508003140FB62FB6A9AB27B689A8207F10803184603
S31508003150FFF756FDFA69304B9A4202D17B69BB628A
S3150800316001E03B69BB627B689B899BB29BB21BB241
S31508003170002B0CDABA6A13469B0013449A001A44C9
S315080031803B681B685B00B2FBF3F37B620BE0BA6A31
S3150800319013469B0013449A001A443B681B689B001D
S315080031A0B2FBF3F37B627A6A224BA3FB02135B0939
S315080031B01B01FB62FB6A1B09642202FB03F37A6AA2
S315080031C0D31A3B627B689B899BB29BB21BB2002BCE
S315080031D00DDA3B6ADB0003F13202164BA3FB02133E
S315080031E05B0903F00703FA6A1343FB620CE03B6AC8
S315080031F01B0103F132020F4BA3FB02135B0903F019
S315080032000F03FA6A1343FB62FB6A9AB27B681A8158
S315080032103037BD4680BD00BF00380140004400403D
S3150800322000480040004C004000500040303E000876
S3150800323020AA44001F85EB51000000000000000092
S3150800324080B582B000AF78600B46FB707A681D4B7C
S315080032509A4214D07A681C4B9A4210D07A681B4B53
S315080032609A420CD07A681A4B9A4208D07A68194B57
S315080032709A4204D018484FF4B171FEF7F9FEFB786C
S31508003280002B07D0FB78012B04D0134840F26311BA
S31508003290FEF7EEFEFB78002B08D07B689B899BB275
S315080032A043F400539AB27B689A8107E07B689B894E
S315080032B09BB223F400539AB27B689A810837BD46BD
S315080032C080BD00BF0038014000440040004800406F
S315080032D0004C004000500040303E0008000000004E
S315080032E080B586B000AF786013460A467A807B7050
S315080032F000233B610023FB600023BB6000237B6146
S315080033007A684B4B9A4214D07A684A4B9A4210D044
S315080033107A68494B9A420CD07A68484B9A4208D048
S315080033207A68474B9A4204D0464840F28911FEF71C
S315080033309FFE7B88282B25D07A8840F227739A42ED
S3150800334020D07A8840F226639A421BD07A8840F2C7
S3150800335025539A4216D07A8840F224439A4211D0CD
S315080033607A8840F646039A420CD07A8840F66A1361
S315080033709A4207D07B88602B04D032484FF4C57137
S31508003380FEF776FE7B78002B07D07B78012B04D0DE
S315080033902C4840F28B11FEF76BFE7A8840F66A13CA
S315080033A09A4210D17A68224B9A420CD07A68214BFD
S315080033B09A4208D07A68204B9A4204D0214840F2B3
S315080033C08F11FEF755FE7B687B617B88DBB25B0954
S315080033D0DBB23B617B8803F01F03FB60FB680122BD
S315080033E002FA03F3BB603B69012B03D17B690C33FB
S315080033F07B6109E03B69022B03D17B6910337B6152
S3150800340002E07B6914337B617B78002B06D07B69ED
S315080034107A691168BA680A431A6006E07B697A69AC
S315080034201168BA68D2430A401A601837BD4680BD8B
S31508003430003801400044004000480040004C00406D
S3150800344000500040303E0008000000000000000068
S3150800345080B485B000AF78607A6813465B00134481
S31508003460DB00064A1344FB60FB681B68BB60BB684D
S3150800347018461437BD465DF8047B7047F03E0008D1
S3150800348080B586B000AF78603960454B00221A6077
S31508003490FDF756F97B687B617B69002B5BDB7A69F4
S315080034A013465B001344DB003E4A13443B613B6909
S315080034B01B68FB60F868FFF793F80346184600F0A8
S315080034C0DFFAF868FFF79CF80346184600F0D8FAC2
S315080034D0F8680021FFF754F8F8680021FFF768F844
S315080034E000F0DEF803469BB2184600F099FA034648
S315080034F0F8681946FFF744F80346002B28D000F071
S31508003500BFF803469BB2184600F08AFA0346F868E5
S315080035101946FFF74DF80346002B0ED0F868002130
S31508003520FEF786FFF868FFF78BF8034643F00403B7
S31508003530F8681946FFF794F80DE0F868FFF750F8B1
S315080035400346184600F09CFA154B0C221A6002E056
S31508003550134B0C221A60FDF71BF97B69002B0FDB56
S315080035603B68002B0CD07869396800F071F803467F
S31508003570002B05DA786900F01BF84FF0FF337B6102
S315080035807869FEF7EDFF02467B699A4202D07869B0
S3150800359000F00EF87B6918461837BD4680BD00BF97
S315080035A0F0050020F03E00080000000000000000C2
S315080035B080B586B000AF786000237B61204B00227F
S315080035C01A60FDF7BDF87A6813465B001344DB0002
S315080035D01C4A13443B613B691B68FB60F868FEF7AD
S315080035E0EFFEF868FFF71CF803461846FEF798FE44
S315080035F0F868FEF7F5FF0346184600F041FAF86842
S31508003600FEF7FEFF0346184600F03AFAF86800216E
S31508003610FEF7B6FFF8680021FEF7CAFFF868FFF75D
S315080036200FF8034623F00403F8681946FFF718F85D
S31508003630FDF7AEF87B6918461837BD4680BD00BF52
S31508003640F0050020F03E0008000000000000000021
S3150800365080B584B000AF786039607868FFF7F8FE07
S31508003660034618463968FEF7E3FEF860FB68184615
S315080036701037BD4680BD00BF0000000000000000F6
S3150800368080B400AF4FF400731846BD465DF8047B5E
S31508003690704700BF000000000000000000000000A6
S315080036A080B400AF4FF400731846BD465DF8047B3E
S315080036B0704700BF00000000000000000000000086
S315080036C090B589B000AFF860B9607A600023FB61F5
S315080036D0BB68BB6125E0FB681B681846FEF780FFE0
S315080036E00346184600F07CFA78617B69002B16DBE6
S315080036F0FB695A1CFA61BA6913447A69D2B21A701C
S31508003700FB681C68FB681B681846FEF799FF0346AA
S3150800371043F0010320461946FEF7A2FF01E0FDF734
S315080037205FF8FA697B689A42D5DBFB691846243745
S31508003730BD4690BD0000000000000000000000002B
S3150800374080B586B000AFF860B9607A6000237B6107
S31508003750BB683B611BE0FB681B681846FEF750FF19
S3150800376002467B6939690B441B781046194600F0F6
S31508003770F7F90346002B03D07B6901337B6101E02F
S31508003780FDF72EF8FB681B681846FEF7E9FF7A690D
S315080037907B689A42DFDB7B6918461837BD4680BDD1
S315080037A080B582B000AF78607B681B681846FEF764
S315080037B017FF0346184600F0ABF9034618460837C4
S315080037C0BD4680BD000000000000000000000000AB
S315080037D080B582B000AF78607B681B681846FEF734
S315080037E00FFF0346184600F093F9034618460837B4
S315080037F0BD4680BD0000000000000000000000007B
S3150800380080B582B000AF78607B681B681846FEF703
S3150800381017FF034618460837BD4680BD000000005E
S3150800382080B584B000AF7860174B1B687A689A42F7
S3150800383023DD164B1A687B689B0010461946FDF770
S31508003840CFFB0246114B1A60104B1B68002B14D095
S315080038500D4B1B68FB6009E00C4B1A68FB689B0064
S31508003860134400221A60FB680133FB60FA687B6820
S315080038709A42F1DB044B7A681A60034B1B681846B8
S315080038801037BD4680BD00BF18060020140600206C
S3150800389080B588B000AF0346B9607A60FB73002331
S315080038A0FB61FEF7E5FC7861154B1B68DBB297F9FF
S315080038B00F205BB29A421ADA124B1A68FB7B9B00FE
S315080038C013441B68BB610FE0BB691A68BB689A4260
S315080038D007D1BB695A687B689A4202D10123FB610A
S315080038E005E0BB699B68BB61BB69002BECD17869B5
S315080038F0FEF7CEFCFB6918462037BD4680BD00BFE3
S315080039001806002014060020000000000000000031
S3150800391080B588B000AF0346B9607A60FB7397F943
S315080039200F301846B9687A68FFF7B2FF0346002BCE
S3150800393044D1FEF79DFCB861FB7B01331846FFF7BF
S315080039406FFF0246FB7B9A4233DD0C20FDF738FBFE
S3150800395078617B69002B2CD0786900210C22FDF751
S3150800396077FE7B69BA681A607B697A685A60164B73
S315080039701A68FB7B9B0013441B68002B07D1124B6C
S315080039801A68FB7B9B0013447A691A6011E00E4B98
S315080039901A68FB7B9B0013441B68FB6102E0FB690A
S315080039A09B68FB61FB699B68002BF8D1FB697A6908
S315080039B09A60B869FEF76CFCFB7B01E04FF0FF33B9
S315080039C018462037BD4680BD1406002000000000BA
S315080039D080B584B000AF0346FB710D4B1A68FB79BE
S315080039E09B0013441B68FB600BE0FB681B68FA68C6
S315080039F0526897F90710084611469847FB689B686E
S31508003A00FB60FB68002BF0D11037BD4680BD00BFB8
S31508003A10140600200000000000000000000000005E
S31508003A2080B584B000AF0346FB800C20FDF7C8FACA
S31508003A30F860FB68002B18D0F86800210C22FDF707
S31508003A4007FEFB881846FDF7BBFA0246FB681A60B4
S31508003A50FB681B68002B03D0FB68FA889A8004E091
S31508003A60F868FDF7CDFA0023FB60FB6818461037A7
S31508003A70BD4680BD000000000000000000000000F8
S31508003A8080B584B000AF78600023FB737B68002B99
S31508003A9013D0FEF7EDFBB8607B681B68002B04D0DB
S31508003AA07B681B681846FDF7ABFA7868FDF7A8FA35
S31508003AB00123FB73B868FEF7EBFBFB7B1846103750
S31508003AC0BD4680BD000000000000000000000000A8
S31508003AD080B584B000AF7860FEF7CAFBF8607B68F3
S31508003AE0DA887B681B899A4214BF00230123DBB25C
S31508003AF0FB72F868FEF7CCFBFB7A18461037BD4612
S31508003B0080BD00BF000000000000000000000000AB
S31508003B1080B584B000AF7860FEF7AAFBB8607B6812
S31508003B20DB881A467B681B89D31AFB60FB68002B67
S31508003B3009DA7B689B881A467B681B89D21A7B68D8
S31508003B40DB881344FB60B868FEF7A2FBFB681846DF
S31508003B501037BD4680BD00BF000000000000000011
S31508003B6080B584B000AF78600B46FB70FEF780FB2B
S31508003B70F8607B68DB881A467B681B89013B9A429A
S31508003B800DD07B68DB881A467B689B88013B9A4286
S31508003B9003D17B681B89002B01D0012300E0002399
S31508003BA0FB72FB7A002B13D07B681A687B68DB886C
S31508003BB0591C88B27968C8801344FA781A707B68E9
S31508003BC0DA887B689B889A4202D37B680022DA806F
S31508003BD0F868FEF75DFBFB7A18461037BD4680BDD0
S31508003BE080B584B000AF7860FEF742FBB8604FF04E
S31508003BF0FF33FB607B68DA887B681B899A4213D09F
S31508003C007B681A687B681B89591C88B279680881A1
S31508003C1013441B78FB607B681A897B689B889A42E9
S31508003C2002D37B6800221A81B868FEF731FBFB686D
S31508003C3018461037BD4680BD000000000000000091
S31508003C4080B491B000AF78607B681B68FB637B68C3
S31508003C505B68BB637B689B687B637B68DB683B63ED
S31508003C607B681B69FB627B685B69BB627B689B69D7
S31508003C707B627B68DB693B620B4B1B68FB610B4B0A
S31508003C801B68BB610A4B1B687B610A4B1B683B615F
S31508003C90094B1B68BB60094B1B68FB6000BE4437B9
S31508003CA0BD465DF8047B704728ED00E02CED00E08A
S31508003CB030ED00E03CED00E034ED00E038ED00E0EA
S31508003CC004207146084200F00480EFF30980FFF7EC
S31508003CD0B7BFEFF30880FFF7B3BFFFF7F1BF00BF29
S31508003CE072770000000000000000000000000000DD
S31508003CF06162636465666768696A6B6C6D6E6F702E
S31508003D007172737475767778797A203132333435EF
S31508003D103637383930205B25645D0A007468726569
S31508003D20616431000000000000000000000000008F
S31508003D300000000043415249424F55000000000070
S31508003D402D000000286E756C6C2900006469626F8E
S31508003D5075786373656667250000000020090A0DFB
S31508003D600C0B0000646F627875000000000000000C
S31508003D702F686F6D652F6D696B652F446F63756D61
S31508003D80656E74732F63617269626F752D72746FD5
S31508003D90732F6272616E636865732F302E392F63D5
S31508003DA0617269626F752F7461726765742F626FCD
S31508003DB06172642F6C635F73747564696F5F737483
S31508003DC06D333266313033722F63726F7373776F68
S31508003DD0726B732F2E2E2F2E2E2F2E2E2F63686981
S31508003DE0702F73746D33322F73746D3332663130BE
S31508003DF0332F6C69622F53544D3332463130785F16
S31508003E005374645065726970685F44726976657246
S31508003E102F7372632F73746D3332663130785F7225
S31508003E2063632E630000000000000000000000002D
S31508003E302F686F6D652F6D696B652F446F63756DA0
S31508003E40656E74732F63617269626F752D72746F14
S31508003E50732F6272616E636865732F302E392F6314
S31508003E60617269626F752F7461726765742F626F0C
S31508003E706172642F6C635F73747564696F5F7374C2
S31508003E806D333266313033722F63726F7373776FA7
S31508003E90726B732F2E2E2F2E2E2F2E2E2F636869C0
S31508003EA0702F73746D33322F73746D3332663130FD
S31508003EB0332F6C69622F53544D3332463130785F55
S31508003EC05374645065726970685F44726976657286
S31508003ED02F7372632F73746D3332663130785F7562
S31508003EE0736172742E630000000000000000000079
S31508003EF024040020C136000841370008A13700080D
S31508003F00D13700080138000840040020C1360008EF
S31508003F1041370008A1370008D137000801380008E2
S31508003F205C040020C136000841370008A1370008A4
S31508003F30D137000801380008000000000000000022
S31508003F400000000000000000000000000000000063
S31508003F50000C014000010000000C014000020000B6
S31508003F60001001400100000000100140020000009E
S31508003F7000060020003801402500000080250000CA
S31508003F80080100000000000000000000000000001A
S31508003F9000440040260000008025000008010000BB
S31508003FA0000000000000000000000000004800407B
S31508003FB0270000008025000008010000000000001E
S31508003FC000000000000000000000000000000000E3
S31508003FD000000000000000000000000000000000D3
S31508003FE00000000000A24A040000000000000000D3
S31508003FF00102030406070809000000000102030481
S311080040000102030406070809020406086A
S705080001B140
