S02B00002F686F6D652F6D696B652F446F63756D656E74732F63617269626F752D72746F732F6272616E6368A0
S3150800000000060020B101000871280008110C00083C
S31508000010110C0008110C0008110C0008110C00083E
S31508000020110C0008110C0008110C0008B11B00087F
S31508000030110C0008110C0008D12200083123000811
S3150800004041280008412800084128000841280008DE
S3150800005041280008412800084128000841280008CE
S3150800006041280008412800084128000841280008BE
S3150800007041280008412800084128000841280008AE
S31508000080412800084128000841280008412800089E
S31508000090412800084128000841280008412800088E
S315080000A0412800084128000841280008412800087E
S315080000B0412800084128000841280008412800086E
S315080000C0412800084128000841280008412800085E
S315080000D0412800084128000841280008412800084E
S315080000E0412800084128000841280008412800083E
S315080000F0412800084128000841280008412800082E
S31508000100412800084128000841280008412800081D
S31508000110412800084128000841280008412800080D
S3150800012041280008412800084128000841280008FD
S3150800013041280008412800084128000841280008ED
S3150800014041280008412800084128000841280008DD
S3150800015041280008412800084128000841280008CD
S3150800016041280008412800084128000841280008BD
S3150800017041280008412800084128000841280008AD
S31508000180412800084128000841280008412800089D
S31508000190412800084128000841280008412800088D
S315080001A0412800084128000841280008412800087D
S315080001B072B62E4880F30988022080F31488BFF3AC
S315080001C06F8F2B482949FA2200F048F829482A490E
S315080001D0FA2200F043F8294829492A4A00F033F858
S315080001E029482A49002200F039F8294A9047294A1D
S315080001F09047294829492A4A90472A482A4988423D
S3150800020000F007800268043003B4904703BCFFF788
S31508000210F6BF264A9047002000218646EC46244A27
S31508000220904724482449884200F007800268043031
S3150800023003B4904703BCFFF7F6BFFFF7B9BFFFF754
S31508000240FEBFFFF7FCBF884207D0521A05D00378D5
S3150800025001300B700131013AF9D17047884203D059
S3150800026002700130FFF7FABF70470000000C00204B
S31508000270000600200000002000060020584500085F
S31508000280000C0020000D0020000D0020881300201F
S3150800029091100008D10800088813002000000220E9
S315080002A021110008B0010008B0010008D10A0008B1
S315080002B081040008B0010008B00100080000000031
S315080002C080B483B000AF7860FEE700BF000000008E
S315080002D080B584B000AFF860B9607A60F86801F05C
S315080002E0DFFD1037BD4680BD00000000000000009D
S315080002F080B584B000AF78600023FB6028E010204A
S3150800030000F01EFFB860BB68002B14D0FB684133B1
S31508000310B8681946102201F0ABF9BB680F33002202
S315080003201A70B86801F0CCF90246164B1B681344DC
S315080003301A46144B1A60144B1B681846B9684FF0D6
S3150800034000024FF0000301F04BF8FB680133FB6035
S31508000350FB68032BD3DD0D48002100F039FF0C4B59
S315080003601B685A1C0A4B1A600A4B93ED007ADFED9C
S315080003700A7A67EE277A074BC3ED007A034800F03E
S31508000380AFFFB9E704130020001300202413002050
S315080003902C130020301300200AD7233B000000004E
S315080003A080B584B000AF786014481549002201234F
S315080003B002F0CEF81148282102F02AF9114B1A68E2
S315080003C007F10C03104619464FF000024FF00003E0
S315080003D001F02EF8FB68184600F0D2FE0A48002104
S315080003E000F0F6FE094B1B685A1E084B1A600648B1
S315080003F000F076FF002001F043FDDFE70813002038
S31508000400D102000800130020241300202C1300201A
S3150800041080B582B000AF786001F0A2FC134B1B6870
S315080004205A1E124B1A60124B93ED007ADFED117AC1
S3150800043077EE677A0E4BC3ED007A01F0B9FC0E4BE6
S315080004401A680D4B9B881046194600F0F1FBFA20F6
S3150800045001F016FD084B1A68074B9B88104619468B
S3150800046000F0F6FBFA2001F00BFDD5E72C1300206F
S315080004703013002017B7D138240C002000000000E4
S3150800048080B588B004AF78603960002001F058FB69
S31508000490FF20002101F074FBF8601C48002100F0E1
S315080004A07FFE042000F05CFF0246194B1A60194BC8
S315080004B000934FF4007301930123029316481749DA
S315080004C00022002301F064FD154B00934FF40073DE
S315080004D0019301230293134813490022002301F0D4
S315080004E057FD124B00934FF40073019301230293B7
S315080004F00F4810490022002301F04AFD01F018FBBD
S31508000500002318461037BD4680BD00BF24130020BF
S3150800051000130020000F002050430008F1020008D5
S315080005200011002060430008A1030008000D002008
S3150800053070430008110400080000000000000000D5
S3150800054080B500AF164B164AD2F8882042F47002DE
S31508000550C3F88820134B134A126842F001021A6046
S31508000560104B00229A600F4A0E4B1B6823F08473C7
S3150800057023F4803313600B4B0B4A5A60094B094A24
S31508000580126822F480221A60064B0022DA6000F014
S315080005900FF900F08DF8024B4FF000629A6080BDAB
S315080005A000ED00E000380240103000240000000092
S315080005B080B487B000AF00233B6100237B61022330
S315080005C0FB600023BB6002237B60324B9B6803F011
S315080005D00C033B613B69042B07D0082B09D0002B81
S315080005E03FD12D4B2D4A1A603FE02B4B2C4A1A60FF
S315080005F03BE0284B5B6803F480039B0DBB60254BEF
S315080006005B6803F03F037B60BB68002B0DD0244A70
S315080006107B68B2FBF3F21F4B596847F6C0730B4071
S315080006209B0903FB02F37B610CE01C4A7B68B2FB67
S31508000630F3F2184B596847F6C0730B409B0903FB46
S3150800064002F37B61134B5B6803F440331B0C0133E5
S315080006505B00FB607A69FB68B2FBF3F20E4B1A602B
S3150800066003E00D4B0D4A1A6000BF0A4B9B6803F066
S31508000670F0031B090B4AD35CDBB23B61064B1A68D5
S315080006803B69DA40044B1A601C37BD465DF8047BAB
S31508000690704700BF00380240000C00200024F40018
S315080006A000127A00040C0020000000000000000080
S315080006B080B483B000AF00237B6000233B60354BDA
S315080006C0344A126842F480321A60324B1B6803F4CB
S315080006D000333B607B6801337B603B68002B03D1AA
S315080006E07B68B3F5A06FF0D12A4B1B6803F400337F
S315080006F0002B02D001233B6001E000233B603B68EE
S31508000700012B42D1234B234A126C42F080521A64C1
S31508000710214B214A126842F440421A601D4B1D4A79
S3150800072092689A601B4B1B4A926842F400429A6090
S31508000730184B184A926842F4A0529A60154B174A09
S315080007405A60144B134A126842F080721A6000BF4E
S31508000750104B1B6803F00073002BF9D0104B40F2C6
S3150800076005721A600B4B0B4A926822F003029A60D4
S31508000770084B084A926842F002029A6000BF054B8D
S315080007809B6803F00C03082BF9D10C37BD465DF8BE
S31508000790047B704700380240007000400854400748
S315080007A0003C0240000000000000000000000000BD
S315080007B080B400AF354B354A126B42F078021A63A3
S315080007C0334B4FF0CC121A62314B4FF0CC325A628F
S315080007D02F4B304A1A602E4B2F4A9A602C4B002218
S315080007E05A602B4B0022DA602C4B4FF0CC321A623F
S315080007F02A4B4FF0CC325A62284B4FF0AA321A6075
S31508000800264B4FF0FF329A60244B00225A60234B46
S315080008100022DA60224B234A1A62214B224A5A6284
S315080008201F4B224A1A601E4B214A9A601C4B002213
S315080008305A601B4B0022DA601E4B1A4A1A621D4B7D
S31508000840C0225A621B4B1C4A1A601A4B1B4A9A60F2
S31508000850184B00225A60174B0022DA600B4B0B4AE2
S31508000860926B42F001029A634FF0204341F2110263
S315080008709A604FF0204340F20122DA60104B6FF085
S3150800088070429A60BD465DF8047B704700380240A6
S31508000890000C02400A0AAAAA0F0FFFFF0010024026
S315080008A000140240CCCCCC000000CCCCAA0A00AA8A
S315080008B0FF0F00FF00180240AA0A0800FF0F0C00ED
S315080008C0040100A000000000000000000000000075
S315080008D080B584B000AF012000F0E2F900BF00F057
S315080008E0FFF90346012BFAD1012000F021FAFFF7A0
S315080008F027FEFFF75DFE3B46184600F041FA4FF427
S315080009008040012100F024FB0120012100F0E8FAD3
S315080009100220012100F0E4FA0420012100F0E0FAA7
S315080009200820012100F0DCFA1020012100F0D8FA95
S315080009302020012100F0D4FA4020012100F0D0FA4D
S315080009408020012100F0CCFA4FF48070012100F0DC
S31508000950C7FA554B4FF028421A60534B00225A608B
S31508000960514B00229A60504B4FF0C842DA604E4B0A
S3150800097000221A624C4B00225A624C4B4FF42072EA
S315080009801A604A4B00225A60484BC0229A60474B6D
S315080009904FF48072DA60454B00221A62434B0022FC
S315080009A05A62434B00221A60414B00225A60404B60
S315080009B000229A603E4B0022DA603D4B00221A6202
S315080009C03B4B00225A623B4B4FF0AA421A60394B06
S315080009D000225A60374B00229A60364B0022DA60B2
S315080009E0344B00221A62334B00225A62324B0022E1
S315080009F01A60314B00225A602F4B00229A602E4B08
S31508000A000022DA602C4B00221A622B4B00225A6213
S31508000A102A4B00221A60294B00225A60274B0022D3
S31508000A209A60264B0022DA60244B00221A62234B76
S31508000A3000225A62224B00221A60214B00225A6079
S31508000A401F4B00229A601E4B0022DA601C4B0022C4
S31508000A501A621B4B00225A621A4B00221A60194B63
S31508000A6000225A60174B00229A60164B0022DA6061
S31508000A70144B00221A62134B00225A62124B0022B0
S31508000A801A60114B00225A600F4B00229A600E4BD7
S31508000A900022DA600C4B00221A620B4B00225A62C3
S31508000AA01037BD4680BD00BF00000240000402406A
S31508000AB000080240000C02400010024000140240E8
S31508000AC000180240001C02400020024000000000FE
S31508000AD080B582B000AF0020124900F061FD0246E1
S31508000AE0114B1A60104B1A68104B1A600F4B1A6894
S31508000AF00F4B1A603B46184600F002FF4FF4E133ED
S31508000B003B6008233B7101237B710023BB710323E0
S31508000B10FB713B460020194600F012FF0837BD4618
S31508000B2080BD00BF804300083C130020341300201A
S31508000B30381300200000000000000000000000003C
S31508000B4080B500AF0E4B1A680D4B9B8810461946A8
S31508000B5000F08EF80346002B08D00A4B1A68094B9A
S31508000B609B881046194600F063F807E0054B1A689B
S31508000B70044B9B881046194600F06AF880BD00BFF2
S31508000B80140C00201C0C00200000000000000000CF
S31508000B9080B491B000AF78607B681B68FB637B68A4
S31508000BA05B68BB637B689B687B637B68DB683B63CE
S31508000BB07B681B69FB627B685B69BB627B689B69B8
S31508000BC07B627B68DB693B620B4B1B68FB610B4BEB
S31508000BD01B68BB610A4B1B687B610A4B1B683B6140
S31508000BE0094B1B68BB60094B1B68FB6000BE44379A
S31508000BF0BD465DF8047B704728ED00E02CED00E06B
S31508000C0030ED00E03CED00E034ED00E038ED00E0CA
S31508000C1004207146084200F00480EFF30980FFF7CC
S31508000C20B7BFEFF30880FFF7B3BFFFF7F1BF00BF09
S31508000C3080B483B000AF78600B467B807B687A8887
S31508000C401A830C37BD465DF8047B70470000000028
S31508000C5080B483B000AF78600B467B807B687A8867
S31508000C605A830C37BD465DF8047B704700000000C8
S31508000C7080B485B000AF78600B467B807B681B69C3
S31508000C809AB27B881340FB81FB8918461437BD4608
S31508000C905DF8047B704700BF0000000000000000FC
S31508000CA080B582B000AF0346FB71FB79002B05D0F7
S31508000CB0FB79012B02D0FB79052B01D1012300E03A
S31508000CC00023184601F0ACFD044B00221A70034BB2
S31508000CD0FA791A700837BD4680BD00BF023802404F
S31508000CE080B582B000AF00233B600023FB71002370
S31508000CF0BB71312000F064F90346BB713B680133D0
S31508000D003B603B68B3F5A06F02D0BB79002BF0D0EF
S31508000D10312000F055F90346002B02D00123FB7160
S31508000D2001E00023FB71FB7918460837BD4680BDF4
S31508000D3080B584B000AF78600023FB607B68002B29
S31508000D4005D07B68012B02D07B68022B01D10123D9
S31508000D5000E00023184601F063FD084B9B68FB6022
S31508000D60FB6823F00303FB60FA687B681343FB60A8
S31508000D70024BFA689A601037BD4680BD00380240BB
S31508000D8080B489B000AF78600023BB6100237B6123
S31508000D900023FB6102233B610023FB600223BB6047
S31508000DA0484B9B6803F00C03BB61BB69042B07D057
S31508000DB0082B09D0002B3FD17B68434A1A603FE0D5
S31508000DC07B68424A1A603BE03E4B5B6803F480034B
S31508000DD09B0DFB603B4B5B6803F03F03BB60FB6806
S31508000DE0002B0DD0394ABB68B2FBF3F2354B596874
S31508000DF047F6C0730B409B0903FB02F3FB610CE04B
S31508000E00314ABB68B2FBF3F22E4B596847F6C073FA
S31508000E100B409B0903FB02F3FB612A4B5B6803F457
S31508000E2040331B0C01335B003B61FA693B69B2FB3B
S31508000E30F3F27B681A6003E07B68234A1A6000BFF6
S31508000E40204B9B6803F0F003BB61BB691B09BB61C0
S31508000E501F4ABB6913441B78DBB27B617B681A683F
S31508000E607B69DA407B685A60164B9B6803F4E0534B
S31508000E70BB61BB699B0ABB61154ABB6913441B78F6
S31508000E80DBB27B617B685A687B69DA407B689A606B
S31508000E900C4B9B6803F46043BB61BB695B0BBB618E
S31508000EA00B4ABB6913441B78DBB27B617B685A68C3
S31508000EB07B69DA407B68DA602437BD465DF8047BD7
S31508000EC0704700BF003802400024F40000127A0080
S31508000ED02C0C0020000000000000000000000000AC
S31508000EE080B582B000AF78600B46FB707A68164B07
S31508000EF01340002B04D17B68002B01D0012300E0AE
S31508000F000023184601F08CFCFB78002B02D0FB78F6
S31508000F10012B01D1012300E00023184601F080FCD3
S31508000F20FB78002B06D0094B084A116B7A680A43EE
S31508000F301A6306E0054B054A116B7A68D2430A40E4
S31508000F401A630837BD4680BD00EE8B810038024023
S31508000F5080B582B000AF78600B46FB707A68164B96
S31508000F601340002B04D17B68002B01D0012300E03D
S31508000F700023184601F054FCFB78002B02D0FB78BE
S31508000F80012B01D1012300E00023184601F048FC9B
S31508000F90FB78002B06D0094B084A516C7A680A433D
S31508000FA05A6406E0054B054A516C7A68D2430A40F2
S31508000FB05A640837BD4680BDCC80C8FF0038024059
S31508000FC080B586B000AF0346FB710023FB600023A3
S31508000FD07B610023FB74FB79212B23D0FB79312B12
S31508000FE020D0FB79392B1DD0FB79412B1AD0FB7900
S31508000FF0612B17D0FB79792B14D0FB797A2B11D07A
S31508001000FB797B2B0ED0FB797C2B0BD0FB797D2BC8
S3150800101008D0FB797E2B05D0FB797F2B02D0FB7994
S315080010203B2B01D1012300E00023184601F0F8FB11
S31508001030FB795B09DBB2FB60FB68012B03D1114B23
S315080010401B687B6109E0FB68022B03D10D4B1B6F04
S315080010507B6102E00B4B5B6F7B61FB7903F01F033F
S31508001060FB60FB6801229A407B691340002B02D083
S315080010700123FB7401E00023FB74FB7C1846183738
S31508001080BD4680BD00380240000000000000000098
S3150800109080B400AF084B084AD2F8882042F47002A0
S315080010A0C3F88820054B054A526842F040425A6008
S315080010B0BD465DF8047B704700ED00E030EF00E0C8
S315080010C080B483B000AF0346FB800C37BD465DF89D
S315080010D0047B7047000000000000000000000000CC
S315080010E080B483B000AF0346FB800C37BD465DF87D
S315080010F0047B7047000000000000000000000000AC
S3150800110080B483B000AF7860FEE700BF000000003F
S3150800111080B483B000AF78603960FEE70000000055
S3150800112080B582B000AF786039607868396802F0B7
S3150800113057FA0837BD4680BD0000000000000000D1
S3150800114080B582B000AF7860786802F0D1FD0346BA
S3150800115018460837BD4680BD0000000000000000A4
S3150800116080B582B000AF786039607868396802F077
S31508001170FFFD034618460837BD4680BD000000003F
S3150800118080B582B000AF7860786802F0A1FE0837B3
S31508001190BD4680BD00000000000000000000000001
S315080011A080B582B000AF78600B46FB707868002186
S315080011B0082200F05DFA7B68FA785A710837BD464E
S315080011C080BD00BF00000000000000000000000015
S315080011D080B58AB000AF7860396000F089FC786223
S315080011E07B689B790133DAB27B689A71786A00F07A
S315080011F087FC3B68002B0ED007F1080318463968B0
S3150800120001F006FA07F10803184600210022022316
S3150800121001F09EF908E007E07B685B7903F00103BB
S31508001220002B01D100F054FE786800F029F8034637
S31508001230002B0DD13B68002BEED03B68002B07D066
S3150800124007F10803184601F0BBF80346002BE3D064
S3150800125000F04EFC78627B689B79013BDAB27B68CA
S315080012609A71786A00F04CFC012318462837BD4667
S3150800127080BD00BF00000000000000000000000064
S3150800128080B586B000AF786000F01AFF386100F0CC
S315080012902FFCF8607B681B79002B07D07B681A68DF
S315080012A03B699A4202D00023FB750AE07B681B79EA
S315080012B00133DAB27B681A717B683A691A600123CE
S315080012C0FB75F86800F01CFCFB7D18461837BD4610
S315080012D080BD00BF00000000000000000000000004
S315080012E090B585B000AF78600023FB7300F000FC72
S315080012F0B8607B681B79002B15D07B681C6800F0EA
S31508001300DFFE03469C420ED17B681B79013BDAB2AD
S315080013107B681A717B681B79002B02D17B680022D7
S315080013201A600123FB737B689B79002B0BD0B86886
S3150800133000F0E6FB7B685B7903F00103002B05D11F
S3150800134000F0C6FD02E0B86800F0DAFBFB7B184641
S315080013501437BD4690BD00BF000000000000000025
S3150800136080B584B000AF78600C20FFF7E9FEF8601E
S31508001370FB68002B2ED07B68B3F1FF3F09D1FB68D1
S3150800138000229A60FB687A681A60FB6800225A6035
S3150800139020E07B689B001846FFF7D2FE0246FB68F2
S315080013A09A60FB689B68002B0FD0FB689A687B687D
S315080013B09B00104600211A4600F05AF9FB687A6825
S315080013C01A60FB6800225A6004E0F868FFF7D8FE46
S315080013D00023FB60FB6818461037BD4680BD00BF7A
S315080013E080B586B000AFF860B960C7E900230F4B37
S315080013F0D3E90023C7E904230CE0D7E90401D7E9B8
S31508001400002301F0CDF80346002B01D0002309E0A4
S3150800141000F05EFDF868B96800F03AF80346002B5C
S31508001420EBD0012318461837BD4680BD601300204F
S3150800143080B586B000AFF860B960C7E90023114BE4
S31508001440D3E90023C7E90423BB6800221A600CE02D
S31508001450D7E90401D7E9002301F0A2F80346002BD7
S3150800146001D0002309E000F033FDF868B96800F000
S315080014705FF80346002BEBD0012318461837BD4604
S3150800148080BD00BF601300200000000000000000BF
S3150800149080B584B000AF786039600023FB7301F033
S315080014A0AFFAB8607B681B68B3F1FF3F1ED17B6853
S315080014B09A687B685B6801339B0010461946FFF7FC
S315080014C04FFE02467B689A607B689B68002B20D09B
S315080014D07B689A687B685B68581C796848609B00DB
S315080014E013443A681A600123FB7312E07B685A6852
S315080014F07B681B689A420CDA7B689A687B685B682B
S31508001500581C796848609B0013443A681A6001239E
S31508001510FB73B86801F084FAFB7B18461037BD46A2
S3150800152080BD00BF000000000000000000000000B1
S3150800153080B586B000AF786039600023FB753B68DC
S3150800154000221A6001F05CFA38617B685B68002B40
S3150800155018DD7B685B68591E7A6851609B00FB60E2
S315080015607B689B681A683B681A607B6899687B6821
S315080015709B681A1DFB68084611461A4600F030F8A3
S315080015800123FB75386901F04BFAFB7D18461837BD
S31508001590BD4680BD000000000000000000000000FD
S315080015A080B584B000AF786039600023FB60786846
S315080015B0002100F0BDF8B860BB68002B07DBBA68ED
S315080015C013465B001344DB00034A1344FB60FB68C5
S315080015D018461037BD4680BDB0440008000000001C
S315080015E080B489B000AFF860B9607A60FB687B6147
S315080015F0BB68FB617B69002B32D07A69FB699A422A
S315080016001ED9FA697B681A447B699A4218D9FA691D
S315080016107B681344FB617A697B681344BB6109E004
S31508001620BB69013BBB61FB69013BFB61FB691A783E
S31508001630BB691A707B685A1E7A60002BF0D10FE0DE
S315080016407B69BB6107E0BB695A1CBA61FA69511C20
S31508001650F96112781A707B685A1E7A60002BF2D1EB
S315080016607B6918462437BD465DF8047B704700BF82
S3150800167080B487B000AFF860B9607A60FB683B61F8
S315080016803B69002B0FD000237B6108E03A697B6930
S315080016901344BA68D2B21A707B6901337B617A69DE
S315080016A07B689A42F2D3FB6818461C37BD465DF83C
S315080016B0047B7047000000000000000000000000E6
S315080016C080B485B000AF78600023FB607B68BB60A0
S315080016D0BB68002B09D002E0FB680133FB60BB68DE
S315080016E05A1CBA601B78002BF6D1FB6818461437CB
S315080016F0BD465DF8047B704700000000000000004E
S3150800170080B485B000AF78607A6813465B001344EE
S31508001710DB00064A1344FB60FB681B68BB60BB68BA
S3150800172018461437BD465DF8047B7047B044000878
S3150800173080B586B000AF78603960454B00221A60E4
S3150800174000F00EFB7B687B617B69002B5BDB7A69AB
S3150800175013465B001344DB003E4A13443B613B6976
S315080017601B68FB60F86801F043FB0346184602F065
S315080017700FFCF86801F04CFB0346184602F008FC1B
S31508001780F868002101F004FBF868002101F018FB55
S3150800179000F0F6F803469BB2184602F0C9FB03466A
S315080017A0F868194601F0F4FA0346002B28D000F031
S315080017B0DFF803469BB2184602F0BAFB0346F86800
S315080017C0194601F0FDFA0346002B0ED0F8680021F1
S315080017D001F036FAF86801F03BFB034643F00403D0
S315080017E0F868194601F044FB0DE0F86801F000FBC3
S315080017F00346184602F0CCFB154B0C221A6002E091
S31508001800134B0C221A6000F0D3FA7B69002B0FDB0E
S315080018103B68002B0CD07869396800F091F80346CC
S31508001820002B05DA786900F01BF84FF0FF337B616F
S31508001830786901F09DFA02467B699A4202D0786976
S3150800184000F00EF87B6918461837BD4680BD00BF04
S315080018507C130020B04400080000000000000000CF
S3150800186080B586B000AF786000237B61204B0022EC
S315080018701A6000F075FA7A6813465B001344DB00B9
S315080018801C4A13443B613B691B68FB60F86801F01E
S315080018909FF9F86801F0CCFA0346184601F050F9AA
S315080018A0F86801F0A5FA0346184602F071FBF868D5
S315080018B001F0AEFA0346184602F06AFBF868002102
S315080018C001F066FAF868002101F07AFAF86801F082
S315080018D0BFFA034623F00403F868194601F0C8FA6C
S315080018E000F066FA7B6918461837BD4680BD00BF0A
S315080018F07C130020B044000800000000000000002F
S3150800190080B582B000AF78607B68002B14D0786809
S3150800191000210822FFF7ACFE7B684FF416521A60C6
S315080019207B6808221A717B6801225A717B6800223B
S315080019309A717B680022DA710837BD4680BD00BF00
S3150800194080B584B000AF786039607868FFF7D8FE54
S3150800195003461846396801F073F9F860FB681846BB
S315080019601037BD4680BD00BF000000000000000023
S3150800197080B400AF40231846BD465DF8047B704727
S3150800198080B400AF40231846BD465DF8047B704717
S3150800199090B589B000AFF860B9607A600023FB6142
S315080019A0BB68BB6125E0FB681B68184601F020FA96
S315080019B00346184602F09CFB78617B69002B16DB10
S315080019C0FB695A1CFA61BA6913447A69D2B21A7069
S315080019D0FB681C68FB681B68184601F039FA034661
S315080019E043F001032046194601F042FA01E000F0EF
S315080019F06FFAFA697B689A42D5DBFB691846243781
S31508001A00BD4690BD00000000000000000000000078
S31508001A1080B586B000AFF860B9607A6000237B6154
S31508001A20BB683B611BE0FB681B68184601F0F0F9D0
S31508001A3002467B6939690B441B781046194602F041
S31508001A4017FB0346002B03D07B6901337B6101E05A
S31508001A5000F03EFAFB681B68184601F089FA7A69B5
S31508001A607B689A42DFDB7B6918461837BD4680BD1E
S31508001A7080B582B000AF78607B681B68184601F0B5
S31508001A80B7F90346184602F0CBFA03461846083754
S31508001A90BD4680BD000000000000000000000000F8
S31508001AA080B582B000AF78607B681B68184601F085
S31508001AB0AFF90346184602F0B3FA03461846083744
S31508001AC0BD4680BD000000000000000000000000C8
S31508001AD080B582B000AF78607B681B68184601F055
S31508001AE0B7F9034618460837BD4680BD0000000012
S31508001AF080B500AF00F0C4FE0346184680BD00BF9F
S31508001B0080B582B000AF7860786800F0D9FE0837F3
S31508001B10BD4680BD00000000000000000000000077
S31508001B2080B500AF00F0ECFE80BD00BF00000000ED
S31508001B3080B500AF00F06CFB80BD00BF0000000060
S31508001B4080B582B000AF0346FB7100F059FF00F084
S31508001B50AFFD0346184600F03BFF97F907309BB2E6
S31508001B601BB2184600F0BCFA00F042FF0837BD4623
S31508001B7080BD00BF0000000000000000000000005B
S31508001B80B0B485B000AF03463960FB71FB793A689B
S31508001B901C46154600DF2346FB60FB6818461437CB
S31508001BA0BD46B0BC704700BF000000000000000042
S31508001BB000B522462B46D5B21C462846214600F0DB
S31508001BC007F805462C4600BD00000000000000008E
S31508001BD080B485B000AF03463960FB714FF0FF3320
S31508001BE0FB60FB79002B02D10023FB6000BFFB687A
S31508001BF018461437BD465DF8047B704700000000A0
S31508001C00EFF3098070471846000000000000000046
S31508001C1080B582B000AF0346FB80084B1B68002BDB
S31508001C2007D0064B1B68F988054A1268084611460C
S31508001C309847FB8818460837BD4680BD4C130020D8
S31508001C405013002000000000000000000000000003
S31508001C5080B584B000AF78604820FFF771FAF86065
S31508001C60FB68002B08D0F86800214822FFF700FD22
S31508001C70FB687A685A6002E00820FFF7C9FFFB682C
S31508001C8018461037BD4680BD000000000000000061
S31508001C9080B582B000AF78607868FFF771FA0837C8
S31508001CA0BD4680BD000000000000000000000000E6
S31508001CB080B485B000AF78600F4B1B68FB60FB688B
S31508001CC0002B0BD002E0FB681B68FB60FB681B68F7
S31508001CD0002BF8D1FB687A681A6005E0064B7A682B
S31508001CE01A607B6800221A607B6818461437BD465E
S31508001CF05DF8047B704700BF401300200000000019
S31508001D0080B485B000AF7860134B1B687A689A4236
S31508001D1004D17B681A68104B1A6016E00E4B1B68D4
S31508001D20FB600CE0FB681A687B689A4204D17B6802
S31508001D301A68FB681A6005E0FB681B68FB60FB68AD
S31508001D40002BEFD17B6800221A607B68184614378F
S31508001D50BD465DF8047B7047401300200000000074
S31508001D6080B582B000AF00237B6000F089FD386043
S31508001D700B4B1B68002B0AD0094B1B681B8E1BB22A
S31508001D807B60074B1B681A8E013292B21A86386836
S31508001D9000F096FD7B6818460837BD4680BD00BF33
S31508001DA044130020000000000000000000000000AE
S31508001DB080B582B000AF00237B6000F061FD38601B
S31508001DC00E4B1B68002B10D00C4B1B681B8E1BB2CE
S31508001DD0002B0ADD094B1B681B8E1BB27B60074B69
S31508001DE01B681A8E013A92B21A86386800F068FDA6
S31508001DF07B6818460837BD4680BD00BF44130020DF
S31508001E0080B586B000AF786039601C4BD3E90023F3
S31508001E10C7E9042300F0F4FDF8607B68B3F84030A6
S31508001E2001339AB27B68A3F84020F86800F0F8FD01
S31508001E301BE03B681A464FEAE273D7E9040100F053
S31508001E40AFFB0346002B0ED000F0DAFDF8607B6886
S31508001E50B3F84030013B9AB27B68A3F84020F86893
S31508001E6000F0DEFD07E000F033F87B68B3F8403099
S31508001E701BB2002BDDDC1837BD4680BD6013002081
S31508001E8080B582B000AF786000F01AF903461846AC
S31508001E907968FFF7B5FF0837BD4680BD000000002A
S31508001EA080B584B000AF786000F0AAFDF8607B6862
S31508001EB0B3F84030013B9AB27B68A3F84020F86833
S31508001EC000F0AEFD1037BD4680BD00BF0000000023
S31508001ED080B500AF0E4B1B68002B18D00C4B1B6847
S31508001EE01B8E002B13D100F093FD0346002B0ED05A
S31508001EF0074B1B68064A1268928B42F0020292B29E
S31508001F009A83044B4FF6FF721A80FFF709FE80BDCD
S31508001F1044130020481300200000000000000000C1
S31508001F2080B584B000AF786000F06AFDF8607B6821
S31508001F309B8B43F004039AB27B689A837B685B6B3E
S31508001F40002B05D07B685B6B7A68526A1046984707
S31508001F507868FFF7D5FE7868FFF79AFE786800F08C
S31508001F608FFBF86800F05CFD1037BD4680BD00BFEA
S31508001F7080B500AF054B1B68044A1268928B42F085
S31508001F80040292B29A83FFF7A3FFFCE744130020EA
S31508001F9080B588B000AFF860B9607A603B6000230E
S31508001FA0FB6100F02DFDB861BB6A002B22D0FB6AED
S31508001FB0B86AFA211A46FFF75BFBFB6A443BBA6A22
S31508001FC013447B61786900214422FFF751FB3A6884
S31508001FD07B695A62354A7B699A63BB6823F00102BA
S31508001FE07B69DA637B694FF004521A647B696FF088
S31508001FF002021A602E4B1B68002B02D12D4B1B6860
S3150800200001E02B4B1B681846FFF722FEF861FB69B7
S31508002010002B42D0FB6900229A83BB6A002B1AD098
S31508002020FB6ABA6A13443B613B69443B1A46FB693F
S315080020309A60FB6ABA6A1A44FB695A61FB69BA6A0A
S315080020401A61FB691B6903F14402FB691A61FB69A2
S31508002050BA6A9A6112E0FB69174A9A60FB699A683C
S31508002060FB695A61FB69154A1A61FB691B6903F129
S315080020704402FB691A61FB69104A9A61FB69FA68AE
S315080020801A62FB693A685A62FB693A8EDA83FB6917
S315080020907A685A63F869FFF70BFEB86900F0C0FC66
S315080020A0FB6918462037BD4680BD00BF711F000872
S315080020B04413002040130020000C002000060020D6
S315080020C080B400AF034B1B681846BD465DF8047B19
S315080020D0704700BF44130020000000000000000005
S315080020E080B586B004AF0346FB8000230093002327
S315080020F00193B7F90630029307480021002200230E
S31508002100FFF746FF0246054B1A60044B1B68184644
S315080021100837BD4680BD00BF9C4400084413002014
S3150800212080B582B000AF78607B689A687B681B6967
S315080021309A4205D97B689A687B685B699A421CD97A
S315080021407B689A687B681B699A4203D80120FFF767
S315080021505FFD12E07B689A687B689B699A4203D8A0
S315080021600420FFF755FD08E07B689A687B685B6981
S315080021709A4202D90220FFF74BFD7B689A687B6872
S31508002180DB689A4203D37B68DB68002B03D17B6844
S315080021909A687B68DA600837BD4680BD0000000093
S315080021A080B582B000AF154B1B687B60FEF7C8FC94
S315080021B0124B1B68184600F0C3FA104B1B687B606D
S315080021C015E07B681B683B607868FFF7A9FF7B68AA
S315080021D09B8B03F00403002B07D0094B1B687A6816
S315080021E09A4202D07868FFF79BFE3B687B607B6863
S315080021F0002BE6D10837BD4680BD00BF401300203E
S315080022004413002000000000000000000000000049
S3150800221080B500AFFFF7C4FFFFF75AFEFAE700BF25
S3150800222080B400AF244B1B68244A1268DA63224B39
S315080022301B681B8E002B3AD1214B1B889BB21A4672
S31508002240013A91B21E4A11801BB2002B2FDA08E020
S31508002250194B1B68184A1268928B22F0020292B236
S315080022609A83154B1B681B68002B03D0124B1B68FF
S315080022701B6801E0134B1B680F4A13600E4B1B6863
S315080022809B8B03F00603002BE2D10B4B1B68DA8B02
S315080022900B4B1A800A4B1B881BB2002B02DA084B21
S315080022A000221A80044B1B68DA6B044B1A60BD4681
S315080022B05DF8047B704700BF441300207C130020A0
S315080022C04813002040130020000000000000000012
S315080022D0EFF3098020E9F00F1EF0100F01D120ED71
S315080022E0108A40F804ED80F3098800F019FB0F4BBB
S315080022F01B68002B0CD00D4B1C68FFF781FC0346AE
S31508002300A360FFF78DFF094B1B689B6883F3098859
S31508002310EFF3098050F804EB1EF0100F01D1B0EC72
S31508002320108AB0E8F00F80F309887047441300203C
S31508002330EFF3098020E9F00F1EF0100F01D120ED10
S31508002340108A40F804ED80F3098800F0E9FA184B82
S315080023501B68002B1ED0164B1C68FFF751FC034662
S31508002360A360144BD3E90023013243F1000311495A
S31508002370C1E900230E4B1968D1E90A23013243F15A
S315080023800003C1E90A23FFF74BFF094B1B689B684B
S3150800239083F30988EFF3098050F804EB1EF0100F59
S315080023A001D1B0EC108AB0E8F00F80F309887047C5
S315080023B04413002060130020000000000000000005
S315080023C080B483B000AF78607B681B69002B14BFAC
S315080023D000230123DBB218460C37BD465DF8047BA3
S315080023E0704700BF00000000000000000000000069
S315080023F080B582B000AF78607B681B7E03F001036E
S31508002400002B02D07868FEF7BBFE0837BD4680BDB4
S3150800241080B586B000AF786039600023FB75FFF79A
S3150800242067FBF8607B689B6B3B6108E03A683B6931
S315080024309A4201D10123FB753B695B683B61FB7DD1
S31508002440002B02D13B69002BF0D1F868FFF758FB47
S31508002450FB7D18461837BD4680BD00BF000000004A
S3150800246080B584B000AF7860396078683968FFF75E
S31508002470CFFF0346002B23D1FFF73AFBB8607B68F2
S315080024809B6BFB60FB68002B0ED002E0FB685B6869
S31508002490FB60FB685B68002BF8D1FB683A685A60FA
S315080024A03B68FA681A6008E07B683A689A633B6892
S315080024B000221A603B6800225A60B868FFF720FBC2
S315080024C03B6818461037BD4680BD00BF00000000B7
S315080024D080B584B000AF78603960FFF709FBF86013
S315080024E07B689A6B3B689A420CD13B685A687B6852
S315080024F09A637B689B6B002B1CD07B689B6B0022C6
S315080025001A6017E03B681B68002B04D03B681B6801
S315080025103A6852685A603B685B68002B04D03B688F
S315080025205B683A6812681A603B6800225A603B6822
S3150800253000221A60F868FFF7E3FA3B681846103776
S31508002540BD4680BD0000000000000000000000003D
S3150800255080B586B000AFF860B9607A60FB70FFF7A7
S31508002560AFFD7861FB68002B14D0F86800211C22A7
S31508002570FFF77EF8FB7823F00103DAB2FB681A76D8
S31508002580FB68BA689A60FB687A68DA607869F968FD
S31508002590FFF766FFFB6818461837BD4680BD00BFC3
S315080025A080B487B000AFC7E90201C7E9002300235A
S315080025B0FB75D7E9002352EA030119D0D7E90023AE
S315080025C0B3F1FF3F08BFB2F1FF3F11D00C4BD3E97F
S315080025D00001D7E90223801A61EB0301D7E900233A
S315080025E0904271EB030CB4BF00230123DBB2FB75E9
S315080025F0FB7D18461C37BD465DF8047B704700BF57
S315080026006013002000000000000000000000000029
S3150800261080B584B000AF78603960FFF769FAF86072
S315080026207B683A681A617B683A685A61F868FFF706
S3150800263067FA7B6818461037BD4680BD0000000063
S3150800264080B584B000AF78603960FFF751FAF8605A
S3150800265038680021FFF7DCFF78683968FFF738FF2C
S315080026603868FFF7C5FEF868FFF74AFA1037BD461F
S3150800267080BD00BF00000000000000000000000050
S3150800268080B582B000AF786005E07B689B6B7868A0
S315080026901946FFF7D5FF7B689B6B002BF5D10837EA
S315080026A0BD4680BD000000000000000000000000DC
S315080026B080B400AF01231846BD465DF8047B704719
S315080026C080B586B000AFF860B9607A6000237B6198
S315080026D0BB681B69002B28D0BB681A697B689A42BD
S315080026E004D3BB681A697B68D31A00E00023BA686A
S315080026F01361BB681B69002B17D1BB689B68002B4D
S3150800270006D0BB689B68BA68D268F868B968984703
S31508002710BB681B7E03F00203002B03D1BB685A6912
S31508002720BB681A617B6901337B617B691846183778
S31508002730BD4680BD0000000000000000000000004B
S3150800274080B586B000AF786000F09AF8F8601A4B4A
S31508002750D3E900231146194BD3E900231346CB1AB4
S31508002760BB60BB68002B1FD0134BD3E9002313496A
S31508002770C1E9002315E07B689B6B3B610BE0786839
S315080027803969BA68FFF79CFF03467A6913447B6187
S315080027903B695B683B613B69002BF0D17B681B6832
S315080027A07B607B68002BE6D1F86800F089F87B69C6
S315080027B018461837BD4680BD601300205813002000
S315080027C080B483B000AF03463960FB7197F90730D0
S315080027D0002B0BDA0D49FB7903F00F03043B3A682B
S315080027E0D2B21201D2B20B441A7609E0084997F917
S315080027F007303A68D2B21201D2B20B4483F80023EA
S315080028000C37BD465DF8047B704700BF00ED00E05D
S3150800281000E100E0000000000000000000000000E9
S3150800282080B483B000AF78600C37BD465DF8047B92
S31508002830704700BF00000000000000000000000014
S3150800284000B5F0B42DE9000F064B5B68DBB2103B10
S31508002850DBB2DBB25BB2184601F052FDBDE8000FF1
S31508002860F0BC00BD00ED00E0000000000000000024
S3150800287080B400AFBD465DF8047B704700000000D9
S3150800288080B483B000AF0B4B1B6803F00203002B28
S315080028900CBF00230123DBB27B60064B054A126896
S315080028A022F002021A607B6818460C37BD465DF8AE
S315080028B0047B704710E000E0000000000000000004
S315080028C080B483B000AF78607B68002B06D0094BD4
S315080028D0084A126842F002021A6005E0054B054AEA
S315080028E0126822F002021A600C37BD465DF8047BB6
S315080028F0704700BF10E000E0000000000000000084
S3150800290080B400AF044B044A526842F080525A60C1
S31508002910BD465DF8047B704700ED00E0000000004E
S3150800292080B483B000AF0F4B5B68C3F308037B60CA
S315080029307B680E2B02D00F2B07D00DE0094B094AF6
S31508002940526842F000625A6006E0064B054A526831
S3150800295042F000725A6000BF0C37BD465DF8047B32
S31508002960704700BF00ED00E0000000000000000016
S3150800297080B582B000AF00F01BF902460C4BA3FBF2
S3150800298002139B097B600B4B7A6822F07F42013A5F
S315080029905A604FF0FF300F21FFF712FF054B002258
S315080029A09A60044B07221A600837BD4680BD00BFEF
S315080029B0D34D621010E000E00000000000000000A7
S315080029C080B400AFBD465DF8047B70470000000088
S315080029D080B582B000AF786000F012F8FFF7C8FF44
S315080029E0FFF7EEFF0837BD4680BD00BF00000000B8
S315080029F062B67047000000000000000000000000FA
S31508002A00EFF3108080F0010072B67047184600BFD9
S31508002A10EFF3108080F001007047184600000000B0
S31508002A2080B483B000AF78607B68002B01D062B6B3
S31508002A3000E072B60C37BD465DF8047B704700BFF0
S31508002A4080B485B000AF78607B681F2B0DD81D4B0E
S31508002A501A687B68012101FA03F31340002B0CBFA7
S31508002A6000230123DBB2FB6025E07B683F2B11D8EE
S31508002A707B681F2B0ED9134B5A687B68203B0121B4
S31508002A8001FA03F31340002B0CBF00230123DBB22A
S31508002A90FB6010E07B683F2B0DD90A4B9A687B6870
S31508002AA0403B012101FA03F31340002B0CBF00231E
S31508002AB00123DBB2FB60FB6818461437BD465DF898
S31508002AC0047B704700E100E0000000000000000001
S31508002AD080B584B000AF78607868FFF7B1FFF8601A
S31508002AE07B681F2B06D8124B7A68012101FA02F27D
S31508002AF01A6017E07B683F2B0AD87B681F2B07D91B
S31508002B000B4B7A68203A012101FA02F25A6009E071
S31508002B107B683F2B06D9064B7A68403A012101FAB1
S31508002B2002F29A60FB6818461037BD4680BD00BFA2
S31508002B3000E100E0000000000000000000000000C6
S31508002B4080B584B000AF78607868FFF779FFF860E1
S31508002B507B681F2B07D8134B7A68012101FA02F20A
S31508002B60C3F8802019E07B683F2B0BD87B681F2BA6
S31508002B7008D90C4B7A68203A012101FA02F2C3F807
S31508002B8084200AE07B683F2B07D9064B7A68403ACF
S31508002B90012101FA02F2C3F88820FB6818461037AB
S31508002BA0BD4680BD00E100E0000000000000000016
S31508002BB080B584B000AF3B461846FEF7E1F83B689F
S31508002BC018461037BD4680BD000000000000000012
S31508002BD080B584B000AF78607B68FB60F86800F069
S31508002BE00FF8B860FB681B68184640F225510022AA
S31508002BF000F026FCBB6818461037BD4680BD00BFEE
S31508002C0080B485B000AF78607B68FB60FB681B68A2
S31508002C109B899BB21A4640F225531340002B0CBFE2
S31508002C2000230123DBB2BB60BB6818461437BD46D8
S31508002C305DF8047B704700BF00000000000000003C
S31508002C4080B588B000AF786039604FF0FF33FB611C
S31508002C507B68BB613B68002B02D1BB6908333B60CC
S31508002C60BB691B681846002100F08AFB3B68002BED
S31508002C7071D03B681B68BB603B681B79BB813B68AE
S31508002C801B79092B02D00023BB8103E04FF4805344
S31508002C90BB8100BF3B685B79022B04D0032B06D0AF
S31508002CA00023FB8107E04FF44053FB8103E04FF418
S31508002CB00053FB8100BF3B689B79012B08D0022B90
S31508002CC002D000233B8207E04FF4C0633B8203E057
S31508002CD04FF480633B8200BF3B68DB79022B0AD046
S31508002CE0032B0CD0012B02D00023BB820BE04FF440
S31508002CF08073BB8207E04FF40073BB8203E04FF496
S31508002D004073BB8200BF0C237B82BB691A6807F13C
S31508002D1008031046194600F0B3F9BB691B68184644
S31508002D20012100F02DFBBB691B795BB218460C49E3
S31508002D30BA6901F085FABB691B795BB21846FFF7D9
S31508002D40C7FEBB691B68184640F22551012200F0F0
S31508002D5077FB0023FB61FB6918462037BD4680BD1B
S31508002D60D12F00080000000000000000000000004D
S31508002D7080B483B000AF78607B6818460C37BD46D0
S31508002D805DF8047B704700BF0000000000000000EB
S31508002D9080B485B000AF786039607B68FB60FB68FB
S31508002DA03A685A613B6818461437BD465DF8047B95
S31508002DB0704700BF0000000000000000000000008F
S31508002DC080B485B000AF786039607B68FB60FB68CB
S31508002DD03A689A613B6818461437BD465DF8047B25
S31508002DE0704700BF0000000000000000000000005F
S31508002DF080B485B000AF78607B68FB60FB685B6970
S31508002E0018461437BD465DF8047B7047000000007D
S31508002E1080B485B000AF78607B68FB60FB689B690F
S31508002E2018461437BD465DF8047B7047000000005D
S31508002E3080B485B000AF78607B68FB60FB681B795F
S31508002E405BB218461437BD465DF8047B704700BF71
S31508002E5080B485B000AF78607B68FB60FB681B694F
S31508002E6018461437BD465DF8047B7047000000001D
S31508002E7080B485B000AF786039607B68FB60FB681A
S31508002E803A681A61FB681B6918461437BD465DF82F
S31508002E90047B7047000000000000000000000000EE
S31508002EA080B485B000AF78607B68FB60FB681B6800
S31508002EB01B889BB203F08003002B0CBF0023012361
S31508002EC0DBB2FB72FB7A18461437BD465DF8047B05
S31508002ED0704700BF0000000000000000000000006E
S31508002EE080B487B000AF78607B687B617B691B68BC
S31508002EF01B889BB23B613B6903F02003002B0CBF88
S31508002F0000230123DBB2FB73FB7B18461C37BD4647
S31508002F105DF8047B704700BF000000000000000059
S31508002F2080B485B000AF786039607B68FB60FB6869
S31508002F301B683A6892B29A803B6818461437BD46B1
S31508002F405DF8047B704700BF000000000000000029
S31508002F5080B485B000AF78607B68FB60FB681B684F
S31508002F609B889BB218461437BD465DF8047B7047AC
S31508002F7080B485B000AF78607B68FB60FB681B682F
S31508002F80FA681268928992B242F0800292B29A81E5
S31508002F901437BD465DF8047B704700BF000000008B
S31508002FA080B485B000AF78607B68FB60FB681B68FF
S31508002FB0FA681268928992B222F0800292B29A81D5
S31508002FC01437BD465DF8047B704700BF000000005B
S31508002FD090B585B000AF03463960FB713B68FB606E
S31508002FE0FB681B7997F907205BB29A4244D119E02E
S31508002FF0FB685C69F868FFF7ABFF0346DBB220465F
S31508003000194601F035F80346002B05D1FB681B6904
S3150800301043F01002FB681A61FB681B6943F0010262
S31508003020FB681A61F868FFF75BFF0346002BDFD1E0
S3150800303009E0FB689B69184601F05AF80346F868E8
S315080030401946FFF76DFFFB689B69184600F0C8FF35
S315080030500346002B05D1F868FFF722FF0346002B2D
S31508003060E7D1FB689B69184600F0BAFF0346002BB8
S3150800307002D0F868FFF794FF1437BD4690BD00BF2D
S3150800308080B58AB000AF7860396000237B62002380
S315080030903B620023FB610023BB617A688B4B9A4233
S315080030A01BD07A688A4B9A4217D07A68894B9A421B
S315080030B013D07A68884B9A420FD07A68874B9A421F
S315080030C00BD07A68864B9A4207D07A68854B9A4223
S315080030D003D07A68844B9A4201D1012300E0002389
S315080030E01846FFF79DFB3B681B68002B06D03B681C
S315080030F01A687E4B9A4201D8012300E0002318463D
S31508003100FFF78EFB3B689B88002B04D03B689B88A7
S31508003110B3F5805F01D1012300E000231846FFF7CD
S315080031207FFB3B68DB88002B0ED03B68DB88B3F55A
S31508003130805F09D03B68DB88B3F5005F04D03B6845
S31508003140DB88B3F5405F01D1012300E00023184670
S31508003150FFF766FB3B681B89002B09D03B681B8978
S31508003160B3F5806F04D03B681B89B3F5C06F01D1F6
S31508003170012300E000231846FFF752FB3B685B89F2
S315080031801A464FF6F3731340002B05D13B685B894B
S31508003190002B01D0012300E000231846FFF740FB6F
S315080031A03B689B89002B0ED03B689B89B3F5807FD3
S315080031B009D03B689B89B3F5007F04D03B689B899F
S315080031C0B3F5407F01D1012300E000231846FFF73D
S315080031D027FB3B689B89002B15D07A683B4B9A42A4
S315080031E00BD07A683A4B9A4207D07A68394B9A429A
S315080031F003D07A683A4B9A4201D1012300E00023B2
S315080032001846FFF70DFB7B681B8A9BB27B627B6ABD
S3150800321023F440537B623B68DB887A6A13437B62FC
S315080032207B6A9AB27B681A827B689B899BB27B62AF
S315080032307B6A23F4B05323F00C037B623B689A88BD
S315080032403B681B8913439AB23B685B8913439BB25D
S315080032507A6A13437B627B6A9AB27B689A817B6837
S315080032609B8A9BB27B627B6A23F440737B623B68D2
S315080032709B897A6A13437B627B6A9AB27B689A82D5
S3150800328007F108031846FDF77BFD7A680F4B9A424B
S3150800329003D07A68124B9A4202D17B693B6201E0FD
S315080032A03B693B627B689B899BB29BB21BB2002B36
S315080032B01EDA3A6A13469B0013449A001A443B687E
S315080032C01B685B00B2FBF3F3FB611DE000100140D5
S315080032D00044004000480040004C004000500040B8
S315080032E00014014000780040007C0040E070720045
S315080032F03A6A13469B0013449A001A443B681B68B3
S315080033009B00B2FBF3F3FB61FA691B4BA3FB0213A9
S315080033105B091B017B627B6A1B09642202FB03F3C0
S31508003320FA69D31ABB617B689B899BB29BB21BB2B5
S31508003330002B0DDABB69DB0003F132020E4BA3FB4F
S3150800334002135B0903F007037A6A13437B620CE0F6
S31508003350BB691B0103F13202074BA3FB02135B098E
S3150800336003F00F037A6A13437B627B6A9AB27B681F
S315080033701A812837BD4680BD1F85EB510000000025
S3150800338080B582B000AF78600B46FB707A68244B34
S315080033909A421BD07A68234B9A4217D07A68224BF6
S315080033A09A4213D07A68214B9A420FD07A68204BFA
S315080033B09A420BD07A681F4B9A4207D07A681E4BFE
S315080033C09A4203D07A681D4B9A4201D1012300E044
S315080033D000231846FFF724FAFB78002B02D0FB7867
S315080033E0012B01D1012300E000231846FFF718FA44
S315080033F0FB78002B08D07B689B899BB243F400536B
S315080034009AB27B689A8107E07B689B899BB223F412
S3150800341000539AB27B689A810837BD4680BD00BFC3
S31508003420001001400044004000480040004C0040A5
S31508003430005000400014014000780040007C004025
S3150800344080B586B000AF786013460A467A807B70EE
S3150800345000233B610023FB600023BB6000237B61E4
S315080034607A68554B9A421BD07A68544B9A4217D0C1
S315080034707A68534B9A4213D07A68524B9A420FD0C5
S315080034807A68514B9A420BD07A68504B9A4207D0C9
S315080034907A684F4B9A4203D07A684E4B9A4201D1CA
S315080034A0012300E000231846FFF7BAF97B88282B8A
S315080034B020D07A8840F227739A421BD07A8840F245
S315080034C026639A4216D07A8840F225539A4211D03A
S315080034D07A8840F224439A420CD07A8840F646030A
S315080034E09A4207D07A8840F66A139A4202D07B88B5
S315080034F0602B01D1012300E000231846FFF790F95D
S315080035007B78002B02D07B78012B01D1012300E0C8
S3150800351000231846FFF784F97A8840F66A139A4218
S3150800352015D17A68244B9A420BD07A68234B9A4273
S3150800353007D07A68224B9A4203D07A68234B9A427C
S3150800354001D1012300E000231846FFF769F97B68DB
S315080035507B617B88DBB25B09DBB23B617B8803F06E
S315080035601F03FB60FB68012202FA03F3BB603B6999
S31508003570012B03D17B690C337B6109E03B69022B84
S3150800358003D17B6910337B6102E07B6914337B616D
S315080035907B78002B06D07B697A691168BA680A437A
S315080035A01A6006E07B697A691168BA68D2430A40EC
S315080035B01A601837BD4680BD00100140004400401F
S315080035C000480040004C00400050004000140140F4
S315080035D000780040007C0040000000000000000069
S315080035E080B584B000AF786039603A687B68D31AD2
S315080035F0FB60FB685B0ABB60BB68DB00FA68D21A33
S31508003600224B1A60214B1B681B099AB2204B1A8061
S315080036101F4B1B881BB2002B00DA1F335B119BB2B2
S315080036201BB29BB29B009AB21A4B1A801A4B7A6845
S315080036301A60BB689A007B6813441A46174B1A60CF
S31508003640BB68DA007B6813441A46154B1A60144B9C
S315080036501A680E4B1B68104600211A46FEF708F832
S315080036600D4B1A680B4B1B88104600211A46FDF7AE
S31508003670FFFF0A4B1A68074B1B88104600211A469B
S31508003680FDF7F6FF1037BD4680BD00BF6813002062
S315080036906C1300206E13002074130020781300208A
S315080036A07013002000000000000000000000000069
S315080036B080B483B000AF03463960FB80B7F90630A3
S315080036C0002B28DB174B1B88B7F906201BB29A423A
S315080036D021DAB7F90630002B00DA1F335B119BB2EB
S315080036E01BB29B003A6813441A68B7F906100E4BCA
S315080036F00B40002B03DA013B63F01F0301339BB237
S315080037001BB2012101FA03F31340002B0CBF00235F
S315080037100123DBB200E0002318460C37BD465DF8EE
S31508003720047B70476C1300201F0000800000000017
S3150800373080B584B000AF02460B46FA80BB80FA8893
S31508003740BB8813449BB2BB81134B1B88B7F90C206B
S315080037501BB29A421ADAFB88FB810FE00F4B1B68F3
S31508003760B7F90E2010461946FFF7A2FF0346002BAD
S3150800377001D000230BE0FB890133FB81B7F90E204A
S31508003780B7F90C309A42E9DB012300E0002318461A
S315080037901037BD4680BD00BF6C130020741300208F
S315080037A080B584B000AF0346FB800023BB810023AD
S315080037B0BB6034E0214B1A68B7F90C30002B00DAED
S315080037C01F335B119BB21BB29B0013441B68BB6083
S315080037D0BB68B3F1FF3F1ED00023FB8117E0BA890F
S315080037E0FB8913449BB29BB21AB2B7F9063010464E
S315080037F01946FFF79DFF0346002B05D0BA89FB89BA
S3150800380013449BB29BB213E0FB890133FB81B7F9E2
S315080038100E301F2BE3DDBB8920339BB2BB81084BDF
S315080038201B88B7F90C201BB29A42C3DB4FF6FF730D
S315080038301BB218461037BD4680BD00BF7413002062
S315080038406C130020000000000000000000000000CB
S3150800385080B584B000AF0346FB800023FB81B7F92F
S315080038600630002B24DB154B1B88B7F906201BB244
S315080038709A421DDA00BFB7F90620B7F90E301A4486
S315080038800E4B1B881BB29A4212DAFB891A46013282
S31508003890FA819AB2FB8813449BB29AB2084B1B680A
S315080038A012B210461946FFF703FF0346002BE2D073
S315080038B0FB891BB218461037BD4680BD6C13002025
S315080038C0781300200000000000000000000000003F
S315080038D080B485B000AF396013460246FA807B7122
S315080038E0B7F90630002B41DB234B1B88B7F90620B6
S315080038F01BB29A423ADAB7F90620204B1340002B3E
S3150800390003DA013B63F01F030133FB81B7F9063085
S31508003910002B00DA1F335B11BB817B79002B12D099
S31508003920B7F90C309B003A681344B7F90C2092009B
S3150800393039680A441168B7F90E20012000FA02F224
S315080039400A431A6012E0B7F90C309B003A68134430
S31508003950B7F90C20920039680A441168B7F90E20A5
S31508003960012000FA02F2D2430A401A601437BD4613
S315080039705DF8047B704700BF6C1300201F000080B1
S3150800398080B485B000AF78607B68002B12D07A6867
S315080039900D4B1B68D31A1B09FB81B7F90E30002B98
S315080039A008DB0A4B1B88B7F90E201BB29A4201DACC
S315080039B0FB8901E04FF6FF731BB218461437BD4664
S315080039C05DF8047B704700BF701300206C1300205D
S315080039D080B485B000AF0346FB800023FB60B7F9CF
S315080039E00630002B0DDB0A4B1B88B7F906201BB2E5
S315080039F09A4206DA074B1A68B7F906301B011344D0
S31508003A00FB60FB6818461437BD465DF8047B7047B3
S31508003A106C13002070130020000000000000000056
S31508003A2080B584B000AF02460B46FA80BB800023FF
S31508003A30BB60B7F90630002B4CDB294B1B88B7F95E
S31508003A4006201BB29A4245DA0023FB8131E0B7F91A
S31508003A500E20B7F90430013B9A420DD1FA88FB894A
S31508003A6013449BB29AB21F4B1B6812B210461946F2
S31508003A700122FFF72DFF0CE0FA88FB8913449BB25D
S31508003A809AB2184B1B6812B2104619460022FFF765
S31508003A901FFFFA88FB8913449BB29AB2124B1B6824
S31508003AA012B2104619460122FFF712FFFB890133AD
S31508003AB0FB81B7F90E20B7F904309A42C7DBB7F98C
S31508003AC006301846FFF784FFB860B7F90430184681
S31508003AD0FDF7F6FABB6818461037BD4680BD00BF2D
S31508003AE06C130020781300207413002000000000D7
S31508003AF080B584B000AF02460B46FA80BB80B7F9A2
S31508003B000630002B32DB1C4B1B88B7F906201BB28C
S31508003B109A422BDA0023FB811CE0FA88FB891344BE
S31508003B209BB29AB2154B1B6812B210461946002270
S31508003B30FFF7CEFEFA88FB8913449BB29AB2104B64
S31508003B401B6812B2104619460022FFF7C1FEFB8910
S31508003B500133FB81FA89B7F904309A42DDDBB7F9FC
S31508003B6004301846FDF7BCFA012300E00023184686
S31508003B701037BD4680BD00BF6C13002074130020AB
S31508003B80781300200000000000000000000000007C
S31508003B9080B584B000AF13460246FA800A46BA805A
S31508003BA07B8000237B73B7F90630002B28DB174B85
S31508003BB01B88B7F906201BB29A4221DA0023FB813B
S31508003BC016E0FA88BB8813449AB2FB8913449BB261
S31508003BD09AB20F4B1B6812B210461946FFF768FDDA
S31508003BE00346002B01D07B7B0BE0FB890133FB816D
S31508003BF0B7F90E20B7F902309A42E2DB01237B734C
S31508003C007B7B18461037BD4680BD00BF6C1300206D
S31508003C1074130020000000000000000000000000EF
S31508003C2080B584B000AF13460246FA800A46BA80C9
S31508003C307B8000237B73B7F90610B7F90420B7F920
S31508003C400230084611461A46FFF7A2FF0346002B24
S31508003C503ED0BA887B8813447B810023FB8130E001
S31508003C60B7F90E207B89013B9A420DD1FA88FB8968
S31508003C7013449BB29AB2194B1B6812B210461946E6
S31508003C800122FFF725FE0CE0FA88FB8913449BB254
S31508003C909AB2124B1B6812B2104619460022FFF759
S31508003CA017FEFA88FB8913449BB29AB20C4B1B6821
S31508003CB012B2104619460122FFF70AFEFB890133A4
S31508003CC0FB81B7F90E207B899A42C9DB01237B73F6
S31508003CD07B7B18461037BD4680BD00BF7813002091
S31508003CE0741300200000000000000000000000001F
S31508003CF080B586B000AF786000237B617B68002BB7
S31508003D002DD07B681B099AB27B6803F00F03002B42
S31508003D1001D0012300E0002313449BB27B82FEF707
S31508003D206FFEF860B7F912301846FFF739FD0346FB
S31508003D307B81B7F90A30002B09DBB7F90A20B7F9F6
S31508003D40123010461946FFF76BFE786104E0786872
S31508003D50FCF7B6FA00237B61F868FEF761FE7B691B
S31508003D6018461837BD4680BD000000000000000058
S31508003D7080B588B000AF786039607B68002B00F0AA
S31508003D808D803B68002B00F089803B681B099AB23E
S31508003D903B6803F00F03002B01D0012300E000234A
S31508003DA013449BB2FB83FEF72BFEB8617868FFF7D6
S31508003DB0E7FD0346FB82B7F91630002B64DBB7F93B
S31508003DC016301846FFF744FD0346BB82B7F91E2096
S31508003DD0B7F914309A4240DDFA8BBB8AD31A9BB2E4
S31508003DE09BB2B7F91610B7F914201BB2084611464C
S31508003DF01A46FFF715FF0346002B2DD1B7F91620F3
S31508003E00B7F9143010461946FFF772FEB7F91E3097
S31508003E101846FFF7C5FC03467B82B7F91230002B1C
S31508003E2013DBB7F91220B7F91E3010461946FFF70B
S31508003E30F7FDF860B7F914301B01F86879681A4677
S31508003E40FDF7CEFBFB687B6006E078683968FDF70E
S31508003E505FF900237B601DE01CE0B7F91E20B7F967
S31508003E6014309A4216DAB7F91620B7F91430104604
S31508003E701946FFF73DFEB7F91620B7F91E3010466A
S31508003E801946FFF7CDFD05E078683968FDF740F972
S31508003E9000237B60B869FEF7C3FD12E07B68002B40
S31508003EA008D03B68002B05D1786800F011F800238C
S31508003EB07B6006E07B68002B03D13868FFF718FFA4
S31508003EC078607B6818462037BD4680BD0000000034
S31508003ED080B584B000AF7860FEF792FDF860786828
S31508003EE0FFF74EFD03467B81B7F90A30002B0FD04A
S31508003EF0B7F90A301846FFF7ABFC03463B81B7F91A
S31508003F000A20B7F9083010461946FFF7F1FD02E016
S31508003F107868FDF7F5F8F868FEF782FD1037BD46B4
S31508003F2080BD00BF00000000000000000000000087
S31508003F3080B584B000AF0346FB800C20FDF700F97E
S31508003F40F860FB68002B18D0F86800210C22FDF7F2
S31508003F508FFBFB881846FDF7F3F80246FB681A60E4
S31508003F60FB681B68002B03D0FB68FA889A8004E07C
S31508003F70F868FDF705F90023FB60FB68184610375B
S31508003F80BD4680BD000000000000000000000000E3
S31508003F9080B584B000AF78600023FB737B68002B84
S31508003FA013D0FEF72DFDB8607B681B68002B04D084
S31508003FB07B681B681846FDF7E3F87868FDF7E0F8B4
S31508003FC00123FB73B868FEF72BFDFB7B18461037F9
S31508003FD0BD4680BD00000000000000000000000093
S31508003FE080B584B000AF7860FEF70AFDF8607B689C
S31508003FF0DA887B681B899A4214BF00230123DBB247
S31508004000FB72F868FEF70CFDFB7A18461037BD46BA
S3150800401080BD00BF00000000000000000000000096
S3150800402080B584B000AF7860FEF7EAFCB8607B68BC
S31508004030DB881A467B681B89D31AFB60FB68002B52
S3150800404009DA7B689B881A467B681B89D21A7B68C3
S31508004050DB881344FB60B868FEF7E2FCFB68184689
S315080040601037BD4680BD00BF0000000000000000FC
S3150800407080B584B000AF78600B46FB70FEF7C0FCD5
S31508004080F8607B68DB881A467B681B89013B9A4285
S315080040900DD07B68DB881A467B689B88013B9A4271
S315080040A003D17B681B89002B01D0012300E0002384
S315080040B0FB72FB7A002B13D07B681A687B68DB8857
S315080040C0591C88B27968C8801344FA781A707B68D4
S315080040D0DA887B689B889A4202D37B680022DA805A
S315080040E0F868FEF79DFCFB7A18461037BD4680BD7A
S315080040F080B584B000AF7860FEF782FCB8604FF0F8
S31508004100FF33FB607B68DA887B681B899A4213D089
S315080041107B681A687B681B89591C88B2796808818C
S3150800412013441B78FB607B681A897B689B889A42D4
S3150800413002D37B6800221A81B868FEF771FCFB6817
S3150800414018461037BD4680BD00000000000000007C
S3150800415080B584B000AF7860174B1B687A689A42BE
S3150800416023DD164B1A687B689B0010461946FCF738
S31508004170F7FF0246114B1A60104B1B68002B14D030
S315080041800D4B1B68FB6009E00C4B1A68FB689B002B
S31508004190134400221A60FB680133FB60FA687B68E7
S315080041A09A42F1DB044B7A681A60034B1B6818467F
S315080041B01037BD4680BD00BF841300208013002041
S315080041C080B588B000AF0346B9607A60FB730023F8
S315080041D0FB61FEF715FC7861154B1B68DBB297F996
S315080041E00F205BB29A421ADA124B1A68FB7B9B00C5
S315080041F013441B68BB610FE0BB691A68BB689A4227
S3150800420007D1BB695A687B689A4202D10123FB61D0
S3150800421005E0BB699B68BB61BB69002BECD178697B
S31508004220FEF7FEFBFB6918462037BD4680BD00BF7A
S315080042308413002080130020000000000000000006
S3150800424080B588B000AF0346B9607A60FB7397F90A
S315080042500F301846B9687A68FFF7B2FF0346002B95
S3150800426044D1FEF7CDFBB861FB7B01331846FFF757
S315080042706FFF0246FB7B9A4233DD0C20FCF760FF9A
S3150800428078617B69002B2CD0786900210C22FDF718
S31508004290EFF97B69BA681A607B697A685A60164BC7
S315080042A01A68FB7B9B0013441B68002B07D1124B33
S315080042B01A68FB7B9B0013447A691A6011E00E4B5F
S315080042C01A68FB7B9B0013441B68FB6102E0FB69D1
S315080042D09B68FB61FB699B68002BF8D1FB697A69CF
S315080042E09A60B869FEF79CFBFB7B01E04FF0FF3351
S315080042F018462037BD4680BD801300200000000008
S3150800430080B584B000AF0346FB710D4B1A68FB7984
S315080043109B0013441B68FB600BE0FB681B68FA688C
S31508004320526897F90710084611469847FB689B6834
S31508004330FB60FB68002BF0D11037BD4680BD00BF7F
S3150800434080130020000000000000000000000000AC
S31508004350656E71756575655F746872656164000080
S31508004360646571756575655F74687265616400007A
S315080043706C6F636B5F7468726561640000000000AF
S315080043807277000000000000000000000000000036
S315080043902D2D2D2D2D2D2D2D2D2D2D2D0A000000E9
S315080043A009207468726561643A2030782530387857
S315080043B00A0000000920706172656E743A20307830
S315080043C0253038780A000000092020206E657874A8
S315080043D03A203078253038780A0000000909207319
S315080043E0703A203078253038780A00002020737417
S315080043F061636B5F6C6F773A203078253038780ABE
S31508004400000000002020737461636B5F746F703A5C
S31508004410203078253038780A00000000207374614F
S31508004420636B5F626173653A203078253038780AA5
S315080044300000000009202073746174653A20307802
S31508004440253032780A000000092020207072696F32
S315080044503A203078253032780A000000286E756CCC
S315080044606C290000092020206E616D653A202225FE
S3150800447073220A005F63757272656E745F74687280
S315080044806561645F203D2022257322202830782527
S31508004490303858290A00000000000000636172697C
S315080044A0626F7500000000000000000000000000B8
S315080044B03C0C002091190008111A0008711A00080E
S315080044C0A11A0008D11A0008580C002091190008F2
S315080044D0111A0008711A0008A11A0008D11A000852
S315080044E0740C002091190008111A0008711A0008A6
S315080044F0A11A0008D11A0008900C0020911900088A
S31508004500111A0008711A0008A11A0008D11A000821
S31508004510AC0C002091190008111A0008711A00083D
S31508004520A11A0008D11A0008C80C00209119000821
S31508004530111A0008711A0008A11A0008D11A0008F1
S31508004540000000000000000000000000000000005D
S30D08004550000000000000000055
S31508004558007A030A000000000000000001020304B4
S31508004568060708090000024001000000000C024086
S3150800457800200000000C0240008000000000000037
S315080045880102030401020304060708090010014092
S315080045982500000080250000080100000000000032
S315080045A8000000000000000000440040260000004B
S315080045B88025000008010000000000000000000037
S315080045C80000000000480040270000008025000081
S315080045D808010000000000000000000000000000BC
S315080045E8004C004034000000802500000801000047
S315080045F80000000000000000000000000050004015
S3150800460835000000802500000801000000000000B1
S3150800461800000000000000000014014047000000E8
S3150800462880250000080100000000000000000000C6
S315080046380000000000000000000000000000000064
S315080046480000000000000000000000000000000054
S705080001B140
