S02B00002F686F6D652F6D696B652F446F63756D656E74732F63617269626F752D72746F732F6272616E6368A0
S3150800000000020020B1010008211C0008A1410008D7
S31508000010A1410008A1410008A1410008A14100082A
S31508000020A1410008A1410008A1410008111C0008CF
S31508000030A1410008A1410008D10C0008210D0008C3
S31508000040E11B0008E11B0008E11B0008E11B000892
S31508000050E11B0008E11B0008E11B0008E11B000882
S31508000060E11B0008E11B0008E11B0008E11B000872
S31508000070E11B0008E11B0008E11B0008E11B000862
S31508000080E11B0008E11B0008E11B0008E11B000852
S31508000090E11B0008E11B0008E11B0008E11B000842
S315080000A0E11B0008E11B0008E11B0008E11B000832
S315080000B0E11B0008E11B0008E11B0008E11B000822
S315080000C0E11B0008E11B0008E11B0008E11B000812
S315080000D0E11B0008E11B0008E11B0008E11B000802
S315080000E0E11B0008E11B0008E11B0008E11B0008F2
S315080000F0E11B0008E11B0008E11B0008E11B0008E2
S31508000100E11B0008E11B0008E11B0008E11B0008D1
S31508000110E11B0008E11B0008E11B0008E11B0008C1
S31508000120E11B0008E11B0008E11B0008E11B0008B1
S31508000130E11B0008E11B0008E11B0008E11B0008A1
S31508000140E11B0008E11B0008E11B0008E11B000891
S31508000150E11B0008E11B0008E11B0008E11B000881
S31508000160E11B0008E11B0008E11B0008E11B000871
S31508000170E11B0008E11B0008E11B0008E11B000861
S31508000180E11B0008E11B0008E11B0008E11B000851
S31508000190E11B0008E11B0008E11B0008E11B000841
S315080001A0E11B0008E11B0008E11B0008E11B000831
S315080001B072B6304880F30988022080F31488BFF3AA
S315080001C06F8F2D482B49FA2200F04CF82B482C4902
S315080001D0FA2200F047F82B482B492C4A00F037F84A
S315080001E02B482C49002200F03DF82B4A90472B4813
S315080001F02B492C4A90472C482C49884200F0078006
S315080002000268043003B4904703BCFFF7F6BF284AD8
S315080002109047002000218646EC46264A9047264805
S315080002202649884200F007800268043003B49047E4
S3150800023003BCFFF7F6BFFFF7BBBFFFF7FEBF03F030
S31508000240AFBF03F0ADBF03F0ABBF03F0A9BF884251
S3150800025007D0521A05D0037801300B700131013AE4
S31508000260F9D17047884203D002700130FFF7FABF10
S315080002707047000000040020000200200000002053
S31508000280000200209044000800040020CC0400204E
S31508000290D004002034060020C102000834060020DD
S315080002A000000120C1100008B0010008B0010008D4
S315080002B0D104000841060008B0010008B001000892
S315080002C080B588B000AF4FF4803002F009FA00BF5D
S315080002D002F046FA0346012BFAD1012002F068FA29
S315080002E03B1D184602F094FA02F072F802F0B0F8D4
S315080002F03B1D184602F08CFA0120012102F0A8FBEA
S315080003000120012102F06CFB0220012102F068FBAA
S315080003104020012102F064FB0420012102F098FB31
S315080003200820012102F094FB1020012102F090FB25
S315080003302020012102F08CFB4020012102F088FBDD
S315080003408020012102F084FB4FF48070012102F025
S315080003507FFB4FF48020012102F0B2FB4FF40070BE
S31508000360012102F075FB4FF40060012102F070FBD9
S315080003700220012102F0A4FB4FF40060012102F0E3
S315080003809FFB4FF00060012102F09AFB4FF080506E
S31508000390012102F095FB4FF08040012102F090FB0D
S315080003A0184B194A1A60174B4FF044325A60174BCC
S315080003B04FF044321A60154B4FF044325A60144BD2
S315080003C0144A1A60124B144A5A60144B4FF04432BE
S315080003D01A60124B124A5A60124B4FF044321A6096
S315080003E0104B4FF044325A600F4B1B680E4A9288E6
S315080003F01A610E4B1B680D4A92881A612037BD4652
S3150800040080BD00BF000801404844444B000C014031
S3150800041000100140444444224444844400140140EA
S315080004204A424444001801401004002018040020E1
S3150800043080B58AB000AF1E23FB84F923BB84A623AC
S315080004407B8453233B840023FB831B4B1A681B4B7B
S31508000450A3FB02139B0D9BB2013BFB833C233B830F
S31508000460FB8BBB8200237B830023FB8207F11403EB
S315080004701348194602F0C4FB3B1D184602F010FE4D
S315080004806023BB800123FB80FB8C7B810023BB811F
S315080004903B1D0B48194602F0B3FC0948082102F037
S315080004A057FF0748012102F0BBFE0548012102F06B
S315080004B01FFE2837BD4680BDA4040020819F5E1616
S315080004C000040040000000000000000000000000DA
S315080004D080B500AF0E4B1B680D4A92881A610D4B0A
S315080004E01B680C4A928812041A6102200A4900F015
S315080004F027FE0246094B1A60084B1A68084B1A6011
S31508000500074B1A68074B1A60FFF792FF80BD00BFBA
S315080005100004002008040020C0410008140600203A
S315080005200C06002010060020000000000000000055
S3150800053080B400AFBD465DF8047B7047000000003C
S3150800054080B483B000AF7860FEE700BF000000000B
S3150800055080B582B000AF7860314BD3E900231046EE
S3150800056019464FF032024FF0000300F071FC0346C3
S31508000570002B53D02B4B1B689A682A4B9B88134039
S31508000580002B06D0274B1B68264A928812041A614C
S3150800059004E0244B1B68234A92881A61224B1B6885
S315080005A09A68214B9B881340002B06D01E4B1B686C
S315080005B01D4A928812041A6104E01B4B1B681A4AEA
S315080005C092881A6100F0E4FB02460B461449C1E919
S315080005D00023164B1B68002B0FD1154B144A928D1E
S315080005E092B2023A92B29A85114B9B8D9BB21E2B00
S315080005F014D80E4B01221A60AEE70D4B0C4A928DA9
S3150800060092B2023292B29A85094B9B8D9BB2B3F590
S31508000610FA7F03D3054B00221A609DE79CE700BFCB
S31508000620D00500200004002008040020D80500207A
S315080006300004004000000000000000000000000068
S3150800064080B586B004AF78603960002000F048F8BD
S31508000650094B00934FF480730193012302930748D3
S3150800066007490022002300F0ABF900F031F8002317
S3150800067018460837BD4680BDD0040020D041000882
S3150800068051050008000000000000000000000000FE
S3150800069080B500AF01F0CCFA0346184680BD00BF0E
S315080006A080B582B000AF7860786801F0E1FA083763
S315080006B0BD4680BD000000000000000000000000EC
S315080006C080B500AF01F0F4FA80BD00BF000000005D
S315080006D080B500AF00F0A4FA80BD00BF000000009E
S315080006E080B582B000AF0346FB7101F071FB0120B3
S315080006F001F056FB97F907309BB21BB2184600F07B
S31508000700F7F901F05DFB0837BD4680BD0000000023
S31508000710EFF309807047184600000000000000004B
S3150800072080B582B000AF0346FB80084BDB68002B20
S3150800073007D0064BDB68F988044A12690846114651
S315080007409847FB8818460837BD4680BDE005002057
S3150800075080B584B000AF7860482000F0C1FCF8602E
S31508000760FB68002B08D0F8680021482200F040FDFD
S31508000770FB687A685A6002E00820FFF7D1FFFB6839
S3150800078018461037BD4680BD000000000000000076
S3150800079080B582B000AF7860786800F0C1FC083791
S315080007A0BD4680BD000000000000000000000000FB
S315080007B080B485B000AF78600F4B1B68FB60FB68A0
S315080007C0002B0BD002E0FB681B68FB60FB681B680C
S315080007D0002BF8D1FB687A681A6005E0064B7A6840
S315080007E01A607B6800221A607B6818461437BD4673
S315080007F05DF8047B704700BFE0050020000000009C
S3150800080080B485B000AF7860134B1A687B689A424B
S3150800081004D17B681A68104B1A6016E00E4B1B68E9
S31508000820FB600CE0FB681A687B689A4204D17B6817
S315080008301A68FB681A6005E0FB681B68FB60FB68C2
S31508000840002BEFD17B6800221A607B6818461437A4
S31508000850BD465DF8047B7047E005002000000000F7
S3150800086080B582B000AF00237B6001F0E1F9386003
S315080008700B4B5B68002B0AD0094B5B681B8E1BB2BF
S315080008807B60074B5B681A8E013292B21A8638680B
S3150800089001F0EEF97B6818460837BD4680BD00BFF3
S315080008A0E005002000000000000000000000000035
S315080008B080B582B000AF00237B6001F0B9F93860DB
S315080008C00E4B5B68002B10D00C4B5B681B8E1BB263
S315080008D0002B0ADD094B5B681B8E1BB27B60074B3E
S315080008E05B681A8E013A92B21A86386801F0C0F926
S315080008F07B6818460837BD4680BD00BFE005002066
S3150800090080B500AF0E4B5B68002B18D00C4B5B68AC
S315080009101B8E002B13D101F063FA0346002B0ED071
S31508000920074B5B68064A5268928B42F0020292B203
S315080009309A83034B4FF6FF721A81FFF7C1FE80BDFB
S31508000940E005002000000000000000000000000094
S3150800095080B584B000AF786001F03AFAF8607B6839
S315080009609B8B43F004039AB27B689A837B685B6B24
S31508000970002B05D07B685B6B7A68526A10469847ED
S315080009807868FFF73DFF7868FFF702FF786800F0A0
S31508000990CFFAF86801F02CFA1037BD4680BD00BFC3
S315080009A080B500AF054B5B68044A5268928B42F0EB
S315080009B0040292B29A83FFF7A3FFFCE7E005002042
S315080009C080B588B000AFF860B9607A603B600023F4
S315080009D0FB6101F0FDF9B861BB6A002B1ED0FB6A0A
S315080009E0B86AFA211A4600F003FCFB6A403BBA6A69
S315080009F013447B6178690021402200F0F9FB3A68CC
S31508000A007B691A62334A7B695A63BB6823F0010221
S31508000A107B699A637B694FF00452DA632E4B5B68F5
S31508000A20002B02D12C4B1B6801E02B4B5B68184648
S31508000A30FFF78EFEF861FB69002B42D0FB690022A6
S31508000A409A83BB6A002B1AD0FB6ABA6A13443B61C5
S31508000A503B69403B1A46FB699A60FB6ABA6A1A44C4
S31508000A60FB695A61FB69BA6A1A61FB691B6903F17A
S31508000A704002FB691A61FB69BA6A9A6112E0FB696E
S31508000A80164A9A60FB699A68FB695A61FB69144AB7
S31508000A901A61FB691B6903F14002FB691A61FB696C
S31508000AA00F4A9A61FB69FA681A62FB693A685A62E0
S31508000AB0FB693A8EDA83FB697A685A63F869FFF745
S31508000AC077FEB86901F094F9FB6918462037BD46E8
S31508000AD080BD00BFA1090008E00500200004002031
S31508000AE000020020000000000000000000000000D6
S31508000AF080B586B004AF0346FB800D480021282246
S31508000B0000F076FB0023009300230193B7F9063023
S31508000B1002930848002100220023FFF751FF0246EE
S31508000B20034B5A60024B5B6818460837BD4680BDC2
S31508000B30E0050020E4410008000000000000000075
S31508000B4080B582B000AF78607B689A687B681B695D
S31508000B509A4205D97B689A687B685B699A421CD970
S31508000B607B689A687B681B699A4203D80120FFF75D
S31508000B70D7FD12E07B689A687B689B699A4203D81E
S31508000B800420FFF7CDFD08E07B689A687B685B69FF
S31508000B909A4202D90220FFF7C3FD7B689A687B68F0
S31508000BA0DB689A4203D37B68DB68002B03D17B683A
S31508000BB09A687B68DA600837BD4680BD0000000089
S31508000BC080B582B000AF154B1B687B60FFF7B0FCA1
S31508000BD0124B1B68184600F003FA104B1B687B6023
S31508000BE015E07B681B683B607868FFF7A9FF7B68A0
S31508000BF09B8B03F00403002B07D0084B5A687B68CD
S31508000C009A4202D07868FFF7A3FE3B687B607B6850
S31508000C10002BE6D10837BD4680BD00BFE0050020A1
S31508000C2080B500AFFFF7CCFFFFF76AFEFAE700BF13
S31508000C3080B400AF244B5B68244A1268DA63224BFF
S31508000C405B681B8E002B3AD11F4B1B899BB21A4639
S31508000C50013A91B21C4A11811BB2002B2FDA08E027
S31508000C60194B5B68184A5268928B22F0020292B2BC
S31508000C709A83154B5B681B68002B03D0124B5B6885
S31508000C801B6801E0104B1B680F4A53600E4B5B68EC
S31508000C909B8B03F00603002BE2D10B4B5B68DA8BC8
S31508000CA0094B1A81084B1B891BB2002B02DA064B2B
S31508000CB000221A81044B5B68DA6B044B1A60BD4646
S31508000CC05DF8047B704700BFE00500200806002099
S31508000CD000B5EFF3098020E9F00F80F3098800F0EA
S31508000CE0F7FF0D4B5B68002B0CD00B4B5C68FFF7CE
S31508000CF00FFD0346A360FFF79BFF074B5B689B68E6
S31508000D0083F3098801F00CF8EFF30980B0E8F00FD7
S31508000D1080F3098800BD00BFE00500200000000040
S31508000D2000B5EFF3098020E9F00F80F3098800F099
S31508000D30CFFF164B5B68002B1ED0144B5C68FFF781
S31508000D40E7FC0346A360114BD3E90623013243F1BE
S31508000D5000030E49C1E906230C4B5968D1E90A2359
S31508000D60013243F10003C1E90A23FFF761FF074B8C
S31508000D705B689B6883F3098800F0D2FFEFF309806C
S31508000D80B0E8F00F80F3098800BD00BFE005002039
S31508000D9080B400AF044BD3E9062310461946BD4676
S31508000DA05DF8047B704700BFE005002000000000E6
S31508000DB080B582B000AF78607B681B7E03F00103C4
S31508000DC0002B02D0786800F0ABF90837BD4680BD25
S31508000DD080B584B000AF78603960FFF759FCF860D9
S31508000DE07B689A6B3B689A420CD13B685A687B6869
S31508000DF09A637B689B6B002B1CD07B689B6B0022DD
S31508000E001A6017E03B681B68002B04D03B681B6818
S31508000E103A6852685A603B685B68002B04D03B68A6
S31508000E205B683A6812681A603B6800225A603B6839
S31508000E3000221A60F868FFF733FC3B68184610373B
S31508000E40BD4680BD00000000000000000000000054
S31508000E5080B487B000AFC7E90201C7E900230023C1
S31508000E60FB75D7E9002352EA030119D0D7E9002315
S31508000E70B3F1FF3F08BFB2F1FF3F11D00C4BD3E9E6
S31508000E800601D7E90223801A61EB0301D7E900239B
S31508000E90904271EB030CB4BF00230123DBB2FB7550
S31508000EA0FB7D18461C37BD465DF8047B704700BFBE
S31508000EB0E00500200000000000000000000000001F
S31508000EC080B584B000AF78603960FFF7E1FBF86061
S31508000ED07B683A681A617B683A685A61F868FFF76E
S31508000EE0DFFB7B6818461037BD4680BD0000000052
S31508000EF080B584B000AF78603960FFF7C9FBF86049
S31508000F0038680021FFF7DCFF78683968FFF760FF6B
S31508000F103868FFF74DFFF868FFF7C2FB1037BD4684
S31508000F2080BD00BF000000000000000000000000B7
S31508000F3080B582B000AF786005E07B689B6B786807
S31508000F401946FFF7D5FF7B689B6B002BF5D1083751
S31508000F50BD4680BD00000000000000000000000043
S31508000F6080B586B000AFF860B9607A6000237B610F
S31508000F70BB681B69002B28D0BB681A697B689A4234
S31508000F8004D3BB681A697B68D31A00E00023BA68E1
S31508000F901361BB681B69002B17D1BB689B68002BC4
S31508000FA006D0BB689B68BA68D268F868B96898477B
S31508000FB0BB681B7E03F00203002B03D1BB685A698A
S31508000FC0BB681A617B6901337B617B6918461837F0
S31508000FD0BD4680BD000000000000000000000000C3
S31508000FE080B586B000AF786000F022FEF8601A4B34
S31508000FF0D3E906231146184BD3E908231346CB1A1F
S31508001000BB60BB68002B1FD0134BD3E906231249DC
S31508001010C1E9082315E07B689B6B3B610BE07868A8
S315080010203969BA68FFF79CFF03467A6913447B61FE
S315080010303B695B683B613B69002BF0D17B681B68A9
S315080010407B607B68002BE6D1F86800F011FE7B69AF
S3150800105018461837BD4680BDE00500200000000090
S3150800106080B483B000AF0346FB800C37BD465DF8FD
S31508001070047B70470000000000000000000000002C
S3150800108080B483B000AF0346FB800C37BD465DF8DD
S31508001090047B70470000000000000000000000000C
S315080010A080B483B000AF7860FEE700BF00000000A0
S315080010B080B483B000AF78603960FEE700000000B6
S315080010C080B582B000AF786039607868396800F01A
S315080010D0AFF80837BD4680BD0000000000000000DC
S315080010E080B582B000AF7860786800F0F9FB0346F7
S315080010F018460837BD4680BD000000000000000005
S3150800110080B582B000AF786039607868396800F0D9
S315080011102FFC034618460837BD4680BD0000000070
S3150800112080B582B000AF7860786800F0E9FC0837CF
S31508001130BD4680BD00000000000000000000000061
S3150800114080B584B000AF786039600023FB607868AA
S31508001150002102F005FCB860BB68002B07DBBA6803
S3150800116013465B001344DB00034A1344FB60FB6829
S3150800117018461037BD4680BD304400080000000000
S31508001180F0B484B000AFF860B9607A60FD68BC68F6
S31508001190002D21D0A54212D97B682344AB420ED933
S315080011A07B681C447B68EE1803E0013E013C23780B
S315080011B033707B685A1E7A60002BF6D10CE02E46F7
S315080011C005E033465E1C2246541C12781A707B686A
S315080011D05A1E7A60002BF4D12B4618461037BD46A6
S315080011E0F0BC70470000000000000000000000008E
S315080011F0B0B485B000AFF860B9607A60FD68002DBC
S3150800120009D0002404E02B19BA68D2B21A70013446
S315080012107B689C42F7D3FB6818461437BD46B0BCBA
S31508001220704700BF0000000000000000000000003A
S3150800123080B586B000AF786039602A4B1B681846BF
S3150800124000211422FFF7D4FF3A687B68D31A7B6122
S315080012507B695B0A3B613B69DB007A69D31AFB60F1
S31508001260204B1B68FA68120992B21A821D4B1A683B
S315080012701C4B1B681B8A1BB2002B00DA1F335B1141
S315080012809BB21BB29BB29B009BB21381154B1B688A
S315080012907A681A60134B1B683A6991007A680A449F
S315080012A05A60104B1B683A69D1007A680A44DA60BA
S315080012B00C4B1B681A680B4B1B681B8910460021D0
S315080012C01A46FFF795FF074B1B685A68054B1B68BC
S315080012D01B89104600211A46FFF78AFF1837BD46B4
S315080012E080BD00BF200400200000000000000000B0
S315080012F080B485B000AFF8600B467A607B81B7F999
S315080013000A30002B28DBFB681B8AB7F90A201BB2B8
S315080013109A4221DAB7F90A30002B00DA1F335B113B
S315080013209BB21BB29B007A6813441A68B7F90A1075
S315080013300D4B0B40002B03DA013B63F01F0301330F
S315080013409BB21BB2012101FA03F31340002B0CBF19
S3150800135000230123DBB200E0002318461437BD46FC
S315080013605DF8047B704700BF1F0000800000000086
S3150800137080B487B000AFF8607A600A467A817B72DB
S31508001380B7F90A30002B41DBFB681B8AB7F90A203C
S315080013901BB29A423ADAB7F90A201F4B1340002BC0
S315080013A003DA013B63F01F030133FB82B7F90A3006
S315080013B0002B00DA1F335B11BB827B7A002B12D01D
S315080013C0B7F914309B007A681344B7F914209200D1
S315080013D079680A441168B7F91620012000FA02F262
S315080013E00A431A6012E0B7F914309B007A6813446E
S315080013F0B7F91420920079680A441168B7F91620DB
S31508001400012000FA02F2D2430A401A601C37BD4690
S315080014105DF8047B704700BF1F00008000000000D5
S3150800142080B584B000AF786013460A467A803B8060
S315080014307A883B8813449BB2BB817B681B8AB7F9C1
S315080014400C201BB29A421BDA7B88FB8110E07B6872
S315080014501B68B7F90E20786811461A46FFF748FF49
S315080014600346002B01D000230BE0FB890133FB81E7
S31508001470B7F90E20B7F90C309A42E8DB012300E0F1
S31508001480002318461037BD4680BD00BF0000000087
S3150800149080B584B000AF78600B467B800023BB81A3
S315080014A00023BB6035E07B681A68B7F90C30002B5F
S315080014B000DA1F335B119BB21BB29B0013441B68F7
S315080014C0BB60BB68B3F1FF3F1FD00023FB8118E068
S315080014D0BA89FB8913449BB29BB21AB2B7F9023098
S315080014E0786811461A46FFF79BFF0346002B05D07E
S315080014F0BA89FB8913449BB29BB213E0FB8901337B
S31508001500FB81B7F90E301F2BE2DDBB8920339BB276
S31508001510BB817B681B8AB7F90C201BB29A42C2DBD7
S315080015204FF6FF731BB218461037BD4680BD00BF85
S3150800153080B584B000AF78600B467B800023FB81C2
S31508001540B7F90230002B25DB7B681B8AB7F9022026
S315080015501BB29A421EDA00BFB7F90220B7F90E305D
S315080015601A447B681B8A1BB29A4213DAFB891A460D
S315080015700132FA819AB27B8813449BB29AB27B688D
S315080015805B6812B2786811461A46FFF7B1FE034641
S31508001590002BE1D0FB891BB218461037BD4680BD2B
S315080015A080B485B000AF786039603B68002B12D0F4
S315080015B03A687B68DB68D31A1B09FB81B7F90E30DA
S315080015C0002B08DB7B681B8AB7F90E201BB29A42F0
S315080015D001DAFB8901E04FF6FF731BB21846143790
S315080015E0BD465DF8047B704700000000000000005F
S315080015F080B485B000AF78600B467B800023FB6023
S31508001600B7F90230002B0DDB7B681B8AB7F902207D
S315080016101BB29A4206DA7B68DA68B7F902301B0110
S315080016201344FB60FB6818461437BD465DF8047B17
S31508001630704700BF00000000000000000000000026
S3150800164080B584B000AF786013460A467A803B803E
S315080016500023BB60B7F90230002B50DB7B681B8A7E
S31508001660B7F902201BB29A4249DA0023FB8134E01B
S31508001670B7F90E20B7F90030013B9A420ED17A88A5
S31508001680FB8913449BB29AB27B685B6812B278688E
S3150800169011461A460123FFF76BFE0DE07A88FB898F
S315080016A013449BB29AB27B685B6812B2786811469B
S315080016B01A460023FFF75CFE7A88FB8913449BB21F
S315080016C09AB27B681B6812B2786811461A460123DB
S315080016D0FFF74EFEFB890133FB81B7F90E20B7F9F8
S315080016E000309A42C4DBB7F9023078681946FFF72A
S315080016F07FFFB860B7F900301846FFF7B1FCBB6842
S3150800170018461037BD4680BD0000000000000000E6
S3150800171080B584B000AF786013460A467A803B806D
S31508001720B7F90230002B34DB7B681B8AB7F9022035
S315080017301BB29A422DDA0023FB811EE07A88FB89C8
S3150800174013449BB29AB27B681B6812B2786811463A
S315080017501A460023FFF70CFE7A88FB8913449BB2CE
S315080017609AB27B685B6812B2786811461A460023FB
S31508001770FFF7FEFDFB890133FB81FA89B7F90030D3
S315080017809A42DBDBB7F900301846FFF779FC0123EC
S3150800179000E0002318461037BD4680BD0000000053
S315080017A080B586B000AFF86079813A81FB80002366
S315080017B07B75B7F90A30002B29DBFB681B8AB7F95A
S315080017C00A201BB29A4222DA0023FB8217E07A89A2
S315080017D03B8913449AB2FB8A13449BB29AB2FB68BC
S315080017E01B6812B2F86811461A46FFF781FD0346D0
S315080017F0002B01D07B7D0BE0FB8A0133FB82B7F916
S315080018001620B7F906309A42E1DB01237B757B7D0A
S3150800181018461837BD4680BD0000000000000000CD
S3150800182080B586B000AFF86079813A81FB800023E5
S315080018307B75B7F90A10B7F90820B7F90630F868C2
S31508001840FFF7AEFF0346002B41D03A89FB881344C5
S315080018507B820023FB8233E0B7F916207B8A013BA3
S315080018609A420ED17A89FB8A13449BB29AB2FB68D4
S315080018705B6812B2F86811461A460123FFF778FD2D
S315080018800DE07A89FB8A13449BB29AB2FB685B68BF
S3150800189012B2F86811461A460023FFF769FD7A89DD
S315080018A0FB8A13449BB29AB2FB681B6812B2F868AB
S315080018B011461A460123FFF75BFDFB8A0133FB82BB
S315080018C0B7F916207B8A9A42C6DB01237B757B7D96
S315080018D018461837BD4680BD00000000000000000D
S315080018E080B586B000AF786000237B617B68002BEB
S315080018F033D07B681B099AB27B6803F00F03002B71
S3150800190001D0012300E0002313449BB27B8200F040
S315080019105FFAF860134B1A68B7F912301046194681
S31508001920FFF7B6FD03467B81B7F90A30002B0CDBBF
S315080019300C4B1968B7F90A20B7F912300846114650
S315080019401A46FFF77DFE786104E07868FEF7F8FD31
S3150800195000237B61F86800F04BFA7B691846183754
S31508001960BD4680BD200400200000000000000000E5
S3150800197080B588B000AF786039607B68002B00F0CE
S31508001980A1803B68002B00F09D803B681B099AB23A
S315080019903B6803F00F03002B01D0012300E000236E
S315080019A013449BB2FB8300F013FAB861514B1B68D2
S315080019B018467968FFF7F4FD0346FB82B7F9163037
S315080019C0002B75DB4B4B1A68B7F9163010461946CB
S315080019D0FFF7AEFD0346BB82B7F91E20B7F91430F0
S315080019E09A4248DD434B1868FA8BBB8AD31A9BB2D6
S315080019F09BB2B7F91610B7F914201BB2FFF710FF00
S31508001A000346002B36D13B4B1968B7F91620B7F9B0
S31508001A101430084611461A46FFF77AFE354B1A68FF
S31508001A20B7F91E3010461946FFF732FD03467B828A
S31508001A30B7F91230002B16DB2E4B1968B7F91220AE
S31508001A40B7F91E30084611461A46FFF7F9FDF86041
S31508001A50B7F914301B01F86879681A46FFF790FB46
S31508001A60FB687B6006E078683968FFF721FB00238E
S31508001A707B6023E022E0B7F91E20B7F914309A42BA
S31508001A801CDA1C4B1968B7F91620B7F91430084642
S31508001A9011461A46FFF73CFE164B1968B7F9162089
S31508001AA0B7F91E30084611461A46FFF7C9FD05E084
S31508001AB078683968FFF7FCFA00237B60B86900F09C
S31508001AC097F912E07B68002B08D03B68002B05D1FC
S31508001AD0786800F015F800237B6006E07B68002B29
S31508001AE003D13868FFF7FCFE78607B681846203714
S31508001AF0BD4680BD20040020000000000000000054
S31508001B0080B584B000AF786000F062F9F860154BD4
S31508001B101B6818467968FFF743FD03467B81B7F9CA
S31508001B200A30002B15D00F4B1A68B7F90A30104641
S31508001B301946FFF7FDFC03463B810A4B1968B7F9BE
S31508001B400A20B7F90830084611461A46FFF7E0FD9D
S31508001B5002E07868FFF7A4FAF86800F049F9103748
S31508001B60BD4680BD200400200000000000000000E3
S31508001B7080B483B000AF03463960FB7197F907302C
S31508001B80002B0BDA0D49FB7903F00F03043B3A6887
S31508001B90D2B21201D2B20B441A7609E0084997F973
S31508001BA007303A68D2B21201D2B20B4483F8002346
S31508001BB00C37BD465DF8047B704700BF00ED00E0BA
S31508001BC000E100E000000000000000000000000046
S31508001BD080B483B000AF78603960FEE7000000008B
S31508001BE000B5F0B42DE9000F064B5B68DBB2103B7D
S31508001BF0DBB2DBB25BB2184602F05AF9BDE8000F59
S31508001C00F0BC00BD00ED00E0000000000000000090
S31508001C1080B400AFBD465DF8047B70470000000045
S31508001C2080B400AFBD465DF8047B70470000000035
S31508001C3080B483B000AF0B4B1B6803F00203002B84
S31508001C400CBF00230123DBB27B60064B054A1268F2
S31508001C5022F002021A607B6818460C37BD465DF80A
S31508001C60047B704710E000E0000000000000000060
S31508001C7080B483B000AF78607B68002B06D0094B30
S31508001C80084A126842F002021A6005E0054B054A46
S31508001C90126822F002021A600C37BD465DF8047B12
S31508001CA0704700BF10E000E00000000000000000E0
S31508001CB080B400AF044B044A526842F080525A601E
S31508001CC0BD465DF8047B704700ED00E000000000AB
S31508001CD080B483B000AF0F4B5B68C3F308037B6027
S31508001CE07B680E2B02D00F2B07D00DE0094B094A53
S31508001CF0526842F000625A6006E0064B054A52688E
S31508001D0042F000725A6000BF0C37BD465DF8047B8E
S31508001D10704700BF00ED00E0000000000000000072
S31508001D2080B400AFBD465DF8047B70470000000034
S31508001D3080B500AF00F04CFB80BD00BF000000007E
S31508001D4080B582B000AF00F0DBF802460C4BA3FB6F
S31508001D5002139B097B600B4B7A6822F07F42013A9B
S31508001D605A604FF0FF300F21FFF702FF054B0022A4
S31508001D709A60044B07221A600837BD4680BD00BF2B
S31508001D80D34D621010E000E00000000000000000E3
S31508001D9080B400AFBD465DF8047B704700000000C4
S31508001DA080B582B000AF786000F012F8FFF7C0FF88
S31508001DB0FFF7C6FFFFF7ECFF0837BD4680BD00BF3B
S31508001DC062B6704700000000000000000000000036
S31508001DD0EFF3108080F0010072B67047184600BF16
S31508001DE0EFF3108080F001007047184600000000ED
S31508001DF080B483B000AF78607B68002B01D062B6F0
S31508001E0000E072B60C37BD465DF8047B704700BF2C
S31508001E1080B487B000AF786000237B617B681F2B96
S31508001E2012D87B68012202FA03F33B61134B1A6846
S31508001E303B691340002B0CBF00230123DBB27B61F7
S31508001E400E4B3A691A6012E07B68203B012202FABF
S31508001E5003F3FB60094B5A68FB681340002B0CBF61
S31508001E6000230123DBB27B61044BFA685A607B6965
S31508001E7018461C37BD465DF8047B704700E100E054
S31508001E8080B487B000AF786000237B617B681F2B26
S31508001E9013D87B68012202FA03F33B61144B1A68D4
S31508001EA03B691340002B0CBF00230123DBB27B6187
S31508001EB00F4B3A69C3F8802013E07B68203B012268
S31508001EC002FA03F3FB600A4B5A68FB681340002BBF
S31508001ED00CBF00230123DBB27B61054BFA68C3F80C
S31508001EE084207B6918461C37BD465DF8047B70471D
S31508001EF000E100E000000000000000000000000013
S31508001F0080B586B000AF3B1D184600F081FC7B68A3
S31508001F1018461837BD4680BD0000000000000000C6
S31508001F2080B584B000AF78607B68FB60F86800F025
S31508001F300FF8B860FB681B68184640F22551002266
S31508001F4001F03EFCBB6818461037BD4680BD00BF91
S31508001F5080B485B000AF78607B68FB60FB681B685F
S31508001F609B899BB21A4640F225531340002B0CBF9F
S31508001F7000230123DBB2BB60BB6818461437BD4695
S31508001F805DF8047B704700BF0000000000000000F9
S31508001F9080B588B000AF786039604FF0FF33FB61D9
S31508001FA07B68BB613B68002B02D1BB6908333B6089
S31508001FB0BB691B681846002101F0B2FB3B68002B81
S31508001FC077D03B681B68BB603B681B79BB813B6865
S31508001FD01B79092B02D00023BB8103E04FF4805301
S31508001FE0BB8100BF3B685B79022B0AD0032B0CD060
S31508001FF0002B03D14FF48053FB810AE00023FB81B9
S3150800200007E04FF44053FB8103E04FF40053FB8194
S3150800201000BF3B689B79012B08D0022B02D0002316
S315080020203B8207E04FF4C0633B8203E04FF48063D2
S315080020303B8200BF3B68DB79022B0AD0032B0CD00E
S31508002040012B02D00023BB820BE04FF48073BB82C6
S3150800205007E04FF40073BB8203E04FF44073BB8282
S3150800206000BF0C237B82BB691A6807F10803104678
S31508002070194601F0F5F9BB691B681846012101F0FC
S315080020804FFBBB691B795BB218460C49BA6901F06C
S31508002090AFFEBB691B795BB21846FFF7B9FEBB6991
S315080020A01B68184640F22551012201F089FB0023DE
S315080020B0FB61FB6918462037BD4680BD2123000811
S315080020C080B483B000AF78607B6818460C37BD468D
S315080020D05DF8047B704700BF0000000000000000A8
S315080020E080B485B000AF786039607B68FB60FB68B8
S315080020F03A689A613B6818461437BD465DF8047B12
S31508002100704700BF0000000000000000000000004B
S3150800211080B485B000AF786039607B68FB60FB6887
S315080021203A68DA613B6818461437BD465DF8047BA1
S31508002130704700BF0000000000000000000000001B
S3150800214080B485B000AF78607B68FB60FB689B69EC
S3150800215018461437BD465DF8047B7047000000003A
S3150800216080B485B000AF78607B68FB60FB68DB698C
S3150800217018461437BD465DF8047B7047000000001A
S3150800218080B485B000AF78607B68FB60FB681B791C
S315080021905BB218461437BD465DF8047B704700BF2E
S315080021A080B485B000AF78607B68FB60FB685B69CC
S315080021B018461437BD465DF8047B704700000000DA
S315080021C080B485B000AF786039607B68FB60FB68D7
S315080021D03A685A61FB685B6918461437BD465DF86C
S315080021E0047B7047000000000000000000000000AB
S315080021F080B485B000AF78607B68FB60FB681B68BD
S315080022001B889BB203F08003002B0CBF002301231D
S31508002210DBB2FB72FB7A18461437BD465DF8047BC1
S31508002220704700BF0000000000000000000000002A
S3150800223080B487B000AF78607B687B617B691B6878
S315080022401B889BB23B613B6903F02003002B0CBF44
S3150800225000230123DBB2FB73FB7B18461C37BD4604
S315080022605DF8047B704700BF000000000000000016
S3150800227080B485B000AF786039607B68FB60FB6826
S315080022801B683A6892B29A803B6818461437BD466E
S315080022905DF8047B704700BF0000000000000000E6
S315080022A080B485B000AF78607B68FB60FB681B680C
S315080022B09B889BB218461437BD465DF8047B704769
S315080022C080B485B000AF78607B68FB60FB681B68EC
S315080022D0FA681268928992B242F0800292B29A81A2
S315080022E01437BD465DF8047B704700BF0000000048
S315080022F080B485B000AF78607B68FB60FB681B68BC
S31508002300FA681268928992B222F0800292B29A8191
S315080023101437BD465DF8047B704700BF0000000017
S3150800232090B585B000AF03463960FB713B68FB602A
S31508002330FB681B7997F907205BB29A4243D119E0EB
S31508002340FB689C69F868FFF7ABFF0346DBB22046DB
S31508002350194601F075FE0346002B05D1FB685B693B
S3150800236043F01002FB685A61FB685B6943F001029F
S31508002370FB685A61F868FFF75BFF0346002BDFD15D
S31508002380FB68DB69184601F013FE0346002B0FD1E4
S31508002390F868FFF72DFF0346002B09D0FB68DB69B9
S315080023A0184601F08DFE0346F8681946FFF760FFE8
S315080023B0FB68DB69184601F0FBFD0346002B02D0DB
S315080023C0F868FFF795FF1437BD4690BD000000007A
S315080023D080B500AF194B194A126842F001021A601B
S315080023E0164A164B5968164B0B405360134A134B43
S315080023F01B6823F0847323F4803313600F4B0F4A52
S31508002400126822F480221A600C4B0C4A526822F495
S31508002410FE025A60094B094A126822F0A0521A6055
S31508002420064B4FF47F029A60044B0022DA6200F0F2
S31508002430AFF8044B4FF000629A6080BD001002406E
S315080024400000FFF000ED00E00000000000000000C2
S3150800245080B489B000AF0023BB610023FB61002371
S315080024607B6100233B610023FB600023BB600023E4
S315080024707B60414B5B6803F00C03BB61BB69042BB3
S3150800248007D0082B09D0002B5ED13C4B3C4A1A607A
S315080024905EE03A4B3B4A1A605AE0374B5B6803F4F6
S315080024A07013FB61344B5B6803F480337B61FB6913
S315080024B09B0CFB61FB690D2B03D0FB690233FB61A7
S315080024C001E00623FB617B69002B06D1FB692E4AD6
S315080024D002FB03F2294B1A6035E0274BDB6A03F44B
S315080024E080333B61244BDB6A03F00F030133FB6047
S315080024F03B69002B09D1234AFB68B2FBF3F3FA695F
S3150800250002FB03F21D4B1A601DE01B4BDB6A03F04E
S31508002510F0031B090133BB60174BDB6A03F47063D6
S315080025201B0A02337B60174ABB68B2FBF3F37A686F
S3150800253002FB03F2FB68B2FBF3F3FA6902FB03F250
S315080025400E4B1A6004E003E00C4B0D4A1A6000BFFC
S31508002550094B5B6803F0F0031B090C4AD35CDBB23A
S31508002560BB61064B1A68BB69DA40044B1A6024370C
S31508002570BD465DF8047B704700100240A4040020A5
S3150800258000127A0040787D0100093D00A804002069
S3150800259080B500AF00F004F880BD00BF0000000061
S315080025A080B483B000AF00237B6000233B60474BB9
S315080025B0464A126842F480321A60444B1B6803F498
S315080025C000333B607B6801337B603B68002B03D19B
S315080025D07B68B3F5A06FF0D13C4B1B6803F400335E
S315080025E0002B02D001233B6001E000233B603B68DF
S315080025F0012B66D1364B364A126842F010021A6031
S31508002600334B334A126822F003021A60304B304AC1
S31508002610126842F002021A602C4B2C4A52685A6021
S315080026202A4B2A4A52685A60284B284A526842F46A
S3150800263080625A60254A254BD96A264B0B40D362DD
S31508002640224A224BDB6A43F4833343F04403D362C2
S315080026501E4B1E4A126842F080621A6000BF1B4B6E
S315080026601B6803F00063002BF9D0184B174A526811
S3150800267022F47C125A60154B144A526842F4E81246
S315080026805A60124B114A126842F080721A6000BFF3
S315080026900E4B1B6803F00073002BF9D00B4B0B4A4B
S315080026A0526822F003025A60084B084A526842F000
S315080026B002025A6000BF054B5B6803F00C03082B47
S315080026C0F9D10C37BD465DF8047B7047001002400F
S315080026D00020024000F0FEFF00000000000000009D
S315080026E080B582B000AF78607B68002B0CD07B6821
S315080026F0B3F5803F08D07B68B3F5802F04D0154822
S3150800270040F21111FFF764FA134B134A126822F4C8
S3150800271080321A60104B104A126822F480221A601E
S315080027207B68B3F5803F03D0B3F5802F07D00DE063
S31508002730094B094A126842F480321A6006E0064BD1
S31508002740054A126842F4A0221A6000BF0837BD463F
S3150800275080BD00BFF04100080010024000000000E4
S3150800276080B582B000AF00233B600023FB710023D5
S31508002770BB71312000F0DCF90346BB713B680133BD
S315080027803B603B68B3F5A06F02D0BB79002BF0D055
S31508002790312000F0CDF90346002B02D00123FB714E
S315080027A001E00023FB71FB7918460837BD4680BD5A
S315080027B080B584B000AF78600023FB607B68002B8F
S315080027C00AD07B68012B07D07B68022B04D00B4804
S315080027D04FF40E71FFF7FCF9094B5B68FB60FB6869
S315080027E023F00303FB60FA687B681343FB60044B22
S315080027F0FA685A601037BD4680BD00BFF041000830
S315080028000010024000000000000000000000000068
S3150800281080B48BB000AF786000233B6200237B62F4
S315080028200023FB610023BB6100237B6100233B611E
S315080028300023FB600023BB60624B5B6803F00C035C
S315080028403B623B6A042B07D0082B09D0002B5ED1CC
S315080028507B685D4A1A605EE07B685C4A1A605AE0EB
S31508002860584B5B6803F470137B62564B5B6803F442
S315080028708033FB617B6A9B0C7B627B6A0D2B03D0E2
S315080028807B6A02337B6201E006237B62FB69002BCD
S3150800289006D17B6A4E4A02FB03F27B681A6035E072
S315080028A0484BDB6A03F480337B61464BDB6A03F0F3
S315080028B00F0301333B617B69002B09D1434A3B690E
S315080028C0B2FBF3F37A6A02FB03F27B681A601DE037
S315080028D03C4BDB6A03F0F0031B090133FB60394B01
S315080028E0DB6A03F470631B0A0233BB60374AFB6872
S315080028F0B2FBF3F3BA6802FB03F23B69B2FBF3F3EC
S315080029007A6A02FB03F27B681A6004E003E07B68DC
S315080029102D4A1A6000BF2B4B5B6803F0F0033B623D
S315080029203B6A1B093B622B4A3B6A13441B78DBB2A2
S31508002930BB617B681A68BB69DA407B685A60214BC1
S315080029405B6803F4E0633B623B6A1B0A3B62214A0D
S315080029503B6A13441B78DBB2BB617B685A68BB6968
S31508002960DA407B689A60174B5B6803F460533B62F6
S315080029703B6ADB0A3B62174A3B6A13441B78DBB2A5
S31508002980BB617B685A68BB69DA407B68DA600D4BC5
S315080029905B6803F440433B623B6A9B0B3B620E4A0F
S315080029A03B6A13441B78DBB2BB617B68DA68BB6998
S315080029B0B2FBF3F27B681A612C37BD465DF8047BDF
S315080029C0704700BF0010024000127A0040787D016F
S315080029D000093D00B8040020C804002000000000DB
S315080029E080B582B000AF78600B46FB707B6823F435
S315080029F0E83323F05703002B02D17B68002B04D160
S31508002A00114840F22B41FFF7E3F8FB78002B07D07B
S31508002A10FB78012B04D00C4840F22C41FFF7D8F87C
S31508002A20FB78002B06D0094B084A51697A680A4395
S31508002A305A6106E0054B054A51697A68D2430A404D
S31508002A405A610837BD4680BDF041000800100240B3
S31508002A5080B582B000AF78600B46FB707A68154B7C
S31508002A601340002B02D17B68002B04D1124840F298
S31508002A704A41FFF7ADF8FB78002B07D0FB78012B0E
S31508002A8004D00D4840F24B41FFF7A2F8FB78002B23
S31508002A9006D00A4B094A91697A680A439A6106E0A0
S31508002AA0064B064A91697A68D2430A409A61083702
S31508002AB0BD4680BD0200C0FFF0410008001002407C
S31508002AC080B582B000AF78600B46FB707A68154B0C
S31508002AD01340002B02D17B68002B04D1124840F228
S31508002AE06941FFF775F8FB78002B07D0FB78012BB7
S31508002AF004D00D4840F26A41FFF76AF8FB78002BCC
S31508002B0006D00A4B094AD1697A680A43DA6106E0AF
S31508002B10064B064AD1697A68D2430A40DA61083711
S31508002B20BD4680BD00360181F04100080010024014
S31508002B3080B586B000AF0346FB710023FB60002317
S31508002B407B610023FB74FB79212B28D0FB79312B81
S31508002B5025D0FB79392B22D0FB79412B1FD0FB7965
S31508002B603B2B1CD0FB793D2B19D0FB79612B16D05A
S31508002B70FB797A2B13D0FB797B2B10D0FB797C2B36
S31508002B800DD0FB797D2B0AD0FB797E2B07D0FB79FC
S31508002B907F2B04D0174840F23451FFF719F8FB7918
S31508002BA05B09DBB2FB60FB68012B03D1124B1B6888
S31508002BB07B6109E0FB68022B03D10F4B1B6A7B6123
S31508002BC002E00D4B5B6A7B61FB7903F01F03FB6038
S31508002BD0FB6801229A407B691340002B02D001232F
S31508002BE0FB7401E00023FB74FB7C18461837BD46CE
S31508002BF080BD00BFF0410008001002400000000040
S31508002C0080B584B000AF786039600023FB817A68AC
S31508002C10674B9A4243D07B68B3F1804F3FD07A68BE
S31508002C20644B9A423BD07A68634B9A4237D07A68AB
S31508002C30624B9A4233D07A68614B9A422FD07A68AF
S31508002C40604B9A422BD07A685F4B9A4227D07A68B3
S31508002C505E4B9A4223D07A685D4B9A421FD07A68B7
S31508002C605C4B9A421BD07A685B4B9A4217D07A68BB
S31508002C705A4B9A4213D07A68594B9A420FD07A68BF
S31508002C80584B9A420BD07A68574B9A4207D07A68C3
S31508002C90564B9A4203D05648E721FEF799FF3B6800
S31508002CA05B88002B13D03B685B88102B0FD03B68E2
S31508002CB05B88202B0BD03B685B88402B07D03B6892
S31508002CC05B88602B03D04A48E821FEF781FF3B6802
S31508002CD0DB88002B0DD03B68DB88B3F5807F08D0F6
S31508002CE03B68DB88B3F5007F03D04148E921FEF74E
S31508002CF06FFF7B681B88FB817A682D4B9A4213D03D
S31508002D007A68314B9A420FD07B68B3F1804F0BD06B
S31508002D107A68284B9A4207D07A68274B9A4203D09A
S31508002D207A68264B9A4208D1FB8923F07003FB8107
S31508002D303B685A88FB891343FB817A68204B9A4281
S31508002D400CD07A681F4B9A4208D0FB8923F440734B
S31508002D50FB813B68DA88FB891343FB817B68FA8928
S31508002D601A803B689A887B689A853B681A887B68CC
S31508002D701A857A680E4B9A420FD07A68124B9A4295
S31508002D800BD07A68174B9A4207D07A68164B9A4244
S31508002D9003D07A68154B9A4204D13B681B7A1A46C7
S31508002DA07B681A867B6801229A821037BD4680BDE9
S31508002DB0002C01400004004000080040000C0040C0
S31508002DC0001000400014004000340140004C01404F
S31508002DD0005001400054014000180040001C00400B
S31508002DE000200040004001400044014000480140E6
S31508002DF0B0420008000000000000000000000000CB
S31508002E0080B584B000AF7860396000237B810023E9
S31508002E10FB810023BB817A68904B9A423CD07B6841
S31508002E20B3F1804F38D07A688D4B9A4234D07A689D
S31508002E308C4B9A4230D07A688B4B9A422CD07A685F
S31508002E408A4B9A4228D07A68894B9A4224D07A6863
S31508002E50884B9A4220D07A68874B9A421CD07A6867
S31508002E60864B9A4218D07A68854B9A4214D07A686B
S31508002E70844B9A4210D07A68834B9A420CD07A686F
S31508002E80824B9A4208D07A68814B9A4204D081488C
S31508002E904FF48E71FEF79CFE3B681B88002B18D0FA
S31508002EA03B681B88102B14D03B681B88202B10D03E
S31508002EB03B681B88302B0CD03B681B88602B08D0DE
S31508002EC03B681B88702B04D0724840F21D11FEF730
S31508002ED07FFE3B685B88002B08D03B685B88012B2C
S31508002EE004D06C484FF48F71FEF772FE3B681B895D
S31508002EF0002B08D03B681B89022B04D0654840F29A
S31508002F001F11FEF765FE7B681B8C9BB223F001033D
S31508002F109AB27B681A847B681B8CFB817B689B88CA
S31508002F20BB817B681B8B7B817B8923F070037B814C
S31508002F307B8923F003037B813B681A887B891343CB
S31508002F407B81FB8923F00203FB813B681A89FB8995
S31508002F501343FB813B685A88FB891343FB817A68D4
S31508002F603E4B9A420FD07A68404B9A420BD07A6809
S31508002F70454B9A4207D07A68444B9A4203D07A68FE
S31508002F80434B9A4259D13B689B88002B08D03B6833
S31508002F909B88042B04D03F484FF49E71FEF718FE19
S31508002FA03B685B89002B08D03B685B89082B04D0FB
S31508002FB0384840F23D11FEF70BFE3B68DB89B3F556
S31508002FC0007F08D03B68DB89002B04D031484FF4DA
S31508002FD09F71FEF7FDFD3B689B89B3F5807F08D09E
S31508002FE03B689B89002B04D02A4840F23F11FEF724
S31508002FF0EFFDFB8923F00803FB813B685A89FB89AF
S315080030001343FB81FB8923F00403FB813B689A8801
S31508003010FB891343FB81BB8923F48073BB81BB897E
S3150800302023F40073BB813B689A89BB891343BB8130
S315080030303B68DA89BB891343BB817B68BA899A8066
S315080030407B687A891A833B68DA887B689A867B6804
S31508003050FA891A841037BD4680BD00BF002C01408E
S315080030600004004000080040000C00400034014005
S31508003070004C014000500140005401400018004037
S31508003080001C004000200040004001400044014070
S3150800309000480140B042000800000000000000009F
S315080030A080B483B000AF78607B6800221A807B68A2
S315080030B000225A807B6800229A807B680022DA8088
S315080030C07B6800221A817B6800225A817B6800226D
S315080030D09A817B680022DA810C37BD465DF8047B4D
S315080030E0704700BF0000000000000000000000005C
S315080030F080B582B000AF78600B46FB707A68354BB6
S315080031009A4244D07B68B3F1804F40D07A68324BFC
S315080031109A423CD07A68314B9A4238D07A68304B1A
S315080031209A4234D07A682F4B9A4230D07A682E4B1E
S315080031309A422CD07A682D4B9A4228D07A682C4B22
S315080031409A4224D07A682B4B9A4220D07A682A4B26
S315080031509A421CD07A68294B9A4218D07A68284B2A
S315080031609A4214D07A68274B9A4210D07A68264B2E
S315080031709A420CD07A68254B9A4208D07A68244B32
S315080031809A4204D0234840F22931FEF721FDFB7804
S31508003190002B07D0FB78012B04D01E4840F22A31B9
S315080031A0FEF716FDFB78002B08D07B681B889BB2C0
S315080031B043F001039AB27B681A8007E07B681B8894
S315080031C09BB223F001039AB27B681A800837BD4682
S315080031D080BD00BF002C01400004004000080040EC
S315080031E0000C00400010004000140040003401406C
S315080031F0004C0140005001400054014000180040B6
S31508003200001C0040002000400040014000440140EE
S3150800321000480140B042000800000000000000001D
S3150800322080B582B000AF78600B46FB707A68354B84
S315080032309A4244D07B68B3F1804F40D07A68324BCB
S315080032409A423CD07A68314B9A4238D07A68304BE9
S315080032509A4234D07A682F4B9A4230D07A682E4BED
S315080032609A422CD07A682D4B9A4228D07A682C4BF1
S315080032709A4224D07A682B4B9A4220D07A682A4BF5
S315080032809A421CD07A68294B9A4218D07A68284BF9
S315080032909A4214D07A68274B9A4210D07A68264BFD
S315080032A09A420CD07A68254B9A4208D07A68244B01
S315080032B09A4204D0234840F28451FEF789FCFB78F1
S315080032C0002B07D0FB78012B04D01E4840F285510D
S315080032D0FEF77EFCFB78002B08D07B681B889BB228
S315080032E043F080039AB27B681A8007E07B681B88E4
S315080032F09BB223F080039AB27B681A800837BD46D2
S3150800330080BD00BF002C01400004004000080040BA
S31508003310000C00400010004000140040003401403A
S31508003320004C014000500140005401400018004084
S31508003330001C0040002000400040014000440140BD
S3150800334000480140B04200080000000000000000EC
S3150800335080B584B000AF78600B467B800023FB8184
S315080033607A682E4B9A423CD07B68B3F1804F38D0AE
S315080033707A682B4B9A4234D07A682A4B9A4230D0D4
S315080033807A68294B9A422CD07A68284B9A4228D0D8
S315080033907A68274B9A4224D07A68264B9A4220D0DC
S315080033A07A68254B9A421CD07A68244B9A4218D0E0
S315080033B07A68234B9A4214D07A68224B9A4210D0E4
S315080033C07A68214B9A420CD07A68204B9A4208D0E8
S315080033D07A681F4B9A4204D01E4840F2E951FEF71C
S315080033E0F7FB7B88082B07D07B88002B04D019486D
S315080033F040F2EA51FEF7ECFB7B681B8BFB81FB89ED
S3150800340023F00803FB81FA897B881343FB817B68D9
S31508003410FA891A831037BD4680BD00BF002C0140CB
S315080034200004004000080040000C00400034014041
S31508003430004C014000500140005401400018004073
S31508003440001C0040002000400040014000440140AC
S3150800345000480140B04200080000000000000000DB
S3150800346080B58CB000AF786039600023FB6200231A
S31508003470BB6200237B6200233B620023FB617A6800
S315080034809D4B9A4213D07A689C4B9A420FD07A6821
S315080034909B4B9A420BD07A689A4B9A4207D07A6825
S315080034A0994B9A4203D09948B821FEF791FB3B689D
S315080034B01B68002B04D03B681A68954B9A4203D9BF
S315080034C09248B921FEF784FB3B689B88002B08D0FD
S315080034D03B689B88B3F5805F03D08C48BA21FEF71A
S315080034E077FB3B68DB88002B12D03B68DB88B3F59B
S315080034F0805F0DD03B68DB88B3F5005F08D03B687A
S31508003500DB88B3F5405F03D08048BB21FEF760FB3C
S315080035103B681B89002B0DD03B681B89B3F5806F70
S3150800352008D03B681B89B3F5C06F03D07748BC2128
S31508003530FEF74EFB3B685B891A464FF6F37313405A
S31508003540002B03D13B685B89002B03D16F48BD2153
S31508003550FEF73EFB3B689B89002B12D03B689B8994
S31508003560B3F5807F0DD03B689B89B3F5007F08D003
S315080035703B689B89B3F5407F03D06448BE21FEF7BC
S3150800358027FB3B689B89002B0FD07A685A4B9A42D7
S315080035900BD07A68594B9A4207D07A68584B9A42A8
S315080035A003D05A48C221FEF713FB7B68FB617B6890
S315080035B01B8A9BB2FB62FA6A4CF6FF731340FB62E6
S315080035C03B68DB88FA6A1343FB62FB6A9AB27B683C
S315080035D01A827B689B899BB2FB62FA6A4EF6F313E2
S315080035E01340FB623B689A883B681B8913439AB26F
S315080035F03B685B8913439BB2FA6A1343FB62FB6A17
S315080036009AB27B689A817B689B8A9BB2FB62FA6A4C
S315080036104FF6FF431340FB623B689B89FA6A1343E4
S31508003620FB62FB6A9AB27B689A8207F1080318461E
S31508003630FFF7EEF8FA69304B9A4202D17B69BB6212
S3150800364001E03B69BB627B689B899BB29BB21BB25C
S31508003650002B0CDABA6A13469B0013449A001A44E4
S315080036603B681B685B00B2FBF3F37B620BE0BA6A4C
S3150800367013469B0013449A001A443B681B689B0038
S31508003680B2FBF3F37B627A6A224BA3FB02135B0954
S315080036901B01FB62FB6A1B09642202FB03F37A6ABD
S315080036A0D31A3B627B689B899BB29BB21BB2002BE9
S315080036B00DDA3B6ADB0003F13202164BA3FB021359
S315080036C05B0903F00703FA6A1343FB620CE03B6AE3
S315080036D01B0103F132020F4BA3FB02135B0903F034
S315080036E00F03FA6A1343FB62FB6A9AB27B681A8174
S315080036F03037BD4680BD00BF003801400044004059
S3150800370000480040004C004000500040704300084C
S3150800371020AA44001F85EB510000000000000000AD
S3150800372080B582B000AF78600B46FB707A681D4B97
S315080037309A4214D07A681C4B9A4210D07A681B4B6E
S315080037409A420CD07A681A4B9A4208D07A68194B72
S315080037509A4204D018484FF4B171FEF739FAFB784B
S31508003760002B07D0FB78012B04D0134840F26311D5
S31508003770FEF72EFAFB78002B08D07B689B899BB254
S3150800378043F400539AB27B689A8107E07B689B8969
S315080037909BB223F400539AB27B689A810837BD46D8
S315080037A080BD00BF0038014000440040004800408A
S315080037B0004C004000500040704300080000000024
S315080037C080B586B000AF786013460A467A807B706B
S315080037D000233B610023FB600023BB6000237B6161
S315080037E07A684B4B9A4214D07A684A4B9A4210D060
S315080037F07A68494B9A420CD07A68484B9A4208D064
S315080038007A68474B9A4204D0464840F28911FEF737
S31508003810DFF97B88282B25D07A8840F227739A42CD
S3150800382020D07A8840F226639A421BD07A8840F2E2
S3150800383025539A4216D07A8840F224439A4211D0E8
S315080038407A8840F646039A420CD07A8840F66A137C
S315080038509A4207D07B88602B04D032484FF4C57152
S31508003860FEF7B6F97B78002B07D07B78012B04D0BE
S315080038702C4840F28B11FEF7ABF97A8840F66A13AA
S315080038809A4210D17A68224B9A420CD07A68214B18
S315080038909A4208D07A68204B9A4204D0214840F2CE
S315080038A08F11FEF795F97B687B617B88DBB25B0934
S315080038B0DBB23B617B8803F01F03FB60FB680122D8
S315080038C002FA03F3BB603B69012B03D17B690C3316
S315080038D07B6109E03B69022B03D17B6910337B616D
S315080038E002E07B6914337B617B78002B06D07B6909
S315080038F07A691168BA680A431A6006E07B697A69C8
S315080039001168BA68D2430A401A601837BD4680BDA6
S31508003910003801400044004000480040004C004088
S31508003920005000407043000800000000000000003E
S3150800393080B485B000AF78607A6813465B0013449C
S31508003940DB00064A1344FB60FB681B68BB60BB6868
S3150800395018461437BD465DF8047B704730440008A6
S3150800396080B586B000AF78603960454B00221A6092
S31508003970FCF776FF7B687B617B69002B5BDB7A69EA
S3150800398013465B001344DB003E4A13443B613B6924
S315080039901B68FB60F868FEF7D3FB0346184600F081
S315080039A0DFFAF868FEF7DCFB0346184600F0D8FA9B
S315080039B0F8680021FEF794FBF8680021FEF7A8FBDB
S315080039C000F0DEF803469BB2184600F099FA034663
S315080039D0F8681946FEF784FB0346002B28D000F04A
S315080039E0BFF803469BB2184600F08AFA0346F86801
S315080039F01946FEF78DFB0346002B0ED0F86800210A
S31508003A00FEF7C6FAF868FEF7CBFB034643F0040355
S31508003A10F8681946FEF7D4FB0DE0F868FEF790FB48
S31508003A200346184600F09CFA154B0C221A6002E071
S31508003A30134B0C221A60FCF73BFF7B69002B0FDB4C
S31508003A403B68002B0CD07869396800F071F803469A
S31508003A50002B05DA786900F01BF84FF0FF337B611D
S31508003A607869FEF72DFB02467B699A4202D078698F
S31508003A7000F00EF87B6918461837BD4680BD00BFB2
S31508003A80080600203044000800000000000000007E
S31508003A9080B586B000AF786000237B61204B00229A
S31508003AA01A60FCF7DDFE7A6813465B001344DB00F8
S31508003AB01C4A13443B613B691B68FB60F868FEF7C8
S31508003AC02FFAF868FEF75CFB03461846FEF7D8F9A6
S31508003AD0F868FEF735FB0346184600F041FAF86821
S31508003AE0FEF73EFB0346184600F03AFAF86800214E
S31508003AF0FEF7F6FAF8680021FEF70AFBF868FEF703
S31508003B004FFB034623F00403F8681946FEF758FBF3
S31508003B10FCF7CEFE7B6918461837BD4680BD00BF48
S31508003B2008060020304400080000000000000000DD
S31508003B3080B584B000AF786039607868FFF7F8FE22
S31508003B40034618463968FEF723FAF860FB681846F4
S31508003B501037BD4680BD00BF000000000000000011
S31508003B6080B400AF4FF400731846BD465DF8047B79
S31508003B70704700BF000000000000000000000000C1
S31508003B8080B400AF4FF400731846BD465DF8047B59
S31508003B90704700BF000000000000000000000000A1
S31508003BA090B589B000AFF860B9607A600023FB6110
S31508003BB0BB68BB6125E0FB681B681846FEF7C0FAC0
S31508003BC00346184600F07CFA78617B69002B16DB01
S31508003BD0FB695A1CFA61BA6913447A69D2B21A7037
S31508003BE0FB681C68FB681B681846FEF7D9FA03468B
S31508003BF043F0010320461946FEF7E2FA01E0FCF716
S31508003C007FFEFA697B689A42D5DBFB69184624373A
S31508003C10BD4690BD00000000000000000000000046
S31508003C2080B586B000AFF860B9607A6000237B6122
S31508003C30BB683B611BE0FB681B681846FEF790FAF9
S31508003C4002467B6939690B441B781046194600F011
S31508003C50F7F90346002B03D07B6901337B6101E04A
S31508003C60FCF74EFEFB681B681846FEF729FB7A69C7
S31508003C707B689A42DFDB7B6918461837BD4680BDEC
S31508003C8080B582B000AF78607B681B681846FEF77F
S31508003C9057FA0346184600F0ABF9034618460837A4
S31508003CA0BD4680BD000000000000000000000000C6
S31508003CB080B582B000AF78607B681B681846FEF74F
S31508003CC04FFA0346184600F093F903461846083794
S31508003CD0BD4680BD00000000000000000000000096
S31508003CE080B582B000AF78607B681B681846FEF71F
S31508003CF057FA034618460837BD4680BD000000003F
S31508003D0080B584B000AF7860174B1B687A689A4212
S31508003D1023DD164B1A687B689B0010461946FDF78B
S31508003D20EFF90246114B1A60104B1B68002B14D092
S31508003D300D4B1B68FB6009E00C4B1A68FB689B007F
S31508003D40134400221A60FB680133FB60FA687B683B
S31508003D509A42F1DB044B7A681A60034B1B681846D3
S31508003D601037BD4680BD00BF300600202C06002057
S31508003D7080B588B000AF0346B9607A60FB7300234C
S31508003D80FB61FEF725F87861154B1B68DBB297F9DE
S31508003D900F205BB29A421ADA124B1A68FB7B9B0019
S31508003DA013441B68BB610FE0BB691A68BB689A427B
S31508003DB007D1BB695A687B689A4202D10123FB6125
S31508003DC005E0BB699B68BB61BB69002BECD17869D0
S31508003DD0FEF70EF8FB6918462037BD4680BD00BFC2
S31508003DE0300600202C06002000000000000000001D
S31508003DF080B588B000AF0346B9607A60FB7397F95F
S31508003E000F301846B9687A68FFF7B2FF0346002BE9
S31508003E1044D1FDF7DDFFB861FB7B01331846FFF798
S31508003E206FFF0246FB7B9A4233DD0C20FDF758F9FB
S31508003E3078617B69002B2CD0786900210C22FDF76C
S31508003E40D7F97B69BA681A607B697A685A60164B33
S31508003E501A68FB7B9B0013441B68002B07D1124B87
S31508003E601A68FB7B9B0013447A691A6011E00E4BB3
S31508003E701A68FB7B9B0013441B68FB6102E0FB6925
S31508003E809B68FB61FB699B68002BF8D1FB697A6923
S31508003E909A60B869FDF7ACFFFB7B01E04FF0FF3392
S31508003EA018462037BD4680BD2C06002000000000BD
S31508003EB080B584B000AF0346FB710D4B1A68FB79D9
S31508003EC09B0013441B68FB600BE0FB681B68FA68E1
S31508003ED0526897F90710084611469847FB689B6889
S31508003EE0FB60FB68002BF0D11037BD4680BD00BFD4
S31508003EF02C06002000000000000000000000000062
S31508003F0080B584B000AF0346FB800C20FDF7E8F8C7
S31508003F10F860FB68002B18D0F86800210C22FDF722
S31508003F2067F9FB881846FDF7DBF80246FB681A6056
S31508003F30FB681B68002B03D0FB68FA889A8004E0AC
S31508003F40F868FDF7EDF80023FB60FB6818461037A4
S31508003F50BD4680BD00000000000000000000000013
S31508003F6080B584B000AF78600023FB737B68002BB4
S31508003F7013D0FDF72DFFB8607B681B68002B04D0B3
S31508003F807B681B681846FDF7CBF87868FDF7C8F814
S31508003F900123FB73B868FDF72BFFFB7B1846103728
S31508003FA0BD4680BD000000000000000000000000C3
S31508003FB080B584B000AF7860FDF70AFFF8607B68CB
S31508003FC0DA887B681B899A4214BF00230123DBB277
S31508003FD0FB72F868FDF70CFFFB7A18461037BD46EA
S31508003FE080BD00BF000000000000000000000000C7
S31508003FF080B584B000AF7860FDF7EAFEB8607B68EC
S31508004000DB881A467B681B89D31AFB60FB68002B82
S3150800401009DA7B689B881A467B681B89D21A7B68F3
S31508004020DB881344FB60B868FDF7E2FEFB681846B8
S315080040301037BD4680BD00BF00000000000000002C
S3150800404080B584B000AF78600B46FB70FDF7C0FE04
S31508004050F8607B68DB881A467B681B89013B9A42B5
S315080040600DD07B68DB881A467B689B88013B9A42A1
S3150800407003D17B681B89002B01D0012300E00023B4
S31508004080FB72FB7A002B13D07B681A687B68DB8887
S31508004090591C88B27968C8801344FA781A707B6804
S315080040A0DA887B689B889A4202D37B680022DA808A
S315080040B0F868FDF79DFEFB7A18461037BD4680BDA9
S315080040C080B584B000AF7860FDF782FEB8604FF027
S315080040D0FF33FB607B68DA887B681B899A4213D0BA
S315080040E07B681A687B681B89591C88B279680881BD
S315080040F013441B78FB607B681A897B689B889A4205
S3150800410002D37B6800221A81B868FDF771FEFB6846
S3150800411018461037BD4680BD0000000000000000AC
S3150800412080B491B000AF78607B681B68FB637B68DE
S315080041305B68BB637B689B687B637B68DB683B6308
S315080041407B681B69FB627B685B69BB627B689B69F2
S315080041507B627B68DB693B620B4B1B68FB610B4B25
S315080041601B68BB610A4B1B687B610A4B1B683B617A
S31508004170094B1B68BB60094B1B68FB6000BE4437D4
S31508004180BD465DF8047B704728ED00E02CED00E0A5
S3150800419030ED00E03CED00E034ED00E038ED00E005
S315080041A004207146084200F00480EFF30980FFF707
S315080041B0B7BFEFF30880FFF7B3BFFFF7F1BF00BF44
S315080041C072770000000000000000000000000000F8
S315080041D07468726561643100000000000000000028
S315080041E00000000043415249424F550000000000BC
S315080041F02F686F6D652F6D696B652F446F63756DDD
S31508004200656E74732F63617269626F752D72746F50
S31508004210732F6272616E636865732F302E392F6350
S31508004220617269626F752F7461726765742F626F48
S315080042306172642F7761766573686172655F636F13
S315080042407265313037765F647038333834382F63A7
S31508004250726F7373776F726B732F2E2E2F2E2E2F0E
S315080042602E2E2F636869702F73746D33322F737413
S315080042706D3332663130332F6C69622F53544D33A8
S3150800428032463130785F5374645065726970685F7E
S315080042904472697665722F7372632F73746D333245
S315080042A0663130785F7263632E6300000000000099
S315080042B02F686F6D652F6D696B652F446F63756D1C
S315080042C0656E74732F63617269626F752D72746F90
S315080042D0732F6272616E636865732F302E392F6390
S315080042E0617269626F752F7461726765742F626F88
S315080042F06172642F7761766573686172655F636F53
S315080043007265313037765F647038333834382F63E6
S31508004310726F7373776F726B732F2E2E2F2E2E2F4D
S315080043202E2E2F636869702F73746D33322F737452
S315080043306D3332663130332F6C69622F53544D33E7
S3150800434032463130785F5374645065726970685FBD
S315080043504472697665722F7372632F73746D333284
S31508004360663130785F74696D2E63000000000000C6
S315080043702F686F6D652F6D696B652F446F63756D5B
S31508004380656E74732F63617269626F752D72746FCF
S31508004390732F6272616E636865732F302E392F63CF
S315080043A0617269626F752F7461726765742F626FC7
S315080043B06172642F7761766573686172655F636F92
S315080043C07265313037765F647038333834382F6326
S315080043D0726F7373776F726B732F2E2E2F2E2E2F8D
S315080043E02E2E2F636869702F73746D33322F737492
S315080043F06D3332663130332F6C69622F53544D3327
S3150800440032463130785F5374645065726970685FFC
S315080044104472697665722F7372632F73746D3332C3
S31508004420663130785F75736172742E630000000020
S3150800443024040020A13B0008213C0008813C000818
S31508004440B13C0008E13C000844040020A13B0008F8
S31508004450213C0008813C0008B13C0008E13C00080A
S3150800446064040020A13B0008213C0008813C0008A8
S31508004470B13C0008E13C0008000000000000000014
S31508004480000000000000000000000000000000001E
S3150800449000100140400000000010014080000000AC
S315080044A00008014001000000001001402000000043
S315080044B0180600200038014025000000802500006D
S315080044C008010000000000000000000000000000D5
S315080044D0000000000044004026000000802500007F
S315080044E008010000000000000000000000000000B5
S315080044F0000000000048004027000000802500005A
S315080045000801000000000000000000000000000094
S31508004510000000000000000000000000000000008D
S31508004520000000000000000000000000000000007D
S315080045300000000000A24A0400000000000000007D
S31508004540010203040607080900000000010203042B
S3110800455001020304060708090204060815
S705080001B140
