S02B00002F686F6D652F6D696B652F446F63756D656E74732F63617269626F752D72746F732F6272616E6368A0
S3150800000000010020C1000008D10A0008410C0008C0
S31508000010410C0008410C0008410C0008410C00087E
S31508000020410C0008410C0008410C0008C10A0008F0
S31508000030410C0008410C0008710700082108000857
S31508000040910A0008910A0008910A0008910A000816
S31508000050910A0008910A0008910A0008910A000806
S31508000060910A0008910A0008910A0008910A0008F6
S31508000070910A0008910A0008910A0008910A0008E6
S31508000080910A0008910A0008910A0008910A0008D6
S31508000090910A0008910A0008910A0008910A0008C6
S315080000A0910A0008910A0008910A0008910A0008B6
S315080000B0910A0008910A0008910A0008910A0008A6
S315080000C072B6294880F30988022080F31488BFF3A2
S315080000D06F8F26482449FA2200F03FF8244825491C
S315080000E0FA2200F03AF824482449254A00F02AF86A
S315080000F024482549002200F030F8244A904724482D
S315080001002449254A904725482549884205D002684A
S31508000110043003B4904703BCF7E7224A904700200F
S3150800012000218646EC46204A9047204820498842C6
S3150800013005D00268043003B4904703BCF7E7BFE76D
S31508000140FEE7FDE7884207D0521A05D0037801304A
S315080001500B700131013AF9D17047884202D002701A
S315080001600130FAE770470000000200200001002075
S315080001700000002000010020F811000800020020FD
S3150800018014020020180200205C040020E110000878
S315080001905C04002000100020410A0008C000000886
S315080001A0C000000861110008E1010008C00000084D
S315080001B0C000000800000000000000000000000069
S315080001C080B582B000AF7860FEE7C0460000000048
S315080001D080B582B000AF7860FEE7C0460000000038
S315080001E080B586B004AF78603960002000F050F919
S315080001F0124A134B134900918021490001910021AD
S315080002000291101C191C0022002300F0D1F90E4A95
S315080002100E4B0F490091802149000191002102915E
S31508000220101C191C0022002300F0C2F900F028F95E
S315080002300023181CBD4602B080BDC046E011000868
S31508000240C101000818020020E8110008D1010008C1
S315080002501803002000000000000000000000000055
S3150800026080B500AF1B4B1B4A126801210A431A606E
S31508000270184B184A5168184A0A405A60154B154ACD
S315080002801168164A0A401A60124B124A1168144A33
S315080002900A401A600F4B0F4A5168124A0A405A60C0
S315080002A00C4B0C4AD26A0F218A43DA62094B094A77
S315080002B0116B0D4A0A401A63064B064A526B012116
S315080002C08A435A63034B00229A6000F011F8BD4630
S315080002D080BDC046001002400CB8FFF8FFFFF6FECE
S315080002E0FFFFFBFFFFFFC0FFACFEFFFF00000000A3
S315080002F080B582B000AF00237B6000233B604E4B85
S315080003004D4A1268802149020A431A604A4B1A6804
S3150800031080239B0213403B607B6801337B603B680C
S31508000320002B04D17A68A023DB009A42EED1424B17
S315080003301A6880239B02134002D001233B6001E028
S3150800034000233B603B68012B39D13C4B11221A60D4
S31508000350394B394A52685A60374B374A52685A609D
S31508000360354B354A5168364A0A405A60324B324A4A
S315080003705268882149030A435A602F4B2E4A12684D
S31508000380802149040A431A60C0462B4B1A68802309
S315080003909B041340F9D0284B274A526803218A4305
S315080003A05A60254B244A526802210A435A60C046BD
S315080003B0214B5A680C231340082BF9D138E01F4B00
S315080003C011221A601C4B1C4A52685A601A4B1A4A68
S315080003D052685A60184B184A5168194A0A405A60B6
S315080003E0154B154A5268A02189030A435A60124BD5
S315080003F0114A1268802149040A431A60C0460E4B06
S315080004001A6880239B041340F9D00B4B0A4A52689A
S3150800041003218A435A60084B074A526802210A4355
S315080004205A60C046044B5A680C231340082BF9D16E
S31508000430BD4602B080BDC046001002400020024002
S31508000440FFFFC0FF000000000000000000000000E1
S3150800045008B500F045FB08BD0000000000000000DC
S3150800046008B500F04DFB08BD0000000000000000C4
S3150800047008B500F055FB08BD0000000000000000AC
S3150800048008B500F06DF908BD000000000000000086
S3150800049010B5041C00F05CFB012000F079FB201C61
S315080004A000F0FEF800F04CFB10BD00000000000054
S315080004B0EFF309807047000000000000000000000C
S315080004C0094A1368984206D1036813600AE01A6855
S315080004D0824203D0131C002BF9D101E002681A608E
S315080004E0002303607047C04618040020000000007F
S315080004F0044A10B5D368041C002B01D0116998472B
S31508000500201C10BD18040020000000000000000098
S3150800051010B50B4C6368002B11D030229B5E002B64
S315080005200DD100F01DFB002809D0636802219A8BC3
S315080005300A439A8301235B422381FFF799FF10BD83
S315080005401804002000000000000000000000000061
S3150800055008B5044B04215B689A8B0A439A83FFF714
S31508000560D7FFFCE718040020000000000000000088
S3150800057038B5041C00F0ECFAA38B04221343A383BA
S31508000580636B051C002B01D0606A9847201CFFF797
S3150800059097FF201C00F064FA201C00F0E9F9281CDB
S315080005A000F0E6FA38BD0000000000000000000078
S315080005B0F0B587B001930EAB04920F1C0022995E2A
S315080005C003900C9D0D9E059100F0C2FA0290002D35
S315080005D016D0341C403C2C19FA21321C281C00F079
S315080005E047FA201C0021402200F042FA019B2362B0
S315080005F0254B636301239F4384239B05A763E3631A
S31508000600224B5F68002F00D11F68482000F020FAAF
S31508000610041E12D00021482200F02AFA002367603F
S31508000620A3839D420DD0AE19331C403BA3602B1CFF
S31508000630403366612361A5610AE00820FFF758FF89
S315080006401BE0134BA3606361124B2361403BA3611C
S31508000650019A0399059B62620C4A2162E383049915
S3150800066013686163002B06D01A68002A01D0131C90
S31508000670FAE71C6001E014602360029800F078FA3B
S31508000680201C07B0F0BDC04651050008180400201C
S3150800069000020020400100200000000000000000C9
S315080006A030B50A4C85B0051C0021201C282200F014
S315080006B0DFF90023009301930295191C1A1C0448BC
S315080006C0FFF776FF606005B030BDC046180400200D
S315080006D0F011000800000000000000000000000003
S315080006E07047000000000000000000000000000045
S315080006F070B5FFF7F5FF164D286800F049F92C6824
S31508000700002C23D0A36822692668934203D962691C
S31508000710934202D808E0012004E0A269042093422B
S3150800072000D90220FFF7E4FEA368E268934201D3EA
S31508000730002A00D1E360A38B5A0705D56B689C4253
S3150800074002D0201CFFF714FF341CD9E770BDC04641
S31508000750180400200000000000000000000000004F
S3150800076008B5FFF7C5FFFFF7D3FEFAE7000000005C
S3150800077000B5EFF309801038F0C044464D4656469A
S315080007805F462038F0C0103880F30988204B802255
S31508000790596892040A435A605968802212050A4326
S315080007A01C4C5A606568FFF783FE1B4963680A6834
S315080007B0A860DA6330229D5E081C221C002D18D121
S315080007C02189013989B2218109B2002911DA2568FE
S315080007D01B68002B00D12B1C998B0624214203D0C1
S315080007E00224A1439983F3E75360D98BDB6B11810C
S315080007F0036053689B6883F30988EFF30980F0C8A0
S31508000800BB46B246A946A046F0C880F3098800BD93
S3150800081000ED00E01804002040040020000000005D
S3150800082000B5EFF309801038F0C044464D465646E9
S315080008305F462038F0C0103880F30988264B80229E
S3150800084059689204114359605968244C0A435A60FE
S315080008506568FFF72DFE01220023A860A069E169FB
S3150800086080185941A061E16161688D6ACE6A5219A2
S3150800087073418A62CB621A4B30200A5E1E68181CC6
S31508000880CE63002A19D12389013B9BB223811BB26F
S31508000890002B12DA25680B1C1B68002B00D12B1CB9
S315080008A09A8B06210A4203D002218A439A83F3E7E8
S315080008B06360DA8BDB6B2281036063689B6883F372
S315080008C00988EFF30980F0C8BB46B246A946A04698
S315080008D0F0C880F3098800BD00ED00E01804002088
S315080008E04004002000000000000000000000000096
S315080008F038B50D1C041CFFF7ABFD25616561FFF7D4
S31508000900AFFD201C38BD00000000000000000000FC
S3150800091070B50C1C061CFFF79BFD0021051C201C4E
S31508000920FFF7E6FFFFF794FDB26B6368944205D1C3
S31508000930B363002B0DD000221A600AE02268002A51
S3150800094000D053606368002B00D01A6000236360F0
S315080009502360FFF785FD237EDA0702D5201C00F009
S315080009607FF8281CFFF77CFD70BD00000000000022
S3150800097010B5041CA16B002903D0201CFFF7C8FF83
S31508000980F8E710BD000000000000000000000000AD
S31508000990F7B5051C00F0A4F8184B01909A69186A77
S315080009A0D969161A24D01A625962002D20D0AC6B68
S315080009B0002C1BD02269002A01D1002313E0002352
S315080009C0B24200D3931B2361002BF6D1A368002BF8
S315080009D003D0281C211CE2689847227E0123910730
S315080009E001D462692261FF186468E1E72D68DCE7D3
S315080009F0019800F085F8381CFEBDC0461804002092
S31508000A007047000000000000000000000000000021
S31508000A107047000000000000000000000000000011
S31508000A20FEE70000000000000000000000000000D3
S31508000A30FEE70000000000000000000000000000C3
S31508000A4008B500F0D5FA08BD000000000000000057
S31508000A5008B500F0FDFA08BD00000000000000001F
S31508000A6008B500F01DFB08BD0000000000000000EE
S31508000A70031C8218002804D0934202D0197001334F
S31508000A80FAE77047000000000000000000000000C0
S31508000A9000B5F0B444464D4656465F46F0B4064B9C
S31508000AA05868C0B2103800F053F9F0BCBB46B246DD
S31508000AB0A946A046F0BC00BD00ED00E0000000001D
S31508000AC07047000000000000000000000000000061
S31508000AD07047000000000000000000000000000051
S31508000AE0044B022118681A6880078A43C00F1A60E7
S31508000AF07047C04610E000E000000000000000005B
S31508000B00054B02221968002801D00A4301E09143E7
S31508000B100A1C1A607047C04610E000E0000000009A
S31508000B20034B8022596852050A435A607047C046EB
S31508000B3000ED00E0000000000000000000000000DA
S31508000B4062B67047000000000000000000000000C8
S31508000B5002B40121EFF31080484002BC72B6704718
S31508000B6002B40121EFF31080484002BC7047000030
S31508000B70002801D062B600E072B670470000000097
S31508000B8000B589B001A800F06BF8019809B000BD5E
S31508000B9008B5FFF7DDFFFFF7F3FFFA21890000F03C
S31508000BA005FB084B084A01385860106AC021000244
S31508000BB0000A09060143116200229A6007221A6098
S31508000BC008BDC04610E000E000ED00E000000000AF
S31508000BD003688EB000934368019383680293C368E1
S31508000BE00393036904934369059383690693C36969
S31508000BF007930A4B1B680893094B1B680993094B13
S31508000C001B680A93084B1B680B93084B1B680D93CC
S31508000C10074B1B680C9300BE0EB0704728ED00E02A
S31508000C202CED00E030ED00E03CED00E034ED00E0B6
S31508000C3038ED00E0000000000000000000000000A1
S31508000C4004207146084202D0EFF30980C0E7EFF3AB
S31508000C500880BDE7F4E7000000000000000000007F
S31508000C6070B5334D0C236A68041C1340042B01D05D
S31508000C70082B02D02F4B236012E06E686B68B60211
S31508000C80360F0236D90302D42B4B5E4307E0E96AD6
S31508000C900F2319400131274800F088FA4643266099
S31508000CA06A68264B1206120F20689A5C011CD1400E
S31508000CB061600A1C69684905490F5B5CDA40A260F5
S31508000CC02B6BD90501D41E4B06E0194B5B685904FA
S31508000CD001D4530800E09308E3602B6B590601D44E
S31508000CE0184B01E080231B0223612B6BD90602D423
S31508000CF0104B636100E060612D6B03230C491D42B4
S31508000D0001D1A26112E00A6B1A40012A01D1A06141
S31508000D100CE00A6B1A40022A02D180231B0204E067
S31508000D200A6B1340032B01D1024BA36170BDC04669
S31508000D300010024000127A0000093D00000200205F
S31508000D40809FD5001280000000000000000000000F
S31508000D5038B5074B82001B68051CD458002C05D0F3
S31508000D6061682368281C9847A468F7E738BDC04619
S31508000D7044040020000000000000000000000000FD
S31508000D8010B500290BD0C368CA1A120992B213B259
S31508000D90002B04DB1024015F101C994200DC01487B
S31508000DA000B210BDFFFF00000000000000000000B8
S31508000DB0C317DB0E1B180A4A5B119B00104004D5AB
S31508000DC02022013852421043013000B201225B58FA
S31508000DD08240101C1840431E9841C0B27047C04656
S31508000DE01F00008000000000000000000000000056
S31508000DF010B5002921DB0024005F88421DDD0F485D
S31508000E00084004D520240138644220430130CC1719
S31508000E10E40E61184911890000B25218002B06D059
S31508000E2001238340181C13681843106005E001234A
S31508000E308340181C13688343136010BD1F0000808D
S31508000E40F0B589B00791018A0022071C0591019225
S31508000E50019A059953019BB200930DB21BB2AB429E
S31508000E6030DA3968DB105B580291013326D0009AD4
S31508000E700799002453189BB206930699A3B25A18E9
S31508000E8011B20491A94216DA009A9B189BB20393F1
S31508000E901E1C049B30B298420BDA002806DBA842D7
S31508000EA004DA0299FFF784FF002804D10136B6B2A6
S31508000EB0EFE7039807E00134202CDED101990131D0
S31508000EC00191C5E7014800B209B0F0BDFFFF000077
S31508000ED0F7B5071C0D1E1EDB1023C65E0024B142A3
S31508000EE01ADA0194019B9CB223B2EB18B34213DAC7
S31508000EF0201C4019013400B2A4B27968002803DA2C
S31508000F00019B01330193EDE7B042F9DAFFF750FF91
S31508000F100028F5D000E0002420B2FEBD0000000045
S31508000F20F7B5041C0D1C01922DD41022835E8B424A
S31508000F3029DD0026019A33B2934217DA019B271C52
S31508000F4010377119013B626809B2381C9E4201D1FB
S31508000F50012300E00023FFF74BFF711909B2381C83
S31508000F6022680123FFF744FF0136E3E71022A35E58
S31508000F70AB4203DDE3682D015D1900E00025019809
S31508000F80FFF73EFD00E00025281CFEBD000000001E
S31508000F90F7B5051C0E1C009221D41021435E0020D3
S31508000FA0041CB3421CDD0099A2B28A4212DA9219D5
S31508000FB02F1C13B21037191C0193381C2A680023FA
S31508000FC0FFF716FF381C01996A680023FFF710FF20
S31508000FD00134E8E7081CFFF71BFD012000E00020AC
S31508000FE0FEBD000000000000000000000000000038
S31508000FF070B5144D041C0E1C286800211422FFF736
S3150800100037FD301B410ACA00801A2B68000980B2D6
S31508001010188200B2C217D20E121889005211081986
S31508001020920092B241181A811C605860D960201C3F
S315080010300021FFF71DFD2B68002158681A89FFF764
S3150800104017FD70BD1002002000000000000000001F
S31508001050F8B5041E1FD00F2505406B1E9D410309D8
S31508001060ED18FFF775FD0D4BADB21F682DB2291CA3
S31508001070061C381CFFF7E4FE011E05DB381C2A1C7B
S31508001080FFF74EFF041C03E0201CFFF7D1FC0024E9
S31508001090301CFFF76DFD201CF8BDC046100200206D
S315080010A0F8B5061CFFF754FD0C4B071C1D68311CD0
S315080010B0281CFFF765FE041E09D0211C281CFFF713
S315080010C007FF211C021C281CFFF762FF02E0301CE8
S315080010D0FFF7A6FC381CFFF74BFDF8BD10020020F1
S315080010E008B5FFF7BDF8164B16495A690A435A61FF
S315080010F0DA6915490A43DA6199699422D2010A43E1
S315080011009A619022A023D2059B05104913600023FB
S315080011109380916090218905D16013620C495362CE
S315080011200C4A136093809160D360136253620A4A33
S31508001130136093809160D3601362536208BDC04602
S31508001140001002400100460002082010AAAAAA962A
S31508001150AAAAAAAA00040048001400480000000031
S3150800116070470000000000000000000000000000BA
S31508001170CA1751408B1A17D0C1174A4004B44840C1
S31508001180411A48081A0000E052008242FCD90020A1
S3150800119000E05208914200D3891A40419A42F8D198
S315080011A004BC5040801A7047002070470A000FD0D0
S315080011B00300400800E052008242FCD9002000E00B
S315080011C05208934200D39B1A40418A42F8D170478D
S315080011D0002070470000000000000000000000002A
S315080011E0746872656164310074687265616432009E
S30D080011F043415249424F5500E4
S315080011F800000000010203040102030406070809A7
S309080012084804002068
S705080000C131
