:020000040800F2
:1000000000010020B10100081114000831030008AC
:1000100031030008310300083103000831030008F0
:1000200031030008310300083103000801140008FF
:100030003103000831030008A1070008E1070008A8
:10004000E1130008E1130008E1130008E1130008C0
:10005000E1130008E1130008E1130008E1130008B0
:10006000E1130008E1130008E1130008E1130008A0
:10007000E1130008E1130008E1130008E113000890
:10008000E1130008E1130008E1130008E113000880
:10009000E1130008E1130008E1130008E113000870
:1000A000E1130008E1130008E1130008E113000860
:1000B000E1130008E1130008E1130008E113000850
:1000C000E1130008E1130008E1130008E113000840
:1000D000E1130008E1130008E1130008E113000830
:1000E000E1130008E1130008E1130008E113000820
:1000F000E1130008E1130008E1130008E113000810
:10010000E1130008E1130008E1130008E1130008FF
:10011000E1130008E1130008E1130008E1130008EF
:10012000E1130008E1130008E1130008E1130008DF
:10013000E1130008E1130008E1130008E1130008CF
:10014000E1130008E1130008E1130008E1130008BF
:10015000E1130008E1130008E1130008E1130008AF
:10016000E1130008E1130008E1130008E11300089F
:10017000E1130008E1130008E1130008E11300088F
:10018000E1130008E1130008E1130008E11300087F
:10019000E1130008E1130008E1130008E11300086F
:1001A000E1130008E1130008E1130008E11300085F
:1001B00072B6304880F30988022080F31488BFF3B8
:1001C0006F8F2D482B49FA2200F04CF82B482C4910
:1001D000FA2200F047F82B482B492C4A00F037F858
:1001E0002B482C49002200F03DF82B4A90472B4821
:1001F0002B492C4A90472C482C49884200F0078014
:100200000268043003B4904703BCFFF7F6BF284AE6
:100210009047002000218646EC46264A9047264813
:100220002649884200F007800268043003B49047F2
:1002300003BCFFF7F6BFFFF7BBBFFFF7FEBF00F041
:1002400077B800F075B800F073B800F071B8884264
:1002500007D0521A05D0037801300B700131013AF2
:10026000F9D17047884203D002700130FFF7FABF1E
:100270007047000000020020000100200000002064
:10028000000100200031000800020020B802002018
:10029000B80200206007002041100008600700201D
:1002A00000500020510D0008B0010008B001000806
:1002B0004111000891110008B0010008B0010008C8
:1002C0008EB003680D9343680C9383680B93C368E7
:1002D0000A93036909934369089383690793C36980
:1002E00006930A4B1B680593094B1B680493094B43
:1002F0001B680393084B1B680293084B1B68009311
:10030000074B1B68019300BE0EB0704728ED00E05C
:100310002CED00E030ED00E03CED00E034ED00E0DD
:1003200038ED00E0000000000000000000000000C8
:1003300004207146084200F00480EFF30980FFF7C3
:10034000BFBFEFF30880FFF7BBBFFFF7F1BF00BFF0
:1003500008B501F065F808BD0000000000000000CD
:1003600008B501F06DF808BD0000000000000000B5
:1003700008B501F075F808BD00000000000000009D
:1003800008B500F005FA08BD0000000000000000FC
:1003900010B5044601F094F800F0CAFA01F000F933
:1003A000204600F09DF901F083F810BD0000000028
:1003B000EFF30980704700BF00000000000000005C
:1003C000174B1B68174A12685A64B3F938302BBBB5
:1003D000154A1388591E118013F4004F1ED0134B79
:1003E00019680F4B1B6802E022F002021A845B6856
:1003F000002B08BF0B461A8C12F0060FF4D1084AE6
:1004000013605A8C12F4004F02D107490A8002E0AF
:100410000021054A11805A6C024B1A60704700BFD8
:10042000BC020020E0020020C8020020D002002010
:1004300010B50446034B1B6813B1034A1168984773
:10044000204610BDB8020020CC02002000000000B1
:1004500010B500F0E5FF064B1B6823B11A8F14B2EC
:1004600001321A8700E0002400F0EAFF204610BDA8
:10047000BC0200200000000000000000000000009E
:1004800008B50B4B1B688BB1B3F9383073B901F069
:100490001FF858B1064B1B681A8C42F002021A84EE
:1004A0004FF6FF72034B1A80FFF762FF08BD00BFD3
:1004B000BC020020C8020020000000000000000074
:1004C00010B500F0ADFF0A4B1B683BB11A8F11B29B
:1004D000002905DD0C46013A1A8702E0002400E0FD
:1004E000002400F0ADFFFFF7CBFF204610BD00BF9A
:1004F000BC0200200000000000000000000000001E
:100500002DE9F04180460C4600F01AFA06460F46E7
:10051000B8F8203043F00103A8F82030E51706E0D2
:10052000FFF7AEFFB8F8203013F0010F07D03046C8
:10053000394622462B4600F08BF90028F0D0BDE862
:10054000F08100BF0000000000000000000000007B
:1005500008B50146024B1868FFF7D2FF08BD00BF7F
:10056000BC020020000000000000000000000000AD
:1005700008B5044B1B681A8C42F004021A84FFF77A
:100580007FFFFCE7BC02002000000000000000002C
:1005900038B5044600F094FF0546238C43F004036D
:1005A0002384E36B0BB1A06A9847104B1B689C42F5
:1005B00006D163680D4A13606BB100221A600AE02D
:1005C00023680BB162685A6063680BB122681A60D5
:1005D000002363602360204600F01AFC204600F0F0
:1005E00097F9284600F07CFF38BD00BFD0020020FC
:1005F0002DE9F84F82468B4691461F460A9D0B9E79
:1006000000F05EFF8046ADB12846FA21324600F088
:1006100007FDA6F140042C4420460021402200F0B2
:10062000FFFC2762284B63632BF00103A3634FF0A9
:100630000453E363254B1B681BB9254BD3F800B06B
:1006400000E09B46482000F0BBFB044648B1002177
:10065000482200F0E5FCC4F808B00023238425B943
:100660000DE00820FFF7E4FE27E02E44A6F140034A
:10067000E360A66105F140036361E56106E0154BA7
:10068000E360A361144B6361403BE361C4F824A0C1
:10069000A762BDF930306384C4F83C900C4B1A68F3
:1006A00032B153680BB11A46FBE75460226004E094
:1006B000074B1C60002323606360404600F010FF7E
:1006C0002046BDE8F88F00BF71050008BC0200207D
:1006D000D0020020000200204001002000000000A5
:1006E00000B585B000230093019302900448194699
:1006F0001A46FFF77DFF034B186005B05DF804FB59
:100700007C300008BC020020000000000000000057
:100710002DE9F04100F02CFD1A4B1C68002C2ED066
:100720004FF001080227184E204600F011F96568C5
:10073000E3686269934203D9A269934204D80AE04C
:100740004046FFF775FE06E0E269934294BF04203D
:100750003846FFF76DFEE3682269934200D302B981
:100760002361238C03F004039BB22BB133689C42BA
:1007700002D02046FFF70CFF0DB12C46D4E7BDE8B0
:10078000F08100BFD0020020BC0200200000000069
:1007900008B5FFF7BDFFFFF773FEFAE700000000A2
:1007A00000B5EFF3098020E9F00F80F3098800F02D
:1007B0005FFE0A4C2568FFF7FBFDE860FFF700FECF
:1007C0002368DB6883F3098800F06AFEEFF3098091
:1007D000B0E8F00F80F3098800BD00BFBC02002024
:1007E00000B5EFF3098020E9F00F80F3098800F0ED
:1007F0003FFE124C2568FFF7DBFDE8601049D1E9A8
:100800000023013243F10003C1E900232168D1E94B
:100810000C23013243F10003C1E90C23FFF7D0FDA3
:100820002368DB6883F3098800F03AFEEFF3098060
:10083000B0E8F00F80F3098800BD00BFBC020020C3
:10084000C0020020000000000000000000000000C6
:1008500030B452EA030411D0B3F1FF3F08BFB2F144
:10086000FF3F0DD0084C30CC201A65EB01019042BF
:1008700071EB0304B4BF0020012002E0002000E07F
:10088000012030BC704700BFC00200200000000003
:1008900038B504460D46FFF75BFD25616561FFF73E
:1008A0005FFD204638BD00BF0000000000000000D2
:1008B00070B505460C46FFF74BFD06462046002165
:1008C000FFF7E6FFFFF744FD2B6C9C4205D1636800
:1008D0002B646BB100221A600AE023680BB16268D6
:1008E0005A6063680BB122681A600023636023605A
:1008F000FFF736FD237E13F0010F02D0204600F0F3
:1009000087FA3046FFF72CFD70BD00BF00000000E5
:1009100010B50446016C29B12046FFF7C9FF216CD0
:100920000029F9D110BD00BF000000000000000048
:1009300001207047000000000000000000000000DF
:10094000014BD3E900017047C00200200000000005
:100950002DE9F843054600F063FD06461B4BD3E93D
:1009600000231B490C68141B2AD0C1E90023D5E9D8
:100970000C23121943EBE473C5E90C232F6CEFB180
:100980004FF00008C1463B69A3B19C4202D21B1B39
:100990003B610FE0BB682BB128463946FA6898479F
:1009A00008F101083B7E13F0020F12BFC7F8109048
:1009B0007B693B617F68002FE5D101E04FF00008C3
:1009C000304600F03DFD4046BDE8F883C0020020FF
:1009D000D80200200000000000000000000000001D
:1009E00000281CDB104BB3F90030834219DD0346AD
:1009F0000028B8BF00F11F035A110C4B184003D553
:100A0000013860F01F00013000B2012303FA00F04A
:100A100051F8223018420CBF0020012070470020FE
:100A200070470020704700BFF00200201F000080C8
:100A30002DE9F04F83B001902B4BB3F800A00FFAD3
:100A40008AF3002B3CDD294B1E68002200920FFA2E
:100A50008AFA009A13B2002BB8BF1F335B1156F805
:100A60002330B3F1FF3F22D0009B9FB2DDF804801A
:100A7000B84407F1200B1FFA8BFB1FFA88F81FFA06
:100A800088F52BB2534523DA1FFA87F90FFA89F25A
:100A90009A421ADA4C461D4620B23146FFF7A0FFB3
:100AA000B0B90134A4B223B29D42F5DC0DE0009A46
:100AB00002F120039BB200931BB29A45C9DC02E00D
:100AC0004FF6FF7901E04FF6FF790FFA89F008E061
:100AD00008F101081FFA88F80137BFB2BB45CED133
:100AE000E5E703B0BDE8F08FF0020020F40200203B
:100AF0002DE9F041061E19DB0F4B1F883BB29E42C9
:100B000016DA0E4BD3F80080B5B200243FB223B200
:100B10003344BB420DDA0134A4B228B24146FFF798
:100B20005FFF0135ADB20028F1D002E0002400E003
:100B3000002420B2BDE8F081F0020020E402002091
:100B400010B400282ADB174BB3F90030834225DDAF
:100B5000154B034003D5013B63F01F0301339BB2E8
:100B600004460028B8BF00F11F04C4F34F1452B16B
:100B700024B21BB2012202FA03F351F824201A43D3
:100B800041F824200AE024B21BB2012202FA03F346
:100B900051F8242022EA030241F824205DF8044B96
:100BA000704700BFF00200201F000080000000001E
:100BB000034688B10C4A1068181AC0F30F1010F4DD
:100BC000004F0CD1094BB3F9001002B24FF6FF737E
:100BD0009142D8BF184604E04FF6FF7001E04FF68F
:100BE000FF7000B2704700BFE8020020F002002052
:100BF000704700BF0000000000000000000000007F
:100C00002DE9F84F8A46B0F1000B2DDB1F4BB3F9ED
:100C100000305B452BDD00291EDD1FFA8BF404EB51
:100C200001081FFA88F800254F1EDFF86C90184E57
:100C3000BD4220B2D9F800100CBF01220022FFF7FC
:100C40007FFF20B231680122FFF77AFF01350134BE
:100C5000A4B24445ECD10DE00E4B1B6803EB0B1B1B
:100C60005046FFF7C5FF0EE04FF0000B0BE04FF0D2
:100C7000000B08E0054BB3F900305B45D8BF4FF0DF
:100C8000000BEDDDE8E75846BDE8F88FF0020020E4
:100C9000F4020020E8020020E4020020000000002E
:100CA000704700BF000000000000000000000000CE
:100CB0002DE9F84F8B46071E25DB164BB3F90030A4
:100CC000BB4223DD8846002917DD0024DFF848A059
:100CD0002646DFF84890E5192DB22846DAF80010CC
:100CE0003246FFF72DFF2846D9F800103246FFF7AD
:100CF00027FF0134A4B24445EDDB5846FFF7D0FF8F
:100D00000120BDE8F88F0020BDE8F88F0020BDE885
:100D1000F88F00BFF0020020F4020020E40200205F
:100D2000FEE700BF0000000000000000000000001F
:100D3000FEE700BF0000000000000000000000000F
:100D4000FEE700BF000000000000000000000000FF
:100D500070B5091A4C0AA1EBC402134B1A60C2F316
:100D60000F1312490B801BB2002BB8BF1F335B114E
:100D70009B000F490B800F4E3060A30018440E4DAE
:100D8000286018440D4B1860002100F049F9084C08
:100D900030680021228800F043F928680021228869
:100DA00000F03EF970BD00BFEC020020F002002010
:100DB000F8020020F4020020E4020020E8020020F3
:100DC00070B50446D8B110F00F0318BF012303EB30
:100DD00010139DB200F074FB064628B2FFF728FE00
:100DE000002804DB29B2FFF70BFF044603E020468E
:100DF000FFF7A6FF0024304600F072FB00E000245D
:100E0000204670BD0000000000000000000000004F
:100E100070B5044600F054FB05462046FFF7C8FEB7
:100E2000064630B1FFF764FE01463046FFF740FF4B
:100E300002E02046FFF774FF284600F051FB70BD2A
:100E40002DE9F04F83B00D460446002800F0818064
:100E500000297AD000F034FB82462046FFF7A8FE36
:100E6000071E69DB15F00F0B18BF4FF0010B0BEBE2
:100E7000151B1FFA8BFB1FFA8BF93846FFF738FE5C
:100E800080460FFA89F3834248DD434BB3F90030C3
:100E9000BB4271DD86B2C6EB0B039BB21AB2002ACD
:100EA0005CDD3E4A126800923E44B6B233449BB2C7
:100EB000019330B20099FFF793FD00285CD1013611
:100EC000B6B2019B9E42F4D148E0994538B2DBF8B6
:100ED00000100CBF01220022FFF732FE38B2D8F812
:100EE00000100122FFF72CFE0135ADB22BB2013705
:100EF000BFB2B342E9DB24E00FFA89F1FFF780FECD
:100F0000054621464FEA081200F062F82C4618E028
:100F100020462946FFF70CFF002412E00FFA89F360
:100F200083420EDA38464146FFF7C2FE38460FFAD2
:100F300089F1FFF765FE04E020462946FFF7F8FE39
:100F40000024504600F0CCFA21E0FFF761FF0024B6
:100F50001DE00846FFF734FF044618E05E46BBF18B
:100F6000000FEED0BFB200252B460BF1FF39DFF8A2
:100F700030B0DFF82880A8E738464146FFF798FEF2
:100F80000FFA89F0FFF754FD0028B5DAC0E72046D4
:100F900003B0BDE8F08F00BFF0020020F402002093
:100FA000E40200200000000000000000000000003B
:100FB00008B5002101F05CFE002805DB00EB4000D5
:100FC000024B03EBC00008BD002008BDA0300008A4
:100FD00030B40546E0B1884201D88AB918E08818D3
:100FE0008542FAD2AC18531E92B10146224611F83E
:100FF000014D02F8014D013BB3F1FF3FF7D107E08E
:101000000A442B4611F8014B03F8014B9142F9D1E8
:10101000284630BC704700BF000000000000000000
:1010200010B4044630B12AB10244034603F8011B50
:101030009342FBD120465DF8044B7047000000004E
:1010400000B587B04FF4803001F08AF801F000FA63
:101050000128FBD101F0CCF801A801F0E1F800F083
:10106000EFFB00F06DFC01A801F0DAF80120014669
:1010700001F036F90120014601F05AF9042001215E
:1010800001F056F90820012101F052F91020012148
:1010900001F04EF92020012101F04AF94020012100
:1010A00001F046F98020012101F042F94FF48070EF
:1010B000012101F03DF94FF48050012101F038F990
:1010C0004FF48040012101F033F94FF40060012119
:1010D00001F02EF94FF40060012101F051F94FF0B9
:1010E0000060012101F04CF94FF08050012101F026
:1010F00047F94FF08040012101F042F90D4A0E4BB3
:1011000013604FF04433536002F580620B49116065
:10111000536002F58062136001F10071516002F5C5
:1011200080621360536002F580621360536007B001
:101130005DF804FB00080140444499924444244271
:1011400008B500200449FFF733FF044B1860044B37
:101150001860044B186008BD9030000800030020A0
:10116000FC0200200403002000000000000000003A
:1011700010B5054C204601F02BFD00F0B9F92046D2
:1011800001F01EFD10BD00BF0002002000000000A5
:1011900010B584B00020FFF7FBF8094B00934FF423
:1011A000007301930024029406480749224623460F
:1011B000FFF71EFAFFF7E4F8204604B010BD00BFA9
:1011C0000803002094300008C1120008000000004D
:1011D00010B5054C204601F0FBFC0220FFF7B8F9E2
:1011E000204601F0EDFC10BD0802002000000000C8
:1011F00008B5024801F0ECFC08BD00BF1002002059
:1012000008B5024801F0DCFC08BD00BF1002002058
:1012100008B5014602484FF4FC72FFF701FF08BD14
:101220005C0500200000000000000000000000003D
:1012300010B50F4C2046212101F032FA2046302112
:1012400001F02EFA2046042101F02AFA204614214A
:1012500001F026FA20460C2101F022FA2046202136
:1012600001F01EFA20460C2101F01AFA10BD00BF51
:1012700000300140000000000000000000000000FD
:1012800008B50B484FF4FC7100F032F85520FFF719
:10129000BFFFFFF79DFFFFF7ABFFFFF7C9FFFFF7AA
:1012A000AFFF00F085F8034801F08AFC08BD00BFDD
:1012B0005C05002018020020000000000000000073
:1012C00008B5FFF7DDFFFFF7DBF8FCE700000000E3
:1012D00008B54FF4007000F053FE18B14FF40070E1
:1012E00000F016FF08BD00BF000000000000000075
:1012F0002DE9F04391B0814688460D202649002211
:1013000001F0EEFB0D2000F0FBF84FF44043ADF888
:101310002C304FF48273ADF82E300024ADF83040FD
:10132000ADF832400125ADF834504FF40073ADF8FC
:1013300036302823ADF83830ADF83A400723ADF801
:101340003C30164E30460BA901F0A2F8144F384637
:1013500000F03EFB134B0093CDF804901023029352
:10136000CDF80C80049480230593069407942023E1
:10137000089309940A943846694600F079FC30468F
:1013800002212A4601F054F93046294601F020F99D
:1013900011B0BDE8F08300BFD11200080030014059
:1013A000300002400C30014000000000000000004E
:1013B00010B5054C20460A21012200F079FD204697
:1013C000012100F015FD10BD3000024000000000BA
:1013D00000B9FEE7704700BF0000000000000000F9
:1013E00000B5F0B42DE9000F044B5868103840B236
:1013F00001F0CEFBBDE8000FF0BC00BD00ED00E049
:10140000704700BF00000000000000000000000066
:10141000704700BF00000000000000000000000056
:10142000044B18681A6822F002021A60C0F34000E8
:10143000704700BF10E000E0000000000000000066
:1014400028B1064B1A6842F002021A607047034B3B
:101450001A6822F002021A60704700BF10E000E034
:10146000024B5A6842F080525A60704700ED00E02B
:101470000A4B5B68C3F308030E2B02D00F2B06D078
:101480007047064B5A6842F000625A607047034B3F
:101490005A6842F000725A60704700BF00ED00E0E9
:1014A000704700BF000000000000000000000000C6
:1014B00062B670470000000000000000000000005D
:1014C000EFF3108080F0010072B67047000000005A
:1014D000EFF3108080F00100704700BF00000000B3
:1014E00008B162B6704772B6704700BF00000000D6
:1014F00030BF704700000000000000000000000046
:101500001F2809D801228240094B19680A420CBFE2
:10151000002001201A607047203801228240044BCD
:1015200059680A420CBF002001205A60704700BF72
:1015300000E100E0000000000000000000000000EA
:101540001F280AD8012282400A4B19680A420CBFA0
:1015500000200120C3F880207047203801228240FB
:10156000044B59680A420CBF00200120C3F88420B4
:10157000704700BF00E100E0000000000000000034
:1015800000B587B001A800F04BFE019807B05DF8E8
:1015900004FB00BF0000000000000000000000008D
:1015A00008B5FFF78DFF00F04BF9FFF7E9FF084B97
:1015B000A3FB002080090138064B5860F021064A41
:1015C00082F8231000229A6007221A6008BD00BF2B
:1015D000D34D621010E000E000ED00E000000000DC
:1015E00003689B8940F225521A420CBF002001205B
:1015F000704700BF00000000000000000000000075
:1016000038B50546FFF7ECFF0446286840F225513F
:10161000002201F08DF9204638BD00BF0000000017
:1016200030B585B004460D46002967D100F10805A4
:10163000006801F03DF9002D5DD02B6800932B79F7
:10164000092B14BF00234FF48053ADF804306B799D
:10165000022B05D0032B08D00023ADF8063008E09C
:101660004FF44053ADF8063003E04FF40053ADF8AB
:101670000630AB79012B07D0022B14BF00234FF4A7
:10168000C063ADF8083003E04FF48063ADF8083074
:10169000EB79022B09D0032B0CD0012B14BF0023B4
:1016A0004FF48073ADF80C3008E04FF40073ADF8E0
:1016B0000C3003E04FF44073ADF80C300C23ADF860
:1016C0000A302068694601F00BF82068012101F01A
:1016D000EFF894F904000D49224601F001FA94F95B
:1016E0000400FFF70DFF206840F22551012201F0B0
:1016F0001FF9002007E04FF0FF3004E000680021F0
:1017000001F0D6F899E705B030BD00BFD117000849
:10171000704700BF00000000000000000000000053
:1017200041610846704700BF000000000000000053
:1017300081610846704700BF000000000000000003
:101740004069704700000000000000000000000039
:1017500080697047000000000000000000000000E9
:1017600090F90400704700BF000000000000000076
:101770000069704700000000000000000000000049
:1017800001610846704700BF000000000000000033
:1017900003681888C0F3C010704700BF0000000045
:1017A00003681888C0F34010704700BF00000000B5
:1017B00003689A8992B242F080029A81704700BF12
:1017C0000268938923F080031B041B0C93817047EC
:1017D00010B50C4691F90430834229D10EE02368FC
:1017E00099886069C9B201F063FB18B9236943F0B5
:1017F00010032361236943F0010323612046FFF7AF
:10180000CFFF0028EBD1A06901F032FB48B9204698
:10181000FFF7BEFF28B1A06901F072FB236880B218
:101820009880A06901F024FB10B12046FFF7C8FFA3
:1018300010BD00BF0000000000000000000000001C
:1018400082B03B4B1A6842F001021A605968394A6B
:101850000A405A601A6822F0847222F480321A60B8
:101860001A6822F480221A605A6822F4FE025A6032
:101870004FF41F029A600022009201921A6842F40B
:1018800080321A601A46136803F400330193009BF8
:1018900001330093019B1BB9009BB3F5A06FF2D1FC
:1018A000234B1B6813F4003F14BF01230023019353
:1018B000019B012B36D1204B1A6842F010021A60AE
:1018C0001A6822F003021A601A6842F002021A60D3
:1018D000A3F580535A685A605A685A605A6842F4AD
:1018E00080625A605A6822F47C125A605A6842F444
:1018F000E8125A601A6842F080721A601A46136839
:1019000013F0007FFBD00A4B5A6822F003025A60A2
:101910005A6842F002025A601A46536803F00C03F8
:10192000082BFAD14FF00062044B9A6002B0704766
:10193000001002400000FFF80020024000ED00E02F
:101940001D4B5B6803F00C03042B06D0082B08D05A
:1019500013BB1A4A1A4B1A6021E0184A184B1A6036
:101960001DE0154B5A685B68C2F38342023213F4E0
:10197000803F05D1134B03FB02F2114B1A600EE0BE
:101980000D4B5B6813F4003F14BF0E4B0B4B03FB76
:1019900002F20B4B1A6002E0084A094B1A60064B30
:1019A0005B68C3F30313084AD15CC9B2044B1A68DD
:1019B000CA401A60704700BF0010024000127A004F
:1019C000A002002000093D0090020020000000005D
:1019D00038B50446974B984200F0848014339842FF
:1019E00000F095801433984200F0A680143398429A
:1019F00000F0B7801433984200F0C8801433984246
:101A000000F0D9801433984200F0EA8003F5627345
:101A1000984200F0FA801433984224D0143398424C
:101A200036D01433984248D0834DA84214BF0025C5
:101A300001252846FFF7CCFC236823F001031B0493
:101A40001B0C2360002323606360A360E360002D10
:101A500000F0EF8003F1804303F501335A6842F44C
:101A600070225A6038BD0120FFF7B2FC734B1A6830
:101A700022F001021204120C1A6000221A605A604D
:101A80009A60DA601C3B5A6842F0F0025A6038BD36
:101A90000120FFF79DFC6A4B1A6822F00102120434
:101AA000120C1A6000221A605A609A60DA60303BA9
:101AB0005A6842F470625A6038BD0120FFF788FC12
:101AC000604B1A6822F001021204120C1A60002204
:101AD0001A605A609A60DA60443B5A6842F4704275
:101AE0005A6038BD0120FFF773FC524B1A6822F090
:101AF00001021204120C1A6000221A605A609A60E5
:101B0000DA60083B5A6842F00F025A6038BD012083
:101B1000FFF75EFC4C4B1A6822F001021204120C13
:101B20001A6000221A605A609A60DA601C3B5A6898
:101B300042F0F0025A6038BD0120FFF749FC434BE8
:101B40001A6822F001021204120C1A6000221A60B4
:101B50005A609A60DA60303B5A6842F470625A60A8
:101B600038BD0120FFF734FC394B1A6822F001021E
:101B70001204120C1A6000221A605A609A60DA602D
:101B8000443B5A6842F470425A6038BD0120FFF766
:101B90001FFC304B1A6822F001021204120C1A606A
:101BA00000221A605A609A60DA60583B5A6842F420
:101BB00070225A6038BD0120FFF70AFC264B1A68D4
:101BC00022F001021204120C1A6000221A605A60FC
:101BD0009A60DA606C3B5A6842F470025A6038BD11
:101BE0000120FFF7F5FB1D4B1A6822F001021204D9
:101BF000120C1A6000221A605A609A60DA60803B08
:101C00005A6842F070625A6038BD0120FFF7E0FB6D
:101C1000134B1A6822F001021204120C1A600022FF
:101C20001A605A609A60DA60083B5A6842F00F0204
:101C30005A6038BD08000240580402401C040240AB
:101C400030040240440402401C00024030000240C4
:101C500044000240580002406C00024080000240F4
:101C60000804024000000000000000000000000026
:101C700038B505460C465B4B984224D01433984245
:101C800023D01433984222D01433984221D01433F5
:101C9000984220D0143398421FD0143398421ED05B
:101CA00003F5627398421CD0143398421BD014334E
:101CB00098421AD01433984219D04B48854214BF29
:101CC0000020012014E0012012E0012010E001209A
:101CD0000EE001200CE001200AE0012008E00120D4
:101CE00006E0012004E0012002E0012000E00120E4
:101CF000FFF76EFBA36833F0100214BF0020012031
:101D0000FFF766FBE06801384FF6FE7398428CBF20
:101D100000200120FFF75CFB236933F0400214BF71
:101D200000200120FFF754FB636933F0800214BFE9
:101D300000200120FFF74CFBA06930F4807305D030
:101D4000B0F5007F14BF0020012000E00120FFF764
:101D50003FFBE06930F4806205D0B0F5006F14BF3E
:101D60000020012000E00120FFF732FB236A33F05E
:101D7000200214BF00200120FFF72AFB606A20F434
:101D80008050B0F5005F04D0D0F1010038BF0020D2
:101D900000E00120FFF71CFBA36A33F4804214BF6C
:101DA00000200120FFF714FB2B6823F4FF4323F0EE
:101DB0007003216AA26811432269114362691143C9
:101DC000A2691143E2691143626A1143A26A0A439C
:101DD00013432B60E3686B602368AB606368EB6060
:101DE00038BD00BF08000240580402400000000057
:101DF00038B504460D46294B984224D014339842F6
:101E000023D01433984222D01433984221D0143373
:101E1000984220D0143398421FD0143398421ED0D9
:101E200003F5627398421CD0143398421BD01433CC
:101E300098421AD01433984219D01948844214BFDA
:101E40000020012014E0012012E0012010E0012018
:101E50000EE001200CE001200AE0012008E0012052
:101E600006E0012004E0012002E0012000E0012062
:101E7000FFF7AEFA012D8CBF00200120FFF7A8FA72
:101E800025B1236843F00103236038BD236823F0A4
:101E900001031B041B0C236038BD00BF0800024077
:101EA0005804024000000000000000000000000094
:101EB00070B504460D4616462C4B984224D0143378
:101EC000984223D01433984222D01433984221D020
:101ED0001433984220D0143398421FD014339842C0
:101EE0001ED003F5627398421CD0143398421BD065
:101EF000143398421AD01433984219D01C488442A3
:101F000014BF0020012014E0012012E0012010E0A5
:101F100001200EE001200CE001200AE0012008E091
:101F2000012006E0012004E0012002E0012000E0A1
:101F30000120FFF74DFA35F00E0303D1281C18BF1E
:101F4000012000E00020FFF743FA012E8CBF0020A3
:101F50000120FFF73DFA1EB123681D43256070BDC7
:101F6000236823EA0505256070BD00BF0800024014
:101F700058040240000000000000000000000000C3
:101F800010B50446431E012B40F29C80042800F04B
:101F9000AD80082800F0AA80102800F0A780202833
:101FA00000F0A480402800F0A180802800F09E80EE
:101FB000B0F5807F00F09A80B0F5007F00F0968049
:101FC000B0F5806F00F09280B0F5006F00F08E8069
:101FD000B0F5805F00F08A80B0F5005F00F0868089
:101FE000B0F5804F00F08280B0F5004F7ED0B0F5A4
:101FF000803F7BD0B0F5003F78D0B0F5802F75D012
:10200000B0F5002F72D0B0F5801F6FD0B0F5001F73
:102010006CD0B0F5800F69D0B0F5000F66D0B0F18C
:10202000807F63D0B0F1007F60D0B0F1806F5DD071
:10203000B0F1006F5AD000F17043013B012B51D930
:102040002C4B98424ED0043398424BD008339842E0
:1020500048D01033984245D02033984242D0403384
:1020600098423FD0803398423CD003F58073984229
:1020700038D003F50073984234D003F5806398425A
:1020800030D0B0F1102F2DD003F5C053984229D095
:1020900003F50053984225D003F58043984221D0A0
:1020A00003F5004398421DD003F58033984219D0C0
:1020B00003F50033984215D00F48844214BF002026
:1020C000012000E00120FFF783F914F0805F02D0C7
:1020D0000A4B1B6801E00A4B1B6823420CBF00201F
:1020E000012010BD0120FFF773F9F1E70120FFF790
:1020F0006FF9F0E70400001000000810000402402F
:10210000000002400000000000000000000000008D
:1021100010B5044610F0704F02D00B4B034013B9BA
:102120006CB1012000E00020FFF752F914F0805F4D
:1021300002D0064B5C6010BD054B5C6010BD0020FA
:10214000FFF746F9F8E700BF0000F0EF0004024097
:10215000000002400000000000000000000000003D
:1021600010B5044628B3B0F5803F2FD0B0F5802FCE
:1021700014BF00200120FFF72BF91B4B1A6822F433
:1021800080321A601A6822F480221A60B4F5803F07
:1021900003D0B4F5802F06D010BD134B1A6842F45B
:1021A00080321A6010BD104B1A6842F4A0221A60E7
:1021B00010BD0120FFF70CF90B4B1A6822F4803296
:1021C0001A601A6822F480221A6010BD0120FFF7FD
:1021D000FFF8054B1A6822F480321A601A6822F45C
:1021E00080221A60D9E700BF001002400000000002
:1021F00010B5044602288CBF00200120FFF7E8F844
:10220000034B5A6822F0030214435C6010BD00BF08
:10221000001002400000000000000000000000006C
:1022200010B4284B5B6803F00C03042B05D0082B7B
:1022300006D0F3B9244B03601DE0234B03601AE082
:10224000204B5A685B68C2F38342023213F4803F2A
:1022500004D11E4B03FB02F202600CE0194B5B68D9
:1022600013F4003F14BF194B174B03FB02F202603B
:1022700001E0154B0360134B5A68C2F30312144973
:102280008A5CD2B2046824FA02F242605C68C4F349
:1022900002240C5DE4B222FA04F484605C68C4F3A6
:1022A000C224095DC9B2CA40C2605B68C3F381330E
:1022B0000849CB5CDBB2B2FBF3F202615DF8044B80
:1022C000704700BF0010024000127A0000093D0074
:1022D000A8020020A402002000000000000000006E
:1022E00038B504460D4620F4AA6323F007031BB952
:1022F000003018BF012000E00020FFF769F8012D31
:102300008CBF00200120FFF763F825B1054B5A6907
:1023100014435C6138BD034B5A6922EA04045C61D2
:1023200038BD00BF001002400000000000000000A7
:1023300038B504460D460E4B03401BB9003018BF9C
:10234000012000E00020FFF743F8012D8CBF0020A2
:102350000120FFF73DF825B1064B9A6914439C61B3
:1023600038BD044B9A6922EA04049C6138BD00BF61
:102370000200C0FF0010024000000000000000004A
:1023800038B504460D460E4B184203D1003018BF35
:10239000012000E00020FFF71BF8012D8CBF00207A
:1023A0000120FFF715F825B1064BDA691443DC610B
:1023B00038BD044BDA6922EA0404DC6138BD00BF91
:1023C0000036018100100240000000000000000003
:1023D00010B5044600F0EF03212B27D0392825D073
:1023E000412827D0612829D0A0F17A03DBB2042B41
:1023F00024D97F2814BF00200120FEF7E9FF6309DC
:10240000012B02D10F4B1A6806E0022B02D10D4BB3
:102410001A6A01E00B4B5A6A04F01F04012303FA05
:1024200004F422420CBF0020012010BD0120FEF761
:10243000CFFFE7E70120FEF7CBFFE8E70120FEF73B
:10244000C7FFE7E7001002400000000000000000A6
:1024500010B582B00023019331242046FFF7B8FF66
:10246000019B01330193019BB3F5A06F01D00028BC
:10247000F3D03120FFF7ACFF003018BF012002B0CD
:1024800010BD00BF000000000000000000000000C0
:1024900038B505460C464B4B984209D0A3F5784316
:1024A000984207D04848854214BF0020012002E02E
:1024B000012000E00120FEF78BFF208820F48063DC
:1024C0009BB243B120F4804080B2B0F5004F14BFFE
:1024D0000020012000E00120FEF77AFF6088B0F5BF
:1024E000827F04D0D0F1010038BF002000E001203D
:1024F000FEF76EFFA08820F4006080B2D0F10100EA
:1025000038BF0020FEF764FFE08820F0020080B2B0
:10251000D0F1010038BF0020FEF75AFF20890128C2
:102520008CBF00200120FEF753FF608920F400706B
:1025300080B2D0F1010038BF0020FEF749FFA0892A
:1025400020F0080080B240B1102808D0202808D020
:10255000302814BF0020012004E0012002E0012007
:1025600000E00120FEF734FFE08920F0800080B217
:10257000D0F1010038BF0020FEF72AFF208A00308A
:1025800018BF0120FEF724FF2A8802F44152618817
:1025900023880B43A1880B43E1880B4321890B431C
:1025A00061890B43A1890B43E1890B4313439BB220
:1025B0002B80AB8B23F400631B041B0CAB83238A9F
:1025C0002B8238BD00300140003C0040000000007C
:1025D00038B504460D46134B984209D0A3F578430D
:1025E000984207D01048844214BF0020012002E026
:1025F000012000E00120FEF7EBFE012D8CBF002042
:102600000120FEF7E5FE2DB123889BB243F0400385
:10261000238038BD238823F040031B041B0C238038
:1026200038BD00BF00300140003C00400000000009
:1026300070B504460D461646174B984209D0A3F5CF
:102640007843984207D01548844214BF00200120E7
:1026500002E0012000E00120FEF7BAFE012E8CBF4F
:1026600000200120FEF7B4FE25F003039BB21BB946
:10267000281C18BF012000E00020FEF7A9FE26B1AB
:10268000A3889BB21D43A58070BDA3889BB223EA9B
:102690000505A58070BD00BF00300140003C004032
:1026A00038B504460D460A4B984209D0A3F5784345
:1026B000984207D00748844214BF0020012002E05E
:1026C000012000E00120FEF783FEA58138BD00BF98
:1026D00000300140003C004000000000000000000D
:1026E00030B587B004460D466A4B984211D0A3F529
:1026F000744398420FD003F5806398420DD003F5E0
:10270000806398420BD06448844214BF00200120AB
:1027100006E0012004E0012002E0012000E00120A9
:10272000FEF756FE286801385C4B98428CBF0020AB
:102730000120FEF74DFEA88820F4805080B2D0F131
:10274000010038BF0020FEF743FEE88820F48050E7
:1027500080B228B1B0F5005F14BF0020012000E076
:102760000120FEF735FE288920F480639BB22BB14F
:10277000B0F5C06F14BF0020012000E00120FEF77B
:1027800027FE688920F00C039BB21BB9003018BFEC
:10279000012000E00020FEF71BFEA88920F48070D5
:1027A00080B228B1B0F5007F14BF0020012000E006
:1027B0000120FEF70DFEAB898BB1364B9C4209D050
:1027C000A3F574439C4207D03548844214BF0020CF
:1027D000012002E0012000E00120FEF7F9FD238A3C
:1027E0009BB223F44053EA8813432382A28992B216
:1027F0002989AB880B4369890B4322F4B05222F03C
:102800000C0213439BB2A381A38A9BB223F44073AF
:10281000AA891343A38201A8FFF702FD1D4B9C4226
:102820000CBF049A039AA3891BB2002B08DA02EBAF
:10283000820202EB82022B685B00B2FBF3F207E03C
:1028400002EB820202EB820229688900B2FBF1F2FC
:10285000144BA3FB02135B091801642103FB112332
:10286000A18909B2002908DADB0032330D4DA5FB3E
:102870000323C3F34213034307E01B013233094D23
:10288000A5FB0313C3F3431303439BB2238107B098
:1028900030BD00BF00380140005000401FAA440076
:1028A000004800401F85EB510000000000000000C0
:1028B00038B504460D46194B984211D0A3F5744320
:1028C00098420FD003F5806398420DD003F58063E2
:1028D00098420BD01248844214BF0020012006E029
:1028E000012004E0012002E0012000E00120FEF7C9
:1028F0006FFD012D8CBF00200120FEF769FD2DB179
:10290000A3899BB243F40053A38138BDA38923F468
:1029100000531B041B0CA38138BD00BF00380140CD
:102920000050004000000000000000000000000017
:1029300070B504460D4616464D4B984211D0A3F58E
:10294000744398420FD003F5806398420DD003F58D
:10295000806398420BD04748844214BF0020012076
:1029600006E0012004E0012002E0012000E0012057
:10297000FEF72EFD282D5CD040F227739D4258D0E3
:1029800040F226639D4254D040F225539D4250D0E0
:1029900040F224439D424CD040F646039D4257D01E
:1029A00040F66A139D4237D0602D14BF00200120ED
:1029B000FEF70EFD012E8CBF00200120FEF708FD62
:1029C000C5F3421305F01F05012202FA05F59342F3
:1029D00013D110E0284B9C4205D02848844214BFF4
:1029E0000020012002E0012000E00120FEF7F0FCC1
:1029F0004FF4806505E00C3404E0022B01D1103463
:102A000000E014341EB123681D43256070BD2368A7
:102A100023EA0505256070BD0120FEF7D9FC012ED3
:102A20008CBF00200120FEF7D3FC114B9C42D1D17A
:102A3000DBE70120FEF7CCFC012E8CBF002001203B
:102A4000FEF7C6FC05F01F05012303FA05F5D2E7E2
:102A50000120FEF7BDFC012E8CBF00200120FEF7F7
:102A6000B7FC05F01F05012303FA05F5C7E700BF12
:102A70000038014000500040004400400048004041
:102A800070B504460D461646FEF71AFD0F4B93F936
:102A90000030A3420FDDE4B20D4B1B6853F8243025
:102AA0005BB11C68AC4202D15968B14207D09B6847
:102AB000002BF6D105E0002404E0002402E001240C
:102AC00000E00024FEF70CFD204670BD5C070020EE
:102AD0005807002000000000000000000000000077
:102AE0002DE9F04706468A469146FFF7C9FF0028C0
:102AF00041D1FEF7E5FC8046F6B23746751C204B07
:102B00001B689D4215DD1F4C2068A900FEF798F94F
:102B1000206070B11A4B1B689D4208DD9C0019486B
:102B2000002102681151013304349D42F9DC144B39
:102B30001D60134B1B689E4219DA0C20FEF740F90A
:102B40000446A0B100210C22FEF76AFAC4F800A0E6
:102B5000C4F804900B4B1B6853F8262012B943F8B5
:102B6000264004E093680BB11A46FBE794604046A8
:102B7000FEF7B6FC01E04FF0FF373846BDE8F087BE
:102B80005C07002058070020000000000000000043
:102B900038B50546C2B2064B1B6853F8224034B123
:102BA0002368284661689847A468002CF8D138BD8E
:102BB0005807002000000000000000000000000096
:102BC00008B503460068998800F0BAF908BD00BF4F
:102BD00008B503460068998800F0BAF908BD00BF3F
:102BE00038B504460025174B1D60FDF731FC04EB9A
:102BF0004404154B53F834402046FEF701FD2046AF
:102C0000FEF7AEFDFEF79CFC2046FEF799FD00F0B6
:102C100017F92046FEF79CFD00F012F920462946E0
:102C2000FEF77EFD20462946FEF782FD2046FEF790
:102C30009FFD20F004012046FEF7A2FDFDF740FCB9
:102C4000284638BDE0020020A03000080000000047
:102C500008B500EB4000034B53F83000FEF7E0FCF2
:102C600008BD00BFA0300008000000000000000008
:102C700070B504460E460022324B1A60FDF7E8FBA1
:102C8000002C59DB04EB44022F4B53F832502846FA
:102C9000FEF756FD00F0D4F82846FEF759FD00F087
:102CA000CFF828460021FEF73BFD28460021FEF71D
:102CB0003FFD202000F0ACF801462846FEF730FD2D
:102CC000E8B1202000F0A4F801462846FEF730FDC8
:102CD00060B128460021FEF7A3FC2846FEF748FD18
:102CE00040F004012846FEF74BFD20E02846FEF7A1
:102CF00027FD00F0A5F80C22124B1A6017E00C22F9
:102D0000104B1A6013E020463146FFF7A1FF002860
:102D100004DA2046FFF764FF4FF0FF342046FEF749
:102D2000F7FCA0420BD02046FFF75AFF07E0FDF763
:102D3000C7FB002EE7D1F1E7FDF7C2FBEEE7204627
:102D400070BD00BFE0020020A030000800000000BD
:102D50002DE9F04105468846171E1ADD0024286833
:102D6000FEF7EEFC00F0CCF800280DDB661C08F83E
:102D700004002C682046FEF7FBFC40F001012046D1
:102D8000FEF7FEFC344601E0FDF77AFBA742E6DCE5
:102D900000E000242046BDE8F08100BF00000000F4
:102DA000F8B505460E46171E11DD00242868FEF70B
:102DB000CFFC315D00F07CF808B1013401E0FDF793
:102DC0005FFB2868FEF7F4FCBC42EFDB00E0002468
:102DD0002046F8BD000000000000000000000000D8
:102DE00008B50068FEF7ACFC00F052F808BD00BF63
:102DF00008B50068FEF7ACFC00F04AF808BD00BF5B
:102E000008B50068FEF7B4FC08BD00BF0000000074
:102E100038B505460C20FDF7D3FF044670B10021FC
:102E20000C22FEF7FDF82846FDF7CAFF206008B126
:102E3000A58003E02046FDF7EBFF0024204638BDC7
:102E400038B5044670B1FEF73BFB0546206808B173
:102E5000FDF7DEFF2046FDF7DBFF2846FEF740FBCF
:102E6000012038BD002038BD000000000000000037
:102E700010B50446FEF724FBE28823899A4214BF6A
:102E800000240124FEF72CFB204610BD00000000AA
:102E900038B50446FEF714FBE38822899D1A02D553
:102EA000A588AA1A9D18FEF71BFB284638BD00BF4F
:102EB00070B504460E46FEF703FBE3882289551ED3
:102EC000AB420AD0A18801398B4208D13AB900241B
:102ED0000EE00023E38001240AE0002408E02268D9
:102EE000591CE180D654E288A3889A42F1D2012489
:102EF000FEF7F6FA204670BD00000000000000005A
:102F000038B50446FEF7DCFA2389E2889A420AD0F3
:102F100021685A1C92B22281CD5CA388934204D8C6
:102F20000023238101E04FF0FF35FEF7D9FA284650
:102F300038BD00BF000000000000000000000000DD
:102F40000161704700000000000000000000000068
:102F500009040161704700BF00000000000000008C
:102F6000286E756C6C2900005F63757272656E74F3
:102F70005F7468726561645F203D202225732220A2
:102F800028307825303858290A0000002D2D2D2DA5
:102F90002D2D2D2D2D2D2D2D0A00000009207468BA
:102FA000726561643A203078253038780A00000074
:102FB0000920706172656E743A2030782530387857
:102FC0000A00000009202020707265763A203078CF
:102FD000253038780A000000092020206E657874BA
:102FE0003A203078253038780A000000090920732B
:102FF000703A203078253038780A00002020737429
:1030000061636B5F6C6F773A203078253038780ACF
:10301000000000002020737461636B5F746F703A6E
:10302000203078253038780A000000002073746161
:10303000636B5F626173653A203078253038780AB7
:103040000000000009202073746174653A20307814
:10305000253032780A000000092020207072696F44
:103060003A203078253032780A00000009202020EC
:103070006E616D653A20222573220A0063617269D0
:10308000626F7500000000000000000000000000FA
:10309000727700006E6F6B69615F3531313000000F
:1030A00020020020512D0008A12D0008E12D00086C
:1030B000F12D0008012E00083C020020512D0008CF
:1030C000A12D0008E12D0008F12D0008012E0008B7
:1030D00058020020512D0008A12D0008E12D000804
:1030E000F12D0008012E0008000000000000000083
:1030F00000000000000000000000000000000000D0
:103100000010014000200000000C014020000000E1
:103110000008014040000000000C01404000000099
:103120000038014025000000802500000801000053
:10313000000000000000000000000000004400400B
:1031400026000000802500000801000000000000AB
:1031500000000000000000000048004027000000C0
:1031600080250000080100000000000000000000B1
:10317000000000000000000000000000000000004F
:10318000000000000000000000000000000000003F
:103190000000000000000000010203040607080907
:1031A00000A24A0402040608000000000102030411
:0831B0000102030406070809EF
:04000005080001B13D
:00000001FF
