S02B00002F686F6D652F6D696B652F446F63756D656E74732F63617269626F752D72746F732F6272616E6368A0
S31508000000000600201102000841140008E106000855
S31508000010E1060008E1060008E1060008E106000816
S31508000020E1060008E1060008E106000831140008A8
S31508000030E1060008E1060008210D0008C10D0008C8
S3150800004011140008111400081114000811140008EE
S3150800005011140008111400081114000811140008DE
S3150800006011140008111400081114000811140008CE
S3150800007011140008111400081114000811140008BE
S3150800008011140008111400081114000811140008AE
S31508000090111400081114000811140008111400089E
S315080000A0111400081114000811140008111400088E
S315080000B0111400081114000811140008111400087E
S315080000C0111400081114000811140008111400086E
S315080000D0111400081114000811140008111400085E
S315080000E0111400081114000811140008111400084E
S315080000F0111400081114000811140008111400083E
S31508000100111400081114000811140008111400082D
S31508000110111400081114000811140008111400081D
S31508000120111400081114000811140008111400080D
S3150800013011140008111400081114000811140008FD
S3150800014011140008111400081114000811140008ED
S3150800015011140008111400081114000811140008DD
S3150800016011140008111400081114000811140008CD
S3150800017011140008111400081114000811140008BD
S3150800018011140008111400081114000811140008AD
S31508000190111400081114000811140008111400089D
S315080001A0111400081114000811140008111400088D
S315080001B030B5002085B000F02BFC00244FF4807584
S315080001C00C4B009322462346019502940A490B4894
S315080001D000F09EFC0A4900912246234609490195EA
S315080001E00294094800F094FC00F00AFC204605B089
S315080001F030BD00BF280C0020610600085015000815
S31508000200280D002071060008581500080000000097
S3150800021072B62E4880F30988022080F31488BFF34B
S315080002206F8F2B482949FA2200F048F829482A49AD
S31508000230FA2200F043F8294829492A4A00F033F8F7
S3150800024029482A49002200F039F8294A9047294ABC
S315080002509047294829492A4A90472A482A498842DC
S3150800026000F007800268043003B4904703BCFFF728
S31508000270F6BF264A9047002000218646EC46244AC7
S31508000280904724482449884200F0078002680430D1
S3150800029003B4904703BCFFF7F6BFFFF7B9BFFFF7F4
S315080002A0FEBFFFF7FCBF884207D0521A05D0037875
S315080002B001300B700131013AF9D17047884203D0F9
S315080002C002700130FFF7FABF70470000000C0020EB
S315080002D00006002000000020000600207015000817
S315080002E0000C0020280C0020280C00206C0E002092
S315080002F0A1090008910400086C0E002000000220E5
S31508000300C10F0008B0010008B00100084106000846
S31508000310B1010008B0010008B001000800000000A3
S31508000320394A3A4BD2F88810394841F47001C2F874
S3150800033088101968002241F0010119609A6019684D
S3150800034021F0847121F4803119605860196882B0EF
S3150800035021F480211960DA60009201921A6842F449
S3150800036080321A601A4603E0009BB3F5A06F09D0E5
S31508000370136803F400330193009B01330093019B38
S31508000380002BF1D0214B1B6813F4003318BF01234F
S315080003900193019B012B05D01B4B4FF000629A601D
S315080003A002B07047194B1B4A186C1B4940F0805025
S315080003B01864106840F4404010609A689A609A6819
S315080003C042F400429A609A6842F4A0529A605960D0
S315080003D01A6842F080721A6019460B680B4A9B012C
S315080003E0FBD50E4B40F205711960936823F00303A1
S315080003F09360936843F002039360936803F00C03D9
S31508000400082BFAD1C8E700BF00ED00E0003802402B
S31508000410103000240070004008544007003C024099
S31508000420164B9A6802F00C02042A24D0082A0AD02D
S31508000430134A124B13489968134BC1F30311415CD5
S31508000440CA401A607047586859685B6842024CBFD0
S315080004500E4A0B4A01F03F01C3F38813B2FBF1F2CF
S3150800046002FB03F2054B5B68C3F3014301335B00F0
S31508000470B2FBF3F2DDE7054ADBE700BF00380240CE
S315080004800024F400000C0020100C002000127A0052
S315080004902DE9F04F012085B000F032F900F060FA3E
S315080004A001280446FAD100F043F9684600F058F9E5
S315080004B0FFF736FFFFF7B4FF684600F051F921460B
S315080004C04FF4804000F0E4F921464FF0606000F0F8
S315080004D08FF921464FF0805000F08AF920462146D0
S315080004E000F086F92146022000F082F92146042010
S315080004F000F07EF92146082000F07AF921461020FE
S3150800050000F076F92146202000F072F921464020B5
S3150800051000F06EF92146802000F06AF921464FF472
S31508000520807000F065F92146102000F0B1F92146E7
S315080005304FF4003000F084F921464FF4802000F093
S315080005407FF921464FF4001000F052F921464FF486
S31508000550800000F04DF921464FF4805000F048F92C
S31508000560DFF8D480DFF8D4C02C4F2D4E2D4D2E4CFD
S315080005702E482F4900234FF0284A4FF0C8494FF418
S31508000580207BC022C8F800A0C8F80430C8F8083094
S31508000590C8F80C90C8F82030C8F82430CCF800B059
S315080005A0CCF80430CCF80820224A4FF4807A4FF46D
S315080005B08819CCF80CA0CCF82030CCF824303B6055
S315080005C07B60BB60FB603B627B6233607360B360D9
S315080005D0F360336273622B606B60AB60EB602B6217
S315080005E06B6223606360A360E360236263620360F7
S315080005F043608360C360036243620B604B608B6039
S31508000600CB600B624B62C2F8009053609360D36074
S315080006101362536205B0BDE8F08F00BF00080240C0
S31508000620000C02400010024000140240001802406C
S31508000630001C024000200240000002400004024064
S31508000640704700BF00000000000000000000000026
S31508000650704700BF00000000000000000000000016
S31508000660FEE700BF000000000000000000000000D8
S31508000670FEE700BF000000000000000000000000C8
S315080006802DE9F00190E800118FB0114BC269876817
S31508000690C668056944698169CDF80080CDF804C04B
S315080006A00297039604950594069107921A6808928C
S315080006B05A6809929A680A925A690B92DA680D92F0
S315080006C010331B680C9300BE0FB0BDE8F0017047ED
S315080006D028ED00E000000000000000000000000017
S315080006E004207146084200F00480EFF30980FFF702
S315080006F0C7BFEFF30880FFF7C3BFFFF7F1BF00BF1F
S31508000700012810B5044609D9431F5842584100F03C
S3150800071077FE034B00221A701C7010BD0120F6E705
S31508000720023802400000000000000000000000003F
S31508000730022810B504468CBF0020012000F060FE98
S31508000740034B9A6822F0030214439C6010BD00BF55
S315080007500038024000000000000000000000000011
S315080007601F4A936803F00C03042B10B41BD0082B04
S315080007701CD01C4B03601A491B4A8C68C4F303142B
S31508000780145DE34043608C68C4F38224145D23FA45
S3150800079004F4846089685DF8044BC1F34231525C05
S315080007A0D340C3607047114B0360E4E7546851684F
S315080007B0526863024CBF0D4B0A4B01F03F01C2F36E
S315080007C08812B3FBF1F303FB02F3054A5268C2F33E
S315080007D0014201325200B3FBF2F30360CBE700BFDC
S315080007E0003802400024F400140C002000127A009D
S315080007F038B50E4B034004460D468BB9003018BF7A
S31508000800012000F0FDFD012D8CBF0020012000F025
S31508000810F7FD074B1A6B2DB922EA04041C6338BD91
S315080008200020EEE714431C6338BD00BF00EE8B8141
S315080008300038024000000000000000000000000030
S3150800084038B50E4B034004460D468BB9003018BF29
S31508000850012000F0D5FD012D8CBF0020012000F0FD
S31508000860CFFD074B1A6C2DB922EA04041C6438BD67
S315080008700020EEE714431C6438BD00BF00360109AA
S3150800088000380240000000000000000000000000E0
S3150800089038B50E4B034004460D468BB9003018BFD9
S315080008A0012000F0ADFD012D8CBF0020012000F0D5
S315080008B0A7FD074B5A6C2DB922EA04045C6438BDBF
S315080008C00020EEE714435C6438BD00BFCC80C8FF47
S315080008D00038024000000000000000000000000090
S315080008E000F0EF03212B10B5044620D039281ED07E
S315080008F0412828D0612820D0A0F17903062B1CD9DD
S31508000900B0F13B035842584100F07AFD6309012BC8
S3150800091010D0022B14D10E4B1A6F012304F01F04BA
S3150800092003FA04F422420CBF0020012010BD012066
S3150800093000F066FD064B1A68EFE7012000F060FD3F
S31508000940034B5A6FE9E7012000F05AFDE3E700BFC1
S31508000950003802400000000000000000000000000F
S3150800096000B583B00023019300E048B93120FFF7B2
S31508000970B7FF019B01330193019BB3F5A06FF4D137
S315080009803120FFF7ADFF003018BF012003B05DF836
S3150800099004FB00BF0000000000000000000000008B
S315080009A0064A074BD2F8881041F47001C2F888103D
S315080009B05A6842F040425A60704700BF00ED00E0B6
S315080009C030EF00E00000000000000000000000001A
S315080009D000F03EBD0000000000000000000000001E
S315080009E000F046BD00000000000000000000000006
S315080009F000F04EBD000000000000000000000000EE
S31508000A0000F086B9000000000000000000000000A9
S31508000A1010B5044600F04CFD012000F051FD2046BB
S31508000A2000F00EF9BDE8104000F03ABD00000000E5
S31508000A30EFF30980704700BF0000000000000000C7
S31508000A4010B50B4C636813B1B3F9303003B110BD60
S31508000A5000F056FD0028FAD063689A8B42F002022D
S31508000A609A834FF6FF732381BDE81040FFF7C0BF96
S31508000A70280E002000000000000000000000000012
S31508000A8008B5044B5B689A8B42F004029A83FFF719
S31508000A90D7FFFCE7280E0020000000000000000039
S31508000AA038B5044600F004FDA28B636B42F00402DD
S31508000AB00546A2830BB1606A9847114B1A6894429F
S31508000AC01BD04AB113689C4213D02BB11A689442C2
S31508000AD010D01346002BF9D100232360204600F0DE
S31508000AE07FFA204600F0FCF92846BDE8384000F0B9
S31508000AF00FBD134622681A60EEE722681A60EDE712
S31508000B00280E002000000000000000000000000081
S31508000B102DE9F04F83B082460C9CBDF938900192BE
S31508000B208B461E4600F0C4FC0746F4B10D9BA3F1A4
S31508000B30440504EB05081A46FA21204600F058FA3F
S31508000B4000214422404600F053FA2BF001033548B1
S31508000B50C8F824604FF004516FF00202C8F83C3020
S31508000B60C8F83800C8F840106251DFF8BC80D8F8D9
S31508000B700420002A42D01546482000F029FA834668
S31508000B8098B34822002100F033FA0022CBF804502B
S31508000B90ABF81C20002C34D00D9DCBF8184025440A
S31508000BA0A5F1440104F14402CBF81450CBF808101F
S31508000BB0CBF81020D8F80020019DCBF820A0CBF860
S31508000BC02460ABF81E90CBF83450174B0AB924E0D2
S31508000BD01A461368002BFBD1C2F800B0384600F05D
S31508000BE097FC584603B0BDE8F08FD8F80C300E4A8B
S31508000BF0002BF3D0116908209847EFE7D8F8005082
S31508000C00BAE70A490A4ACBF810104439CBF8181043
S31508000C10CBF80820CBF81420CCE7C3F800B0CBF803
S31508000C200020DBE7810A0008280E00204406002081
S31508000C30000C00200000000000000000000000007A
S31508000C4030B50A4C85B0054600212046282200F01A
S31508000C50CFF9002319460295009301931A460448D2
S31508000C60FFF756FF606005B030BD00BF280E0020B4
S31508000C7064150008000000000000000000000000E5
S31508000C80F8B5214EFFF7E4FC306800F039F934680E
S31508000C90002C38D0A368226925689342374619D8AC
S31508000CA0F2681AB1012039699047A368E2689A4246
S31508000CB020D8FAB1A38B5B0705D57368A34202D087
S31508000CC02046FFF7EDFEF5B12C46A3682269256894
S31508000CD09342E5D962699342E8D9A2699342F268D8
S31508000CE00AD9002AE2D0022039699047A368E26847
S31508000CF09A42DED9E360DDE7002AD7D004203969B5
S31508000D009047A368D2E7F8BD280E0020000000002F
S31508000D1008B5FFF7B5FFFFF793FEFAE700000000F6
S31508000D20EFF3098020E9F00F1EF0100F01D120ED36
S31508000D30108A40F804ED80F309881E4B1E4C5A6849
S31508000D4066681E4D42F000625A60FFF771FE6268DF
S31508000D502B68B2F93010B060D36329B92389013BF7
S31508000D609BB223811B0410D4936883F30988EFF39D
S31508000D70098050F804EB1EF0100F01D1B0EC108A70
S31508000D80B0E8F00F80F309887047206802E021F088
S31508000D90020199831368002B08BF03461A46998BEC
S31508000DA011F0060FF3D1DA6BD98B2A6063602181C3
S31508000DB01A46D9E700ED00E0280E0020500E002064
S31508000DC0EFF3098020E9F00F1EF0100F01D120ED96
S31508000DD0108A40F804ED80F30988264B264D5A6898
S31508000DE0D5F80480254E42F000725A60FFF720FEBF
S31508000DF06C68B4F93070C8F80800D5E90601D4E97A
S31508000E000A23013041F10001013243F10003C4E92C
S31508000E100A233368E363C5E906012FB92B89013B29
S31508000E209BB22B811B0410D4A36883F30988EFF3C4
S31508000E30098050F804EB1EF0100F01D1B0EC108AAF
S31508000E40B0E8F00F80F309887047296802E022F0BD
S31508000E5002029A832368002B08BF0B461C469A8B0E
S31508000E6012F0060FF3D1D98BDA6B6B6029813260E9
S31508000E70DAE700BF00ED00E0280E0020500E002043
S31508000E80F8B50C460646FFF7A3FD00250746FFF70B
S31508000E909FFD25616561FFF7A3FDFFF799FDB36B1C
S31508000EA09C4216D023680BB162685A60626802B128
S31508000EB01360002363602360FFF792FD237EDB0740
S31508000EC002D5204600F08CF83846BDE8F840FFF712
S31508000ED087BD6368B363002BEED01D60ECE700BFE7
S31508000EE0816B10B5044629B12046FFF7C9FFA16BEF
S31508000EF00029F9D110BD00BF000000000000000065
S31508000F002DE9F843804600F0A3FA1C49D1E90623E7
S31508000F100E6A961B81462BD0C1E90823B8F1000F4B
S31508000F2026D00027D8F838403CB91CE09B1B236123
S31508000F304BB1646800231D44ACB12369002BF8D07B
S31508000F409E42F3D92761A3681BB140462146E26851
S31508000F509847237E9B075CBF636923616468012306
S31508000F601D44002CE9D1D8F80080B8F1000FD9D17A
S31508000F70484600F07DFA2846BDE8F883280E00208A
S31508000F80704700BF000000000000000000000000DD
S31508000F90704700BF000000000000000000000000CD
S31508000FA0FEE700BF0000000000000000000000008F
S31508000FB0FEE700BF0000000000000000000000007F
S31508000FC000F086B9000000000000000000000000E4
S31508000FD000F0AEB9000000000000000000000000AC
S31508000FE000F0D6B900000000000000000000000074
S31508000FF038B132B1C9B20244034603F8011B934221
S31508001000FBD170470000000000000000000000004F
S315080010100D4B002800EA03030246B8BF00F11F0281
S31508001020002B4FEA62120ADB51F822201BB201217B
S3150800103001FA03F313420CBF002001207047013B5D
S3150800104063F01F030133EFE71F0000800000000074
S31508001050144B0340002B10B41EDB0028B8BF1F300A
S315080010609BB2C0F34F1000B21BB2012452B951F81B
S31508001070202004FA03F322EA030241F820205DF84F
S31508001080044B704751F8202004FA03F31A4341F839
S3150800109020205DF8044B7047013B63F01F030133C2
S315080010A0DBE700BF1F000080000000000000000012
S315080010B02DE9F04F83B0B1F10009824601923BDD7C
S315080010C0002200921346002BB8BF1F3343F34F1379
S315080010D05AF82330013327D0009B019E9DB22E4437
S315080010E005F12008B6B21FFA88F80FFA86FBD9452B
S315080010F014DDAFB23BB25B4520DA3C4604E001346E
S31508001100A4B223B29B4519DD002BF8DB9945184696
S315080011105146F4DDFFF77CFF0028F0D00135ADB26B
S315080011200136A845B6B2E0D1009A02F120039BB277
S3150800113000931BB24B45C6DB4FF6FF7738B203B0B8
S31508001140BDE8F08F0000000000000000000000006D
S315080011502DE9F843B2F1000980461FDBB1F90070AA
S31508001160B9451BDA1FFA89F5002401E00135ADB24D
S3150800117020B200EB09060134BE422BB2A4B20EDA45
S31508001180002BD8F80010F1DB9F421846EEDDFFF77A
S315080011903FFF0028EAD020B2BDE8F8830020BDE86A
S315080011A0F88300BF000000000000000000000000F7
S315080011B02DE9F84FB1F10009074690464ADBB0F928
S315080011C01030994546DA002A40DD1FFA89F404EB07
S315080011D0020B1FFA8BFB02F1FF3A002609E0002DED
S315080011E001DB9D422CDB0134A4B25C4506F1010605
S315080011F01CD0564525B27968F1D1002DF3DB9D4206
S31508001200F1DA28460122FFF723FF3B8A1BB29D42EB
S315080012103968E8DA013428460122A4B2FFF718FF34
S315080012205C45B7F9103006F10106E2D199450DDBA8
S315080012304FF000094046FFF7A3FE4846BDE8F88F81
S3150800124028460022FFF704FF3B8ADFE7FB6803EB2B
S315080012500919EFE74FF000094846BDE8F88F00BFC7
S3150800126000292DE9F0410746904625DBB0F91030F4
S315080012708B4221DD002A22DD8EB2002505E00135EC
S31508001280ADB20136A845B6B219DD34B2002C3968BC
S31508001290F5DBB7F91030A342F1DD20460022FFF74F
S315080012A0D7FEB7F910307968A34220464FF00002FE
S315080012B0E5DDFFF7CDFEE2E70020BDE8F081404618
S315080012C0FFF766FE0120BDE8F08100BF00000000C0
S315080012D070B5154D04460E46286800211422FFF7FE
S315080012E087FE311B480AA1EBC001C1F30F110AB2F0
S315080012F0002A2B68B8BF1F3280005211198292004B
S31508001300211892B208441A811C60D8605960204698
S315080013100021FFF76DFE2B68002158681A89BDE881
S315080013207040FFF765BE00BF240C002000000000D7
S31508001330F8B50446E0B110F00F0218BF012202EB1F
S31508001340101600F0B5F80E4BB6B21D6836B2B5F9F0
S315080013501010074632462868FFF7AAFE011E09DB69
S3150800136028463246FFF724FF0446384600F0D0F8F0
S315080013702046F8BD2046FFF71BFE0024F5E700BF10
S31508001380240C0020000000000000000000000000FF
S3150800139070B5054600F08CF8164B06461C6855B124
S315080013A0E168691AC1F30F110BB2002B03DBB4F91C
S315080013B010209A4212DC4FF6FF752DB22A4604F128
S315080013C01001201DFFF7C4FE294602462046FFF7F6
S315080013D047FF3046BDE8704000F09AB839B928464C
S315080013E0FFF7DEFD3046BDE8704000F091B80D46C7
S315080013F0E3E700BF240C0020000000000000000006
S31508001400704700BF00000000000000000000000058
S3150800141000B5F0B42DE9000F044B5868103840B2F7
S3150800142000F07EF8BDE8000FF0BC00BD00ED00E05E
S31508001430704700BF00000000000000000000000028
S31508001440704700BF00000000000000000000000018
S31508001450044B18681A6822F00202C0F340001A60AA
S31508001460704700BF10E000E0000000000000000028
S31508001470054B1A6818B922F002021A60704742F042
S3150800148002021A60704700BF10E000E0000000008A
S31508001490024B5A6842F080525A60704700ED00E0ED
S315080014A062B670470000000000000000000000005F
S315080014B0EFF3108080F0010072B67047000000005C
S315080014C030B585B0FFF7F4FF6846FFF749F9009A8B
S315080014D00849094B094CA1FB02029209013AF02579
S315080014E0002007215A6084F823509860196005B0D7
S315080014F030BD00BFD34D621010E000E000ED00E003
S31508001500EFF3108080F00100704700BF0000000074
S3150800151008B972B6704762B6704700BF000000008F
S3150800152038B5074BC2B21B6853F82240054634B19A
S315080015302368616828469847A468002CF8D138BD06
S31508001540680E0020000000000000000000000000F7
S31508001550746872656164310074687265616432002A
S311080015600000000043415249424F55006C
S315080015700000000000000000010203040607080935
S31508001580007A030A000000000102030401020304B2
S30D0800159006070809540E0020A5
S70508000211DF
